0200000014540882810000002517202210270039580021356691470010000000129134471100000001120020221101SCORPION  SL-30975760000221027BALOYI R                      000002000000145408828104                                  21SCORPION  SL-309757600000CPQXF                                                                            
0200000014540882810000002517202210270039580021356692198765000000112838837500000001120020221101SCORPION  SL-24635190000221027GUMBI S                       000002000000145408828104                                  21SCORPION  SL-246351900000CPQXG                                                                            
0200000014540882810000002517202210270039580021356693470010000000146504653200000001030020221101SCORPION  SL-20405685000221027MAUPYE M                      000002000000145408828104                                  21SCORPION  SL-204056850000CPQXH                                                                            
0200000014540882810000002517202210270039580021356694470010000000146504653200000001030020221101SCORPION  SL-20405685000221027MAUPYE M                      000002000000145408828104                                  21SCORPION  SL-204056850000CPQXI                                                                            
0200000014540882810000002517202210270039580021356695632005000003807867091300000000530020221101SCORPION  20453833000000221027MOKWENA J                     000002000000145408828104                                  21SCORPION  204538330000000CPQXJ                                                                            
0200000014540882810000002517202210270039580021356696470010000000138410163000000001120020221101SCORPION  20494837000000221027PILLAY S                      000002000000145408828104                                  21SCORPION  204948370000000CPQXK                                                                            
0200000014540882810000002517202210270039580021356697470010000000133021878500000000560020221101SCORPION  SL-39799390000221027BOOYSEN J                     000002000000145408828104                                  21SCORPION  SL-397993900000CPQXL                                                                            
0200000014540882810000002517202210270039580021356698470010000000138983742200000001030020221101SCORPION  SL-20410156000221027NDLOVU H                      000002000000145408828104                                  21SCORPION  SL-204101560000CPQXM                                                                            
0200000014540882810000002517202210270039580021356699198765000000110411338400000001120020221101SCORPION  SL-63492900000221027LAMOLA M                      000002000000145408828104                                  21SCORPION  SL-634929000000CPQXN                                                                            
0200000014540882810000002517202210270039580021356700198765000000112236757000000001120020221101SCORPION  SL-38768220000221027PHILLIP J                     000002000000145408828104                                  21SCORPION  SL-387682200000CPQXO                                                                            
0200000014540882810000002517202210270039580021356701632005000000910795104200000001120020221101SCORPION  SL-14578710000221027GWADZI T                      000002000000145408828104                                  21SCORPION  SL-145787100000CPQXP                                                                            
0200000014540882810000002517202210270039580021356702198765000000106896441300000001120020221101SCORPION  SL-39004410000221027MAKHUBELA W                   000002000000145408828104                                  21SCORPION  SL-390044100000CPQXQ                                                                            
0200000014540882810000002517202210270039580021356703470010000000123182969700000001030020221101SCORPION  20435652000000221027TSHABALALA DA                 000002000000145408828104                                  21SCORPION  204356520000000CPQXR                                                                            
0200000014540882810000002517202210270039580021356704470010000000124758695000000001120020221101SCORPION  SL-39334620000221027SEJAKE G                      000002000000145408828104                                  21SCORPION  SL-393346200000CPQXS                                                                            
0200000014540882810000002517202210270039580021356705632005000000915354241700000001120020221101SCORPION  SL-30621560000221027MOSHOEU N                     000002000000145408828104                                  21SCORPION  SL-306215600000CPQXT                                                                            
0200000014540882810000002517202210270039580021356706198765000000166637956500000001030020221101SCORPION  SL-36209280000221027TYHEFU M                      000002000000145408828104                                  21SCORPION  SL-362092800000CPQXU                                                                            
0200000014540882810000002517202210270039580021356707198765000000166637956500000001030020221101SCORPION  SL-36209280000221027TYHEFU M                      000002000000145408828104                                  21SCORPION  SL-362092800000CPQXV                                                                            
0200000014540882810000002517202210270039580021356708470010000000115333795700000001120020221101SCORPION  SL-38736700000221027MOKOENA L                     000002000000145408828104                                  21SCORPION  SL-387367000000CPQXW                                                                            
0200000014540882810000002517202210270039580021356709470010000000115388646200000001730020221101SCORPION  SL-20125770000221027GEMA JD                       000002000000145408828104                                  21SCORPION  SL-201257700000CPQXX                                                                            
0200000014540882810000002517202210270039580021356710250655000006218625858100000001120020221101SCORPION  SL-39058750000221027MERE S                        000002000000145408828104                                  21SCORPION  SL-390587500000CPQXY                                                                            
0200000014540882810000002517202210270039580021356711470010000000131928715600000001590020221101SCORPION  20469558000000221027MOTLHABI S                    000002000000145408828104                                  21SCORPION  204695580000000CPQXZ                                                                            
0200000014540882810000002517202210270039580021356712470010000000134962957800000001120020221101SCORPION  SL-89844600000221027NKABINDE P                    000002000000145408828104                                  21SCORPION  SL-898446000000CPQY0                                                                            
0200000014540882810000002517202210270039580021356713250655000006014826305100000001260020221101SCORPION  SL-33128000000221027KOJANG GL                     000002000000145408828104                                  21SCORPION  SL-331280000000CPQY1                                                                            
0200000014540882810000002517202210270039580021356714470010000000135819943200000001120020221101SCORPION  SL-24312410000221027MOORCROFT JA                  000002000000145408828104                                  21SCORPION  SL-243124100000CPQY2                                                                            
0200000014540882810000002517202210270039580021356715470010000000152532534300000001120020221101SCORPION  SL-39529410000221027SIKHOSANA G                   000002000000145408828104                                  21SCORPION  SL-395294100000CPQY3                                                                            
0200000014540882810000002517202210270039580021356716470010000000116856831300000001120020221101SCORPION  SL-40205380000221027MNGOMEZULU L                  000002000000145408828104                                  21SCORPION  SL-402053800000CPQY4                                                                            
0200000014540882810000002517202210270039580021356717470010000000150594411000000001030020221101SCORPION  SL-20408245000221027SANGWENI NE                   000002000000145408828104                                  21SCORPION  SL-204082450000CPQY5                                                                            
0200000014540882810000002517202210270039580021356718470010000000131477684100000001120020221101SCORPION  20525277000000221027RICHARDS R                    000002000000145408828104                                  21SCORPION  205252770000000CPQY6                                                                            
0200000014540882810000002517202210270039580021356719198765000000101385670800000001030020221101SCORPION  20430551000000221027MAHLAHA T                     000002000000145408828104                                  21SCORPION  204305510000000CPQY7                                                                            
0200000014540882810000002517202210270039580021356720632005000000925040265300000001030020221101SCORPION  SL-20405959000221027LESOLE AS                     000002000000145408828104                                  21SCORPION  SL-204059590000CPQY8                                                                            
0200000014540882810000002517202210270039580021356721632005000000408698162800000001120020221101SCORPION  SL-16958300000221027MTCINA M                      000002000000145408828104                                  21SCORPION  SL-169583000000CPQY9                                                                            
0200000014540882810000002517202210270039580021356722470010000000139750689800000001120020221101SCORPION  SL-37941630000221027NTOYI KS                      000002000000145408828104                                  21SCORPION  SL-379416300000CPQYA                                                                            
0200000014540882810000002517202210270039580021356723470010000000118903923900000001120020221101SCORPION  SL-39785400000221027MOHLAMONYANE MJ               000002000000145408828104                                  21SCORPION  SL-397854000000CPQYB                                                                            
0200000014540882810000002517202210270039580021356724470010000000118903923900000001120020221101SCORPION  SL-39785400000221027MOHLAMONYANE MJ               000002000000145408828104                                  21SCORPION  SL-397854000000CPQYC                                                                            
0200000014540882810000002517202210270039580021356725470010000000140282405800000001120020221101SCORPION  SL-23660230000221027SEKGEE JM                     000002000000145408828104                                  21SCORPION  SL-236602300000CPQYD                                                                            
0200000014540882810000002517202210270039580021356726470010000000127339867800000001120020221101SCORPION  SL-40078630000221027YONA L                        000002000000145408828104                                  21SCORPION  SL-400786300000CPQYE                                                                            
0200000014540882810000002517202210270039580021356727470010000000136478959900000000560020221101SCORPION  SL-36665240000221027MAKHAYA B                     000002000000145408828104                                  21SCORPION  SL-366652400000CPQYF                                                                            
0200000014540882810000002517202210270039580021356728470010000000113617067500000001120020221101SCORPION  SL-20408794000221027TSHABALALA B                  000002000000145408828104                                  21SCORPION  SL-204087940000CPQYG                                                                            
0200000014540882810000002517202210270039580021356729470010000000113617067500000001120020221101SCORPION  SL-20408794000221027TSHABALALA B                  000002000000145408828104                                  21SCORPION  SL-204087940000CPQYH                                                                            
0200000014540882810000002517202210270039580021356730470010000000135639215400000001730020221101SCORPION  SL-31281020000221027MOTHIBI BE                    000002000000145408828104                                  21SCORPION  SL-312810200000CPQYI                                                                            
0200000014540882810000002517202210270039580021356731470010000000138098351500000001120020221101SCORPION  20524529000000221027MDOYI M                       000002000000145408828104                                  21SCORPION  205245290000000CPQYJ                                                                            
0200000014540882810000002517202210270039580021356732051001000000030916241600000001120020221101SCORPION  SL-37234290000221027KHOSA R                       000002000000145408828104                                  21SCORPION  SL-372342900000CPQYK                                                                            
0200000014540882810000002517202210270039580021356733632005000000406951648000000001120020221101SCORPION  SL-31306570000221027MKHWANAZI DN                  000002000000145408828104                                  21SCORPION  SL-313065700000CPQYL                                                                            
0200000014540882810000002517202210270039580021356734198765000000103038835000000001120020221101SCORPION  SL-39040020000221027MALESA C                      000002000000145408828104                                  21SCORPION  SL-390400200000CPQYM                                                                            
0200000014540882810000002517202210270039580021356735470010000000139180480300000000560020221101SCORPION  20476810000000221027SAPTO S                       000002000000145408828104                                  21SCORPION  204768100000000CPQYN                                                                            
0200000014540882810000002517202210270039580021356736250655000005264110376900000001120020221101SCORPION  SL-17394700000221027GAMANA N                      000002000000145408828104                                  21SCORPION  SL-173947000000CPQYO                                                                            
0200000014540882810000002517202210270039580021356737470010000000151612451900000001120020221101SCORPION  SL-33334060000221027THOMPSON GS                   000002000000145408828104                                  21SCORPION  SL-333340600000CPQYP                                                                            
0200000014540882810000002517202210270039580021356738470010000000138984850500000000560020221101SCORPION  SL-32112600000221027SKHOSANA TA                   000002000000145408828104                                  21SCORPION  SL-321126000000CPQYQ                                                                            
0200000014540882810000002517202210270039580021356739470010000000138984850500000000560020221101SCORPION  SL-32112600000221027SKHOSANA TA                   000002000000145408828104                                  21SCORPION  SL-321126000000CPQYR                                                                            
0200000014540882810000002517202210270039580021356740470010000000138202370500000001120020221101SCORPION  SL-23020150000221027MASUSU S                      000002000000145408828104                                  21SCORPION  SL-230201500000CPQYS                                                                            
0200000014540882810000002517202210270039580021356741470010000000141348127000000000530020221101SCORPION  SL-20408346000221027MATHOMBA GM                   000002000000145408828104                                  21SCORPION  SL-204083460000CPQYT                                                                            
0200000014540882810000002517202210270039580021356742632005000000917367405000000001120020221101SCORPION  SL-40044020000221027TSAO P                        000002000000145408828104                                  21SCORPION  SL-400440200000CPQYU                                                                            
0200000014540882810000002517202210270039580021356743250655000006250451802000000000560020221101SCORPION  20489983000000221027CHILIZA A                     000002000000145408828104                                  21SCORPION  204899830000000CPQYV                                                                            
0200000014540882810000002517202210270039580021356744632005000000140831023300000001120020221101SCORPION  SL-40218650000221027SEBAYA K                      000002000000145408828104                                  21SCORPION  SL-402186500000CPQYW                                                                            
0200000014540882810000002517202210270039580021356745470010000000120361798200000001120020221101SCORPION  SL-39101460000221027SEDUMO M                      000002000000145408828104                                  21SCORPION  SL-391014600000CPQYX                                                                            
0200000014540882810000002517202210270039580021356746470010000000120361798200000001120020221101SCORPION  SL-39101460000221027SEDUMO M                      000002000000145408828104                                  21SCORPION  SL-391014600000CPQYY                                                                            
0200000014540882810000002517202210270039580021356747470010000000117691395400000001120020221101SCORPION  SL-11591660000221027NTSHWANTI E                   000002000000145408828104                                  21SCORPION  SL-115916600000CPQYZ                                                                            
0200000014540882810000002517202210270039580021356748470010000000117691395400000001120020221101SCORPION  SL-11591660000221027NTSHWANTI E                   000002000000145408828104                                  21SCORPION  SL-115916600000CPQZ0                                                                            
0200000014540882810000002517202210270039580021356749250655000006230795957000000001120020221101SCORPION  SL-36900120000221027NETSHISHIVHE A                000002000000145408828104                                  21SCORPION  SL-369001200000CPQZ1                                                                            
0200000014540882810000002517202210270039580021356750632005000000407658624000000001120020221101SCORPION  SL-24648960000221027MABASO SC                     000002000000145408828104                                  21SCORPION  SL-246489600000CPQZ2                                                                            
0200000014540882810000002517202210270039580021356751250655000006245398913200000001120020221101SCORPION  SL-28019820000221027MOTHA B                       000002000000145408828104                                  21SCORPION  SL-280198200000CPQZ3                                                                            
0200000014540882810000002517202210270039580021356752051001000000020084226900000001120020221101SCORPION  SL-38910490000221027SELOISE P                     000002000000145408828104                                  21SCORPION  SL-389104900000CPQZ4                                                                            
0200000014540882810000002517202210270039580021356753051001000000002216591600000001120020221101SCORPION  SL-21773890000221027MACHABA TP                    000002000000145408828104                                  21SCORPION  SL-217738900000CPQZ5                                                                            
0200000014540882810000002517202210270039580021356754470010000000134506950000000000560020221101SCORPION  SL-38442940000221027TAUYATSWALA J                 000002000000145408828104                                  21SCORPION  SL-384429400000CPQZ6                                                                            
0200000014540882810000002517202210270039580021356755470010000000116437092600000001120020221101SCORPION  SL-39923620000221027MOLITI W                      000002000000145408828104                                  21SCORPION  SL-399236200000CPQZ7                                                                            
0200000014540882810000002517202210270039580021356756250655000006250265674900000000560020221101SCORPION  20452857000000221027DUBAZANA E                    000002000000145408828104                                  21SCORPION  204528570000000CPQZ8                                                                            
0200000014540882810000002517202210270039580021356757250655000006250265674900000000470020221101SCORPION  20452857000000221027DUBAZANA E                    000002000000145408828104                                  21SCORPION  204528570000000CPQZ9                                                                            
0200000014540882810000002517202210270039580021356758470010000000129847881000000000560020221101SCORPION  SL-37402500000221027NDLOVU B                      000002000000145408828104                                  21SCORPION  SL-374025000000CPQZA                                                                            
0200000014540882810000002517202210270039580021356759470010000000115885448800000001730020221101SCORPION  SL-37594000000221027HLONGWANE G                   000002000000145408828104                                  21SCORPION  SL-375940000000CPQZB                                                                            
0200000014540882810000002517202210270039580021356760470010000000113898053400000001030020221101SCORPION  20453189000000221027TSHABALALA L                  000002000000145408828104                                  21SCORPION  204531890000000CPQZC                                                                            
0200000014540882810000002517202210270039580021356761470010000000113898053400000001030020221101SCORPION  20453189000000221027TSHABALALA L                  000002000000145408828104                                  21SCORPION  204531890000000CPQZD                                                                            
0200000014540882810000002517202210270039580021356762051001000001007483183400000001120020221101SCORPION  SL-36325160000221027MOGASHOA P                    000002000000145408828104                                  21SCORPION  SL-363251600000CPQZE                                                                            
0200000014540882810000002517202210270039580021356763470010000000135642693800000001120020221101SCORPION  SL-29690260000221027MOKOMELE SJ                   000002000000145408828104                                  21SCORPION  SL-296902600000CPQZF                                                                            
0200000014540882810000002517202210270039580021356764470010000000145432499400000001120020221101SCORPION  SL-37977890000221027MARRIAN G                     000002000000145408828104                                  21SCORPION  SL-379778900000CPQZG                                                                            
0200000014540882810000002517202210270039580021356765470010000000113186631000000001120020221101SCORPION  SL-39090430000221027MABENA B                      000002000000145408828104                                  21SCORPION  SL-390904300000CPQZH                                                                            
0200000014540882810000002517202210270039580021356766250655000006253389182700000000560020221101SCORPION  SL-38917270000221027TSHABALALA L                  000002000000145408828104                                  21SCORPION  SL-389172700000CPQZI                                                                            
0200000014540882810000002517202210270039580021356767632005000000407441080900000001120020221101SCORPION  SL-33260910000221027GORORO TC                     000002000000145408828104                                  21SCORPION  SL-332609100000CPQZJ                                                                            
0200000014540882810000002517202210270039580021356768470010000000134029331300000001120020221101SCORPION  SL-40112990000221027MALULEKE T                    000002000000145408828104                                  21SCORPION  SL-401129900000CPQZK                                                                            
0200000014540882810000002517202210270039580021356769470010000000130257627300000001120020221101SCORPION  SL-38723680000221027HLANGWANE L                   000002000000145408828104                                  21SCORPION  SL-387236800000CPQZL                                                                            
0200000014540882810000002517202210270039580021356770470010000000130257627300000001120020221101SCORPION  SL-38728730000221027HLANGWANE L                   000002000000145408828104                                  21SCORPION  SL-387287300000CPQZM                                                                            
0200000014540882810000002517202210270039580021356771470010000000113566072500000001030020221101SCORPION  SL-30502020000221027CUPIDO G                      000002000000145408828104                                  21SCORPION  SL-305020200000CPQZN                                                                            
0200000014540882810000002517202210270039580021356772470010000000113566072500000001030020221101SCORPION  SL-30502020000221027CUPIDO G                      000002000000145408828104                                  21SCORPION  SL-305020200000CPQZO                                                                            
0200000014540882810000002517202210270039580021356773470010000000116023652400000001120020221101SCORPION  SL-23411940000221027NGWENYA T                     000002000000145408828104                                  21SCORPION  SL-234119400000CPQZP                                                                            
0200000014540882810000002517202210270039580021356774470010000000120581882900000001120020221101SCORPION  SL-76822700000221027MATSIKANE M                   000002000000145408828104                                  21SCORPION  SL-768227000000CPQZQ                                                                            
0200000014540882810000002517202210270039580021356775470010000000138486868000000001120020221101SCORPION  SL-69976200000221027NDLOZI QM                     000002000000145408828104                                  21SCORPION  SL-699762000000CPQZR                                                                            
0200000014540882810000002517202210270039580021356776470010000000138486868000000001040020221101SCORPION  SL-69976200000221027NDLOZI QM                     000002000000145408828104                                  21SCORPION  SL-699762000000CPQZS                                                                            
0200000014540882810000002517202210270039580021356777470010000000130521078400000001120020221101SCORPION  SL-39348440000221027MOSIA T                       000002000000145408828104                                  21SCORPION  SL-393484400000CPQZT                                                                            
0200000014540882810000002517202210270039580021356778632005000000908445433700000001120020221101SCORPION  SL-48561700000221027MASIKE M                      000002000000145408828104                                  21SCORPION  SL-485617000000CPQZU                                                                            
0200000014540882810000002517202210270039580021356779470010000000132329560500000001120020221101SCORPION  SL-20406645000221027MZIZI O                       000002000000145408828104                                  21SCORPION  SL-204066450000CPQZV                                                                            
0200000014540882810000002517202210270039580021356780632005000000028956743700000000560020221101SCORPION  SL-50708100000221027MONONYANA LN                  000002000000145408828104                                  21SCORPION  SL-507081000000CPQZW                                                                            
0200000014540882810000002517202210270039580021356781470010000000136177170200000001120020221101SCORPION  SL-98225000000221027MAGQALTA A                    000002000000145408828104                                  21SCORPION  SL-982250000000CPQZX                                                                            
0200000014540882810000002517202210270039580021356782470010000000136177170200000001120020221101SCORPION  SL-98225000000221027MAGQALTA A                    000002000000145408828104                                  21SCORPION  SL-982250000000CPQZY                                                                            
0200000014540882810000002517202210270039580021356783051001000000008365632400000001120020221101SCORPION  20489948000000221027KILANI C                      000002000000145408828104                                  21SCORPION  204899480000000CPQZZ                                                                            
0200000014540882810000002517202210270039580021356784470010000000141976015500000001120020221101SCORPION  SL-25125900000221027SMITH GE                      000002000000145408828104                                  21SCORPION  SL-251259000000CPR00                                                                            
0200000014540882810000002517202210270039580021356785470010000000141976015500000001120020221101SCORPION  SL-25125900000221027SMITH GE                      000002000000145408828104                                  21SCORPION  SL-251259000000CPR01                                                                            
0200000014540882810000002517202210270039580021356786250655000006225103393300000001730020221101SCORPION  SL-39073890000221027MOODLEY GG                    000002000000145408828104                                  21SCORPION  SL-390738900000CPR02                                                                            
0200000014540882810000002517202210270039580021356787470010000000118920754900000001030020221101SCORPION  SL-20411104000221027TABO MH                       000002000000145408828104                                  21SCORPION  SL-204111040000CPR03                                                                            
0200000014540882810000002517202210270039580021356788470010000000125601163900000001120020221101SCORPION  SL-34007430000221027MADOLO Z                      000002000000145408828104                                  21SCORPION  SL-340074300000CPR04                                                                            
0200000014540882810000002517202210270039580021356789051001000000024018630300000000560020221101SCORPION  SL-29338670000221027NETSHITHUTHUNI M              000002000000145408828104                                  21SCORPION  SL-293386700000CPR05                                                                            
0200000014540882810000002517202210270039580021356790198765000000195733249200000001120020221101SCORPION  SL-38554680000221027RAMOSHEBI CS                  000002000000145408828104                                  21SCORPION  SL-385546800000CPR06                                                                            
0200000014540882810000002517202210270039580021356791470010000000146079850100000001120020221101SCORPION  SL-24674150000221027THANDANI N                    000002000000145408828104                                  21SCORPION  SL-246741500000CPR07                                                                            
0200000014540882810000002517202210270039580021356792470010000000129443481900000001120020221101SCORPION  SL-35806340000221027DUBE B                        000002000000145408828104                                  21SCORPION  SL-358063400000CPR08                                                                            
0200000014540882810000002517202210270039580021356793470010000000144869645100000001120020221101SCORPION  20522986000000221027SHABANGU TM                   000002000000145408828104                                  21SCORPION  205229860000000CPR09                                                                            
0200000014540882810000002517202210270039580021356794470010000000130582076000000001120020221101SCORPION  SL-27417690000221027MATUBATUBA K                  000002000000145408828104                                  21SCORPION  SL-274176900000CPR0A                                                                            
0200000014540882810000002517202210270039580021356795198765000000295234989400000001120020221101SCORPION  SL-17659720000221027MOLOI R                       000002000000145408828104                                  21SCORPION  SL-176597200000CPR0B                                                                            
0200000014540882810000002517202210270039580021356796051001000000062377382100000001120020221101SCORPION  20493747000000221027MODIBA S                      000002000000145408828104                                  21SCORPION  204937470000000CPR0C                                                                            
0200000014540882810000002517202210270039580021356797470010000000134710413300000000560020221101SCORPION  SL-37955790000221027GLADILE S                     000002000000145408828104                                  21SCORPION  SL-379557900000CPR0D                                                                            
0200000014540882810000002517202210270039580021356798470010000000134710413300000000560020221101SCORPION  SL-37955790000221027GLADILE S                     000002000000145408828104                                  21SCORPION  SL-379557900000CPR0E                                                                            
0200000014540882810000002517202210270039580021356799051001000000016679933500000001120020221101SCORPION  SL-35083060000221027MGOJO GL                      000002000000145408828104                                  21SCORPION  SL-350830600000CPR0F                                                                            
0200000014540882810000002517202210270039580021356800250655000006244636032300000001120020221101SCORPION  20461064000000221027MADABULELA N                  000002000000145408828104                                  21SCORPION  204610640000000CPR0G                                                                            
0200000014540882810000002517202210270039580021356801250655000006244636032300000001120020221101SCORPION  20461073000000221027MADABULELA N                  000002000000145408828104                                  21SCORPION  204610730000000CPR0H                                                                            
0200000014540882810000002517202210270039580021356802051001000001003706426400000001030020221101SCORPION  20457947000000221027LEWIS L                       000002000000145408828104                                  21SCORPION  204579470000000CPR0I                                                                            
0200000014540882810000002517202210270039580021356803051001000001003706426400000001030020221101SCORPION  20457947000000221027LEWIS L                       000002000000145408828104                                  21SCORPION  204579470000000CPR0J                                                                            
0200000014540882810000002517202210270039580021356804470010000000123687163200000001120020221101SCORPION  SL-38744610000221027MONGOATO L                    000002000000145408828104                                  21SCORPION  SL-387446100000CPR0K                                                                            
0200000014540882810000002517202210270039580021356805632005000000925473421400000001120020221101SCORPION  SL-25371180000221027MPETE L                       000002000000145408828104                                  21SCORPION  SL-253711800000CPR0L                                                                            
0200000014540882810000002517202210270039580021356806470010000000137343812400000001120020221101SCORPION  SL-37988080000221027MOCHEKGECHEKGE T              000002000000145408828104                                  21SCORPION  SL-379880800000CPR0M                                                                            
0200000014540882810000002517202210270039580021356807470010000000136586194300000001120020221101SCORPION  SL-39660560000221027MTSWENI T                     000002000000145408828104                                  21SCORPION  SL-396605600000CPR0N                                                                            
0200000014540882810000002517202210270039580021356808470010000000136586194300000001120020221101SCORPION  SL-39660560000221027MTSWENI T                     000002000000145408828104                                  21SCORPION  SL-396605600000CPR0O                                                                            
0200000014540882810000002517202210270039580021356809470010000000141699714600000001120020221101SCORPION  SL-37300790000221027NTWAYABORWA K                 000002000000145408828104                                  21SCORPION  SL-373007900000CPR0P                                                                            
0200000014540882810000002517202210270039580021356810470010000000141435591000000001120020221101SCORPION  SL-26055620000221027DLAMINI M                     000002000000145408828104                                  21SCORPION  SL-260556200000CPR0Q                                                                            
0200000014540882810000002517202210270039580021356811470010000000147210032600000001030020221101SCORPION  SL-20411884000221027MKHOSANA D                    000002000000145408828104                                  21SCORPION  SL-204118840000CPR0R                                                                            
0200000014540882810000002517202210270039580021356812470010000000115716461500000001120020221101SCORPION  SL-37246540000221027SETWABA E                     000002000000145408828104                                  21SCORPION  SL-372465400000CPR0S                                                                            
0200000014540882810000002517202210270039580021356813470010000000115716461500000001120020221101SCORPION  SL-37246540000221027SETWABA E                     000002000000145408828104                                  21SCORPION  SL-372465400000CPR0T                                                                            
0200000014540882810000002517202210270039580021356814470010000000134810214200000001120020221101SCORPION  SL-32179010000221027SITHOLE Y                     000002000000145408828104                                  21SCORPION  SL-321790100000CPR0U                                                                            
0200000014540882810000002517202210270039580021356815051001000000020264142200000001120020221101SCORPION  SL-34731150000221027CELE S                        000002000000145408828104                                  21SCORPION  SL-347311500000CPR0V                                                                            
0200000014540882810000002517202210270039580021356816632005000000923665614300000001120020221101SCORPION  20497837000000221027ANGCANE D                     000002000000145408828104                                  21SCORPION  204978370000000CPR0W                                                                            
0200000014540882810000002517202210270039580021356817632005000000900605366300000001120020221101SCORPION  SL-89637900000221027NGOBEZA N                     000002000000145408828104                                  21SCORPION  SL-896379000000CPR0X                                                                            
0200000014540882810000002517202210270039580021356818250655000006249447446500000001120020221101SCORPION  20508713000000221027RADEBE A                      000002000000145408828104                                  21SCORPION  205087130000000CPR0Y                                                                            
0200000014540882810000002517202210270039580021356819470010000000132903313000000001120020221101SCORPION  SL-15765540000221027RAGANYA M                     000002000000145408828104                                  21SCORPION  SL-157655400000CPR0Z                                                                            
0200000014540882810000002517202210270039580021356820470010000000111242476600000001120020221101SCORPION  SL-35125160000221027MBATSANE TE                   000002000000145408828104                                  21SCORPION  SL-351251600000CPR10                                                                            
0200000014540882810000002517202210270039580021356821470010000000111242476600000001120020221101SCORPION  SL-35125160000221027MBATSANE TE                   000002000000145408828104                                  21SCORPION  SL-351251600000CPR11                                                                            
0200000014540882810000002517202210270039580021356822460005000000005495983100000000560020221101SCORPION  SL-37653560000221027JAULA JN                      000002000000145408828104                                  21SCORPION  SL-376535600000CPR12                                                                            
0200000014540882810000002517202210270039580021356823470010000000123643564600000001030020221101SCORPION  SL-20408224000221027MODISE K                      000002000000145408828104                                  21SCORPION  SL-204082240000CPR13                                                                            
0200000014540882810000002517202210270039580021356824470010000000122346857500000001030020221101SCORPION  SL-20409154000221027NDABA P                       000002000000145408828104                                  21SCORPION  SL-204091540000CPR14                                                                            
0200000014540882810000002517202210270039580021356825470010000000130950729300000001120020221101SCORPION  20508108000000221027YISAKA Z                      000002000000145408828104                                  21SCORPION  205081080000000CPR15                                                                            
0200000014540882810000002517202210270039580021356826470010000000120602769800000000560020221101SCORPION  SL-25007080000221027MOTOLO T                      000002000000145408828104                                  21SCORPION  SL-250070800000CPR16                                                                            
0200000014540882810000002517202210270039580021356827051001000000022622035400000001120020221101SCORPION  SL-20162810000221027NKUNA J                       000002000000145408828104                                  21SCORPION  SL-201628100000CPR17                                                                            
0200000014540882810000002517202210270039580021356828198765000000157306381900000001120020221101SCORPION  SL-26984330000221027CHILIZA L                     000002000000145408828104                                  21SCORPION  SL-269843300000CPR18                                                                            
0200000014540882810000002517202210270039580021356829470010000000133982021600000001030020221101SCORPION  20453890000000221027NTLAHLA S                     000002000000145408828104                                  21SCORPION  204538900000000CPR19                                                                            
0200000014540882810000002517202210270039580021356830470010000000137624382000000001120020221101SCORPION  SL-38715460000221027MAHLANGU MM                   000002000000145408828104                                  21SCORPION  SL-387154600000CPR1A                                                                            
0200000014540882810000002517202210270039580021356831470010000000140875992400000001120020221101SCORPION  SL-31845060000221027RANGOLO M                     000002000000145408828104                                  21SCORPION  SL-318450600000CPR1B                                                                            
0200000014540882810000002517202210270039580021356832470010000000141602210200000001030020221101SCORPION  SL-20410111000221027RANA Y                        000002000000145408828104                                  21SCORPION  SL-204101110000CPR1C                                                                            
0200000014540882810000002517202210270039580021356833198765000000109385606800000001120020221101SCORPION  20539506000000221027MQATAZANA R                   000002000000145408828104                                  21SCORPION  205395060000000CPR1D                                                                            
0200000014540882810000002517202210270039580021356834198765000000107610508400000001120020221101SCORPION  SL-85312400000221027KHUMALO G                     000002000000145408828104                                  21SCORPION  SL-853124000000CPR1E                                                                            
0200000014540882810000002517202210270039580021356835198765000000107610508400000001120020221101SCORPION  SL-85312400000221027KHUMALO G                     000002000000145408828104                                  21SCORPION  SL-853124000000CPR1F                                                                            
0200000014540882810000002517202210270039580021356836470010000000132608604700000001120020221101SCORPION  SL-33797970000221027MTHETHWA N                    000002000000145408828104                                  21SCORPION  SL-337979700000CPR1G                                                                            
0200000014540882810000002517202210270039580021356837470010000000132608604700000001120020221101SCORPION  SL-33797970000221027MTHETHWA N                    000002000000145408828104                                  21SCORPION  SL-337979700000CPR1H                                                                            
0200000014540882810000002517202210270039580021356838470010000000132856016100000000560020221101SCORPION  20512233000000221027BOSMAN A                      000002000000145408828104                                  21SCORPION  205122330000000CPR1I                                                                            
0200000014540882810000002517202210270039580021356839051001000000014102552200000001120020221101SCORPION  SL-91623200000221027MAKHALANYANE M                000002000000145408828104                                  21SCORPION  SL-916232000000CPR1J                                                                            
0200000014540882810000002517202210270039580021356840470010000000112024718500000000560020221101SCORPION  SL-29594680000221027MMUTLANE F                    000002000000145408828104                                  21SCORPION  SL-295946800000CPR1K                                                                            
0200000014540882810000002517202210270039580021356841470010000000113854251000000001120020221101SCORPION  SL-31314430000221027BUTHELEZI L                   000002000000145408828104                                  21SCORPION  SL-313144300000CPR1L                                                                            
0200000014540882810000002517202210270039580021356842470010000000113854251000000001120020221101SCORPION  SL-31314430000221027BUTHELEZI L                   000002000000145408828104                                  21SCORPION  SL-313144300000CPR1M                                                                            
0200000014540882810000002517202210270039580021356843470010000000112171782700000001120020221101SCORPION  SL-40200550000221027MASHIANOKE N                  000002000000145408828104                                  21SCORPION  SL-402005500000CPR1N                                                                            
0200000014540882810000002517202210270039580021356844470010000000149837065700000001120020221101SCORPION  SL-38713380000221027SHAI J                        000002000000145408828104                                  21SCORPION  SL-387133800000CPR1O                                                                            
0200000014540882810000002517202210270039580021356845470010000000131918234600000001120020221101SCORPION  SL-32593900000221027MABELE W                      000002000000145408828104                                  21SCORPION  SL-325939000000CPR1P                                                                            
0200000014540882810000002517202210270039580021356846632005000000916453835400000001120020221101SCORPION  SL-36097880000221027MFAMA-GOGWANA ZL              000002000000145408828104                                  21SCORPION  SL-360978800000CPR1Q                                                                            
0200000014540882810000002517202210270039580021356847470010000000134940534300000001120020221101SCORPION  20522348000000221027MASEKO M                      000002000000145408828104                                  21SCORPION  205223480000000CPR1R                                                                            
0200000014540882810000002517202210270039580021356848470010000000140206754000000001120020221101SCORPION  SL-20406882000221027PHASWANE TR                   000002000000145408828104                                  21SCORPION  SL-204068820000CPR1S                                                                            
0200000014540882810000002517202210270039580021356849250655000006242050955900000001120020221101SCORPION  20506377000000221027MOJI B                        000002000000145408828104                                  21SCORPION  205063770000000CPR1T                                                                            
0200000014540882810000002517202210270039580021356850470010000000142776595000000001120020221101SCORPION  SL-20407555000221027MOGASHOA M                    000002000000145408828104                                  21SCORPION  SL-204075550000CPR1U                                                                            
0200000014540882810000002517202210270039580021356851470010000000136296512800000001120020221101SCORPION  20518421000000221027MATHIKITHELA N                000002000000145408828104                                  21SCORPION  205184210000000CPR1V                                                                            
0200000014540882810000002517202210270039580021356852470010000000120120029400000001120020221101SCORPION  20515078000000221027LOABILE K                     000002000000145408828104                                  21SCORPION  205150780000000CPR1W                                                                            
0200000014540882810000002517202210270039580021356853470010000000124420686300000001120020221101SCORPION  SL-20405723000221027MBHENSE A                     000002000000145408828104                                  21SCORPION  SL-204057230000CPR1X                                                                            
0200000014540882810000002517202210270039580021356854198765000000101990830000000000560020221101SCORPION  SL-40100940000221027MOROKA K                      000002000000145408828104                                  21SCORPION  SL-401009400000CPR1Y                                                                            
0200000014540882810000002517202210270039580021356855198765000000101990830000000000560020221101SCORPION  SL-40100940000221027MOROKA K                      000002000000145408828104                                  21SCORPION  SL-401009400000CPR1Z                                                                            
0200000014540882810000002517202210270039580021356856051001000001004269802000000000560020221101SCORPION  20512802000000221027HANSRAJ M                     000002000000145408828104                                  21SCORPION  205128020000000CPR20                                                                            
0200000014540882810000002517202210270039580021356857632005000003805185007300000001030020221101SCORPION  20430530000000221027DEVILLIERS C                  000002000000145408828104                                  21SCORPION  204305300000000CPR21                                                                            
0200000014540882810000002517202210270039580021356858632005000000989014583600000001120020221101SCORPION  SL-39958390000221027NDHLOVU R                     000002000000145408828104                                  21SCORPION  SL-399583900000CPR22                                                                            
0200000014540882810000002517202210270039580021356859470010000000151447425300000001120020221101SCORPION  20528734000000221027MOKOENA L                     000002000000145408828104                                  21SCORPION  205287340000000CPR23                                                                            
0200000014540882810000002517202210270039580021356860470010000000140941165400000001120020221101SCORPION  SL-39500530000221027MTSHWENI MP                   000002000000145408828104                                  21SCORPION  SL-395005300000CPR24                                                                            
0200000014540882810000002517202210270039580021356861470010000000118932140600000000560020221101SCORPION  20506773000000221027SHONGWE P                     000002000000145408828104                                  21SCORPION  205067730000000CPR25                                                                            
0200000014540882810000002517202210270039580021356862470010000000133042665500000001120020221101SCORPION  SL-11569960000221027MOKGOJE TS                    000002000000145408828104                                  21SCORPION  SL-115699600000CPR26                                                                            
0200000014540882810000002517202210270039580021356863470010000000147105069400000001030020221101SCORPION  SL-20407170000221027GAODIGWE ME                   000002000000145408828104                                  21SCORPION  SL-204071700000CPR27                                                                            
0200000014540882810000002517202210270039580021356864470010000000147105069400000001030020221101SCORPION  SL-20407170000221027GAODIGWE ME                   000002000000145408828104                                  21SCORPION  SL-204071700000CPR28                                                                            
0200000014540882810000002517202210270039580021356865470010000000140139974400000000560020221101SCORPION  SL-37832070000221027PHURAVHATHU S                 000002000000145408828104                                  21SCORPION  SL-378320700000CPR29                                                                            
0200000014540882810000002517202210270039580021356866198765000000105148918000000001120020221101SCORPION  20533606000000221027MABANTI S                     000002000000145408828104                                  21SCORPION  205336060000000CPR2A                                                                            
0200000014540882810000002517202210270039580021356867470010000000119939668900000000560020221101SCORPION  SL-39660480000221027MALINGA S                     000002000000145408828104                                  21SCORPION  SL-396604800000CPR2B                                                                            
0200000014540882810000002517202210270039580021356868470010000000138554463300000001120020221101SCORPION  SL-37362340000221027NAYE XP                       000002000000145408828104                                  21SCORPION  SL-373623400000CPR2C                                                                            
0200000014540882810000002517202210270039580021356869470010000000126791468600000001030020221101SCORPION  SL-20407215000221027MLUNGUZI NV                   000002000000145408828104                                  21SCORPION  SL-204072150000CPR2D                                                                            
0200000014540882810000002517202210270039580021356870198765000000110479526400000001120020221101SCORPION  SL-10738460000221027MATHEBULA J                   000002000000145408828104                                  21SCORPION  SL-107384600000CPR2E                                                                            
0200000014540882810000002517202210270039580021356871198765000000104246769200000001120020221101SCORPION  SL-28958290000221027JACA T                        000002000000145408828104                                  21SCORPION  SL-289582900000CPR2F                                                                            
0200000014540882810000002517202210270039580021356872632005000000919872195300000001120020221101SCORPION  SL-22047210000221027MATONSI M                     000002000000145408828104                                  21SCORPION  SL-220472100000CPR2G                                                                            
0200000014540882810000002517202210270039580021356873198765000000112766578200000001730020221101SCORPION  SL-26470680000221027LOUW P                        000002000000145408828104                                  21SCORPION  SL-264706800000CPR2H                                                                            
0200000014540882810000002517202210270039580021356874470010000000129590573400000001120020221101SCORPION  SL-39979760000221027TAUTSWANE L                   000002000000145408828104                                  21SCORPION  SL-399797600000CPR2I                                                                            
0200000014540882810000002517202210270039580021356875470010000000129590573400000001120020221101SCORPION  SL-39979760000221027TAUTSWANE L                   000002000000145408828104                                  21SCORPION  SL-399797600000CPR2J                                                                            
0200000014540882810000002517202210270039580021356876470010000000137574658600000001120020221101SCORPION  SL-39061960000221027NXUMALO Z                     000002000000145408828104                                  21SCORPION  SL-390619600000CPR2K                                                                            
0200000014540882810000002517202210270039580021356877051001000001005979609800000001120020221101SCORPION  SL-23198540000221027MAZIBUKO S                    000002000000145408828104                                  21SCORPION  SL-231985400000CPR2L                                                                            
0200000014540882810000002517202210270039580021356878250655000006259044285300000001120020221101SCORPION  20513693000000221027ROOPNARAIN K                  000002000000145408828104                                  21SCORPION  205136930000000CPR2M                                                                            
0200000014540882810000002517202210270039580021356879470010000000140913124400000000560020221101SCORPION  SL-37317970000221027MFEYA S                       000002000000145408828104                                  21SCORPION  SL-373179700000CPR2N                                                                            
0200000014540882810000002517202210270039580021356880632005000000929635847200000000560020221101SCORPION  20534932000000221027NKOSI M                       000002000000145408828104                                  21SCORPION  205349320000000CPR2O                                                                            
0200000014540882810000002517202210270039580021356881470010000000131874708000000001120020221101SCORPION  SL-39828780000221027NTSHANGASE N                  000002000000145408828104                                  21SCORPION  SL-398287800000CPR2P                                                                            
0200000014540882810000002517202210270039580021356882051001000000033243802300000001120020221101SCORPION  SL-39136530000221027MAGAGULA L                    000002000000145408828104                                  21SCORPION  SL-391365300000CPR2Q                                                                            
0200000014540882810000002517202210270039580021356883198765000000102095778600000001120020221101SCORPION  SL-38032180000221027SHOKO TK                      000002000000145408828104                                  21SCORPION  SL-380321800000CPR2R                                                                            
0200000014540882810000002517202210270039580021356884632005000000406619781100000001030020221101SCORPION  SL-20410611000221027MATEA EM                      000002000000145408828104                                  21SCORPION  SL-204106110000CPR2S                                                                            
0200000014540882810000002517202210270039580021356885198765000000135902828500000001120020221101SCORPION  SL-36963570000221027KHUMALO M                     000002000000145408828104                                  21SCORPION  SL-369635700000CPR2T                                                                            
0200000014540882810000002517202210270039580021356886051001000001007410165800000000560020221101SCORPION  20501111000000221027KWADIBANE G                   000002000000145408828104                                  21SCORPION  205011110000000CPR2U                                                                            
0200000014540882810000002517202210270039580021356887198765000000107990662200000001120020221101SCORPION  20514800000000221027NDLOVU D                      000002000000145408828104                                  21SCORPION  205148000000000CPR2V                                                                            
0200000014540882810000002517202210270039580021356888470010000000114165965200000001120020221101SCORPION  SL-20430550000221027NDARA E                       000002000000145408828104                                  21SCORPION  SL-204305500000CPR2W                                                                            
0200000014540882810000002517202210270039580021356889198765000000104256029300000001120020221101SCORPION  SL-31204930000221027BIYELA CB                     000002000000145408828104                                  21SCORPION  SL-312049300000CPR2X                                                                            
0200000014540882810000002517202210270039580021356890198765000000103426636500000001120020221101SCORPION  SL-36867620000221027KHANYILE S                    000002000000145408828104                                  21SCORPION  SL-368676200000CPR2Y                                                                            
0200000014540882810000002517202210270039580021356891470010000000137388814600000001120020221101SCORPION  20505252000000221027SMITH CC                      000002000000145408828104                                  21SCORPION  205052520000000CPR2Z                                                                            
0200000014540882810000002517202210270039580021356892470010000000125282131800000001120020221101SCORPION  SL-17021650000221027MININYE Z                     000002000000145408828104                                  21SCORPION  SL-170216500000CPR30                                                                            
0200000014540882810000002517202210270039580021356893470010000000134424651400000001120020221101SCORPION  SL-27101940000221027SHUDE N                       000002000000145408828104                                  21SCORPION  SL-271019400000CPR31                                                                            
0200000014540882810000002517202210270039580021356894250655000006222518973800000001120020221101SCORPION  SL-38645350000221027NGCOBO S                      000002000000145408828104                                  21SCORPION  SL-386453500000CPR32                                                                            
0200000014540882810000002517202210270039580021356895470010000000145984877000000001030020221101SCORPION  20444360000000221027KLINK D                       000002000000145408828104                                  21SCORPION  204443600000000CPR33                                                                            
0200000014540882810000002517202210270039580021356896051001000000013070561600000001120020221101SCORPION  SL-23401620000221027MOOPELWA K                    000002000000145408828104                                  21SCORPION  SL-234016200000CPR34                                                                            
0200000014540882810000002517202210270039580021356897470010000000150159640100000001030020221101SCORPION  SL-31418440000221027FUMBATHA M                    000002000000145408828104                                  21SCORPION  SL-314184400000CPR35                                                                            
0200000014540882810000002517202210270039580021356898470010000000143961979200000001120020221101SCORPION  SL-39730570000221027SEKAI G                       000002000000145408828104                                  21SCORPION  SL-397305700000CPR36                                                                            
0200000014540882810000002517202210270039580021356899470010000000132772436500000001120020221101SCORPION  20528849000000221027RIBIMBI Z                     000002000000145408828104                                  21SCORPION  205288490000000CPR37                                                                            
0200000014540882810000002517202210270039580021356900470010000000146506897800000000560020221101SCORPION  20475273000000221027MTSHALI P                     000002000000145408828104                                  21SCORPION  204752730000000CPR38                                                                            
0200000014540882810000002517202210270039580021356901470010000000146506897800000000560020221101SCORPION  20475273000000221027MTSHALI P                     000002000000145408828104                                  21SCORPION  204752730000000CPR39                                                                            
0200000014540882810000002517202210270039580021356902470010000000153707342500000000560020221101SCORPION  SL-39769220000221027LUKHELE S                     000002000000145408828104                                  21SCORPION  SL-397692200000CPR3A                                                                            
0200000014540882810000002517202210270039580021356903632005000000931654189800000001120020221101SCORPION  SL-28710070000221027PHIRI A                       000002000000145408828104                                  21SCORPION  SL-287100700000CPR3B                                                                            
0200000014540882810000002517202210270039580021356904632005000000931654189800000000350020221101SCORPION  SL-28710070000221027PHIRI A                       000002000000145408828104                                  21SCORPION  SL-287100700000CPR3C                                                                            
0200000014540882810000002517202210270039580021356905470010000000140801073700000000560020221101SCORPION  SL-32460360000221027FOKO PG                       000002000000145408828104                                  21SCORPION  SL-324603600000CPR3D                                                                            
0200000014540882810000002517202210270039580021356906470010000000129172043800000001120020221101SCORPION  SL-22135040000221027RADEBE N                      000002000000145408828104                                  21SCORPION  SL-221350400000CPR3E                                                                            
0200000014540882810000002517202210270039580021356907470010000000137716001500000001120020221101SCORPION  SL-39260200000221027MGWATYU A                     000002000000145408828104                                  21SCORPION  SL-392602000000CPR3F                                                                            
0200000014540882810000002517202210270039580021356908470010000000113914243500000001120020221101SCORPION  SL-36662790000221027KHOZA MM                      000002000000145408828104                                  21SCORPION  SL-366627900000CPR3G                                                                            
0200000014540882810000002517202210270039580021356909051001000000028162584000000001120020221101SCORPION  SL-30121740000221027DIKENI VW                     000002000000145408828104                                  21SCORPION  SL-301217400000CPR3H                                                                            
0200000014540882810000002517202210270039580021356910250655000005217105473900000001120020221101SCORPION  SL-58816300000221027PALISO M                      000002000000145408828104                                  21SCORPION  SL-588163000000CPR3I                                                                            
0200000014540882810000002517202210270039580021356911250655000005399004036300000001120020221101SCORPION  SL-38715350000221027NDIMENI AM                    000002000000145408828104                                  21SCORPION  SL-387153500000CPR3J                                                                            
0200000014540882810000002517202210270039580021356912470010000000131314385300000001120020221101SCORPION  SL-35062340000221027MORATA M                      000002000000145408828104                                  21SCORPION  SL-350623400000CPR3K                                                                            
0200000014540882810000002517202210270039580021356913250655000005399007107900000001120020221101SCORPION  SL-22428460000221027KUNJU E                       000002000000145408828104                                  21SCORPION  SL-224284600000CPR3L                                                                            
0200000014540882810000002517202210270039580021356914250655000005399007107900000001120020221101SCORPION  SL-22428460000221027KUNJU E                       000002000000145408828104                                  21SCORPION  SL-224284600000CPR3M                                                                            
0200000014540882810000002517202210270039580021356915051001000000028526630600000001120020221101SCORPION  SL-22009810000221027SOHABA S                      000002000000145408828104                                  21SCORPION  SL-220098100000CPR3N                                                                            
0200000014540882810000002517202210270039580021356916632005000000924761255200000001120020221101SCORPION  20458989000000221027GININDA S                     000002000000145408828104                                  21SCORPION  204589890000000CPR3O                                                                            
0200000014540882810000002517202210270039580021356917470010000000118146963300000001120020221101SCORPION  SL-21249570000221027PIKA T                        000002000000145408828104                                  21SCORPION  SL-212495700000CPR3P                                                                            
0200000014540882810000002517202210270039580021356918250655000005132004295900000001120020221101SCORPION  SL-39734470000221027MASEKELA I                    000002000000145408828104                                  21SCORPION  SL-397344700000CPR3Q                                                                            
0200000014540882810000002517202210270039580021356919632005000000931124944700000001120020221101SCORPION  20537594000000221027TUGWANA J                     000002000000145408828104                                  21SCORPION  205375940000000CPR3R                                                                            
0200000014540882810000002517202210270039580021356920198765000000112369031600000001120020221101SCORPION  SL-32679880000221027CHOKOE MS                     000002000000145408828104                                  21SCORPION  SL-326798800000CPR3S                                                                            
0200000014540882810000002517202210270039580021356921632005000000002216465100000001120020221101SCORPION  SL-21414630000221027BEYI MS                       000002000000145408828104                                  21SCORPION  SL-214146300000CPR3T                                                                            
0200000014540882810000002517202210270039580021356922470010000000111811514500000001120020221101SCORPION  SL-14554430000221027SAWA-JAMA M                   000002000000145408828104                                  21SCORPION  SL-145544300000CPR3U                                                                            
0200000014540882810000002517202210270039580021356923470010000000111811514500000001120020221101SCORPION  SL-14554430000221027SAWA-JAMA M                   000002000000145408828104                                  21SCORPION  SL-145544300000CPR3V                                                                            
0200000014540882810000002517202210270039580021356924632005000000102014038700000001120020221101SCORPION  SL-15149220000221027GOPANE MP                     000002000000145408828104                                  21SCORPION  SL-151492200000CPR3W                                                                            
0200000014540882810000002517202210270039580021356925250655000005205001824400000001120020221101SCORPION  SL-17047630000221027MOSIMANYANA MM                000002000000145408828104                                  21SCORPION  SL-170476300000CPR3X                                                                            
0200000014540882810000002517202210270039580021356926250655000005435000725800000001730020221101SCORPION  SL-29777080000221027BARUTI MEA                    000002000000145408828104                                  21SCORPION  SL-297770800000CPR3Y                                                                            
0200000014540882810000002517202210270039580021356927051001000000003167384800000001120020221101SCORPION  SL-90490500000221027MOGATUSI N                    000002000000145408828104                                  21SCORPION  SL-904905000000CPR3Z                                                                            
0200000014540882810000002517202210270039580021356928051001000000024006390200000001120020221101SCORPION  SL-54387000000221027HERMANUS AJ                   000002000000145408828104                                  21SCORPION  SL-543870000000CPR40                                                                            
0200000014540882810000002517202210270039580021356929632005000000921872563300000001120020221101SCORPION  SL-37394850000221027MORTON R                      000002000000145408828104                                  21SCORPION  SL-373948500000CPR41                                                                            
0200000014540882810000002517202210270039580021356930250655000006021828110700000001120020221101SCORPION  SL-15330900000221027MAGAZI VP                     000002000000145408828104                                  21SCORPION  SL-153309000000CPR42                                                                            
0200000014540882810000002517202210270039580021356931250655000006212423067400000001120020221101SCORPION  SL-32784520000221027SEBOYA W                      000002000000145408828104                                  21SCORPION  SL-327845200000CPR43                                                                            
0200000014540882810000002517202210270039580021356932250655000006216359087300000001120020221101SCORPION  SL-19289770000221027NABUNDA H                     000002000000145408828104                                  21SCORPION  SL-192897700000CPR44                                                                            
0200000014540882810000002517202210270039580021356933250655000006220231097600000001120020221101SCORPION  SL-36664070000221027MONGADI J                     000002000000145408828104                                  21SCORPION  SL-366640700000CPR45                                                                            
0200000014540882810000002517202210270039580021356934198765000000135307992900000001120020221101SCORPION  SL-39835830000221027KHOAELE M                     000002000000145408828104                                  21SCORPION  SL-398358300000CPR46                                                                            
0200000014540882810000002517202210270039580021356935752324000000002304234400000001120020221101SCORPION  SL-59109800000221027GUMBI SW                      000002000000145408828104                                  21SCORPION  SL-591098000000CPR47                                                                            
0200000014540882810000002517202210270039580021356936250655000006029118779400000000560020221101SCORPION  SL-37734810000221027MOTLOUNG M                    000002000000145408828104                                  21SCORPION  SL-377348100000CPR48                                                                            
0200000014540882810000002517202210270039580021356937051001000000018225346500000001030020221101SCORPION  SL-20408203000221027GOBENI C                      000002000000145408828104                                  21SCORPION  SL-204082030000CPR49                                                                            
0200000014540882810000002517202210270039580021356938470010000000111188804100000001120020221101SCORPION  SL-40172340000221027SELALA MM                     000002000000145408828104                                  21SCORPION  SL-401723400000CPR4A                                                                            
0200000014540882810000002517202210270039580021356939632005000000912556339400000001120020221101SCORPION  SL-24955300000221027MAKADA MAK                    000002000000145408828104                                  21SCORPION  SL-249553000000CPR4B                                                                            
0200000014540882810000002517202210270039580021356940632005000000901524427700000001120020221101SCORPION  SL-40270910000221027KUMALO I                      000002000000145408828104                                  21SCORPION  SL-402709100000CPR4C                                                                            
0200000014540882810000002517202210270039580021356941051001000000008897762500000001120020221101SCORPION  SL-40141440000221027SACCO P                       000002000000145408828104                                  21SCORPION  SL-401414400000CPR4D                                                                            
0200000014540882810000002517202210270039580021356942632005000000929519340300000001120020221101SCORPION  SL-36504200000221027MAHLANGU S                    000002000000145408828104                                  21SCORPION  SL-365042000000CPR4E                                                                            
0200000014540882810000002517202210270039580021356943632005000000408126588900000001120020221101SCORPION  SL-38245540000221027MAFATHLE D                    000002000000145408828104                                  21SCORPION  SL-382455400000CPR4F                                                                            
0200000014540882810000002517202210270039580021356944470010000000128611681100000001120020221101SCORPION  SL-38599050000221027JANTJIES P                    000002000000145408828104                                  21SCORPION  SL-385990500000CPR4G                                                                            
0200000014540882810000002517202210270039580021356945470010000000131173691100000001120020221101SCORPION  20513786000000221027BUTSHINGI K                   000002000000145408828104                                  21SCORPION  205137860000000CPR4H                                                                            
0200000014540882810000002517202210270039580021356946051001000000018281448300000001120020221101SCORPION  SL-39092100000221027MTSHAWULANA N                 000002000000145408828104                                  21SCORPION  SL-390921000000CPR4I                                                                            
0200000014540882810000002517202210270039580021356947632005000000406794206700000001120020221101SCORPION  SL-20966880000221027MHLAULI GN                    000002000000145408828104                                  21SCORPION  SL-209668800000CPR4J                                                                            
0200000014540882810000002517202210270039580021356948632005000000406794206700000001120020221101SCORPION  SL-20966880000221027MHLAULI GN                    000002000000145408828104                                  21SCORPION  SL-209668800000CPR4K                                                                            
0200000014540882810000002517202210270039580021356949632005000000904386395700000001120020221101SCORPION  SL-10594810000221027MOTHIBI P                     000002000000145408828104                                  21SCORPION  SL-105948100000CPR4L                                                                            
0200000014540882810000002517202210270039580021356950198765000000208104679200000001120020221101SCORPION  SL-29958590000221027MAARMAN O                     000002000000145408828104                                  21SCORPION  SL-299585900000CPR4M                                                                            
0200000014540882810000002517202210270039580021356951198765000000253505512000000001120020221101SCORPION  SL-38535570000221027JOSEPH L                      000002000000145408828104                                  21SCORPION  SL-385355700000CPR4N                                                                            
0200000014540882810000002517202210270039580021356952470010000000111194312300000001120020221101SCORPION  SL-34242000000221027KHUMALO NC                    000002000000145408828104                                  21SCORPION  SL-342420000000CPR4O                                                                            
0200000014540882810000002517202210270039580021356953198765000000265201472200000001120020221101SCORPION  SL-17892300000221027MOROTHO LJ                    000002000000145408828104                                  21SCORPION  SL-178923000000CPR4P                                                                            
0200000014540882810000002517202210270039580021356954198765000000239308294800000001120020221101SCORPION  SL-39196360000221027MAKGOPA M                     000002000000145408828104                                  21SCORPION  SL-391963600000CPR4Q                                                                            
0200000014540882810000002517202210270039580021356955198765000000296145944300000001120020221101SCORPION  SL-22538900000221027MORAPEDI T                    000002000000145408828104                                  21SCORPION  SL-225389000000CPR4R                                                                            
0200000014540882810000002517202210270039580021356956198765000000296145944300000001120020221101SCORPION  SL-22538900000221027MORAPEDI T                    000002000000145408828104                                  21SCORPION  SL-225389000000CPR4S                                                                            
0200000014540882810000002517202210270039580021356957470010000000136481726600000001120020221101SCORPION  SL-37454590000221027MYONA V                       000002000000145408828104                                  21SCORPION  SL-374545900000CPR4T                                                                            
0200000014540882810000002517202210270039580021356958470010000000112417311900000001120020221101SCORPION  SL-16134030000221027RIKHOTSO J                    000002000000145408828104                                  21SCORPION  SL-161340300000CPR4U                                                                            
0200000014540882810000002517202210270039580021356959470010000000112417311900000001120020221101SCORPION  SL-16134030000221027RIKHOTSO J                    000002000000145408828104                                  21SCORPION  SL-161340300000CPR4V                                                                            
0200000014540882810000002517202210270039580021356960632005000000900082473300000001120020221101SCORPION  SL-12798920000221027LUTHULI MH                    000002000000145408828104                                  21SCORPION  SL-127989200000CPR4W                                                                            
0200000014540882810000002517202210270039580021356961632005000000132816114800000001120020221101SCORPION  SL-32653870000221027SLABBERT A                    000002000000145408828104                                  21SCORPION  SL-326538700000CPR4X                                                                            
0200000014540882810000002517202210270039580021356962470010000000112395185100000001120020221101SCORPION  SL-27852130000221027CHILOANE L                    000002000000145408828104                                  21SCORPION  SL-278521300000CPR4Y                                                                            
0200000014540882810000002517202210270039580021356963470010000000120706257800000001120020221101SCORPION  SL-40060770000221027MDITSHWA M                    000002000000145408828104                                  21SCORPION  SL-400607700000CPR4Z                                                                            
0200000014540882810000002517202210270039580021356964051001000000028822991600000001120020221101SCORPION  SL-26533940000221027WILLIAMS G                    000002000000145408828104                                  21SCORPION  SL-265339400000CPR50                                                                            
0200000014540882810000002517202210270039580021356965051001000000028822991600000001120020221101SCORPION  SL-26533940000221027WILLIAMS G                    000002000000145408828104                                  21SCORPION  SL-265339400000CPR51                                                                            
0200000014540882810000002517202210270039580021356966632005000000921488760700000001120020221101SCORPION  SL-36528760000221027KHONZANI NB                   000002000000145408828104                                  21SCORPION  SL-365287600000CPR52                                                                            
0200000014540882810000002517202210270039580021356967198765000000102957689000000001730020221101SCORPION  SL-37680710000221027MISRA D                       000002000000145408828104                                  21SCORPION  SL-376807100000CPR53                                                                            
0200000014540882810000002517202210270039580021356968470010000000118876075900000001120020221101SCORPION  SL-17349000000221027BOSIGO KJ                     000002000000145408828104                                  21SCORPION  SL-173490000000CPR54                                                                            
0200000014540882810000002517202210270039580021356969632005000000907085227600000000560020221101SCORPION  SL-16918000000221027MAVUSO M                      000002000000145408828104                                  21SCORPION  SL-169180000000CPR55                                                                            
0200000014540882810000002517202210270039580021356970470010000000132778754500000000560020221101SCORPION  SL-38835500000221027BEUKES L                      000002000000145408828104                                  21SCORPION  SL-388355000000CPR56                                                                            
0200000014540882810000002517202210270039580021356971470010000000120050347100000000560020221101SCORPION  SL-24297490000221027KAIBE F                       000002000000145408828104                                  21SCORPION  SL-242974900000CPR57                                                                            
0200000014540882810000002517202210270039580021356972632005000000905417016900000001120020221101SCORPION  SL-17858960000221027MAPISA L                      000002000000145408828104                                  21SCORPION  SL-178589600000CPR58                                                                            
0200000014540882810000002517202210270039580021356973632005000000906484366500000001030020221101SCORPION  SL-20411917000221027THRING AA                     000002000000145408828104                                  21SCORPION  SL-204119170000CPR59                                                                            
0200000014540882810000002517202210270039580021356974632005000000926197154200000001030020221101SCORPION  SL-47010100000221027MASHABELA K                   000002000000145408828104                                  21SCORPION  SL-470101000000CPR5A                                                                            
0200000014540882810000002517202210270039580021356975632005000000926197154200000001030020221101SCORPION  SL-47010100000221027MASHABELA K                   000002000000145408828104                                  21SCORPION  SL-470101000000CPR5B                                                                            
0200000014540882810000002517202210270039580021356976051001000000025066290600000001120020221101SCORPION  SL-37969020000221027MOODLEY N                     000002000000145408828104                                  21SCORPION  SL-379690200000CPR5C                                                                            
0200000014540882810000002517202210270039580021356977470010000000150793655700000001030020221101SCORPION  20446649000000221027SHESHEKU I                    000002000000145408828104                                  21SCORPION  204466490000000CPR5D                                                                            
0200000014540882810000002517202210270039580021356978470010000000150793655700000001030020221101SCORPION  20446649000000221027SHESHEKU I                    000002000000145408828104                                  21SCORPION  204466490000000CPR5E                                                                            
0200000014540882810000002517202210270039580021356979470010000000115691301000000001120020221101SCORPION  20520989000000221027MOEKESTI DJ                   000002000000145408828104                                  21SCORPION  205209890000000CPR5F                                                                            
0200000014540882810000002517202210270039580021356980632005000000904679288800000000560020221101SCORPION  SL-13910610000221027MODISE N                      000002000000145408828104                                  21SCORPION  SL-139106100000CPR5G                                                                            
0200000014540882810000002517202210270039580021356981470010000000114111279300000001120020221101SCORPION  SL-34815700000221027SCHALK B                      000002000000145408828104                                  21SCORPION  SL-348157000000CPR5H                                                                            
0200000014540882810000002517202210270039580021356982470010000000114111279300000001120020221101SCORPION  SL-34815700000221027SCHALK B                      000002000000145408828104                                  21SCORPION  SL-348157000000CPR5I                                                                            
0200000014540882810000002517202210270039580021356983198765000000102631552200000001730020221101SCORPION  SL-25380970000221027MBOKODI SJ                    000002000000145408828104                                  21SCORPION  SL-253809700000CPR5J                                                                            
0200000014540882810000002517202210270039580021356984051001000000033129421400000001120020221101SCORPION  SL-37789570000221027TSHABALALA NM                 000002000000145408828104                                  21SCORPION  SL-377895700000CPR5K                                                                            
0200000014540882810000002517202210270039580021356985470010000000130077639900000000560020221101SCORPION  20460348000000221027JACK N                        000002000000145408828104                                  21SCORPION  204603480000000CPR5L                                                                            
0200000014540882810000002517202210270039580021356986470010000000124705431200000001120020221101SCORPION  SL-39360660000221027RAMMUTLA J                    000002000000145408828104                                  21SCORPION  SL-393606600000CPR5M                                                                            
0200000014540882810000002517202210270039580021356987250655000005240003534300000001120020221101SCORPION  SL-39345450000221027NZAMA S                       000002000000145408828104                                  21SCORPION  SL-393454500000CPR5N                                                                            
0200000014540882810000002517202210270039580021356988250655000006224422936700000001030020221101SCORPION  SL-20407274000221027CHIBINDA RL                   000002000000145408828104                                  21SCORPION  SL-204072740000CPR5O                                                                            
0200000014540882810000002517202210270039580021356989632005000000404067044700000001120020221101SCORPION  20486155000000221027NGOBE L                       000002000000145408828104                                  21SCORPION  204861550000000CPR5P                                                                            
0200000014540882810000002517202210270039580021356990632005000000406853832200000001030020221101SCORPION  20424890000000221027VAN STADEN C                  000002000000145408828104                                  21SCORPION  204248900000000CPR5Q                                                                            
0200000014540882810000002517202210270039580021356991632005000000404628738500000001120020221101SCORPION  SL-36779010000221027NDLAMINI VB                   000002000000145408828104                                  21SCORPION  SL-367790100000CPR5R                                                                            
0200000014540882810000002517202210270039580021356992470010000000137324962300000001120020221101SCORPION  20465122000000221027KLEINSMITH W                  000002000000145408828104                                  21SCORPION  204651220000000CPR5S                                                                            
0200000014540882810000002517202210270039580021356993632005000000909838367300000001120020221101SCORPION  SL-12966660000221027NKABINDE JJ                   000002000000145408828104                                  21SCORPION  SL-129666600000CPR5T                                                                            
0200000014540882810000002517202210270039580021356994632005000003806416012200000001120020221101SCORPION  SL-25991900000221027MBANJWA BI                    000002000000145408828104                                  21SCORPION  SL-259919000000CPR5U                                                                            
0200000014540882810000002517202210270039580021356995470010000000129797662000000000530020221101SCORPION  20435060000000221027JACOBS S                      000002000000145408828104                                  21SCORPION  204350600000000CPR5V                                                                            
0200000014540882810000002517202210270039580021356996470010000000129797662000000000530020221101SCORPION  20435060000000221027JACOBS S                      000002000000145408828104                                  21SCORPION  204350600000000CPR5W                                                                            
0200000014540882810000002517202210270039580021356997632005000000405270840400000001120020221101SCORPION  SL-17934400000221027KHUMALO ME                    000002000000145408828104                                  21SCORPION  SL-179344000000CPR5X                                                                            
0200000014540882810000002517202210270039580021356998051001000001003069061500000001120020221101SCORPION  SL-38152390000221027MNYEBELELA SF                 000002000000145408828104                                  21SCORPION  SL-381523900000CPR5Y                                                                            
0200000014540882810000002517202210270039580021356999051001000000027252660600000001120020221101SCORPION  20531496000000221027DLAMINI M                     000002000000145408828104                                  21SCORPION  205314960000000CPR5Z                                                                            
0200000014540882810000002517202210270039580021357000470010000000117103317400000000560020221101SCORPION  SL-39599630000221027MOLONGOANA M                  000002000000145408828104                                  21SCORPION  SL-395996300000CPR60                                                                            
0200000014540882810000002517202210270039580021357001632005000000146064002000000000560020221101SCORPION  SL-38524340000221027POO HSS                       000002000000145408828104                                  21SCORPION  SL-385243400000CPR61                                                                            
