0200000014540882810000002517202210270039580021358091250655000006217248142700000001120020221101SCORPION  SL-13752600000221027XHEGWANA ZA                   000002000000145408828104                                  21SCORPION  SL-137526000000CPS0B                                                                            
0200000014540882810000002517202210270039580021358092250655000006217248142700000001120020221101SCORPION  SL-13752600000221027XHEGWANA ZA                   000002000000145408828104                                  21SCORPION  SL-137526000000CPS0C                                                                            
0200000014540882810000002517202210270039580021358093051001000000003303907000000001120020221101SCORPION  SL-13765600000221027MAGAGULA GV                   000002000000145408828104                                  21SCORPION  SL-137656000000CPS0D                                                                            
0200000014540882810000002517202210270039580021358094051001000000062675862900000001120020221101SCORPION  SL-13769900000221027MELAPHI S                     000002000000145408828104                                  21SCORPION  SL-137699000000CPS0E                                                                            
0200000014540882810000002517202210270039580021358095431010000000088666357600000001120020221101SCORPION  SL-13776400000221027BIYELA M F                    000002000000145408828104                                  21SCORPION  SL-137764000000CPS0F                                                                            
0200000014540882810000002517202210270039580021358096250655000006265107596500000001120020221101SCORPION  SL-13800200000221027PHILLIPS WCE                  000002000000145408828104                                  21SCORPION  SL-138002000000CPS0G                                                                            
0200000014540882810000002517202210270039580021358097051001000000067347012100000000560020221101SCORPION  SL-13897100000221027ZWANE TP                      000002000000145408828104                                  21SCORPION  SL-138971000000CPS0H                                                                            
0200000014540882810000002517202210270039580021358098250655000006236348424800000001120020221101SCORPION  SL-13921900000221027MAHLANGU J                    000002000000145408828104                                  21SCORPION  SL-139219000000CPS0I                                                                            
0200000014540882810000002517202210270039580021358099198765000000195656508600000001120020221101SCORPION  SL-13970900000221027MOSIA T S                     000002000000145408828104                                  21SCORPION  SL-139709000000CPS0J                                                                            
0200000014540882810000002517202210270039580021358100632005000000138816146500000001120020221101SCORPION  SL-13974900000221027SETSIBA KI                    000002000000145408828104                                  21SCORPION  SL-139749000000CPS0K                                                                            
0200000014540882810000002517202210270039580021358101051001000000000097021200000001120020221101SCORPION  SL-13995100000221027KHUMALO J                     000002000000145408828104                                  21SCORPION  SL-139951000000CPS0L                                                                            
0200000014540882810000002517202210270039580021358102198765000000108033986800000001120020221101SCORPION  SL-14020800000221027MORWATSHEHLA RV               000002000000145408828104                                  21SCORPION  SL-140208000000CPS0M                                                                            
0200000014540882810000002517202210270039580021358103470010000000112268400000000001120020221101SCORPION  SL-14029000000221027TAUMANG M                     000002000000145408828104                                  21SCORPION  SL-140290000000CPS0N                                                                            
0200000014540882810000002517202210270039580021358104051001000000025400213700000001120020221101SCORPION  SL-14083800000221027MASONDO DP                    000002000000145408828104                                  21SCORPION  SL-140838000000CPS0O                                                                            
0200000014540882810000002517202210270039580021358105051001000000063603753300000001120020221101SCORPION  SL-14101100000221027MONAMA MP                     000002000000145408828104                                  21SCORPION  SL-141011000000CPS0P                                                                            
0200000014540882810000002517202210270039580021358106051001000000001406221600000001120020221101SCORPION  SL-14102300000221027LEMAO CK                      000002000000145408828104                                  21SCORPION  SL-141023000000CPS0Q                                                                            
0200000014540882810000002517202210270039580021358107051001000000001406221600000001120020221101SCORPION  SL-14102300000221027LEMAO CK                      000002000000145408828104                                  21SCORPION  SL-141023000000CPS0R                                                                            
0200000014540882810000002517202210270039580021358108470010000000135899282500000001120020221101SCORPION  SL-14106000000221027KLAAS Z                       000002000000145408828104                                  21SCORPION  SL-141060000000CPS0S                                                                            
0200000014540882810000002517202210270039580021358109250655000005286002117200000001120020221101SCORPION  SL-14108300000221027MAVHUNGA RD                   000002000000145408828104                                  21SCORPION  SL-141083000000CPS0T                                                                            
0200000014540882810000002517202210270039580021358110250655000005286002117200000001120020221101SCORPION  SL-14108300000221027MAVHUNGA RD                   000002000000145408828104                                  21SCORPION  SL-141083000000CPS0U                                                                            
0200000014540882810000002517202210270039580021358111198765000000110421090800000000560020221101SCORPION  SL-14149400000221027HLOTSHANA M                   000002000000145408828104                                  21SCORPION  SL-141494000000CPS0V                                                                            
0200000014540882810000002517202210270039580021358112470010000000113748487800000001120020221101SCORPION  SL-14170200000221027GALEHOLE MA                   000002000000145408828104                                  21SCORPION  SL-141702000000CPS0W                                                                            
0200000014540882810000002517202210270039580021358113250655000006012827784000000001120020221101SCORPION  SL-14178300000221027MOTLOUNG H                    000002000000145408828104                                  21SCORPION  SL-141783000000CPS0X                                                                            
0200000014540882810000002517202210270039580021358114198765000000133722743900000000560020221101SCORPION  SL-14212000000221027KHUMALO MM                    000002000000145408828104                                  21SCORPION  SL-142120000000CPS0Y                                                                            
0200000014540882810000002517202210270039580021358115051001000000002055364100000001120020221101SCORPION  SL-14211700000221027VICANE JM                     000002000000145408828104                                  21SCORPION  SL-142117000000CPS0Z                                                                            
0200000014540882810000002517202210270039580021358116051001000000002023618200000001120020221101SCORPION  SL-14220400000221027MABILANE A                    000002000000145408828104                                  21SCORPION  SL-142204000000CPS10                                                                            
0200000014540882810000002517202210270039580021358117051001000000002023618200000001120020221101SCORPION  SL-14220400000221027MABILANE A                    000002000000145408828104                                  21SCORPION  SL-142204000000CPS11                                                                            
0200000014540882810000002517202210270039580021358118632005000000404480683000000001120020221101SCORPION  SL-14220900000221027PHADI OS                      000002000000145408828104                                  21SCORPION  SL-142209000000CPS12                                                                            
0200000014540882810000002517202210270039580021358119051001000000042507798500000001120020221101SCORPION  SL-14249300000221027TWALA FM                      000002000000145408828104                                  21SCORPION  SL-142493000000CPS13                                                                            
0200000014540882810000002517202210270039580021358120051001000000020392690000000001120020221101SCORPION  SL-14269500000221027ZITHA BB                      000002000000145408828104                                  21SCORPION  SL-142695000000CPS14                                                                            
0200000014540882810000002517202210270039580021358121051001000000020357564400000001120020221101SCORPION  SL-14287900000221027SEBILOANE MI                  000002000000145408828104                                  21SCORPION  SL-142879000000CPS15                                                                            
0200000014540882810000002517202210270039580021358122632005000000905135145300000001120020221101SCORPION  SL-14360800000221027MUSEKWA S                     000002000000145408828104                                  21SCORPION  SL-143608000000CPS16                                                                            
0200000014540882810000002517202210270039580021358123632005000003808004104400000001120020221101SCORPION  SL-14371700000221027MOPA M                        000002000000145408828104                                  21SCORPION  SL-143717000000CPS17                                                                            
0200000014540882810000002517202210270039580021358124051001000000028208210700000001120020221101SCORPION  SL-14431400000221027DUBASI S                      000002000000145408828104                                  21SCORPION  SL-144314000000CPS18                                                                            
0200000014540882810000002517202210270039580021358125198765000000104945081700000001120020221101SCORPION  SL-14530100000221027SENAMELA MJ                   000002000000145408828104                                  21SCORPION  SL-145301000000CPS19                                                                            
0200000014540882810000002517202210270039580021358126632005000000969028441600000001120020221101SCORPION  SL-14574600000221027MAGOBOTLA S                   000002000000145408828104                                  21SCORPION  SL-145746000000CPS1A                                                                            
0200000014540882810000002517202210270039580021358127198765000000252102751000000001120020221101SCORPION  SL-14694500000221027MOYO S                        000002000000145408828104                                  21SCORPION  SL-146945000000CPS1B                                                                            
0200000014540882810000002517202210270039580021358128051001000000001667743900000001120020221101SCORPION  SL-14696400000221027MATHIBE BS                    000002000000145408828104                                  21SCORPION  SL-146964000000CPS1C                                                                            
0200000014540882810000002517202210270039580021358129470010000000117141042300000001120020221101SCORPION  SL-14703000000221027MOTHUPI AM                    000002000000145408828104                                  21SCORPION  SL-147030000000CPS1D                                                                            
0200000014540882810000002517202210270039580021358130632005000000002716836100000001120020221101SCORPION  SL-14726400000221027RAMABODU B                    000002000000145408828104                                  21SCORPION  SL-147264000000CPS1E                                                                            
0200000014540882810000002517202210270039580021358131470010000000142686246400000001730020221101SCORPION  SL-14758500000221027MOKONE SM                     000002000000145408828104                                  21SCORPION  SL-147585000000CPS1F                                                                            
0200000014540882810000002517202210270039580021358132470010000000132432956200000001120020221101SCORPION  SL-14764000000221027MBATHA S                      000002000000145408828104                                  21SCORPION  SL-147640000000CPS1G                                                                            
0200000014540882810000002517202210270039580021358133250655000006051213554700000001120020221101SCORPION  SL-14812000000221027MUNYAI TP                     000002000000145408828104                                  21SCORPION  SL-148120000000CPS1H                                                                            
0200000014540882810000002517202210270039580021358134051001000000043721980100000001120020221101SCORPION  SL-14826300000221027MOLEFE J                      000002000000145408828104                                  21SCORPION  SL-148263000000CPS1I                                                                            
0200000014540882810000002517202210270039580021358135051001000000020127235000000000560020221101SCORPION  SL-14858400000221027MAMOME S                      000002000000145408828104                                  21SCORPION  SL-148584000000CPS1J                                                                            
0200000014540882810000002517202210270039580021358136470010000000111775366000000001120020221101SCORPION  SL-14862400000221027MALEME M                      000002000000145408828104                                  21SCORPION  SL-148624000000CPS1K                                                                            
0200000014540882810000002517202210270039580021358137470010000000111775366000000001120020221101SCORPION  SL-14862400000221027MALEME M                      000002000000145408828104                                  21SCORPION  SL-148624000000CPS1L                                                                            
0200000014540882810000002517202210270039580021358138250655000006290425963800000001120020221101SCORPION  SL-14867300000221027MNYANDU ME                    000002000000145408828104                                  21SCORPION  SL-148673000000CPS1M                                                                            
0200000014540882810000002517202210270039580021358139470010000000118544209800000000560020221101SCORPION  SL-14911300000221027SEGOPOLO MK                   000002000000145408828104                                  21SCORPION  SL-149113000000CPS1N                                                                            
0200000014540882810000002517202210270039580021358140051001000000062828714300000001120020221101SCORPION  SL-14913000000221027PHALA MW                      000002000000145408828104                                  21SCORPION  SL-149130000000CPS1O                                                                            
0200000014540882810000002517202210270039580021358141632005000000405795547600000001120020221101SCORPION  SL-14932200000221027MABILLE ON                    000002000000145408828104                                  21SCORPION  SL-149322000000CPS1P                                                                            
0200000014540882810000002517202210270039580021358142632005000000151815138600000001120020221101SCORPION  SL-14951300000221027MAKITI ML                     000002000000145408828104                                  21SCORPION  SL-149513000000CPS1Q                                                                            
0200000014540882810000002517202210270039580021358143632005000000934981057900000001120020221101SCORPION  SL-14963500000221027NGOZO JJ                      000002000000145408828104                                  21SCORPION  SL-149635000000CPS1R                                                                            
0200000014540882810000002517202210270039580021358144632005000000001262870600000001120020221101SCORPION  SL-14988900000221027PAPOLA S                      000002000000145408828104                                  21SCORPION  SL-149889000000CPS1S                                                                            
0200000014540882810000002517202210270039580021358145632005000000410009649200000001120020221101SCORPION  SL-14999800000221027PHOSHOKO SN                   000002000000145408828104                                  21SCORPION  SL-149998000000CPS1T                                                                            
0200000014540882810000002517202210270039580021358146632005000000915741907200000001120020221101SCORPION  SL-15031900000221027LUBISI RC                     000002000000145408828104                                  21SCORPION  SL-150319000000CPS1U                                                                            
0200000014540882810000002517202210270039580021358147470010000000131524663300000001120020221101SCORPION  SL-15043400000221027MABOTJA MP                    000002000000145408828104                                  21SCORPION  SL-150434000000CPS1V                                                                            
0200000014540882810000002517202210270039580021358148051001000000031114075000000001120020221101SCORPION  SL-15067100000221027THUPI MJ                      000002000000145408828104                                  21SCORPION  SL-150671000000CPS1W                                                                            
0200000014540882810000002517202210270039580021358149470010000000131907317200000000560020221101SCORPION  SL-15081300000221027MAHAMANI D                    000002000000145408828104                                  21SCORPION  SL-150813000000CPS1X                                                                            
0200000014540882810000002517202210270039580021358150632005000000405582337400000001120020221101SCORPION  SL-15068500000221027KGAUWE MM                     000002000000145408828104                                  21SCORPION  SL-150685000000CPS1Y                                                                            
0200000014540882810000002517202210270039580021358151250655000006024114699800000001120020221101SCORPION  SL-15069300000221027KHOTLE TS                     000002000000145408828104                                  21SCORPION  SL-150693000000CPS1Z                                                                            
0200000014540882810000002517202210270039580021358152250655000006201484690300000001120020221101SCORPION  SL-15091500000221027NTIMBA MS                     000002000000145408828104                                  21SCORPION  SL-150915000000CPS20                                                                            
0200000014540882810000002517202210270039580021358153250655000006202147558900000001120020221101SCORPION  SL-15119500000221027MOKGOHLWA E                   000002000000145408828104                                  21SCORPION  SL-151195000000CPS21                                                                            
0200000014540882810000002517202210270039580021358154470010000000122230703900000001120020221101SCORPION  SL-15135900000221027NKHWASHU DE                   000002000000145408828104                                  21SCORPION  SL-151359000000CPS22                                                                            
0200000014540882810000002517202210270039580021358155632005000000109817213700000001120020221101SCORPION  SL-15227400000221027SIKHAKHANE GHT                000002000000145408828104                                  21SCORPION  SL-152274000000CPS23                                                                            
0200000014540882810000002517202210270039580021358156250655000006201153525200000001120020221101SCORPION  SL-15232000000221027MAKASI XC                     000002000000145408828104                                  21SCORPION  SL-152320000000CPS24                                                                            
0200000014540882810000002517202210270039580021358157250655000006219970012300000001120020221101SCORPION  SL-15235700000221027MTSHWENI AT                   000002000000145408828104                                  21SCORPION  SL-152357000000CPS25                                                                            
0200000014540882810000002517202210270039580021358158470010000000135778433100000001120020221101SCORPION  SL-15250300000221027MAHLANGU GG                   000002000000145408828104                                  21SCORPION  SL-152503000000CPS26                                                                            
0200000014540882810000002517202210270039580021358159198765000000114560883300000001120020221101SCORPION  SL-15269600000221027MASUKU BV                     000002000000145408828104                                  21SCORPION  SL-152696000000CPS27                                                                            
0200000014540882810000002517202210270039580021358160470010000000127585551000000001120020221101SCORPION  SL-15276400000221027NGOBENI JR                    000002000000145408828104                                  21SCORPION  SL-152764000000CPS28                                                                            
0200000014540882810000002517202210270039580021358161632005000000090983440600000001120020221101SCORPION  SL-15288900000221027PHOLWANA MR                   000002000000145408828104                                  21SCORPION  SL-152889000000CPS29                                                                            
0200000014540882810000002517202210270039580021358162470010000000112147698600000001970020221101SCORPION  SL-15318300000221027RAMMUTLA MD                   000002000000145408828104                                  21SCORPION  SL-153183000000CPS2A                                                                            
0200000014540882810000002517202210270039580021358163470010000000132909662000000000560020221101SCORPION  SL-15381000000221027MUSHIA AV                     000002000000145408828104                                  21SCORPION  SL-153810000000CPS2B                                                                            
0200000014540882810000002517202210270039580021358164470010000000124871232100000000560020221101SCORPION  SL-15396600000221027LUBISI S                      000002000000145408828104                                  21SCORPION  SL-153966000000CPS2C                                                                            
0200000014540882810000002517202210270039580021358165470010000000136267843900000001120020221101SCORPION  SL-15409900000221027MABUNDA MS                    000002000000145408828104                                  21SCORPION  SL-154099000000CPS2D                                                                            
0200000014540882810000002517202210270039580021358166198765000000115634956700000001120020221101SCORPION  SL-15429600000221027KHWINANA J                    000002000000145408828104                                  21SCORPION  SL-154296000000CPS2E                                                                            
0200000014540882810000002517202210270039580021358167198765000000115634956700000001120020221101SCORPION  SL-15429600000221027KHWINANA J                    000002000000145408828104                                  21SCORPION  SL-154296000000CPS2F                                                                            
0200000014540882810000002517202210270039580021358168470010000000142999272500000001120020221101SCORPION  SL-15466800000221027BUDELI RN                     000002000000145408828104                                  21SCORPION  SL-154668000000CPS2G                                                                            
0200000014540882810000002517202210270039580021358169198765000000114507204600000001120020221101SCORPION  SL-15550900000221027NARAINSAMY S                  000002000000145408828104                                  21SCORPION  SL-155509000000CPS2H                                                                            
0200000014540882810000002517202210270039580021358170632005000000131819246000000001120020221101SCORPION  SL-15559600000221027NGWAKO S                      000002000000145408828104                                  21SCORPION  SL-155596000000CPS2I                                                                            
0200000014540882810000002517202210270039580021358171632005000000914577479100000001120020221101SCORPION  SL-15560600000221027MAPHETO ML                    000002000000145408828104                                  21SCORPION  SL-155606000000CPS2J                                                                            
0200000014540882810000002517202210270039580021358172250655000006257662260100000001120020221101SCORPION  SL-15570000000221027SKOSANA DA                    000002000000145408828104                                  21SCORPION  SL-155700000000CPS2K                                                                            
0200000014540882810000002517202210270039580021358173051001000001001824112100000001120020221101SCORPION  SL-15599900000221027MNDZEBELE MM                  000002000000145408828104                                  21SCORPION  SL-155999000000CPS2L                                                                            
0200000014540882810000002517202210270039580021358174250655000006201038941000000001120020221101SCORPION  SL-15659200000221027MOTLOUNG LM                   000002000000145408828104                                  21SCORPION  SL-156592000000CPS2M                                                                            
0200000014540882810000002517202210270039580021358175250655000005399003856600000001120020221101SCORPION  SL-15671100000221027MAGADLELA M                   000002000000145408828104                                  21SCORPION  SL-156711000000CPS2N                                                                            
0200000014540882810000002517202210270039580021358176250655000006200817134000000001120020221101SCORPION  SL-15698500000221027RAMANGWA MA                   000002000000145408828104                                  21SCORPION  SL-156985000000CPS2O                                                                            
0200000014540882810000002517202210270039580021358177198765000000288714203800000001120020221101SCORPION  SL-15770200000221027MOTSEKI MA                    000002000000145408828104                                  21SCORPION  SL-157702000000CPS2P                                                                            
0200000014540882810000002517202210270039580021358178632005000000974075854900000001120020221101SCORPION  SL-15824500000221027NDAMANE MJ                    000002000000145408828104                                  21SCORPION  SL-158245000000CPS2Q                                                                            
0200000014540882810000002517202210270039580021358179250655000006200620479700000001120020221101SCORPION  SL-15842800000221027STOFILE P                     000002000000145408828104                                  21SCORPION  SL-158428000000CPS2R                                                                            
0200000014540882810000002517202210270039580021358180632005000000409994415400000001120020221101SCORPION  SL-15860400000221027NDLOVU S                      000002000000145408828104                                  21SCORPION  SL-158604000000CPS2S                                                                            
0200000014540882810000002517202210270039580021358181051001000000030166333500000001120020221101SCORPION  SL-15881200000221027MOFOKENG MP                   000002000000145408828104                                  21SCORPION  SL-158812000000CPS2T                                                                            
0200000014540882810000002517202210270039580021358182250655000006031930586400000001730020221101SCORPION  SL-15886600000221027MPOFU E                       000002000000145408828104                                  21SCORPION  SL-158866000000CPS2U                                                                            
0200000014540882810000002517202210270039580021358183470010000000170231146300000001120020221101SCORPION  SL-15919600000221027KAMBULE S                     000002000000145408828104                                  21SCORPION  SL-159196000000CPS2V                                                                            
0200000014540882810000002517202210270039580021358184470010000000170231146300000001120020221101SCORPION  SL-15919600000221027KAMBULE S                     000002000000145408828104                                  21SCORPION  SL-159196000000CPS2W                                                                            
0200000014540882810000002517202210270039580021358185470010000000160990914100000001120020221101SCORPION  SL-15927200000221027OLIVIER JTR                   000002000000145408828104                                  21SCORPION  SL-159272000000CPS2X                                                                            
0200000014540882810000002517202210270039580021358186470010000000153728038200000001120020221101SCORPION  SL-15952100000221027MATLAKENG D                   000002000000145408828104                                  21SCORPION  SL-159521000000CPS2Y                                                                            
0200000014540882810000002517202210270039580021358187250655000005399004872100000001120020221101SCORPION  SL-15951500000221027GASA MM                       000002000000145408828104                                  21SCORPION  SL-159515000000CPS2Z                                                                            
0200000014540882810000002517202210270039580021358188051001000000001173175300000001120020221101SCORPION  SL-15968900000221027NOTWANE LF                    000002000000145408828104                                  21SCORPION  SL-159689000000CPS30                                                                            
0200000014540882810000002517202210270039580021358189632005000000094820750800000001120020221101SCORPION  SL-16014300000221027MC PHERSON MIG                000002000000145408828104                                  21SCORPION  SL-160143000000CPS31                                                                            
0200000014540882810000002517202210270039580021358190632005000000404132840300000001120020221101SCORPION  SL-16014600000221027NDEBELE MD                    000002000000145408828104                                  21SCORPION  SL-160146000000CPS32                                                                            
0200000014540882810000002517202210270039580021358191470010000000113433092600000001730020221101SCORPION  SL-16018800000221027COLVEL M                      000002000000145408828104                                  21SCORPION  SL-160188000000CPS33                                                                            
0200000014540882810000002517202210270039580021358192470010000000166917126200000001120020221101SCORPION  SL-16073800000221027MAKUWA TJ                     000002000000145408828104                                  21SCORPION  SL-160738000000CPS34                                                                            
0200000014540882810000002517202210270039580021358193470010000000166917126200000001120020221101SCORPION  SL-16073800000221027MAKUWA TJ                     000002000000145408828104                                  21SCORPION  SL-160738000000CPS35                                                                            
0200000014540882810000002517202210270039580021358194632005000000906635231300000001120020221101SCORPION  SL-16099100000221027TSHABALALA DJ                 000002000000145408828104                                  21SCORPION  SL-160991000000CPS36                                                                            
0200000014540882810000002517202210270039580021358195250655000006200821201100000001120020221101SCORPION  SL-16100800000221027MATLALA R                     000002000000145408828104                                  21SCORPION  SL-161008000000CPS37                                                                            
0200000014540882810000002517202210270039580021358196250655000006200821201100000001120020221101SCORPION  SL-16100800000221027MATLALA R                     000002000000145408828104                                  21SCORPION  SL-161008000000CPS38                                                                            
0200000014540882810000002517202210270039580021358197051001000000002605113300000001120020221101SCORPION  SL-16108200000221027NCONGWANE MW                  000002000000145408828104                                  21SCORPION  SL-161082000000CPS39                                                                            
0200000014540882810000002517202210270039580021358198198765000000200820559200000001120020221101SCORPION  SL-16113800000221027MOLEFE FM                     000002000000145408828104                                  21SCORPION  SL-161138000000CPS3A                                                                            
0200000014540882810000002517202210270039580021358199051001000000006205096600000001120020221101SCORPION  SL-16149700000221027MOODLEY S                     000002000000145408828104                                  21SCORPION  SL-161497000000CPS3B                                                                            
0200000014540882810000002517202210270039580021358200250655000006276492848100000001120020221101SCORPION  SL-16153200000221027VALA KT                       000002000000145408828104                                  21SCORPION  SL-161532000000CPS3C                                                                            
0200000014540882810000002517202210270039580021358201470010000000136541354100000001120020221101SCORPION  SL-16213000000221027MOCWALEDI LJ                  000002000000145408828104                                  21SCORPION  SL-162130000000CPS3D                                                                            
0200000014540882810000002517202210270039580021358202470010000000118387348200000000560020221101SCORPION  SL-16219900000221027MTSHALI A                     000002000000145408828104                                  21SCORPION  SL-162199000000CPS3E                                                                            
0200000014540882810000002517202210270039580021358203051001000000040224375700000001120020221101SCORPION  SL-16259800000221027MTSHALI MC                    000002000000145408828104                                  21SCORPION  SL-162598000000CPS3F                                                                            
0200000014540882810000002517202210270039580021358204632005000000002844292400000001120020221101SCORPION  SL-16312500000221027SADIKE M                      000002000000145408828104                                  21SCORPION  SL-163125000000CPS3G                                                                            
0200000014540882810000002517202210270039580021358205470010000000147120606600000001120020221101SCORPION  SL-16315200000221027THOBEJANE EM                  000002000000145408828104                                  21SCORPION  SL-163152000000CPS3H                                                                            
0200000014540882810000002517202210270039580021358206051001000000000203658400000001120020221101SCORPION  SL-16331900000221027TLADI AP                      000002000000145408828104                                  21SCORPION  SL-163319000000CPS3I                                                                            
0200000014540882810000002517202210270039580021358207632005000000404943649600000001120020221101SCORPION  SL-16373600000221027NETSHIVHAMBE S                000002000000145408828104                                  21SCORPION  SL-163736000000CPS3J                                                                            
0200000014540882810000002517202210270039580021358208632005000000409013787900000001120020221101SCORPION  SL-16408300000221027MASIYE B                      000002000000145408828104                                  21SCORPION  SL-164083000000CPS3K                                                                            
0200000014540882810000002517202210270039580021358209632005000000906547072400000001120020221101SCORPION  SL-16473100000221027NKOMO N                       000002000000145408828104                                  21SCORPION  SL-164731000000CPS3L                                                                            
0200000014540882810000002517202210270039580021358210632005000000906547072400000001120020221101SCORPION  SL-16473100000221027NKOMO N                       000002000000145408828104                                  21SCORPION  SL-164731000000CPS3M                                                                            
0200000014540882810000002517202210270039580021358211470010000000132752690300000001120020221101SCORPION  SL-16493100000221027MOTSOENENG J                  000002000000145408828104                                  21SCORPION  SL-164931000000CPS3N                                                                            
0200000014540882810000002517202210270039580021358212470010000000132149593300000001120020221101SCORPION  SL-16515500000221027RAMBAU NCJ                    000002000000145408828104                                  21SCORPION  SL-165155000000CPS3O                                                                            
0200000014540882810000002517202210270039580021358213051001000000013546975900000001120020221101SCORPION  SL-16524200000221027NTSHONYANE MP                 000002000000145408828104                                  21SCORPION  SL-165242000000CPS3P                                                                            
0200000014540882810000002517202210270039580021358214051001000001008507425800000000560020221101SCORPION  SL-16579100000221027GCUMA NV                      000002000000145408828104                                  21SCORPION  SL-165791000000CPS3Q                                                                            
0200000014540882810000002517202210270039580021358215470010000000154963483400000001120020221101SCORPION  SL-16585700000221027BOTTOMAN M                    000002000000145408828104                                  21SCORPION  SL-165857000000CPS3R                                                                            
0200000014540882810000002517202210270039580021358216051001000000033162951800000001120020221101SCORPION  SL-16656200000221027MANZINI HG                    000002000000145408828104                                  21SCORPION  SL-166562000000CPS3S                                                                            
0200000014540882810000002517202210270039580021358217250655000006201331900000000001120020221101SCORPION  SL-16687800000221027SIDIA OB                      000002000000145408828104                                  21SCORPION  SL-166878000000CPS3T                                                                            
0200000014540882810000002517202210270039580021358218250655000006265539304000000001120020221101SCORPION  SL-16759900000221027TAU J                         000002000000145408828104                                  21SCORPION  SL-167599000000CPS3U                                                                            
0200000014540882810000002517202210270039580021358219051001000000028008948100000001120020221101SCORPION  SL-16770500000221027MAFFA B                       000002000000145408828104                                  21SCORPION  SL-167705000000CPS3V                                                                            
0200000014540882810000002517202210270039580021358220198765000000116282089600000001120020221101SCORPION  SL-16807900000221027DLONGOLO K                    000002000000145408828104                                  21SCORPION  SL-168079000000CPS3W                                                                            
0200000014540882810000002517202210270039580021358221470010000000121574479800000001120020221101SCORPION  SL-16809900000221027MATHABATHE L                  000002000000145408828104                                  21SCORPION  SL-168099000000CPS3X                                                                            
0200000014540882810000002517202210270039580021358222198765000000121468637000000001120020221101SCORPION  SL-16872700000221027THOKOANE JS                   000002000000145408828104                                  21SCORPION  SL-168727000000CPS3Y                                                                            
0200000014540882810000002517202210270039580021358223470010000000139531704400000001090020221101SCORPION  SL-16924300000221027MTEMBO M                      000002000000145408828104                                  21SCORPION  SL-169243000000CPS3Z                                                                            
0200000014540882810000002517202210270039580021358224470010000000116953268100000001120020221101SCORPION  SL-16957400000221027MBATHA KC                     000002000000145408828104                                  21SCORPION  SL-169574000000CPS40                                                                            
0200000014540882810000002517202210270039580021358225470010000000145261231300000001120020221101SCORPION  SL-16958600000221027MARUMO RM                     000002000000145408828104                                  21SCORPION  SL-169586000000CPS41                                                                            
0200000014540882810000002517202210270039580021358226051001000000000825574100000001120020221101SCORPION  SL-16970200000221027LETOKA PL                     000002000000145408828104                                  21SCORPION  SL-169702000000CPS42                                                                            
0200000014540882810000002517202210270039580021358227051001000000006057213200000001120020221101SCORPION  SL-16997800000221027MATLALA JK                    000002000000145408828104                                  21SCORPION  SL-169978000000CPS43                                                                            
0200000014540882810000002517202210270039580021358228051001000000006031240800000001120020221101SCORPION  SL-17004900000221027MBATHA ME                     000002000000145408828104                                  21SCORPION  SL-170049000000CPS44                                                                            
0200000014540882810000002517202210270039580021358229051001000000002474790400000001120020221101SCORPION  SL-17030800000221027MOFOKENG LJ                   000002000000145408828104                                  21SCORPION  SL-170308000000CPS45                                                                            
0200000014540882810000002517202210270039580021358230051001000000002474790400000001120020221101SCORPION  SL-17030800000221027MOFOKENG LJ                   000002000000145408828104                                  21SCORPION  SL-170308000000CPS46                                                                            
0200000014540882810000002517202210270039580021358231470010000000154067110900000001120020221101SCORPION  SL-17042900000221027MASEKO W                      000002000000145408828104                                  21SCORPION  SL-170429000000CPS47                                                                            
0200000014540882810000002517202210270039580021358232470010000000154067110900000001120020221101SCORPION  SL-17042900000221027MASEKO W                      000002000000145408828104                                  21SCORPION  SL-170429000000CPS48                                                                            
0200000014540882810000002517202210270039580021358233051001000000022424201600000001120020221101SCORPION  SL-17081400000221027MOFOKENG MP                   000002000000145408828104                                  21SCORPION  SL-170814000000CPS49                                                                            
0200000014540882810000002517202210270039580021358234632005000000903515624200000001120020221101SCORPION  SL-17109700000221027GQOKOMA NS                    000002000000145408828104                                  21SCORPION  SL-171097000000CPS4A                                                                            
0200000014540882810000002517202210270039580021358235470010000000152664408600000001120020221101SCORPION  SL-17117000000221027TSHABALALA MP                 000002000000145408828104                                  21SCORPION  SL-171170000000CPS4B                                                                            
0200000014540882810000002517202210270039580021358236470010000000161422602200000001120020221101SCORPION  SL-17170600000221027MOTSHABENG MJ                 000002000000145408828104                                  21SCORPION  SL-171706000000CPS4C                                                                            
0200000014540882810000002517202210270039580021358237250655000006232222485900000001120020221101SCORPION  SL-17192600000221027LEWISA E                      000002000000145408828104                                  21SCORPION  SL-171926000000CPS4D                                                                            
0200000014540882810000002517202210270039580021358238051001000000000555311300000001120020221101SCORPION  SL-17214200000221027NKOSI J                       000002000000145408828104                                  21SCORPION  SL-172142000000CPS4E                                                                            
0200000014540882810000002517202210270039580021358239250655000006239213279300000001120020221101SCORPION  SL-17266500000221027MOGATLA P                     000002000000145408828104                                  21SCORPION  SL-172665000000CPS4F                                                                            
0200000014540882810000002517202210270039580021358240470010000000116752137200000001120020221101SCORPION  SL-17286900000221027PHALADI JM                    000002000000145408828104                                  21SCORPION  SL-172869000000CPS4G                                                                            
0200000014540882810000002517202210270039580021358241198765000000120895030400000001120020221101SCORPION  SL-17307100000221027NGOBENI BM                    000002000000145408828104                                  21SCORPION  SL-173071000000CPS4H                                                                            
0200000014540882810000002517202210270039580021358242051001000000065776283000000001120020221101SCORPION  SL-17321800000221027MOTHEMANE MW                  000002000000145408828104                                  21SCORPION  SL-173218000000CPS4I                                                                            
0200000014540882810000002517202210270039580021358243051001000000003243702100000001120020221101SCORPION  SL-17346200000221027MASHIANE MG                   000002000000145408828104                                  21SCORPION  SL-173462000000CPS4J                                                                            
0200000014540882810000002517202210270039580021358244632005000000408623408300000001120020221101SCORPION  SL-17349900000221027MPHELA MM                     000002000000145408828104                                  21SCORPION  SL-173499000000CPS4K                                                                            
0200000014540882810000002517202210270039580021358245051001000000030075866900000001120020221101SCORPION  SL-17387000000221027DOLAMO MB                     000002000000145408828104                                  21SCORPION  SL-173870000000CPS4L                                                                            
0200000014540882810000002517202210270039580021358246051001000000030075866900000001120020221101SCORPION  SL-17387000000221027DOLAMO MB                     000002000000145408828104                                  21SCORPION  SL-173870000000CPS4M                                                                            
0200000014540882810000002517202210270039580021358247250655000006204527234100000001120020221101SCORPION  SL-17396300000221027LAMOEN NA                     000002000000145408828104                                  21SCORPION  SL-173963000000CPS4N                                                                            
0200000014540882810000002517202210270039580021358248051001000000005056695400000000560020221101SCORPION  SL-17402100000221027SANGWENI BK                   000002000000145408828104                                  21SCORPION  SL-174021000000CPS4O                                                                            
0200000014540882810000002517202210270039580021358249250655000006200982847900000001120020221101SCORPION  SL-17448900000221027POOPEDI JK                    000002000000145408828104                                  21SCORPION  SL-174489000000CPS4P                                                                            
0200000014540882810000002517202210270039580021358250051001000001006437870300000000360020221101SCORPION  SL-17474600000221027MBOMBI F                      000002000000145408828104                                  21SCORPION  SL-174746000000CPS4Q                                                                            
0200000014540882810000002517202210270039580021358251051001000000006113335300000001120020221101SCORPION  SL-17499100000221027PATEKILE TE                   000002000000145408828104                                  21SCORPION  SL-174991000000CPS4R                                                                            
0200000014540882810000002517202210270039580021358252632005000000929014214800000001120020221101SCORPION  SL-17546800000221027NTULI ZJ                      000002000000145408828104                                  21SCORPION  SL-175468000000CPS4S                                                                            
0200000014540882810000002517202210270039580021358253470010000000134036368000000001730020221101SCORPION  SL-17549100000221027GOLIATH AJ                    000002000000145408828104                                  21SCORPION  SL-175491000000CPS4T                                                                            
0200000014540882810000002517202210270039580021358254470010000000125160059800000001120020221101SCORPION  SL-17621200000221027MOKOENA L                     000002000000145408828104                                  21SCORPION  SL-176212000000CPS4U                                                                            
0200000014540882810000002517202210270039580021358255470010000000140965057800000001120020221101SCORPION  SL-17622000000221027MODUNGWANA SO                 000002000000145408828104                                  21SCORPION  SL-176220000000CPS4V                                                                            
0200000014540882810000002517202210270039580021358256051001000000001649708200000001120020221101SCORPION  SL-17626800000221027NKHAVELANI MH                 000002000000145408828104                                  21SCORPION  SL-176268000000CPS4W                                                                            
0200000014540882810000002517202210270039580021358257198765000000109128032000000001120020221101SCORPION  SL-17651800000221027HLUNGWANI LL                  000002000000145408828104                                  21SCORPION  SL-176518000000CPS4X                                                                            
0200000014540882810000002517202210270039580021358258632005000000914413573400000001120020221101SCORPION  SL-17668300000221027BALOYI VP                     000002000000145408828104                                  21SCORPION  SL-176683000000CPS4Y                                                                            
0200000014540882810000002517202210270039580021358259051001000000002041236300000001120020221101SCORPION  SL-17682600000221027NGOMANE SS                    000002000000145408828104                                  21SCORPION  SL-176826000000CPS4Z                                                                            
0200000014540882810000002517202210270039580021358260470010000000152204089500000000560020221101SCORPION  SL-17687700000221027MAKHUVHA F                    000002000000145408828104                                  21SCORPION  SL-176877000000CPS50                                                                            
0200000014540882810000002517202210270039580021358261470010000000152204089500000000560020221101SCORPION  SL-17687700000221027MAKHUVHA F                    000002000000145408828104                                  21SCORPION  SL-176877000000CPS51                                                                            
0200000014540882810000002517202210270039580021358262051001000000027113994300000001120020221101SCORPION  SL-17687500000221027NGWENYA VL                    000002000000145408828104                                  21SCORPION  SL-176875000000CPS52                                                                            
0200000014540882810000002517202210270039580021358263470010000000187835127100000001120020221101SCORPION  SL-17757400000221027GABORONE T                    000002000000145408828104                                  21SCORPION  SL-177574000000CPS53                                                                            
0200000014540882810000002517202210270039580021358264051001000001009194990200000001120020221101SCORPION  SL-17800500000221027MATLALA S                     000002000000145408828104                                  21SCORPION  SL-178005000000CPS54                                                                            
0200000014540882810000002517202210270039580021358265632005000000900256815900000001120020221101SCORPION  SL-17806900000221027MAJIKELA NM                   000002000000145408828104                                  21SCORPION  SL-178069000000CPS55                                                                            
0200000014540882810000002517202210270039580021358266198765000000110820082600000001120020221101SCORPION  SL-17843700000221027THOBEJANE MF                  000002000000145408828104                                  21SCORPION  SL-178437000000CPS56                                                                            
0200000014540882810000002517202210270039580021358267632005000000408048024400000001120020221101SCORPION  SL-17863800000221027MAMABOLO MA                   000002000000145408828104                                  21SCORPION  SL-178638000000CPS57                                                                            
0200000014540882810000002517202210270039580021358268250655000006033515523500000001120020221101SCORPION  SL-17864500000221027SHONGWE DM                    000002000000145408828104                                  21SCORPION  SL-178645000000CPS58                                                                            
0200000014540882810000002517202210270039580021358269632005000000012262347500000001120020221101SCORPION  SL-17878800000221027MABILOANA J                   000002000000145408828104                                  21SCORPION  SL-178788000000CPS59                                                                            
0200000014540882810000002517202210270039580021358270632005000000002209012100000001120020221101SCORPION  SL-17909700000221027MADUMO TM                     000002000000145408828104                                  21SCORPION  SL-179097000000CPS5A                                                                            
0200000014540882810000002517202210270039580021358271470010000000112397081300000001120020221101SCORPION  SL-17925800000221027SEKHUTSOANYANE LJ             000002000000145408828104                                  21SCORPION  SL-179258000000CPS5B                                                                            
0200000014540882810000002517202210270039580021358272198765000000116241493600000000560020221101SCORPION  SL-17960800000221027SIPHIKA N                     000002000000145408828104                                  21SCORPION  SL-179608000000CPS5C                                                                            
0200000014540882810000002517202210270039580021358273198765000000116241493600000000560020221101SCORPION  SL-17960800000221027SIPHIKA N                     000002000000145408828104                                  21SCORPION  SL-179608000000CPS5D                                                                            
0200000014540882810000002517202210270039580021358274051001000000062395135500000001120020221101SCORPION  SL-17989200000221027MANTHATA WM                   000002000000145408828104                                  21SCORPION  SL-179892000000CPS5E                                                                            
0200000014540882810000002517202210270039580021358275051001000000025098527600000001120020221101SCORPION  SL-18000300000221027MDHLANE ME                    000002000000145408828104                                  21SCORPION  SL-180003000000CPS5F                                                                            
0200000014540882810000002517202210270039580021358276632005000003811897070200000001120020221101SCORPION  SL-18028300000221027BUTHELEZI DG                  000002000000145408828104                                  21SCORPION  SL-180283000000CPS5G                                                                            
0200000014540882810000002517202210270039580021358277198765000000102265477200000001120020221101SCORPION  SL-18089100000221027MPINGELWANA S                 000002000000145408828104                                  21SCORPION  SL-180891000000CPS5H                                                                            
0200000014540882810000002517202210270039580021358278250655000005417002995300000001120020221101SCORPION  SL-18100100000221027MTHETHWA DB                   000002000000145408828104                                  21SCORPION  SL-181001000000CPS5I                                                                            
0200000014540882810000002517202210270039580021358279250655000006218596498100000001120020221101SCORPION  SL-18102700000221027KHANYE P                      000002000000145408828104                                  21SCORPION  SL-181027000000CPS5J                                                                            
0200000014540882810000002517202210270039580021358280470010000000134469321900000001260020221101SCORPION  SL-18178900000221027FREEMAN SG                    000002000000145408828104                                  21SCORPION  SL-181789000000CPS5K                                                                            
0200000014540882810000002517202210270039580021358281250655000006200612940800000001120020221101SCORPION  SL-18180800000221027CELE TJ                       000002000000145408828104                                  21SCORPION  SL-181808000000CPS5L                                                                            
0200000014540882810000002517202210270039580021358282632005000000904761267100000001120020221101SCORPION  SL-18213700000221027SIBEKO WT                     000002000000145408828104                                  21SCORPION  SL-182137000000CPS5M                                                                            
0200000014540882810000002517202210270039580021358283470010000000111016171700000000560020221101SCORPION  SL-39229460000221027MAROBE PB                     000002000000145408828104                                  21SCORPION  SL-392294600000CPS5N                                                                            
0200000014540882810000002517202210270039580021358284198765000000112089791200000001120020221101SCORPION  SL-18244200000221027MORARE KA                     000002000000145408828104                                  21SCORPION  SL-182442000000CPS5O                                                                            
0200000014540882810000002517202210270039580021358285051001000000041092966200000001120020221101SCORPION  SL-18353400000221027MOKOENA KP                    000002000000145408828104                                  21SCORPION  SL-183534000000CPS5P                                                                            
0200000014540882810000002517202210270039580021358286632005000000912632365800000001730020221101SCORPION  SL-18362000000221027MOTSEMME MA                   000002000000145408828104                                  21SCORPION  SL-183620000000CPS5Q                                                                            
0200000014540882810000002517202210270039580021358287632005000003802363076900000001120020221101SCORPION  SL-18390900000221027THABA SMC                     000002000000145408828104                                  21SCORPION  SL-183909000000CPS5R                                                                            
0200000014540882810000002517202210270039580021358288470010000000155550716400000001120020221101SCORPION  SL-18426400000221027NGWENYA R                     000002000000145408828104                                  21SCORPION  SL-184264000000CPS5S                                                                            
0200000014540882810000002517202210270039580021358289470010000000164621608100000001120020221101SCORPION  SL-18564600000221027MARIMA J                      000002000000145408828104                                  21SCORPION  SL-185646000000CPS5T                                                                            
0200000014540882810000002517202210270039580021358290632005000000408160235200000001120020221101SCORPION  SL-18572200000221027MASHIMBYE DM                  000002000000145408828104                                  21SCORPION  SL-185722000000CPS5U                                                                            
0200000014540882810000002517202210270039580021358291250655000006010246197200000001120020221101SCORPION  SL-18583600000221027NXUMALO PF                    000002000000145408828104                                  21SCORPION  SL-185836000000CPS5V                                                                            
0200000014540882810000002517202210270039580021358292632005000000905057259700000000560020221101SCORPION  SL-18593500000221027MOKOENA L                     000002000000145408828104                                  21SCORPION  SL-185935000000CPS5W                                                                            
0200000014540882810000002517202210270039580021358293470010000000120231329700000001120020221101SCORPION  SL-18656700000221027KANAKANG K                    000002000000145408828104                                  21SCORPION  SL-186567000000CPS5X                                                                            
0200000014540882810000002517202210270039580021358294632005000000904556612100000001120020221101SCORPION  SL-18662900000221027MANGANI SP                    000002000000145408828104                                  21SCORPION  SL-186629000000CPS5Y                                                                            
0200000014540882810000002517202210270039580021358295632005000000905972544600000001120020221101SCORPION  SL-18665800000221027MEHLAPE MJ                    000002000000145408828104                                  21SCORPION  SL-186658000000CPS5Z                                                                            
0200000014540882810000002517202210270039580021358296632005000000909317789500000001120020221101SCORPION  SL-18666100000221027VUKEYA SL                     000002000000145408828104                                  21SCORPION  SL-186661000000CPS60                                                                            
0200000014540882810000002517202210270039580021358297632005000000905690825300000001120020221101SCORPION  SL-18670800000221027NKOSI SZ                      000002000000145408828104                                  21SCORPION  SL-186708000000CPS61                                                                            
0200000014540882810000002517202210270039580021358298051001000000027028325000000001120020221101SCORPION  SL-18672000000221027MBILANA R                     000002000000145408828104                                  21SCORPION  SL-186720000000CPS62                                                                            
0200000014540882810000002517202210270039580021358299470010000000115187544700000001120020221101SCORPION  SL-18708000000221027SOKUPHA SB                    000002000000145408828104                                  21SCORPION  SL-187080000000CPS63                                                                            
0200000014540882810000002517202210270039580021358300470010000000115187544700000001120020221101SCORPION  SL-18708000000221027SOKUPHA SB                    000002000000145408828104                                  21SCORPION  SL-187080000000CPS64                                                                            
0200000014540882810000002517202210270039580021358301470010000000120165708100000001120020221101SCORPION  SL-18724900000221027RATIYANA BM                   000002000000145408828104                                  21SCORPION  SL-187249000000CPS65                                                                            
0200000014540882810000002517202210270039580021358302632005000000935610548800000001120020221101SCORPION  SL-18725700000221027NYENGANE F                    000002000000145408828104                                  21SCORPION  SL-187257000000CPS66                                                                            
0200000014540882810000002517202210270039580021358303470010000000119051953200000001120020221101SCORPION  SL-18738200000221027MDUNYISWA M                   000002000000145408828104                                  21SCORPION  SL-187382000000CPS67                                                                            
0200000014540882810000002517202210270039580021358304470010000000152463933600000001120020221101SCORPION  SL-18756700000221027NDEBELE G                     000002000000145408828104                                  21SCORPION  SL-187567000000CPS68                                                                            
0200000014540882810000002517202210270039580021358305250655000006018102614300000001120020221101SCORPION  SL-18784200000221027MOGAJANE SP                   000002000000145408828104                                  21SCORPION  SL-187842000000CPS69                                                                            
0200000014540882810000002517202210270039580021358306051001000000002239590300000001120020221101SCORPION  SL-18819700000221027PIETERSE Y                    000002000000145408828104                                  21SCORPION  SL-188197000000CPS6A                                                                            
0200000014540882810000002517202210270039580021358307250655000006251386383800000001120020221101SCORPION  SL-18840100000221027YIWANI M                      000002000000145408828104                                  21SCORPION  SL-188401000000CPS6B                                                                            
0200000014540882810000002517202210270039580021358308632005000000901058458900000001120020221101SCORPION  SL-18895200000221027KHUZWAYO NB                   000002000000145408828104                                  21SCORPION  SL-188952000000CPS6C                                                                            
0200000014540882810000002517202210270039580021358309250655000006011057597100000001120020221101SCORPION  SL-18908800000221027NGWENYA J                     000002000000145408828104                                  21SCORPION  SL-189088000000CPS6D                                                                            
0200000014540882810000002517202210270039580021358310470010000000111396881600000001120020221101SCORPION  SL-18930900000221027VAPHI Z                       000002000000145408828104                                  21SCORPION  SL-189309000000CPS6E                                                                            
0200000014540882810000002517202210270039580021358311198765000000135903728400000001120020221101SCORPION  SL-18942700000221027TSHANGO MG                    000002000000145408828104                                  21SCORPION  SL-189427000000CPS6F                                                                            
0200000014540882810000002517202210270039580021358312632005000000925058551800000001120020221101SCORPION  SL-18949500000221027KHUMALO BM                    000002000000145408828104                                  21SCORPION  SL-189495000000CPS6G                                                                            
0200000014540882810000002517202210270039580021358313632005000000905636824100000001120020221101SCORPION  SL-19028900000221027MNISI HJ                      000002000000145408828104                                  21SCORPION  SL-190289000000CPS6H                                                                            
0200000014540882810000002517202210270039580021358314632005000000906881996700000000560020221101SCORPION  SL-19051800000221027JELE SDJ                      000002000000145408828104                                  21SCORPION  SL-190518000000CPS6I                                                                            
0200000014540882810000002517202210270039580021358315632005000000408069682300000001120020221101SCORPION  SL-19091800000221027SANKWANKWA SM                 000002000000145408828104                                  21SCORPION  SL-190918000000CPS6J                                                                            
0200000014540882810000002517202210270039580021358316198765000000106827635500000001120020221101SCORPION  SL-19095600000221027MAHAPA M                      000002000000145408828104                                  21SCORPION  SL-190956000000CPS6K                                                                            
0200000014540882810000002517202210270039580021358317250655000006037012699400000001120020221101SCORPION  SL-19132300000221027BASSON P                      000002000000145408828104                                  21SCORPION  SL-191323000000CPS6L                                                                            
0200000014540882810000002517202210270039580021358318051001000001004801489100000001120020221101SCORPION  SL-19134900000221027MAHLANGU JP                   000002000000145408828104                                  21SCORPION  SL-191349000000CPS6M                                                                            
0200000014540882810000002517202210270039580021358319470010000000148277213000000001120020221101SCORPION  SL-19166900000221027ZWANE DM                      000002000000145408828104                                  21SCORPION  SL-191669000000CPS6N                                                                            
0200000014540882810000002517202210270039580021358320470010000000150676256300000001120020221101SCORPION  SL-19168900000221027MAWELA F                      000002000000145408828104                                  21SCORPION  SL-191689000000CPS6O                                                                            
0200000014540882810000002517202210270039580021358321250655000005137115405000000000560020221101SCORPION  SL-19169000000221027MABENA C                      000002000000145408828104                                  21SCORPION  SL-191690000000CPS6P                                                                            
0200000014540882810000002517202210270039580021358322051001000000001230731900000001120020221101SCORPION  SL-19212200000221027MATLOGA P                     000002000000145408828104                                  21SCORPION  SL-192122000000CPS6Q                                                                            
0200000014540882810000002517202210270039580021358323051001000000001282175600000001120020221101SCORPION  SL-19289700000221027LEBOGO JP                     000002000000145408828104                                  21SCORPION  SL-192897000000CPS6R                                                                            
0200000014540882810000002517202210270039580021358324250655000005065032231200000001120020221101SCORPION  SL-19294800000221027MOGOTSI JB                    000002000000145408828104                                  21SCORPION  SL-192948000000CPS6S                                                                            
0200000014540882810000002517202210270039580021358325470010000000126945144600000001120020221101SCORPION  SL-19304700000221027MAHLANGU E                    000002000000145408828104                                  21SCORPION  SL-193047000000CPS6T                                                                            
0200000014540882810000002517202210270039580021358326632005000000906851615900000001120020221101SCORPION  SL-19469800000221027LANGA LJ                      000002000000145408828104                                  21SCORPION  SL-194698000000CPS6U                                                                            
0200000014540882810000002517202210270039580021358327250655000005416001859400000001120020221101SCORPION  SL-19470600000221027TSHIKANE TD                   000002000000145408828104                                  21SCORPION  SL-194706000000CPS6V                                                                            
0200000014540882810000002517202210270039580021358328632005000000003816071000000001120020221101SCORPION  SL-19488400000221027SITHOLE ME                    000002000000145408828104                                  21SCORPION  SL-194884000000CPS6W                                                                            
0200000014540882810000002517202210270039580021358329632005000000407188622500000001120020221101SCORPION  SL-19505100000221027THANDEKISO MF                 000002000000145408828104                                  21SCORPION  SL-195051000000CPS6X                                                                            
0200000014540882810000002517202210270039580021358330470010000000155944018800000001120020221101SCORPION  SL-19525300000221027FUZAMA P                      000002000000145408828104                                  21SCORPION  SL-195253000000CPS6Y                                                                            
0200000014540882810000002517202210270039580021358331051001000000028467258000000001730020221101SCORPION  SL-19559200000221027BAYAN JA                      000002000000145408828104                                  21SCORPION  SL-195592000000CPS6Z                                                                            
0200000014540882810000002517202210270039580021358332470010000000137144736300000001120020221101SCORPION  SL-19577000000221027MOGOMOTSI E                   000002000000145408828104                                  21SCORPION  SL-195770000000CPS70                                                                            
0200000014540882810000002517202210270039580021358333250655000006285714924100000001120020221101SCORPION  SL-19609800000221027PHEHLANE T                    000002000000145408828104                                  21SCORPION  SL-196098000000CPS71                                                                            
0200000014540882810000002517202210270039580021358334250655000006285714924100000001120020221101SCORPION  SL-19609800000221027PHEHLANE T                    000002000000145408828104                                  21SCORPION  SL-196098000000CPS72                                                                            
0200000014540882810000002517202210270039580021358335051001000000002036464400000001120020221101SCORPION  SL-19645400000221027CHAUKE MA                     000002000000145408828104                                  21SCORPION  SL-196454000000CPS73                                                                            
0200000014540882810000002517202210270039580021358336632005000000904789064300000001120020221101SCORPION  SL-19675100000221027MOGALE S                      000002000000145408828104                                  21SCORPION  SL-196751000000CPS74                                                                            
0200000014540882810000002517202210270039580021358337470010000000125151274500000001120020221101SCORPION  SL-19718500000221027MABASO M                      000002000000145408828104                                  21SCORPION  SL-197185000000CPS75                                                                            
0200000014540882810000002517202210270039580021358338250655000006052615804800000001120020221101SCORPION  SL-19736600000221027NOBANDLA S                    000002000000145408828104                                  21SCORPION  SL-197366000000CPS76                                                                            
0200000014540882810000002517202210270039580021358339470010000000155578165700000001730020221101SCORPION  SL-19750000000221027RAMASHIA R                    000002000000145408828104                                  21SCORPION  SL-197500000000CPS77                                                                            
0200000014540882810000002517202210270039580021358340051001000000013705965500000001120020221101SCORPION  SL-19761300000221027ZWANE ND                      000002000000145408828104                                  21SCORPION  SL-197613000000CPS78                                                                            
0200000014540882810000002517202210270039580021358341632005000003850430087800000001120020221101SCORPION  SL-19765700000221027KLOU MB                       000002000000145408828104                                  21SCORPION  SL-197657000000CPS79                                                                            
0200000014540882810000002517202210270039580021358342198765000000110708406700000001730020221101SCORPION  SL-19813100000221027SHONGWE PG                    000002000000145408828104                                  21SCORPION  SL-198131000000CPS7A                                                                            
0200000014540882810000002517202210270039580021358343051001000000042666150800000001120020221101SCORPION  SL-19819500000221027MAPHOROMA A                   000002000000145408828104                                  21SCORPION  SL-198195000000CPS7B                                                                            
0200000014540882810000002517202210270039580021358344051001000000001001304000000001120020221101SCORPION  SL-19833800000221027MAFAGANE SE                   000002000000145408828104                                  21SCORPION  SL-198338000000CPS7C                                                                            
0200000014540882810000002517202210270039580021358345051001000000001001304000000001120020221101SCORPION  SL-19833800000221027MAFAGANE SE                   000002000000145408828104                                  21SCORPION  SL-198338000000CPS7D                                                                            
0200000014540882810000002517202210270039580021358346051001000000030092969200000001120020221101SCORPION  SL-19873100000221027KOALI TM                      000002000000145408828104                                  21SCORPION  SL-198731000000CPS7E                                                                            
0200000014540882810000002517202210270039580021358347250655000005452114161100000000560020221101SCORPION  SL-19962900000221027ZONDO FT                      000002000000145408828104                                  21SCORPION  SL-199629000000CPS7F                                                                            
0200000014540882810000002517202210270039580021358348632005000000933195196300000001120020221101SCORPION  SL-19985000000221027MATHEBULA RD                  000002000000145408828104                                  21SCORPION  SL-199850000000CPS7G                                                                            
0200000014540882810000002517202210270039580021358349632005000000933195196300000001120020221101SCORPION  SL-19985000000221027MATHEBULA RD                  000002000000145408828104                                  21SCORPION  SL-199850000000CPS7H                                                                            
0200000014540882810000002517202210270039580021358350632005000003812094020900000001120020221101SCORPION  SL-19989200000221027NTSIBANDE ZB                  000002000000145408828104                                  21SCORPION  SL-199892000000CPS7I                                                                            
0200000014540882810000002517202210270039580021358351051001000000001104173000000001120020221101SCORPION  SL-19987300000221027MOEKWA BC                     000002000000145408828104                                  21SCORPION  SL-199873000000CPS7J                                                                            
0200000014540882810000002517202210270039580021358352250655000006033526791500000001120020221101SCORPION  SL-20041800000221027MSIZA K                       000002000000145408828104                                  21SCORPION  SL-200418000000CPS7K                                                                            
0200000014540882810000002517202210270039580021358353198765000000287307411600000001120020221101SCORPION  SL-20043100000221027LETAGENG P                    000002000000145408828104                                  21SCORPION  SL-200431000000CPS7L                                                                            
0200000014540882810000002517202210270039580021358354198765000000243700647800000001120020221101SCORPION  SL-20123600000221027OLIFANT OP                    000002000000145408828104                                  21SCORPION  SL-201236000000CPS7M                                                                            
0200000014540882810000002517202210270039580021358355632005000000404834617900000001120020221101SCORPION  SL-20143000000221027LOUW MMM                      000002000000145408828104                                  21SCORPION  SL-201430000000CPS7N                                                                            
0200000014540882810000002517202210270039580021358356632005000000408806655300000001120020221101SCORPION  SL-20147500000221027RAMABOYA RS                   000002000000145408828104                                  21SCORPION  SL-201475000000CPS7O                                                                            
0200000014540882810000002517202210270039580021358357632005000000002262773600000001120020221101SCORPION  SL-20168200000221027SIBINDA KE                    000002000000145408828104                                  21SCORPION  SL-201682000000CPS7P                                                                            
0200000014540882810000002517202210270039580021358358632005000000932376939600000001120020221101SCORPION  SL-20230700000221027RAMUSHU S                     000002000000145408828104                                  21SCORPION  SL-202307000000CPS7Q                                                                            
0200000014540882810000002517202210270039580021358359632005000000407604244800000001120020221101SCORPION  SL-20234900000221027ZOYA VB                       000002000000145408828104                                  21SCORPION  SL-202349000000CPS7R                                                                            
0200000014540882810000002517202210270039580021358360051001000000027293988900000001120020221101SCORPION  SL-20249800000221027MAKGOKE S                     000002000000145408828104                                  21SCORPION  SL-202498000000CPS7S                                                                            
0200000014540882810000002517202210270039580021358361051001000000022470590300000000560020221101SCORPION  SL-20257600000221027KHUMALO E                     000002000000145408828104                                  21SCORPION  SL-202576000000CPS7T                                                                            
0200000014540882810000002517202210270039580021358362470010000000114674426700000001120020221101SCORPION  SL-20272900000221027SIBANYONI MG                  000002000000145408828104                                  21SCORPION  SL-202729000000CPS7U                                                                            
0200000014540882810000002517202210270039580021358363250655000006042207340700000001120020221101SCORPION  SL-20285900000221027NKOSI J                       000002000000145408828104                                  21SCORPION  SL-202859000000CPS7V                                                                            
0200000014540882810000002517202210270039580021358364470010000000129390390400000001120020221101SCORPION  SL-20383300000221027NGONYAMA IX                   000002000000145408828104                                  21SCORPION  SL-203833000000CPS7W                                                                            
0200000014540882810000002517202210270039580021358365250655000006201757289400000001120020221101SCORPION  SL-20443200000221027THEBE S                       000002000000145408828104                                  21SCORPION  SL-204432000000CPS7X                                                                            
0200000014540882810000002517202210270039580021358366470010000000169901575700000001120020221101SCORPION  SL-20460100000221027RASEROKA S                    000002000000145408828104                                  21SCORPION  SL-204601000000CPS7Y                                                                            
0200000014540882810000002517202210270039580021358367632005000003806756370800000001120020221101SCORPION  SL-20469300000221027MODISE AS                     000002000000145408828104                                  21SCORPION  SL-204693000000CPS7Z                                                                            
0200000014540882810000002517202210270039580021358368632005000000405321125200000001120020221101SCORPION  SL-20475300000221027MOLAPO HM                     000002000000145408828104                                  21SCORPION  SL-204753000000CPS80                                                                            
0200000014540882810000002517202210270039580021358369051001000000063456715200000001120020221101SCORPION  SL-20483000000221027MALOISANE JM                  000002000000145408828104                                  21SCORPION  SL-204830000000CPS81                                                                            
0200000014540882810000002517202210270039580021358370470010000000173165819000000001120020221101SCORPION  SL-20567100000221027NKHOMA A                      000002000000145408828104                                  21SCORPION  SL-205671000000CPS82                                                                            
0200000014540882810000002517202210270039580021358371470010000000111270965500000001120020221101SCORPION  SL-20571700000221027KGATI I                       000002000000145408828104                                  21SCORPION  SL-205717000000CPS83                                                                            
0200000014540882810000002517202210270039580021358372051001000000063696103600000001120020221101SCORPION  SL-20578900000221027BUYS V                        000002000000145408828104                                  21SCORPION  SL-205789000000CPS84                                                                            
0200000014540882810000002517202210270039580021358373632005000000002631334100000001120020221101SCORPION  SL-20584400000221027CELE S                        000002000000145408828104                                  21SCORPION  SL-205844000000CPS85                                                                            
0200000014540882810000002517202210270039580021358374051001000000062522672000000001120020221101SCORPION  SL-20654600000221027KHUMALO PZ                    000002000000145408828104                                  21SCORPION  SL-206546000000CPS86                                                                            
0200000014540882810000002517202210270039580021358375051001000000002406167000000001120020221101SCORPION  SL-20672500000221027MOREMI JP                     000002000000145408828104                                  21SCORPION  SL-206725000000CPS87                                                                            
0200000014540882810000002517202210270039580021358376250655000006243481748500000001120020221101SCORPION  SL-20726800000221027MDLETSHE M                    000002000000145408828104                                  21SCORPION  SL-207268000000CPS88                                                                            
0200000014540882810000002517202210270039580021358377250655000005114004753500000001120020221101SCORPION  SL-20752800000221027DADA G                        000002000000145408828104                                  21SCORPION  SL-207528000000CPS89                                                                            
0200000014540882810000002517202210270039580021358378051001000000006229860700000001120020221101SCORPION  SL-20789500000221027NKOSI JM                      000002000000145408828104                                  21SCORPION  SL-207895000000CPS8A                                                                            
0200000014540882810000002517202210270039580021358379250655000006238772500800000001120020221101SCORPION  SL-20836700000221027ZWANE DZ                      000002000000145408828104                                  21SCORPION  SL-208367000000CPS8B                                                                            
0200000014540882810000002517202210270039580021358380632005000000409404059700000001730020221101SCORPION  SL-20858200000221027HLATSWAYO AS                  000002000000145408828104                                  21SCORPION  SL-208582000000CPS8C                                                                            
0200000014540882810000002517202210270039580021358381470010000000125210309100000000560020221101SCORPION  SL-20864600000221027MAHLANGU LK                   000002000000145408828104                                  21SCORPION  SL-208646000000CPS8D                                                                            
0200000014540882810000002517202210270039580021358382632005000003815322007400000001120020221101SCORPION  SL-20869400000221027MAKAYA PS                     000002000000145408828104                                  21SCORPION  SL-208694000000CPS8E                                                                            
0200000014540882810000002517202210270039580021358383632005000000926002788700000001120020221101SCORPION  SL-20900300000221027NKOSI MM                      000002000000145408828104                                  21SCORPION  SL-209003000000CPS8F                                                                            
0200000014540882810000002517202210270039580021358384632005000000905769939000000001120020221101SCORPION  SL-20900600000221027MOKOENA JM                    000002000000145408828104                                  21SCORPION  SL-209006000000CPS8G                                                                            
0200000014540882810000002517202210270039580021358385198765000000248201411500000001120020221101SCORPION  SL-20901100000221027MOHLALA LG                    000002000000145408828104                                  21SCORPION  SL-209011000000CPS8H                                                                            
0200000014540882810000002517202210270039580021358386250655000005351006678100000001120020221101SCORPION  SL-20919900000221027MOKALE RS                     000002000000145408828104                                  21SCORPION  SL-209199000000CPS8I                                                                            
0200000014540882810000002517202210270039580021358387632005000000907850086500000001120020221101SCORPION  SL-20930400000221027MHLANGA ML                    000002000000145408828104                                  21SCORPION  SL-209304000000CPS8J                                                                            
0200000014540882810000002517202210270039580021358388198765000000195609356700000001120020221101SCORPION  SL-20995400000221027MTETWA GNA                    000002000000145408828104                                  21SCORPION  SL-209954000000CPS8K                                                                            
0200000014540882810000002517202210270039580021358389632005000000932896918300000001120020221101SCORPION  SL-21031500000221027LONG MM                       000002000000145408828104                                  21SCORPION  SL-210315000000CPS8L                                                                            
0200000014540882810000002517202210270039580021358390632005000000070818282600000001120020221101SCORPION  SL-21036800000221027MASINDWA SA                   000002000000145408828104                                  21SCORPION  SL-210368000000CPS8M                                                                            
0200000014540882810000002517202210270039580021358391051001000000063590483700000001120020221101SCORPION  SL-21117200000221027NTSIMBINI JR                  000002000000145408828104                                  21SCORPION  SL-211172000000CPS8N                                                                            
0200000014540882810000002517202210270039580021358392470010000000128646242600000000560020221101SCORPION  SL-21123000000221027MANGANYI MJ                   000002000000145408828104                                  21SCORPION  SL-211230000000CPS8O                                                                            
0200000014540882810000002517202210270039580021358393198765000000197930604400000001120020221101SCORPION  SL-21139000000221027MOKOENA SN                    000002000000145408828104                                  21SCORPION  SL-211390000000CPS8P                                                                            
0200000014540882810000002517202210270039580021358394198765000000197930604400000001120020221101SCORPION  SL-21139000000221027MOKOENA SN                    000002000000145408828104                                  21SCORPION  SL-211390000000CPS8Q                                                                            
0200000014540882810000002517202210270039580021358395250655000006052915660100000001120020221101SCORPION  SL-21160200000221027LEPHOI MM                     000002000000145408828104                                  21SCORPION  SL-211602000000CPS8R                                                                            
0200000014540882810000002517202210270039580021358396051001000000006226044800000001120020221101SCORPION  SL-21160900000221027NTANJANA N                    000002000000145408828104                                  21SCORPION  SL-211609000000CPS8S                                                                            
0200000014540882810000002517202210270039580021358397250655000006003050923200000001120020221101SCORPION  SL-21178800000221027HLANGA S                      000002000000145408828104                                  21SCORPION  SL-211788000000CPS8T                                                                            
0200000014540882810000002517202210270039580021358398051001000000000085585500000001120020221101SCORPION  SL-21189500000221027MAKHANYA MM                   000002000000145408828104                                  21SCORPION  SL-211895000000CPS8U                                                                            
0200000014540882810000002517202210270039580021358399051001000000042186542300000001120020221101SCORPION  SL-21197900000221027MOTLHAPING E                  000002000000145408828104                                  21SCORPION  SL-211979000000CPS8V                                                                            
0200000014540882810000002517202210270039580021358400470010000000174528649500000001120020221101SCORPION  SL-21199400000221027SHOZI FL                      000002000000145408828104                                  21SCORPION  SL-211994000000CPS8W                                                                            
0200000014540882810000002517202210270039580021358401632005000000011061509400000001120020221101SCORPION  SL-21223500000221027MATJILA MB                    000002000000145408828104                                  21SCORPION  SL-212235000000CPS8X                                                                            
