0200000014540882810000002517202210270039580021357391051001000000033814578800000000530020221101SCORPION  SL-20410015000221027LETLALO M                     000002000000145408828104                                  21SCORPION  SL-204100150000CPRGV                                                                            
0200000014540882810000002517202210270039580021357392051001000000033814578800000000530020221101SCORPION  SL-20410015000221027LETLALO M                     000002000000145408828104                                  21SCORPION  SL-204100150000CPRGW                                                                            
0200000014540882810000002517202210270039580021357393198765000000104859474200000001120020221101SCORPION  SL-38648190000221027BEHARI M                      000002000000145408828104                                  21SCORPION  SL-386481900000CPRGX                                                                            
0200000014540882810000002517202210270039580021357394470010000000167143192600000001730020221101SCORPION  SL-39893060000221027KHUMALO NP                    000002000000145408828104                                  21SCORPION  SL-398930600000CPRGY                                                                            
0200000014540882810000002517202210270039580021357395250655000006247808627800000000560020221101SCORPION  SL-39051630000221027BADENHORST M                  000002000000145408828104                                  21SCORPION  SL-390516300000CPRGZ                                                                            
0200000014540882810000002517202210270039580021357396470010000000168075297700000001120020221101SCORPION  SL-59232900000221027NGINDANA S                    000002000000145408828104                                  21SCORPION  SL-592329000000CPRH0                                                                            
0200000014540882810000002517202210270039580021357397470010000000174979814800000001030020221101SCORPION  SL-20409022000221027MOFOKENG H                    000002000000145408828104                                  21SCORPION  SL-204090220000CPRH1                                                                            
0200000014540882810000002517202210270039580021357398470010000000117099921000000000530020221101SCORPION  20420672000000221027NGONDO M                      000002000000145408828104                                  21SCORPION  204206720000000CPRH2                                                                            
0200000014540882810000002517202210270039580021357399470010000000117099921000000000530020221101SCORPION  20420672000000221027NGONDO M                      000002000000145408828104                                  21SCORPION  204206720000000CPRH3                                                                            
0200000014540882810000002517202210270039580021357400470010000000170761722600000001120020221101SCORPION  20513768000000221027OGANNE T                      000002000000145408828104                                  21SCORPION  205137680000000CPRH4                                                                            
0200000014540882810000002517202210270039580021357401632005000000914938207300000001120020221101SCORPION  SL-31603420000221027MONYAKI P                     000002000000145408828104                                  21SCORPION  SL-316034200000CPRH5                                                                            
0200000014540882810000002517202210270039580021357402198765000000119066723100000001120020221101SCORPION  SL-50625600000221027MLILO M                       000002000000145408828104                                  21SCORPION  SL-506256000000CPRH6                                                                            
0200000014540882810000002517202210270039580021357403632005000000933185627000000001120020221101SCORPION  SL-20460130000221027NCIWENI M                     000002000000145408828104                                  21SCORPION  SL-204601300000CPRH7                                                                            
0200000014540882810000002517202210270039580021357404470010000000146911417600000001120020221101SCORPION  SL-39555410000221027MORAPELI T                    000002000000145408828104                                  21SCORPION  SL-395554100000CPRH8                                                                            
0200000014540882810000002517202210270039580021357405470010000000114085003000000000560020221101SCORPION  20506585000000221027MATYHALI T                    000002000000145408828104                                  21SCORPION  205065850000000CPRH9                                                                            
0200000014540882810000002517202210270039580021357406250655000006245203255200000001120020221101SCORPION  SL-40079460000221027SIFUMBA B                     000002000000145408828104                                  21SCORPION  SL-400794600000CPRHA                                                                            
0200000014540882810000002517202210270039580021357407051001000000020240023900000001120020221101SCORPION  SL-21011300000221027NGWENYA M                     000002000000145408828104                                  21SCORPION  SL-210113000000CPRHB                                                                            
0200000014540882810000002517202210270039580021357408632005000000934332669500000001730020221101SCORPION  20489523000000221027WILSKUT D                     000002000000145408828104                                  21SCORPION  204895230000000CPRHC                                                                            
0200000014540882810000002517202210270039580021357409470010000000154028285400000001120020221101SCORPION  20487793000000221027MNINTYANA D                   000002000000145408828104                                  21SCORPION  204877930000000CPRHD                                                                            
0200000014540882810000002517202210270039580021357410470010000000161231385800000001120020221101SCORPION  SL-39759480000221027THIBELI E                     000002000000145408828104                                  21SCORPION  SL-397594800000CPRHE                                                                            
0200000014540882810000002517202210270039580021357411198765000000119548980300000001120020221101SCORPION  SL-39996850000221027MALEBANE M                    000002000000145408828104                                  21SCORPION  SL-399968500000CPRHF                                                                            
0200000014540882810000002517202210270039580021357412470010000000114659643800000001120020221101SCORPION  SL-13378300000221027BETHA O                       000002000000145408828104                                  21SCORPION  SL-133783000000CPRHG                                                                            
0200000014540882810000002517202210270039580021357413470010000000165693818700000001120020221101SCORPION  SL-22203590000221027LUVALO M                      000002000000145408828104                                  21SCORPION  SL-222035900000CPRHH                                                                            
0200000014540882810000002517202210270039580021357414470010000000123255601500000001120020221101SCORPION  20526573000000221027SIMELANI T                    000002000000145408828104                                  21SCORPION  205265730000000CPRHI                                                                            
0200000014540882810000002517202210270039580021357415470010000000129323824200000000560020221101SCORPION  SL-39604930000221027NETILI T                      000002000000145408828104                                  21SCORPION  SL-396049300000CPRHJ                                                                            
0200000014540882810000002517202210270039580021357416470010000000146973892700000001120020221101SCORPION  SL-33556560000221027MABELA E                      000002000000145408828104                                  21SCORPION  SL-335565600000CPRHK                                                                            
0200000014540882810000002517202210270039580021357417632005000000936211170800000001120020221101SCORPION  SL-28588160000221027MALI G                        000002000000145408828104                                  21SCORPION  SL-285881600000CPRHL                                                                            
0200000014540882810000002517202210270039580021357418470010000000164917382000000000560020221101SCORPION  SL-39907770000221027NDLELA N                      000002000000145408828104                                  21SCORPION  SL-399077700000CPRHM                                                                            
0200000014540882810000002517202210270039580021357419470010000000141425715300000001120020221101SCORPION  20449483000000221027MOKHELE T                     000002000000145408828104                                  21SCORPION  204494830000000CPRHN                                                                            
0200000014540882810000002517202210270039580021357420632005000000922986296300000001120020221101SCORPION  SL-14568860000221027MOKGOTHU LS                   000002000000145408828104                                  21SCORPION  SL-145688600000CPRHO                                                                            
0200000014540882810000002517202210270039580021357421470010000000123486443400000001120020221101SCORPION  SL-39621580000221027MAPONYA J                     000002000000145408828104                                  21SCORPION  SL-396215800000CPRHP                                                                            
0200000014540882810000002517202210270039580021357422198765000000118048845800000001120020221101SCORPION  20537108000000221027NTSOKOTA N                    000002000000145408828104                                  21SCORPION  205371080000000CPRHQ                                                                            
0200000014540882810000002517202210270039580021357423470010000000169362522700000000560020221101SCORPION  20479543000000221027NDLOVU P                      000002000000145408828104                                  21SCORPION  204795430000000CPRHR                                                                            
0200000014540882810000002517202210270039580021357424198765000000118310499500000001120020221101SCORPION  20433025000000221027NTOMBINI S                    000002000000145408828104                                  21SCORPION  204330250000000CPRHS                                                                            
0200000014540882810000002517202210270039580021357425198765000000108725049800000001120020221101SCORPION  20541788000000221027MASHANYE E                    000002000000145408828104                                  21SCORPION  205417880000000CPRHT                                                                            
0200000014540882810000002517202210270039580021357426632005000000410061302800000001120020221101SCORPION  SL-40206400000221027RAPHAEL S                     000002000000145408828104                                  21SCORPION  SL-402064000000CPRHU                                                                            
0200000014540882810000002517202210270039580021357427470010000000175797657200000001120020221101SCORPION  SL-40135080000221027AMAECHI C                     000002000000145408828104                                  21SCORPION  SL-401350800000CPRHV                                                                            
0200000014540882810000002517202210270039580021357428470010000000143434217200000001120020221101SCORPION  20461701000000221027PALE L                        000002000000145408828104                                  21SCORPION  204617010000000CPRHW                                                                            
0200000014540882810000002517202210270039580021357429051001000001014784836700000001030020221101SCORPION  SL-20410602000221027NKANGA MM                     000002000000145408828104                                  21SCORPION  SL-204106020000CPRHX                                                                            
0200000014540882810000002517202210270039580021357430470010000000160759750900000001120020221101SCORPION  SL-39801950000221027GIANI M                       000002000000145408828104                                  21SCORPION  SL-398019500000CPRHY                                                                            
0200000014540882810000002517202210270039580021357431470010000000160759750900000001120020221101SCORPION  SL-39801950000221027GIANI M                       000002000000145408828104                                  21SCORPION  SL-398019500000CPRHZ                                                                            
0200000014540882810000002517202210270039580021357432470010000000144328989000000001120020221101SCORPION  SL-39348030000221027BANGISO M                     000002000000145408828104                                  21SCORPION  SL-393480300000CPRI0                                                                            
0200000014540882810000002517202210270039580021357433051001000001014570555000000000560020221101SCORPION  20538278000000221027MATU K                        000002000000145408828104                                  21SCORPION  205382780000000CPRI1                                                                            
0200000014540882810000002517202210270039580021357434470010000000173598575700000001120020221101SCORPION  SL-26479120000221027APLENI W                      000002000000145408828104                                  21SCORPION  SL-264791200000CPRI2                                                                            
0200000014540882810000002517202210270039580021357435470010000000173598575700000001120020221101SCORPION  SL-26479120000221027APLENI W                      000002000000145408828104                                  21SCORPION  SL-264791200000CPRI3                                                                            
0200000014540882810000002517202210270039580021357436470010000000166205180600000001120020221101SCORPION  SL-74586900000221027MOKOME S                      000002000000145408828104                                  21SCORPION  SL-745869000000CPRI4                                                                            
0200000014540882810000002517202210270039580021357437250655000006281535437900000001120020221101SCORPION  20506248000000221027SHIBOMBU B                    000002000000145408828104                                  21SCORPION  205062480000000CPRI5                                                                            
0200000014540882810000002517202210270039580021357438470010000000167306089500000001120020221101SCORPION  SL-39874220000221027SIYAYA T                      000002000000145408828104                                  21SCORPION  SL-398742200000CPRI6                                                                            
0200000014540882810000002517202210270039580021357439470010000000167306089500000001120020221101SCORPION  SL-39874220000221027SIYAYA T                      000002000000145408828104                                  21SCORPION  SL-398742200000CPRI7                                                                            
0200000014540882810000002517202210270039580021357440632005000000910347493700000001120020221101SCORPION  20512847000000221027GAEGAKE K                     000002000000145408828104                                  21SCORPION  205128470000000CPRI8                                                                            
0200000014540882810000002517202210270039580021357441470010000000142453269600000001120020221101SCORPION  SL-11729890000221027SMUTS  S                      000002000000145408828104                                  21SCORPION  SL-117298900000CPRI9                                                                            
0200000014540882810000002517202210270039580021357442250655000006286324982900000001030020221101SCORPION  SL-20411046000221027SIJEKU G                      000002000000145408828104                                  21SCORPION  SL-204110460000CPRIA                                                                            
0200000014540882810000002517202210270039580021357443470010000000177626821900000001120020221101SCORPION  SL-22548830000221027MELINJANI S                   000002000000145408828104                                  21SCORPION  SL-225488300000CPRIB                                                                            
0200000014540882810000002517202210270039580021357444470010000000131831815500000001120020221101SCORPION  20486342000000221027DLOVA A                       000002000000145408828104                                  21SCORPION  204863420000000CPRIC                                                                            
0200000014540882810000002517202210270039580021357445470010000000131831815500000001120020221101SCORPION  20486342000000221027DLOVA A                       000002000000145408828104                                  21SCORPION  204863420000000CPRID                                                                            
0200000014540882810000002517202210270039580021357446051001000001015149671200000001120020221101SCORPION  SL-31215280000221027RADEBE MS                     000002000000145408828104                                  21SCORPION  SL-312152800000CPRIE                                                                            
0200000014540882810000002517202210270039580021357447470010000000176517043300000001120020221101SCORPION  SL-16156180000221027SETHOLE S                     000002000000145408828104                                  21SCORPION  SL-161561800000CPRIF                                                                            
0200000014540882810000002517202210270039580021357448470010000000141477976100000001120020221101SCORPION  SL-39927000000221027JACOBS V                      000002000000145408828104                                  21SCORPION  SL-399270000000CPRIG                                                                            
0200000014540882810000002517202210270039580021357449250655000006272716920400000000560020221101SCORPION  SL-16679430000221027MILLER A                      000002000000145408828104                                  21SCORPION  SL-166794300000CPRIH                                                                            
0200000014540882810000002517202210270039580021357450632005000000915896432900000000530020221101SCORPION  SL-20409475000221027SHASHAPE M                    000002000000145408828104                                  21SCORPION  SL-204094750000CPRII                                                                            
0200000014540882810000002517202210270039580021357451632005000000915896432900000000530020221101SCORPION  SL-20409475000221027SHASHAPE M                    000002000000145408828104                                  21SCORPION  SL-204094750000CPRIJ                                                                            
0200000014540882810000002517202210270039580021357452470010000000177339075700000001120020221101SCORPION  SL-16626360000221027MSOMI M                       000002000000145408828104                                  21SCORPION  SL-166263600000CPRIK                                                                            
0200000014540882810000002517202210270039580021357453250655000006278024268300000001120020221101SCORPION  SL-31125060000221027VILAKAZI J                    000002000000145408828104                                  21SCORPION  SL-311250600000CPRIL                                                                            
0200000014540882810000002517202210270039580021357454470010000000126999810000000001120020221101SCORPION  SL-24559520000221027MBAMBO S                      000002000000145408828104                                  21SCORPION  SL-245595200000CPRIM                                                                            
0200000014540882810000002517202210270039580021357455470010000000141932663300000001120020221101SCORPION  20525275000000221027RICHARDS R                    000002000000145408828104                                  21SCORPION  205252750000000CPRIN                                                                            
0200000014540882810000002517202210270039580021357456198765000000114011484000000001120020221101SCORPION  SL-40197940000221027MNGQIBISA X                   000002000000145408828104                                  21SCORPION  SL-401979400000CPRIO                                                                            
0200000014540882810000002517202210270039580021357457051001000000020364082900000001120020221101SCORPION  20492593000000221027MURRAY G                      000002000000145408828104                                  21SCORPION  204925930000000CPRIP                                                                            
0200000014540882810000002517202210270039580021357458470010000000132120984100000001120020221101SCORPION  20537849000000221027MOHALE P                      000002000000145408828104                                  21SCORPION  205378490000000CPRIQ                                                                            
0200000014540882810000002517202210270039580021357459198765000000108069902300000001120020221101SCORPION  20503876000000221027MOLATE M                      000002000000145408828104                                  21SCORPION  205038760000000CPRIR                                                                            
0200000014540882810000002517202210270039580021357460632005000000406928832200000001730020221101SCORPION  SL-39297650000221027MOTLATLA PJ                   000002000000145408828104                                  21SCORPION  SL-392976500000CPRIS                                                                            
0200000014540882810000002517202210270039580021357461470010000000145594092300000001120020221101SCORPION  SL-20265050000221027MALULEKA S                    000002000000145408828104                                  21SCORPION  SL-202650500000CPRIT                                                                            
0200000014540882810000002517202210270039580021357462470010000000175430733500000001120020221101SCORPION  SL-33983610000221027MASELA E                      000002000000145408828104                                  21SCORPION  SL-339836100000CPRIU                                                                            
0200000014540882810000002517202210270039580021357463470010000000146564218600000001120020221101SCORPION  20530597000000221027MATUSSE S                     000002000000145408828104                                  21SCORPION  205305970000000CPRIV                                                                            
0200000014540882810000002517202210270039580021357464470010000000172240742300000001120020221101SCORPION  SL-74824200000221027VILAKAZI E                    000002000000145408828104                                  21SCORPION  SL-748242000000CPRIW                                                                            
0200000014540882810000002517202210270039580021357465051001000000025283384800000001120020221101SCORPION  SL-39654600000221027PILLAY N                      000002000000145408828104                                  21SCORPION  SL-396546000000CPRIX                                                                            
0200000014540882810000002517202210270039580021357466051001000000000158680700000001120020221101SCORPION  SL-40086660000221027MABETOA                       000002000000145408828104                                  21SCORPION  SL-400866600000CPRIY                                                                            
0200000014540882810000002517202210270039580021357467470010000000120247053800000000560020221101SCORPION  SL-85086600000221027MOCHE D                       000002000000145408828104                                  21SCORPION  SL-850866000000CPRIZ                                                                            
0200000014540882810000002517202210270039580021357468051001000001005383698500000001120020221101SCORPION  SL-39369650000221027OSS G                         000002000000145408828104                                  21SCORPION  SL-393696500000CPRJ0                                                                            
0200000014540882810000002517202210270039580021357469250655000006255996562200000001030020221101SCORPION  SL-36553910000221027HLUNGWANI W                   000002000000145408828104                                  21SCORPION  SL-365539100000CPRJ1                                                                            
0200000014540882810000002517202210270039580021357470250655000006255996562200000001030020221101SCORPION  SL-36553910000221027HLUNGWANI W                   000002000000145408828104                                  21SCORPION  SL-365539100000CPRJ2                                                                            
0200000014540882810000002517202210270039580021357471470010000000138307529600000000560020221101SCORPION  SL-36566960000221027ZIMBOVU G                     000002000000145408828104                                  21SCORPION  SL-365669600000CPRJ3                                                                            
0200000014540882810000002517202210270039580021357472470010000000145951101600000000530020221101SCORPION  SL-20411059000221027MATHEBULA S                   000002000000145408828104                                  21SCORPION  SL-204110590000CPRJ4                                                                            
0200000014540882810000002517202210270039580021357473470010000000155552479400000001120020221101SCORPION  SL-39784060000221027FRANS N                       000002000000145408828104                                  21SCORPION  SL-397840600000CPRJ5                                                                            
0200000014540882810000002517202210270039580021357474470010000000133318957300000001120020221101SCORPION  20472844000000221027SOKETYE M                     000002000000145408828104                                  21SCORPION  204728440000000CPRJ6                                                                            
0200000014540882810000002517202210270039580021357475470010000000133318957300000001120020221101SCORPION  20472844000000221027SOKETYE M                     000002000000145408828104                                  21SCORPION  204728440000000CPRJ7                                                                            
0200000014540882810000002517202210270039580021357476051001000001013529011000000001120020221101SCORPION  20538061000000221027SITHOLE M                     000002000000145408828104                                  21SCORPION  205380610000000CPRJ8                                                                            
0200000014540882810000002517202210270039580021357477632005000000075814703700000001120020221101SCORPION  SL-39166000000221027NKOSI B                       000002000000145408828104                                  21SCORPION  SL-391660000000CPRJ9                                                                            
0200000014540882810000002517202210270039580021357478470010000000160722918600000000560020221101SCORPION  20538248000000221027MBATHA K                      000002000000145408828104                                  21SCORPION  205382480000000CPRJA                                                                            
0200000014540882810000002517202210270039580021357479250655000006270564504400000001120020221101SCORPION  SL-40150140000221027DZANIBE                       000002000000145408828104                                  21SCORPION  SL-401501400000CPRJB                                                                            
0200000014540882810000002517202210270039580021357480470010000000117437093700000001120020221101SCORPION  SL-37864050000221027MKOBI J                       000002000000145408828104                                  21SCORPION  SL-378640500000CPRJC                                                                            
0200000014540882810000002517202210270039580021357481250655000006218211918300000001120020221101SCORPION  SL-31603710000221027MAKOLA                        000002000000145408828104                                  21SCORPION  SL-316037100000CPRJD                                                                            
0200000014540882810000002517202210270039580021357482051001000001010924738600000001120020221101SCORPION  20532310000000221027HALL P                        000002000000145408828104                                  21SCORPION  205323100000000CPRJE                                                                            
0200000014540882810000002517202210270039580021357483470010000000185114219100000001120020221101SCORPION  20497566000000221027SODLULASHE S                  000002000000145408828104                                  21SCORPION  204975660000000CPRJF                                                                            
0200000014540882810000002517202210270039580021357484250655000006285961763400000001120020221101SCORPION  SL-39781120000221027TSHOBENI L                    000002000000145408828104                                  21SCORPION  SL-397811200000CPRJG                                                                            
0200000014540882810000002517202210270039580021357485198765000000121320658800000001120020221101SCORPION  SL-40193480000221027DENGA Y                       000002000000145408828104                                  21SCORPION  SL-401934800000CPRJH                                                                            
0200000014540882810000002517202210270039580021357486470010000000133907272400000000560020221101SCORPION  SL-18590980000221027SCHALK T                      000002000000145408828104                                  21SCORPION  SL-185909800000CPRJI                                                                            
0200000014540882810000002517202210270039580021357487470010000000133907272400000000560020221101SCORPION  SL-18590980000221027SCHALK T                      000002000000145408828104                                  21SCORPION  SL-185909800000CPRJJ                                                                            
0200000014540882810000002517202210270039580021357488198765000000103668230700000001120020221101SCORPION  SL-40194930000221027MAKARINGE J                   000002000000145408828104                                  21SCORPION  SL-401949300000CPRJK                                                                            
0200000014540882810000002517202210270039580021357489632005000000929454996400000001030020221101SCORPION  20452203000000221027SMITH W                       000002000000145408828104                                  21SCORPION  204522030000000CPRJL                                                                            
0200000014540882810000002517202210270039580021357490470010000000160875380600000001120020221101SCORPION  SL-40142710000221027THWALA A                      000002000000145408828104                                  21SCORPION  SL-401427100000CPRJM                                                                            
0200000014540882810000002517202210270039580021357491470010000000116723975800000001030020221101SCORPION  SL-13140720000221027MBATHA N                      000002000000145408828104                                  21SCORPION  SL-131407200000CPRJN                                                                            
0200000014540882810000002517202210270039580021357492198765000000120528898800000001120020221101SCORPION  SL-18955690000221027NELANI M                      000002000000145408828104                                  21SCORPION  SL-189556900000CPRJO                                                                            
0200000014540882810000002517202210270039580021357493470010000000150322303300000000560020221101SCORPION  20531735000000221027SITHOLE P                     000002000000145408828104                                  21SCORPION  205317350000000CPRJP                                                                            
0200000014540882810000002517202210270039580021357494470010000000173918095800000001030020221101SCORPION  20432387000000221027GCINA P                       000002000000145408828104                                  21SCORPION  204323870000000CPRJQ                                                                            
0200000014540882810000002517202210270039580021357495462005000002020011130100000001120020221101SCORPION  20459728000000221027SIBAMBO P                     000002000000145408828104                                  21SCORPION  204597280000000CPRJR                                                                            
0200000014540882810000002517202210270039580021357496462005000002020011130100000001120020221101SCORPION  20459728000000221027SIBAMBO P                     000002000000145408828104                                  21SCORPION  204597280000000CPRJS                                                                            
0200000014540882810000002517202210270039580021357497470010000000169991358500000000560020221101SCORPION  20506104000000221027MOSEPIDI J                    000002000000145408828104                                  21SCORPION  205061040000000CPRJT                                                                            
0200000014540882810000002517202210270039580021357498470010000000169853978700000001120020221101SCORPION  SL-40255930000221027THUTSE K                      000002000000145408828104                                  21SCORPION  SL-402559300000CPRJU                                                                            
0200000014540882810000002517202210270039580021357499051001000000030508624300000001120020221101SCORPION  SL-72074000000221027MOLOMO P                      000002000000145408828104                                  21SCORPION  SL-720740000000CPRJV                                                                            
0200000014540882810000002517202210270039580021357500470010000000166151198600000001120020221101SCORPION  SL-39239520000221027MKHWANAZI M                   000002000000145408828104                                  21SCORPION  SL-392395200000CPRJW                                                                            
0200000014540882810000002517202210270039580021357501470010000000116717491500000001260020221101SCORPION  SL-21321560000221027MODISANE KL                   000002000000145408828104                                  21SCORPION  SL-213215600000CPRJX                                                                            
0200000014540882810000002517202210270039580021357502470010000000156010060300000001120020221101SCORPION  SL-27929420000221027MAHLANYA R                    000002000000145408828104                                  21SCORPION  SL-279294200000CPRJY                                                                            
0200000014540882810000002517202210270039580021357503470010000000168273135700000000530020221101SCORPION  SL-20407711000221027SIKHOVE L                     000002000000145408828104                                  21SCORPION  SL-204077110000CPRJZ                                                                            
0200000014540882810000002517202210270039580021357504198765000000121969074000000001030020221101SCORPION  20425642000000221027OYELAKIN A                    000002000000145408828104                                  21SCORPION  204256420000000CPRK0                                                                            
0200000014540882810000002517202210270039580021357505250655000006287093449700000001030020221101SCORPION  SL-20406007000221027PRETORIUS J                   000002000000145408828104                                  21SCORPION  SL-204060070000CPRK1                                                                            
0200000014540882810000002517202210270039580021357506250655000006287093449700000001030020221101SCORPION  SL-20406007000221027PRETORIUS J                   000002000000145408828104                                  21SCORPION  SL-204060070000CPRK2                                                                            
0200000014540882810000002517202210270039580021357507250655000006242758993400000001030020221101SCORPION  SL-20407134000221027ESTERHUEIZEN R                000002000000145408828104                                  21SCORPION  SL-204071340000CPRK3                                                                            
0200000014540882810000002517202210270039580021357508250655000006242758993400000001030020221101SCORPION  SL-20407134000221027ESTERHUEIZEN R                000002000000145408828104                                  21SCORPION  SL-204071340000CPRK4                                                                            
0200000014540882810000002517202210270039580021357509051001000000000089977100000001120020221101SCORPION  20529660000000221027MNCWANGO G                    000002000000145408828104                                  21SCORPION  205296600000000CPRK5                                                                            
0200000014540882810000002517202210270039580021357510632005000000404788712600000001120020221101SCORPION  SL-10199000000221027MABENA SP                     000002000000145408828104                                  21SCORPION  SL-101990000000CPRK6                                                                            
0200000014540882810000002517202210270039580021357511632005000000404788712600000001120020221101SCORPION  SL-10199000000221027MABENA SP                     000002000000145408828104                                  21SCORPION  SL-101990000000CPRK7                                                                            
0200000014540882810000002517202210270039580021357512250655000006203854404600000001120020221101SCORPION  SL-10447000000221027RABOTHATA JA                  000002000000145408828104                                  21SCORPION  SL-104470000000CPRK8                                                                            
0200000014540882810000002517202210270039580021357513051001000000001106455200000001120020221101SCORPION  SL-10648000000221027MAKITLA TG                    000002000000145408828104                                  21SCORPION  SL-106480000000CPRK9                                                                            
0200000014540882810000002517202210270039580021357514051001000000001106455200000001120020221101SCORPION  SL-10648000000221027MAKITLA TG                    000002000000145408828104                                  21SCORPION  SL-106480000000CPRKA                                                                            
0200000014540882810000002517202210270039580021357515470010000000155155024300000000560020221101SCORPION  SL-10960000000221027MASHEGO CM                    000002000000145408828104                                  21SCORPION  SL-109600000000CPRKB                                                                            
0200000014540882810000002517202210270039580021357516250655000005113233169900000000560020221101SCORPION  SL-11038000000221027NKOSI A                       000002000000145408828104                                  21SCORPION  SL-110380000000CPRKC                                                                            
0200000014540882810000002517202210270039580021357517250655000006230985882900000001120020221101SCORPION  SL-11148000000221027MATHAKGONG IS                 000002000000145408828104                                  21SCORPION  SL-111480000000CPRKD                                                                            
0200000014540882810000002517202210270039580021357518051001000000033113412800000001120020221101SCORPION  SL-11185000000221027HOWARD AJ                     000002000000145408828104                                  21SCORPION  SL-111850000000CPRKE                                                                            
0200000014540882810000002517202210270039580021357519632005000003805236494600000001120020221101SCORPION  SL-11333000000221027NGULUBE SS                    000002000000145408828104                                  21SCORPION  SL-113330000000CPRKF                                                                            
0200000014540882810000002517202210270039580021357520250655000005116002423200000001120020221101SCORPION  SL-11402000000221027MAREKERE SB                   000002000000145408828104                                  21SCORPION  SL-114020000000CPRKG                                                                            
0200000014540882810000002517202210270039580021357521250655000005116002423200000001120020221101SCORPION  SL-11402000000221027MAREKERE SB                   000002000000145408828104                                  21SCORPION  SL-114020000000CPRKH                                                                            
0200000014540882810000002517202210270039580021357522632005000000021983177300000001120020221101SCORPION  SL-11588000000221027MOFOKENG MA                   000002000000145408828104                                  21SCORPION  SL-115880000000CPRKI                                                                            
0200000014540882810000002517202210270039580021357523470010000000147007888900000001120020221101SCORPION  SL-11619000000221027SATEKGE BW                    000002000000145408828104                                  21SCORPION  SL-116190000000CPRKJ                                                                            
0200000014540882810000002517202210270039580021357524632005000003807139023100000001120020221101SCORPION  SL-11648000000221027MAZIBUKO GP                   000002000000145408828104                                  21SCORPION  SL-116480000000CPRKK                                                                            
0200000014540882810000002517202210270039580021357525470010000000145644911500000001730020221101SCORPION  SL-11757000000221027MAKETLO R                     000002000000145408828104                                  21SCORPION  SL-117570000000CPRKL                                                                            
0200000014540882810000002517202210270039580021357526632005000000002814408300000001120020221101SCORPION  SL-12092000000221027MALOKA P                      000002000000145408828104                                  21SCORPION  SL-120920000000CPRKM                                                                            
0200000014540882810000002517202210270039580021357527632005000000090816598500000001120020221101SCORPION  SL-12270000000221027RALETSEMO PM                  000002000000145408828104                                  21SCORPION  SL-122700000000CPRKN                                                                            
0200000014540882810000002517202210270039580021357528470010000000120659120800000001120020221101SCORPION  SL-12336000000221027MOILOA ES                     000002000000145408828104                                  21SCORPION  SL-123360000000CPRKO                                                                            
0200000014540882810000002517202210270039580021357529051001000000016370540200000001730020221101SCORPION  SL-12683000000221027MDHLULI T                     000002000000145408828104                                  21SCORPION  SL-126830000000CPRKP                                                                            
0200000014540882810000002517202210270039580021357530051001000000016370540200000001120020221101SCORPION  SL-34998670000221027MDHLULI T                     000002000000145408828104                                  21SCORPION  SL-349986700000CPRKQ                                                                            
0200000014540882810000002517202210270039580021357531198765000000102259490700000001120020221101SCORPION  SL-12704000000221027MSIZA T                       000002000000145408828104                                  21SCORPION  SL-127040000000CPRKR                                                                            
0200000014540882810000002517202210270039580021357532198765000000102259490700000001120020221101SCORPION  SL-12704000000221027MSIZA T                       000002000000145408828104                                  21SCORPION  SL-127040000000CPRKS                                                                            
0200000014540882810000002517202210270039580021357533632005000000620164014600000001730020221101SCORPION  SL-12764000000221027SEMENYA JM                    000002000000145408828104                                  21SCORPION  SL-127640000000CPRKT                                                                            
0200000014540882810000002517202210270039580021357534470010000000114053587900000001120020221101SCORPION  SL-12937000000221027NENE D                        000002000000145408828104                                  21SCORPION  SL-129370000000CPRKU                                                                            
0200000014540882810000002517202210270039580021357535051001000000067477236900000000560020221101SCORPION  SL-13013000000221027MATHEBULA KM                  000002000000145408828104                                  21SCORPION  SL-130130000000CPRKV                                                                            
0200000014540882810000002517202210270039580021357536470010000000113846147200000001120020221101SCORPION  SL-13574000000221027SEKHUMISE M                   000002000000145408828104                                  21SCORPION  SL-135740000000CPRKW                                                                            
0200000014540882810000002517202210270039580021357537470010000000143471761300000001120020221101SCORPION  SL-13756000000221027LIPALI MD                     000002000000145408828104                                  21SCORPION  SL-137560000000CPRKX                                                                            
0200000014540882810000002517202210270039580021357538632005000000405964708100000001120020221101SCORPION  SL-14286000000221027RAPOO PM                      000002000000145408828104                                  21SCORPION  SL-142860000000CPRKY                                                                            
0200000014540882810000002517202210270039580021357539250655000005055008916100000001120020221101SCORPION  SL-14298000000221027MCKENZIE V                    000002000000145408828104                                  21SCORPION  SL-142980000000CPRKZ                                                                            
0200000014540882810000002517202210270039580021357540632005000000406468679700000001120020221101SCORPION  SL-14454000000221027MBUNGELE JN                   000002000000145408828104                                  21SCORPION  SL-144540000000CPRL0                                                                            
0200000014540882810000002517202210270039580021357541250655000006267471828700000001120020221101SCORPION  SL-14501000000221027RABALAO MA                    000002000000145408828104                                  21SCORPION  SL-145010000000CPRL1                                                                            
0200000014540882810000002517202210270039580021357542250655000005113004502800000001120020221101SCORPION  SL-14534000000221027MOEKETSI KB                   000002000000145408828104                                  21SCORPION  SL-145340000000CPRL2                                                                            
0200000014540882810000002517202210270039580021357543632005000000407631617200000001120020221101SCORPION  SL-14544000000221027MBOWENI M                     000002000000145408828104                                  21SCORPION  SL-145440000000CPRL3                                                                            
0200000014540882810000002517202210270039580021357544250655000006200013156600000001120020221101SCORPION  SL-14594000000221027HADEBE L                      000002000000145408828104                                  21SCORPION  SL-145940000000CPRL4                                                                            
0200000014540882810000002517202210270039580021357545051001000000002201864600000001120020221101SCORPION  SL-14720000000221027MOTSOMANE P                   000002000000145408828104                                  21SCORPION  SL-147200000000CPRL5                                                                            
0200000014540882810000002517202210270039580021357546250655000006202728815000000001120020221101SCORPION  SL-14867000000221027LEDWABA JL                    000002000000145408828104                                  21SCORPION  SL-148670000000CPRL6                                                                            
0200000014540882810000002517202210270039580021357547051001000000022023112500000001730020221101SCORPION  SL-15065000000221027NAIDOO NB                     000002000000145408828104                                  21SCORPION  SL-150650000000CPRL7                                                                            
0200000014540882810000002517202210270039580021357548632005000000001282509300000001120020221101SCORPION  SL-15879000000221027SHAPO ME                      000002000000145408828104                                  21SCORPION  SL-158790000000CPRL8                                                                            
0200000014540882810000002517202210270039580021357549198765000000102665801200000001730020221101SCORPION  SL-16097000000221027KGATLANE G                    000002000000145408828104                                  21SCORPION  SL-160970000000CPRL9                                                                            
0200000014540882810000002517202210270039580021357550632005000000928305181300000001120020221101SCORPION  SL-16193000000221027NGOBESE N                     000002000000145408828104                                  21SCORPION  SL-161930000000CPRLA                                                                            
0200000014540882810000002517202210270039580021357551470010000000120156316800000001120020221101SCORPION  SL-16383000000221027MAPHASA PM                    000002000000145408828104                                  21SCORPION  SL-163830000000CPRLB                                                                            
0200000014540882810000002517202210270039580021357552632005000000901805487100000001120020221101SCORPION  SL-16440000000221027KUNUPI TA                     000002000000145408828104                                  21SCORPION  SL-164400000000CPRLC                                                                            
0200000014540882810000002517202210270039580021357553250655000006281803448100000001120020221101SCORPION  SL-16557000000221027JIYANE JS                     000002000000145408828104                                  21SCORPION  SL-165570000000CPRLD                                                                            
0200000014540882810000002517202210270039580021357554632005000000406556483700000001120020221101SCORPION  SL-17137000000221027KOENAITE KG                   000002000000145408828104                                  21SCORPION  SL-171370000000CPRLE                                                                            
0200000014540882810000002517202210270039580021357555250655000005335107367200000001120020221101SCORPION  SL-17431000000221027SHABALALA TA                  000002000000145408828104                                  21SCORPION  SL-174310000000CPRLF                                                                            
0200000014540882810000002517202210270039580021357556470010000000139876526900000001120020221101SCORPION  SL-17515000000221027MASHISHI M                    000002000000145408828104                                  21SCORPION  SL-175150000000CPRLG                                                                            
0200000014540882810000002517202210270039580021357557470010000000139876526900000001120020221101SCORPION  SL-17515000000221027MASHISHI M                    000002000000145408828104                                  21SCORPION  SL-175150000000CPRLH                                                                            
0200000014540882810000002517202210270039580021357558250655000006225764147500000001120020221101SCORPION  SL-17709000000221027KHUMALO MZ                    000002000000145408828104                                  21SCORPION  SL-177090000000CPRLI                                                                            
0200000014540882810000002517202210270039580021357559632005000000405249657600000001120020221101SCORPION  SL-17758000000221027MOKOENA NE                    000002000000145408828104                                  21SCORPION  SL-177580000000CPRLJ                                                                            
0200000014540882810000002517202210270039580021357560632005000000930314835400000001120020221101SCORPION  SL-18316000000221027YENDE HS                      000002000000145408828104                                  21SCORPION  SL-183160000000CPRLK                                                                            
0200000014540882810000002517202210270039580021357561470010000000177533588500000001120020221101SCORPION  SL-18514000000221027MBOKAZI ZJ                    000002000000145408828104                                  21SCORPION  SL-185140000000CPRLL                                                                            
0200000014540882810000002517202210270039580021357562470010000000130320363200000001120020221101SCORPION  SL-19325000000221027DLAMINI MJ                    000002000000145408828104                                  21SCORPION  SL-193250000000CPRLM                                                                            
0200000014540882810000002517202210270039580021357563632005000000405888276900000001120020221101SCORPION  SL-19986000000221027MOLEKO MM                     000002000000145408828104                                  21SCORPION  SL-199860000000CPRLN                                                                            
0200000014540882810000002517202210270039580021357564051001000000041351284300000001120020221101SCORPION  SL-20182000000221027NDHLOVU S                     000002000000145408828104                                  21SCORPION  SL-201820000000CPRLO                                                                            
0200000014540882810000002517202210270039580021357565051001000000004221451300000001120020221101SCORPION  SL-20282000000221027MAGWAZA TP                    000002000000145408828104                                  21SCORPION  SL-202820000000CPRLP                                                                            
0200000014540882810000002517202210270039580021357566470010000000131557621800000001120020221101SCORPION  SL-20865000000221027KHOZA JJ                      000002000000145408828104                                  21SCORPION  SL-208650000000CPRLQ                                                                            
0200000014540882810000002517202210270039580021357567470010000000118236982900000001730020221101SCORPION  SL-21676000000221027PHAKATHI J                    000002000000145408828104                                  21SCORPION  SL-216760000000CPRLR                                                                            
0200000014540882810000002517202210270039580021357568250655000006001828120800000001730020221101SCORPION  SL-21810000000221027RATAU MJ                      000002000000145408828104                                  21SCORPION  SL-218100000000CPRLS                                                                            
0200000014540882810000002517202210270039580021357569051001000000014565940200000001120020221101SCORPION  SL-21935000000221027BARAPAMI OI                   000002000000145408828104                                  21SCORPION  SL-219350000000CPRLT                                                                            
0200000014540882810000002517202210270039580021357570470010000000135156019900000001120020221101SCORPION  SL-22044000000221027MSEBENZI S                    000002000000145408828104                                  21SCORPION  SL-220440000000CPRLU                                                                            
0200000014540882810000002517202210270039580021357571632005000000408480958900000001120020221101SCORPION  SL-22890000000221027MBUYAZI H                     000002000000145408828104                                  21SCORPION  SL-228900000000CPRLV                                                                            
0200000014540882810000002517202210270039580021357572470010000000112285670700000001120020221101SCORPION  SL-23006000000221027MOELETSI MF                   000002000000145408828104                                  21SCORPION  SL-230060000000CPRLW                                                                            
0200000014540882810000002517202210270039580021357573198765000000160717812500000001120020221101SCORPION  SL-23234000000221027MODIAKGOTLA DR                000002000000145408828104                                  21SCORPION  SL-232340000000CPRLX                                                                            
0200000014540882810000002517202210270039580021357574470010000000114438292900000001120020221101SCORPION  SL-23348000000221027LEPHALALA TI                  000002000000145408828104                                  21SCORPION  SL-233480000000CPRLY                                                                            
0200000014540882810000002517202210270039580021357575470010000000115915355600000000890020221101SCORPION  SL-23345000000221027JOSEPH K                      000002000000145408828104                                  21SCORPION  SL-233450000000CPRLZ                                                                            
0200000014540882810000002517202210270039580021357576470010000000115915355600000001120020221101SCORPION  20525589000000221027JOSEPH K                      000002000000145408828104                                  21SCORPION  205255890000000CPRM0                                                                            
0200000014540882810000002517202210270039580021357577632005000000002833062000000001120020221101SCORPION  SL-23411000000221027MOKONE MS                     000002000000145408828104                                  21SCORPION  SL-234110000000CPRM1                                                                            
0200000014540882810000002517202210270039580021357578470010000000124346750700000001120020221101SCORPION  SL-23414000000221027SEFARA WM                     000002000000145408828104                                  21SCORPION  SL-234140000000CPRM2                                                                            
0200000014540882810000002517202210270039580021357579250655000006247681361500000001120020221101SCORPION  SL-34630380000221027MALAZA SI                     000002000000145408828104                                  21SCORPION  SL-346303800000CPRM3                                                                            
0200000014540882810000002517202210270039580021357580250655000006247681361500000001120020221101SCORPION  SL-23802000000221027MALAZA SI                     000002000000145408828104                                  21SCORPION  SL-238020000000CPRM4                                                                            
0200000014540882810000002517202210270039580021357581250655000005351000957500000001120020221101SCORPION  SL-23823000000221027LEOPENG RH                    000002000000145408828104                                  21SCORPION  SL-238230000000CPRM5                                                                            
0200000014540882810000002517202210270039580021357582198765000000110629246400000001120020221101SCORPION  SL-24000000000221027LESHABANE MM                  000002000000145408828104                                  21SCORPION  SL-240000000000CPRM6                                                                            
0200000014540882810000002517202210270039580021357583470010000000124498490400000001120020221101SCORPION  SL-24207000000221027KHUMALO MP                    000002000000145408828104                                  21SCORPION  SL-242070000000CPRM7                                                                            
0200000014540882810000002517202210270039580021357584470010000000124498490400000001120020221101SCORPION  SL-24207000000221027KHUMALO MP                    000002000000145408828104                                  21SCORPION  SL-242070000000CPRM8                                                                            
0200000014540882810000002517202210270039580021357585198765000000110550555300000001120020221101SCORPION  SL-24256000000221027MOKUBUNG L                    000002000000145408828104                                  21SCORPION  SL-242560000000CPRM9                                                                            
0200000014540882810000002517202210270039580021357586470010000000132502283500000001730020221101SCORPION  SL-24292000000221027NGWENYA V                     000002000000145408828104                                  21SCORPION  SL-242920000000CPRMA                                                                            
0200000014540882810000002517202210270039580021357587250655000005330001052600000001120020221101SCORPION  SL-24328000000221027NDOBO TS                      000002000000145408828104                                  21SCORPION  SL-243280000000CPRMB                                                                            
0200000014540882810000002517202210270039580021357588051001000000062655150100000001120020221101SCORPION  SL-24779000000221027MOKONTO DL                    000002000000145408828104                                  21SCORPION  SL-247790000000CPRMC                                                                            
0200000014540882810000002517202210270039580021357589051001000000062655150100000001120020221101SCORPION  SL-24779000000221027MOKONTO DL                    000002000000145408828104                                  21SCORPION  SL-247790000000CPRMD                                                                            
0200000014540882810000002517202210270039580021357590198765000000109452585500000001120020221101SCORPION  SL-25445000000221027ALI JR                        000002000000145408828104                                  21SCORPION  SL-254450000000CPRME                                                                            
0200000014540882810000002517202210270039580021357591250655000006011052714600000001120020221101SCORPION  SL-25482000000221027SELOWA MA                     000002000000145408828104                                  21SCORPION  SL-254820000000CPRMF                                                                            
0200000014540882810000002517202210270039580021357592470010000000128396687300000001120020221101SCORPION  SL-25743000000221027MAPETLA KP                    000002000000145408828104                                  21SCORPION  SL-257430000000CPRMG                                                                            
0200000014540882810000002517202210270039580021357593470010000000138586504900000001120020221101SCORPION  SL-25862000000221027HLONGWANE SA                  000002000000145408828104                                  21SCORPION  SL-258620000000CPRMH                                                                            
0200000014540882810000002517202210270039580021357594431010000000088527137500000001120020221101SCORPION  SL-25922000000221027MAHLANGU J                    000002000000145408828104                                  21SCORPION  SL-259220000000CPRMI                                                                            
0200000014540882810000002517202210270039580021357595250655000006212878161500000001120020221101SCORPION  SL-27167000000221027MALGAS AR                     000002000000145408828104                                  21SCORPION  SL-271670000000CPRMJ                                                                            
0200000014540882810000002517202210270039580021357596632005000000002090180200000001120020221101SCORPION  SL-27423000000221027MPHAHLELE TD                  000002000000145408828104                                  21SCORPION  SL-274230000000CPRMK                                                                            
0200000014540882810000002517202210270039580021357597051001000000062830315700000001120020221101SCORPION  SL-27521000000221027TOTOSE V                      000002000000145408828104                                  21SCORPION  SL-275210000000CPRML                                                                            
0200000014540882810000002517202210270039580021357598470010000000147254871800000001730020221101SCORPION  SL-27740000000221027DLAMINI B                     000002000000145408828104                                  21SCORPION  SL-277400000000CPRMM                                                                            
0200000014540882810000002517202210270039580021357599470010000000116118729200000001120020221101SCORPION  SL-27748000000221027KGAPANE G                     000002000000145408828104                                  21SCORPION  SL-277480000000CPRMN                                                                            
0200000014540882810000002517202210270039580021357600051001000000028023174100000001120020221101SCORPION  SL-28061000000221027MERE DM                       000002000000145408828104                                  21SCORPION  SL-280610000000CPRMO                                                                            
0200000014540882810000002517202210270039580021357601051001000000005815506600000001120020221101SCORPION  SL-29078000000221027DLADLA BT                     000002000000145408828104                                  21SCORPION  SL-290780000000CPRMP                                                                            
0200000014540882810000002517202210270039580021357602470010000000126174242500000001120020221101SCORPION  SL-29098000000221027KHUMALO FP                    000002000000145408828104                                  21SCORPION  SL-290980000000CPRMQ                                                                            
0200000014540882810000002517202210270039580021357603470010000000171655322700000001120020221101SCORPION  SL-29140000000221027MALULEKE MG                   000002000000145408828104                                  21SCORPION  SL-291400000000CPRMR                                                                            
0200000014540882810000002517202210270039580021357604632005000000918644930900000001120020221101SCORPION  SL-29387000000221027HLABATHI MS                   000002000000145408828104                                  21SCORPION  SL-293870000000CPRMS                                                                            
0200000014540882810000002517202210270039580021357605470010000000114950209400000001120020221101SCORPION  SL-36448680000221027MOLATEDI C                    000002000000145408828104                                  21SCORPION  SL-364486800000CPRMT                                                                            
0200000014540882810000002517202210270039580021357606250655000006028133267200000001120020221101SCORPION  SL-30256000000221027HLATSWAYO ME                  000002000000145408828104                                  21SCORPION  SL-302560000000CPRMU                                                                            
0200000014540882810000002517202210270039580021357607470010000000135503148400000001730020221101SCORPION  SL-30374000000221027KHOSA MS                      000002000000145408828104                                  21SCORPION  SL-303740000000CPRMV                                                                            
0200000014540882810000002517202210270039580021357608632005000000404812363400000001120020221101SCORPION  SL-30549000000221027HELEPI S                      000002000000145408828104                                  21SCORPION  SL-305490000000CPRMW                                                                            
0200000014540882810000002517202210270039580021357609470010000000146509793500000001120020221101SCORPION  SL-30570000000221027MAPHELA LE                    000002000000145408828104                                  21SCORPION  SL-305700000000CPRMX                                                                            
0200000014540882810000002517202210270039580021357610051001000000062712833500000001120020221101SCORPION  SL-30841000000221027DHLADHLA SM                   000002000000145408828104                                  21SCORPION  SL-308410000000CPRMY                                                                            
0200000014540882810000002517202210270039580021357611632005000000134014966800000001120020221101SCORPION  SL-30919000000221027RAMOLUTSI F                   000002000000145408828104                                  21SCORPION  SL-309190000000CPRMZ                                                                            
0200000014540882810000002517202210270039580021357612198765000000280816296000000001120020221101SCORPION  SL-30935000000221027MOHLAKOANA P                  000002000000145408828104                                  21SCORPION  SL-309350000000CPRN0                                                                            
0200000014540882810000002517202210270039580021357613470010000000151709419200000001120020221101SCORPION  SL-31391000000221027MEKWA A                       000002000000145408828104                                  21SCORPION  SL-313910000000CPRN1                                                                            
0200000014540882810000002517202210270039580021357614470010000000151709419200000001120020221101SCORPION  SL-31391000000221027MEKWA A                       000002000000145408828104                                  21SCORPION  SL-313910000000CPRN2                                                                            
0200000014540882810000002517202210270039580021357615470010000000165945904200000001120020221101SCORPION  SL-31631000000221027NKELENJANE MV                 000002000000145408828104                                  21SCORPION  SL-316310000000CPRN3                                                                            
0200000014540882810000002517202210270039580021357616470010000000111429569600000001120020221101SCORPION  SL-32155000000221027KEKANA JM                     000002000000145408828104                                  21SCORPION  SL-321550000000CPRN4                                                                            
0200000014540882810000002517202210270039580021357617051001000000002068030900000001120020221101SCORPION  SL-32308000000221027LITSWELE SE                   000002000000145408828104                                  21SCORPION  SL-323080000000CPRN5                                                                            
0200000014540882810000002517202210270039580021357618470010000000163674037300000001120020221101SCORPION  SL-32592000000221027MANAMELA SM                   000002000000145408828104                                  21SCORPION  SL-325920000000CPRN6                                                                            
0200000014540882810000002517202210270039580021357619470010000000121301224200000001190020221101SCORPION  SL-38300130000221027MANYEKE TM                    000002000000145408828104                                  21SCORPION  SL-383001300000CPRN7                                                                            
0200000014540882810000002517202210270039580021357620470010000000121301224200000001120020221101SCORPION  SL-32969000000221027MANYEKE TM                    000002000000145408828104                                  21SCORPION  SL-329690000000CPRN8                                                                            
0200000014540882810000002517202210270039580021357621250655000006278034216000000001120020221101SCORPION  SL-33090000000221027LUSWAZI K                     000002000000145408828104                                  21SCORPION  SL-330900000000CPRN9                                                                            
0200000014540882810000002517202210270039580021357622250655000006278034216000000001120020221101SCORPION  SL-33090000000221027LUSWAZI K                     000002000000145408828104                                  21SCORPION  SL-330900000000CPRNA                                                                            
0200000014540882810000002517202210270039580021357623632005000000929794903800000001120020221101SCORPION  SL-33114000000221027RAMOLEFO A                    000002000000145408828104                                  21SCORPION  SL-331140000000CPRNB                                                                            
0200000014540882810000002517202210270039580021357624250655000006229974526900000001120020221101SCORPION  SL-33437000000221027TSHETHO T                     000002000000145408828104                                  21SCORPION  SL-334370000000CPRNC                                                                            
0200000014540882810000002517202210270039580021357625051001000000025046669400000001120020221101SCORPION  SL-33646000000221027HLONGWA AB                    000002000000145408828104                                  21SCORPION  SL-336460000000CPRND                                                                            
0200000014540882810000002517202210270039580021357626051001000000028064953300000001120020221101SCORPION  SL-34978000000221027MHLE JM                       000002000000145408828104                                  21SCORPION  SL-349780000000CPRNE                                                                            
0200000014540882810000002517202210270039580021357627470010000000115538476600000001120020221101SCORPION  SL-35198000000221027MAZIBE PS                     000002000000145408828104                                  21SCORPION  SL-351980000000CPRNF                                                                            
0200000014540882810000002517202210270039580021357628632005000000404410813900000001120020221101SCORPION  SL-35786000000221027MARIPANYI GM                  000002000000145408828104                                  21SCORPION  SL-357860000000CPRNG                                                                            
0200000014540882810000002517202210270039580021357629250655000006207736587500000001120020221101SCORPION  SL-36091000000221027MAGAGULA L                    000002000000145408828104                                  21SCORPION  SL-360910000000CPRNH                                                                            
0200000014540882810000002517202210270039580021357630632005000000911517390100000001120020221101SCORPION  SL-36304000000221027MASUKU J                      000002000000145408828104                                  21SCORPION  SL-363040000000CPRNI                                                                            
0200000014540882810000002517202210270039580021357631198765000000283616552900000001120020221101SCORPION  SL-36343000000221027MATHENJWA TE                  000002000000145408828104                                  21SCORPION  SL-363430000000CPRNJ                                                                            
0200000014540882810000002517202210270039580021357632051001000000023004923000000001120020221101SCORPION  SL-36560000000221027RAPIYA GE                     000002000000145408828104                                  21SCORPION  SL-365600000000CPRNK                                                                            
0200000014540882810000002517202210270039580021357633250655000006203449093800000001030020221101SCORPION  SL-36677000000221027BRUCE V                       000002000000145408828104                                  21SCORPION  SL-366770000000CPRNL                                                                            
0200000014540882810000002517202210270039580021357634250655000006203449093800000001030020221101SCORPION  SL-36677000000221027BRUCE V                       000002000000145408828104                                  21SCORPION  SL-366770000000CPRNM                                                                            
0200000014540882810000002517202210270039580021357635051001000000003249035600000001120020221101SCORPION  SL-36826000000221027KHESWA OG                     000002000000145408828104                                  21SCORPION  SL-368260000000CPRNN                                                                            
0200000014540882810000002517202210270039580021357636470010000000155999365900000001120020221101SCORPION  SL-36916000000221027MHLANGA R                     000002000000145408828104                                  21SCORPION  SL-369160000000CPRNO                                                                            
0200000014540882810000002517202210270039580021357637632005000000904927862900000001120020221101SCORPION  SL-36950000000221027MPHELA NE                     000002000000145408828104                                  21SCORPION  SL-369500000000CPRNP                                                                            
0200000014540882810000002517202210270039580021357638198765000000113394836700000001120020221101SCORPION  SL-36960000000221027TSHABALALA J                  000002000000145408828104                                  21SCORPION  SL-369600000000CPRNQ                                                                            
0200000014540882810000002517202210270039580021357639250655000006259482325700000001120020221101SCORPION  SL-37104000000221027DOSI W                        000002000000145408828104                                  21SCORPION  SL-371040000000CPRNR                                                                            
0200000014540882810000002517202210270039580021357640250655000006259482325700000001120020221101SCORPION  SL-37104000000221027DOSI W                        000002000000145408828104                                  21SCORPION  SL-371040000000CPRNS                                                                            
0200000014540882810000002517202210270039580021357641198765000000102949773700000001120020221101SCORPION  SL-37309000000221027MZOBE WT                      000002000000145408828104                                  21SCORPION  SL-373090000000CPRNT                                                                            
0200000014540882810000002517202210270039580021357642198765000000104892747400000001120020221101SCORPION  SL-37311000000221027MABELANE WK                   000002000000145408828104                                  21SCORPION  SL-373110000000CPRNU                                                                            
0200000014540882810000002517202210270039580021357643198765000000104892747400000001120020221101SCORPION  SL-37311000000221027MABELANE WK                   000002000000145408828104                                  21SCORPION  SL-373110000000CPRNV                                                                            
0200000014540882810000002517202210270039580021357644250655000006247650813300000001120020221101SCORPION  SL-37689000000221027LEBESA T                      000002000000145408828104                                  21SCORPION  SL-376890000000CPRNW                                                                            
0200000014540882810000002517202210270039580021357645250655000006247650813300000001120020221101SCORPION  SL-37689000000221027LEBESA T                      000002000000145408828104                                  21SCORPION  SL-376890000000CPRNX                                                                            
0200000014540882810000002517202210270039580021357646250655000005236500183500000001120020221101SCORPION  SL-38229000000221027VILAKAZI MB                   000002000000145408828104                                  21SCORPION  SL-382290000000CPRNY                                                                            
0200000014540882810000002517202210270039580021357647051001000000065637596500000001120020221101SCORPION  SL-38263000000221027MABASA HT                     000002000000145408828104                                  21SCORPION  SL-382630000000CPRNZ                                                                            
0200000014540882810000002517202210270039580021357648051001000001008411627500000000560020221101SCORPION  SL-38550000000221027LESENYA MPS                   000002000000145408828104                                  21SCORPION  SL-385500000000CPRO0                                                                            
0200000014540882810000002517202210270039580021357649051001000001008411627500000000560020221101SCORPION  SL-38550000000221027LESENYA MPS                   000002000000145408828104                                  21SCORPION  SL-385500000000CPRO1                                                                            
0200000014540882810000002517202210270039580021357650470010000000149197280500000001120020221101SCORPION  SL-38613000000221027RAMUHASHI SN                  000002000000145408828104                                  21SCORPION  SL-386130000000CPRO2                                                                            
0200000014540882810000002517202210270039580021357651470010000000169667819400000001120020221101SCORPION  SL-38625000000221027DIKGALE MS                    000002000000145408828104                                  21SCORPION  SL-386250000000CPRO3                                                                            
0200000014540882810000002517202210270039580021357652051001000000033489097700000001120020221101SCORPION  SL-39059000000221027MOTSOAHAE PL                  000002000000145408828104                                  21SCORPION  SL-390590000000CPRO4                                                                            
0200000014540882810000002517202210270039580021357653250655000005386104601000000001730020221101SCORPION  SL-39071000000221027STHONGA AL                    000002000000145408828104                                  21SCORPION  SL-390710000000CPRO5                                                                            
0200000014540882810000002517202210270039580021357654250655000006200256364200000001120020221101SCORPION  SL-39752000000221027MBULAWA M                     000002000000145408828104                                  21SCORPION  SL-397520000000CPRO6                                                                            
0200000014540882810000002517202210270039580021357655250655000006218497217500000001120020221101SCORPION  SL-40142000000221027MOTLALOE LJ                   000002000000145408828104                                  21SCORPION  SL-401420000000CPRO7                                                                            
0200000014540882810000002517202210270039580021357656632005000000226985167000000001120020221101SCORPION  SL-40206000000221027TSHABALALA M                  000002000000145408828104                                  21SCORPION  SL-402060000000CPRO8                                                                            
0200000014540882810000002517202210270039580021357657632005000000904059262600000001120020221101SCORPION  SL-41127000000221027MAHLANGU EF                   000002000000145408828104                                  21SCORPION  SL-411270000000CPRO9                                                                            
0200000014540882810000002517202210270039580021357658051001000000041384961900000001120020221101SCORPION  SL-41185000000221027MOYO R                        000002000000145408828104                                  21SCORPION  SL-411850000000CPROA                                                                            
0200000014540882810000002517202210270039580021357659632005000000405106605700000001120020221101SCORPION  SL-41538000000221027THATENG SS                    000002000000145408828104                                  21SCORPION  SL-415380000000CPROB                                                                            
0200000014540882810000002517202210270039580021357660250655000005117117616300000001120020221101SCORPION  SL-41599000000221027MALEPA MF                     000002000000145408828104                                  21SCORPION  SL-415990000000CPROC                                                                            
0200000014540882810000002517202210270039580021357661470010000000118769756500000001120020221101SCORPION  SL-41823000000221027SIGASA MJ                     000002000000145408828104                                  21SCORPION  SL-418230000000CPROD                                                                            
0200000014540882810000002517202210270039580021357662250655000005049004229500000001730020221101SCORPION  SL-42187000000221027MOLEFE J                      000002000000145408828104                                  21SCORPION  SL-421870000000CPROE                                                                            
0200000014540882810000002517202210270039580021357663470010000000111040196300000000560020221101SCORPION  SL-42210000000221027MOGALE C                      000002000000145408828104                                  21SCORPION  SL-422100000000CPROF                                                                            
0200000014540882810000002517202210270039580021357664250655000006210452124100000001120020221101SCORPION  SL-42218000000221027MAQA MS                       000002000000145408828104                                  21SCORPION  SL-422180000000CPROG                                                                            
0200000014540882810000002517202210270039580021357665470010000000122600896600000001730020221101SCORPION  SL-42626000000221027DUBE N                        000002000000145408828104                                  21SCORPION  SL-426260000000CPROH                                                                            
0200000014540882810000002517202210270039580021357666051001000000027139201000000001120020221101SCORPION  SL-42676000000221027MPHUTHI R                     000002000000145408828104                                  21SCORPION  SL-426760000000CPROI                                                                            
0200000014540882810000002517202210270039580021357667470010000000132289194800000001120020221101SCORPION  SL-43014000000221027MABOKO M                      000002000000145408828104                                  21SCORPION  SL-430140000000CPROJ                                                                            
0200000014540882810000002517202210270039580021357668051001000000016672552800000000560020221101SCORPION  SL-43024000000221027WALSTROOM EE                  000002000000145408828104                                  21SCORPION  SL-430240000000CPROK                                                                            
0200000014540882810000002517202210270039580021357669198765000000109010107400000001120020221101SCORPION  SL-43071000000221027SENOKO LM                     000002000000145408828104                                  21SCORPION  SL-430710000000CPROL                                                                            
0200000014540882810000002517202210270039580021357670632005000000408801005700000001120020221101SCORPION  SL-43167000000221027MOTHIBA N                     000002000000145408828104                                  21SCORPION  SL-431670000000CPROM                                                                            
0200000014540882810000002517202210270039580021357671250655000006011880865500000001120020221101SCORPION  SL-43629000000221027PHADU ME                      000002000000145408828104                                  21SCORPION  SL-436290000000CPRON                                                                            
0200000014540882810000002517202210270039580021357672250655000006200587341000000001120020221101SCORPION  SL-44475000000221027MOKONE LN                     000002000000145408828104                                  21SCORPION  SL-444750000000CPROO                                                                            
0200000014540882810000002517202210270039580021357673051001000000000695057400000001120020221101SCORPION  SL-45531000000221027SEHOLE ML                     000002000000145408828104                                  21SCORPION  SL-455310000000CPROP                                                                            
0200000014540882810000002517202210270039580021357674198765000000114069823000000001120020221101SCORPION  SL-46374000000221027DUMA B                        000002000000145408828104                                  21SCORPION  SL-463740000000CPROQ                                                                            
0200000014540882810000002517202210270039580021357675632005000000138952170800000001120020221101SCORPION  SL-47035000000221027MANGOPE M                     000002000000145408828104                                  21SCORPION  SL-470350000000CPROR                                                                            
0200000014540882810000002517202210270039580021357676051001000000065631196700000001120020221101SCORPION  SL-47380000000221027KGANYAGO EN                   000002000000145408828104                                  21SCORPION  SL-473800000000CPROS                                                                            
0200000014540882810000002517202210270039580021357677632005000003821283064700000001120020221101SCORPION  SL-47611000000221027RANTJANYANA TP                000002000000145408828104                                  21SCORPION  SL-476110000000CPROT                                                                            
0200000014540882810000002517202210270039580021357678632005000003821283064700000001120020221101SCORPION  SL-47611000000221027RANTJANYANA TP                000002000000145408828104                                  21SCORPION  SL-476110000000CPROU                                                                            
0200000014540882810000002517202210270039580021357679250655000006237864112200000001120020221101SCORPION  SL-47665000000221027JOKO S                        000002000000145408828104                                  21SCORPION  SL-476650000000CPROV                                                                            
0200000014540882810000002517202210270039580021357680632005000000916859648500000001120020221101SCORPION  SL-47784000000221027MAHLANGU VP                   000002000000145408828104                                  21SCORPION  SL-477840000000CPROW                                                                            
0200000014540882810000002517202210270039580021357681632005000000929067823200000001120020221101SCORPION  SL-47848000000221027NJANGASE MT                   000002000000145408828104                                  21SCORPION  SL-478480000000CPROX                                                                            
0200000014540882810000002517202210270039580021357682632005000000406908324700000001120020221101SCORPION  SL-47997000000221027CELE BW                       000002000000145408828104                                  21SCORPION  SL-479970000000CPROY                                                                            
0200000014540882810000002517202210270039580021357683632005000000905577580300000001120020221101SCORPION  SL-48608000000221027PHATSHWANE MM                 000002000000145408828104                                  21SCORPION  SL-486080000000CPROZ                                                                            
0200000014540882810000002517202210270039580021357684632005000000905577580300000001120020221101SCORPION  SL-38029760000221027PHATSHWANE MM                 000002000000145408828104                                  21SCORPION  SL-380297600000CPRP0                                                                            
0200000014540882810000002517202210270039580021357685470010000000143385628800000001120020221101SCORPION  SL-48856000000221027TAU L                         000002000000145408828104                                  21SCORPION  SL-488560000000CPRP1                                                                            
0200000014540882810000002517202210270039580021357686250655000005236006819500000001120020221101SCORPION  SL-48903000000221027MAHLANGU SS                   000002000000145408828104                                  21SCORPION  SL-489030000000CPRP2                                                                            
0200000014540882810000002517202210270039580021357687250655000006027625923700000001120020221101SCORPION  SL-48998000000221027SEEKOEIE AN                   000002000000145408828104                                  21SCORPION  SL-489980000000CPRP3                                                                            
0200000014540882810000002517202210270039580021357688250655000006200166863300000000560020221101SCORPION  SL-49003000000221027NCUBE J                       000002000000145408828104                                  21SCORPION  SL-490030000000CPRP4                                                                            
0200000014540882810000002517202210270039580021357689470010000000142623487000000000560020221101SCORPION  SL-49433000000221027LEOTLELA M                    000002000000145408828104                                  21SCORPION  SL-494330000000CPRP5                                                                            
0200000014540882810000002517202210270039580021357690198765000000151004052800000001120020221101SCORPION  SL-49758000000221027LUSHABA SM                    000002000000145408828104                                  21SCORPION  SL-497580000000CPRP6                                                                            
0200000014540882810000002517202210270039580021357691632005000000404129672700000001120020221101SCORPION  SL-49905000000221027SEOKGO NJ                     000002000000145408828104                                  21SCORPION  SL-499050000000CPRP7                                                                            
0200000014540882810000002517202210270039580021357692051001000000008271060000000001120020221101SCORPION  SL-50065000000221027NANA NL                       000002000000145408828104                                  21SCORPION  SL-500650000000CPRP8                                                                            
0200000014540882810000002517202210270039580021357693051001000000033542298500000001730020221101SCORPION  SL-50516000000221027MATSIDIDI PJ                  000002000000145408828104                                  21SCORPION  SL-505160000000CPRP9                                                                            
0200000014540882810000002517202210270039580021357694250655000006201464969600000001120020221101SCORPION  SL-50532000000221027DLAMINI SF                    000002000000145408828104                                  21SCORPION  SL-505320000000CPRPA                                                                            
0200000014540882810000002517202210270039580021357695470010000000156693631200000001120020221101SCORPION  SL-50674000000221027KHUMALO MJ                    000002000000145408828104                                  21SCORPION  SL-506740000000CPRPB                                                                            
0200000014540882810000002517202210270039580021357696250655000006273535145500000001120020221101SCORPION  SL-51240000000221027LEBOPA S                      000002000000145408828104                                  21SCORPION  SL-512400000000CPRPC                                                                            
0200000014540882810000002517202210270039580021357697470010000000111763829200000001120020221101SCORPION  SL-51303000000221027MOAHLUDI K                    000002000000145408828104                                  21SCORPION  SL-513030000000CPRPD                                                                            
0200000014540882810000002517202210270039580021357698470010000000149986071200000001120020221101SCORPION  SL-51584000000221027RADEBE MP                     000002000000145408828104                                  21SCORPION  SL-515840000000CPRPE                                                                            
0200000014540882810000002517202210270039580021357699470010000000160056929100000001120020221101SCORPION  SL-51666000000221027KHUMALO VN                    000002000000145408828104                                  21SCORPION  SL-516660000000CPRPF                                                                            
0200000014540882810000002517202210270039580021357700051001000000020483031100000001120020221101SCORPION  SL-52000000000221027GONGXEKA A                    000002000000145408828104                                  21SCORPION  SL-520000000000CPRPG                                                                            
0200000014540882810000002517202210270039580021357701632005000000909805764800000001120020221101SCORPION  SL-52039000000221027GULE FH                       000002000000145408828104                                  21SCORPION  SL-520390000000CPRPH                                                                            
