0200000014540882810000002517202210270039580021357741051001000001005934834600000001120020221101SCORPION  SL-60764000000221027MATHOTO L                     000002000000145408828104                                  21SCORPION  SL-607640000000CPRQL                                                                            
0200000014540882810000002517202210270039580021357742051001000001005934834600000001120020221101SCORPION  SL-60764000000221027MATHOTO L                     000002000000145408828104                                  21SCORPION  SL-607640000000CPRQM                                                                            
0200000014540882810000002517202210270039580021357743051001000000037167900100000001120020221101SCORPION  SL-60954000000221027KWANAITE K                    000002000000145408828104                                  21SCORPION  SL-609540000000CPRQN                                                                            
0200000014540882810000002517202210270039580021357744250655000006041728636200000001120020221101SCORPION  SL-61191000000221027MPANZA PD                     000002000000145408828104                                  21SCORPION  SL-611910000000CPRQO                                                                            
0200000014540882810000002517202210270039580021357745250655000006209473013400000001120020221101SCORPION  SL-61294000000221027RAMASELI T                    000002000000145408828104                                  21SCORPION  SL-612940000000CPRQP                                                                            
0200000014540882810000002517202210270039580021357746470010000000111524711300000001120020221101SCORPION  SL-61396000000221027MAVIMBELA M                   000002000000145408828104                                  21SCORPION  SL-613960000000CPRQQ                                                                            
0200000014540882810000002517202210270039580021357747198765000000266301386200000001120020221101SCORPION  SL-61460000000221027NCUBE M                       000002000000145408828104                                  21SCORPION  SL-614600000000CPRQR                                                                            
0200000014540882810000002517202210270039580021357748051001000001015356827300000001120020221101SCORPION  SL-61644000000221027KHUMALO NM                    000002000000145408828104                                  21SCORPION  SL-616440000000CPRQS                                                                            
0200000014540882810000002517202210270039580021357749470010000000120331349500000001120020221101SCORPION  SL-61670000000221027SEBEKO M                      000002000000145408828104                                  21SCORPION  SL-616700000000CPRQT                                                                            
0200000014540882810000002517202210270039580021357750250655000006011254524500000001120020221101SCORPION  SL-62289000000221027NZIMANDE BL                   000002000000145408828104                                  21SCORPION  SL-622890000000CPRQU                                                                            
0200000014540882810000002517202210270039580021357751632005000000929926547800000001120020221101SCORPION  SL-62321000000221027NDIMANDE SE                   000002000000145408828104                                  21SCORPION  SL-623210000000CPRQV                                                                            
0200000014540882810000002517202210270039580021357752632005000000923607425700000001120020221101SCORPION  SL-62352000000221027NGOZO MP                      000002000000145408828104                                  21SCORPION  SL-623520000000CPRQW                                                                            
0200000014540882810000002517202210270039580021357753051001000000001166599800000001120020221101SCORPION  SL-62473000000221027RANNYAMA T                    000002000000145408828104                                  21SCORPION  SL-624730000000CPRQX                                                                            
0200000014540882810000002517202210270039580021357754470010000000112431269000000001120020221101SCORPION  SL-62893000000221027NHLAPO NI                     000002000000145408828104                                  21SCORPION  SL-628930000000CPRQY                                                                            
0200000014540882810000002517202210270039580021357755632005000000925870680500000000560020221101SCORPION  SL-63983000000221027MADISHA M                     000002000000145408828104                                  21SCORPION  SL-639830000000CPRQZ                                                                            
0200000014540882810000002517202210270039580021357756470010000000131051796500000001120020221101SCORPION  SL-64141000000221027MOEKETSI TA                   000002000000145408828104                                  21SCORPION  SL-641410000000CPRR0                                                                            
0200000014540882810000002517202210270039580021357757051001000000002579878200000001120020221101SCORPION  SL-64164000000221027ZWANE TG                      000002000000145408828104                                  21SCORPION  SL-641640000000CPRR1                                                                            
0200000014540882810000002517202210270039580021357758250655000006200690591500000001730020221101SCORPION  SL-64558000000221027SEKHUKHUNE TH                 000002000000145408828104                                  21SCORPION  SL-645580000000CPRR2                                                                            
0200000014540882810000002517202210270039580021357759250655000006269891171800000001120020221101SCORPION  SL-64592000000221027HONGWANE B                    000002000000145408828104                                  21SCORPION  SL-645920000000CPRR3                                                                            
0200000014540882810000002517202210270039580021357760470010000000142964156600000001120020221101SCORPION  SL-64737000000221027MOKHELE M                     000002000000145408828104                                  21SCORPION  SL-647370000000CPRR4                                                                            
0200000014540882810000002517202210270039580021357761632005000000062129968900000001120020221101SCORPION  SL-65157000000221027PRETORIUS S                   000002000000145408828104                                  21SCORPION  SL-651570000000CPRR5                                                                            
0200000014540882810000002517202210270039580021357762470010000000116261303100000001120020221101SCORPION  SL-65183000000221027ZWANE MJ                      000002000000145408828104                                  21SCORPION  SL-651830000000CPRR6                                                                            
0200000014540882810000002517202210270039580021357763632005000000406573556100000001120020221101SCORPION  SL-65797000000221027TSHABALALA AM                 000002000000145408828104                                  21SCORPION  SL-657970000000CPRR7                                                                            
0200000014540882810000002517202210270039580021357764470010000000169197462300000001120020221101SCORPION  SL-65985000000221027GANA M                        000002000000145408828104                                  21SCORPION  SL-659850000000CPRR8                                                                            
0200000014540882810000002517202210270039580021357765198765000000286502842900000001120020221101SCORPION  SL-66138000000221027NTSHANA M M                   000002000000145408828104                                  21SCORPION  SL-661380000000CPRR9                                                                            
0200000014540882810000002517202210270039580021357766250655000006025604334500000001120020221101SCORPION  SL-66214000000221027SEALE JS                      000002000000145408828104                                  21SCORPION  SL-662140000000CPRRA                                                                            
0200000014540882810000002517202210270039580021357767470010000000160168905300000001120020221101SCORPION  SL-66671000000221027MASENYE D                     000002000000145408828104                                  21SCORPION  SL-666710000000CPRRB                                                                            
0200000014540882810000002517202210270039580021357768250655000006021794023300000001120020221101SCORPION  SL-66804000000221027NTSHINKA O                    000002000000145408828104                                  21SCORPION  SL-668040000000CPRRC                                                                            
0200000014540882810000002517202210270039580021357769632005000000408356587900000001120020221101SCORPION  SL-67455000000221027NGOEPE MP                     000002000000145408828104                                  21SCORPION  SL-674550000000CPRRD                                                                            
0200000014540882810000002517202210270039580021357770250655000005399115872700000001120020221101SCORPION  SL-67500000000221027PULE JM                       000002000000145408828104                                  21SCORPION  SL-675000000000CPRRE                                                                            
0200000014540882810000002517202210270039580021357771470010000000122392378700000000560020221101SCORPION  SL-67730000000221027MARIBE MT                     000002000000145408828104                                  21SCORPION  SL-677300000000CPRRF                                                                            
0200000014540882810000002517202210270039580021357772250655000006234027653500000001120020221101SCORPION  SL-67818000000221027TSHEHLA TH                    000002000000145408828104                                  21SCORPION  SL-678180000000CPRRG                                                                            
0200000014540882810000002517202210270039580021357773632005000000905805718300000001120020221101SCORPION  SL-68003000000221027NCUBE PJ                      000002000000145408828104                                  21SCORPION  SL-680030000000CPRRH                                                                            
0200000014540882810000002517202210270039580021357774470010000000161278073100000001120020221101SCORPION  SL-68012000000221027MASHISHI TI                   000002000000145408828104                                  21SCORPION  SL-680120000000CPRRI                                                                            
0200000014540882810000002517202210270039580021357775632005000000932936921300000001120020221101SCORPION  SL-68087000000221027MKHABELA BH                   000002000000145408828104                                  21SCORPION  SL-680870000000CPRRJ                                                                            
0200000014540882810000002517202210270039580021357776470010000000145362891400000001120020221101SCORPION  SL-68306000000221027MAVUNDLA FO                   000002000000145408828104                                  21SCORPION  SL-683060000000CPRRK                                                                            
0200000014540882810000002517202210270039580021357777250655000006048550583500000001120020221101SCORPION  SL-68472000000221027MALULEKE MD                   000002000000145408828104                                  21SCORPION  SL-684720000000CPRRL                                                                            
0200000014540882810000002517202210270039580021357778470010000000117328075600000000560020221101SCORPION  SL-68626000000221027SEGOALE FLT                   000002000000145408828104                                  21SCORPION  SL-686260000000CPRRM                                                                            
0200000014540882810000002517202210270039580021357779632005000000404892674300000001120020221101SCORPION  SL-68823000000221027NTULI MG                      000002000000145408828104                                  21SCORPION  SL-688230000000CPRRN                                                                            
0200000014540882810000002517202210270039580021357780632005000000108844004400000001120020221101SCORPION  SL-68972000000221027KATJEDI M                     000002000000145408828104                                  21SCORPION  SL-689720000000CPRRO                                                                            
0200000014540882810000002517202210270039580021357781250655000006202765498900000001120020221101SCORPION  SL-69130000000221027LEEUW PD                      000002000000145408828104                                  21SCORPION  SL-691300000000CPRRP                                                                            
0200000014540882810000002517202210270039580021357782198765000000120630228300000001120020221101SCORPION  SL-69267000000221027MAHLANGU AN                   000002000000145408828104                                  21SCORPION  SL-692670000000CPRRQ                                                                            
0200000014540882810000002517202210270039580021357783250655000006206720939800000001120020221101SCORPION  SL-69388000000221027BERENG SR                     000002000000145408828104                                  21SCORPION  SL-693880000000CPRRR                                                                            
0200000014540882810000002517202210270039580021357784632005000000406812143400000001120020221101SCORPION  SL-69887000000221027HANYANE RE                    000002000000145408828104                                  21SCORPION  SL-698870000000CPRRS                                                                            
0200000014540882810000002517202210270039580021357785632005000000011799276400000001120020221101SCORPION  SL-69928000000221027NKOBI PB                      000002000000145408828104                                  21SCORPION  SL-699280000000CPRRT                                                                            
0200000014540882810000002517202210270039580021357786632005000000906591219200000001120020221101SCORPION  SL-70288000000221027MABENA J                      000002000000145408828104                                  21SCORPION  SL-702880000000CPRRU                                                                            
0200000014540882810000002517202210270039580021357787051001000000000189897300000001120020221101SCORPION  SL-70326000000221027RADEBE PS                     000002000000145408828104                                  21SCORPION  SL-703260000000CPRRV                                                                            
0200000014540882810000002517202210270039580021357788470010000000129927685500000000560020221101SCORPION  SL-70339000000221027BACELA AM                     000002000000145408828104                                  21SCORPION  SL-703390000000CPRRW                                                                            
0200000014540882810000002517202210270039580021357789051001000000016652201500000001120020221101SCORPION  SL-70746000000221027LEBENYA GK                    000002000000145408828104                                  21SCORPION  SL-707460000000CPRRX                                                                            
0200000014540882810000002517202210270039580021357790632005000000901922393600000000560020221101SCORPION  SL-71548000000221027PHALA MJ                      000002000000145408828104                                  21SCORPION  SL-715480000000CPRRY                                                                            
0200000014540882810000002517202210270039580021357791250655000006200104487500000001120020221101SCORPION  SL-71644000000221027DAVAN D D                     000002000000145408828104                                  21SCORPION  SL-716440000000CPRRZ                                                                            
0200000014540882810000002517202210270039580021357792470010000000136767698100000001120020221101SCORPION  SL-72056000000221027DUMA MA                       000002000000145408828104                                  21SCORPION  SL-720560000000CPRS0                                                                            
0200000014540882810000002517202210270039580021357793470010000000136767698100000001120020221101SCORPION  SL-72056000000221027DUMA MA                       000002000000145408828104                                  21SCORPION  SL-720560000000CPRS1                                                                            
0200000014540882810000002517202210270039580021357794632005000000913514570600000001120020221101SCORPION  SL-72154000000221027NKWELE AL                     000002000000145408828104                                  21SCORPION  SL-721540000000CPRS2                                                                            
0200000014540882810000002517202210270039580021357795632005000000923273530100000001120020221101SCORPION  SL-72295000000221027MALATJI M                     000002000000145408828104                                  21SCORPION  SL-722950000000CPRS3                                                                            
0200000014540882810000002517202210270039580021357796470010000000133656528200000001120020221101SCORPION  SL-72377000000221027NGOBENI LN                    000002000000145408828104                                  21SCORPION  SL-723770000000CPRS4                                                                            
0200000014540882810000002517202210270039580021357797470010000000149875697000000001120020221101SCORPION  SL-73010000000221027MOHLABANE JL                  000002000000145408828104                                  21SCORPION  SL-730100000000CPRS5                                                                            
0200000014540882810000002517202210270039580021357798051001000000003016001400000001120020221101SCORPION  SL-72992000000221027MASOTSHA RW                   000002000000145408828104                                  21SCORPION  SL-729920000000CPRS6                                                                            
0200000014540882810000002517202210270039580021357799470010000000166265863800000001030020221101SCORPION  SL-73127000000221027MOTLOUNG L                    000002000000145408828104                                  21SCORPION  SL-731270000000CPRS7                                                                            
0200000014540882810000002517202210270039580021357800470010000000121376470800000001120020221101SCORPION  SL-73475000000221027ZITHA NC                      000002000000145408828104                                  21SCORPION  SL-734750000000CPRS8                                                                            
0200000014540882810000002517202210270039580021357801470010000000121376470800000001120020221101SCORPION  SL-73475000000221027ZITHA NC                      000002000000145408828104                                  21SCORPION  SL-734750000000CPRS9                                                                            
0200000014540882810000002517202210270039580021357802632005000000002026755000000001120020221101SCORPION  SL-73539000000221027DITSHOKE ME                   000002000000145408828104                                  21SCORPION  SL-735390000000CPRSA                                                                            
0200000014540882810000002517202210270039580021357803470010000000143151367700000001120020221101SCORPION  SL-73689000000221027GANDELA G                     000002000000145408828104                                  21SCORPION  SL-736890000000CPRSB                                                                            
0200000014540882810000002517202210270039580021357804470010000000150629458600000001120020221101SCORPION  SL-73720000000221027JOGOM GA                      000002000000145408828104                                  21SCORPION  SL-737200000000CPRSC                                                                            
0200000014540882810000002517202210270039580021357805051001000000025162936800000001120020221101SCORPION  SL-73736000000221027MHLANGA M                     000002000000145408828104                                  21SCORPION  SL-737360000000CPRSD                                                                            
0200000014540882810000002517202210270039580021357806250655000006216323562700000001120020221101SCORPION  SL-74057000000221027TITUS MJ                      000002000000145408828104                                  21SCORPION  SL-740570000000CPRSE                                                                            
0200000014540882810000002517202210270039580021357807632005000000409738283300000001120020221101SCORPION  SL-74060000000221027MNGUMI J                      000002000000145408828104                                  21SCORPION  SL-740600000000CPRSF                                                                            
0200000014540882810000002517202210270039580021357808632005000000914521728800000001120020221101SCORPION  SL-74127000000221027MALI W                        000002000000145408828104                                  21SCORPION  SL-741270000000CPRSG                                                                            
0200000014540882810000002517202210270039580021357809198765000000102612245700000001120020221101SCORPION  SL-74400000000221027GWEBU PN                      000002000000145408828104                                  21SCORPION  SL-744000000000CPRSH                                                                            
0200000014540882810000002517202210270039580021357810250655000005329001475300000001120020221101SCORPION  SL-74506000000221027TLHOKOE SE                    000002000000145408828104                                  21SCORPION  SL-745060000000CPRSI                                                                            
0200000014540882810000002517202210270039580021357811632005000000002118276100000001120020221101SCORPION  SL-74576000000221027TSHISHONGA FC                 000002000000145408828104                                  21SCORPION  SL-745760000000CPRSJ                                                                            
0200000014540882810000002517202210270039580021357812250655000006228064203600000001120020221101SCORPION  SL-74730000000221027MOHOLONYANE J                 000002000000145408828104                                  21SCORPION  SL-747300000000CPRSK                                                                            
0200000014540882810000002517202210270039580021357813250655000006215788007400000001120020221101SCORPION  SL-74878000000221027GUNKEL GS                     000002000000145408828104                                  21SCORPION  SL-748780000000CPRSL                                                                            
0200000014540882810000002517202210270039580021357814470010000000163423220600000001120020221101SCORPION  SL-75120000000221027TSHABALALA MD                 000002000000145408828104                                  21SCORPION  SL-751200000000CPRSM                                                                            
0200000014540882810000002517202210270039580021357815198765000000280323928000000001120020221101SCORPION  SL-75221000000221027NDOU B                        000002000000145408828104                                  21SCORPION  SL-752210000000CPRSN                                                                            
0200000014540882810000002517202210270039580021357816051001000000004312082200000001120020221101SCORPION  SL-75530000000221027SEPHEKA S                     000002000000145408828104                                  21SCORPION  SL-755300000000CPRSO                                                                            
0200000014540882810000002517202210270039580021357817632005000000083014880900000001120020221101SCORPION  SL-75831000000221027MALAZA S                      000002000000145408828104                                  21SCORPION  SL-758310000000CPRSP                                                                            
0200000014540882810000002517202210270039580021357818632005000000935471524500000001120020221101SCORPION  SL-76150000000221027THIBOGANG F                   000002000000145408828104                                  21SCORPION  SL-761500000000CPRSQ                                                                            
0200000014540882810000002517202210270039580021357819250655000005110120826700000001120020221101SCORPION  SL-76459000000221027MANOELI M                     000002000000145408828104                                  21SCORPION  SL-764590000000CPRSR                                                                            
0200000014540882810000002517202210270039580021357820632005000000408526079400000001120020221101SCORPION  SL-76498000000221027BUQA M                        000002000000145408828104                                  21SCORPION  SL-764980000000CPRSS                                                                            
0200000014540882810000002517202210270039580021357821051001000001007295173500000001120020221101SCORPION  SL-76673000000221027NGXANDE TW                    000002000000145408828104                                  21SCORPION  SL-766730000000CPRST                                                                            
0200000014540882810000002517202210270039580021357822051001000000003284518900000001120020221101SCORPION  SL-76869000000221027BETHA G                       000002000000145408828104                                  21SCORPION  SL-768690000000CPRSU                                                                            
0200000014540882810000002517202210270039580021357823470010000000164327481100000001120020221101SCORPION  SL-77070000000221027MATLALA EL                    000002000000145408828104                                  21SCORPION  SL-770700000000CPRSV                                                                            
0200000014540882810000002517202210270039580021357824470010000000164327481100000001120020221101SCORPION  SL-77070000000221027MATLALA EL                    000002000000145408828104                                  21SCORPION  SL-770700000000CPRSW                                                                            
0200000014540882810000002517202210270039580021357825632005000000908276497800000001120020221101SCORPION  SL-77238000000221027NGWENYA S                     000002000000145408828104                                  21SCORPION  SL-772380000000CPRSX                                                                            
0200000014540882810000002517202210270039580021357826470010000000164105182300000001120020221101SCORPION  SL-77494000000221027MATHENJWA P                   000002000000145408828104                                  21SCORPION  SL-774940000000CPRSY                                                                            
0200000014540882810000002517202210270039580021357827198765000000109474743200000000560020221101SCORPION  SL-77553000000221027SENNYA M                      000002000000145408828104                                  21SCORPION  SL-775530000000CPRSZ                                                                            
0200000014540882810000002517202210270039580021357828470010000000128464238900000001120020221101SCORPION  SL-77874000000221027MARUMO T                      000002000000145408828104                                  21SCORPION  SL-778740000000CPRT0                                                                            
0200000014540882810000002517202210270039580021357829198765000000103064906500000001120020221101SCORPION  SL-77861000000221027LAMANI P                      000002000000145408828104                                  21SCORPION  SL-778610000000CPRT1                                                                            
0200000014540882810000002517202210270039580021357830051001000000020014949000000001120020221101SCORPION  SL-78023000000221027MUDAU T                       000002000000145408828104                                  21SCORPION  SL-780230000000CPRT2                                                                            
0200000014540882810000002517202210270039580021357831250655000006219064259800000001120020221101SCORPION  SL-78152000000221027MONOTO TS                     000002000000145408828104                                  21SCORPION  SL-781520000000CPRT3                                                                            
0200000014540882810000002517202210270039580021357832470010000000161975202400000001120020221101SCORPION  SL-78688000000221027POLORI JM                     000002000000145408828104                                  21SCORPION  SL-786880000000CPRT4                                                                            
0200000014540882810000002517202210270039580021357833632005000000904609036100000001120020221101SCORPION  SL-79299000000221027NDEBELE I                     000002000000145408828104                                  21SCORPION  SL-792990000000CPRT5                                                                            
0200000014540882810000002517202210270039580021357834632005000000907330775300000001120020221101SCORPION  SL-79639000000221027MABASO MA                     000002000000145408828104                                  21SCORPION  SL-796390000000CPRT6                                                                            
0200000014540882810000002517202210270039580021357835632005000000907791480100000001120020221101SCORPION  SL-79853000000221027BOLOKA MP                     000002000000145408828104                                  21SCORPION  SL-798530000000CPRT7                                                                            
0200000014540882810000002517202210270039580021357836198765000000294352009800000001120020221101SCORPION  SL-79866000000221027KHUMALO TJ                    000002000000145408828104                                  21SCORPION  SL-798660000000CPRT8                                                                            
0200000014540882810000002517202210270039580021357837198765000000268314550000000001120020221101SCORPION  SL-80259000000221027MPAYAZI E                     000002000000145408828104                                  21SCORPION  SL-802590000000CPRT9                                                                            
0200000014540882810000002517202210270039580021357838470010000000135715794900000001120020221101SCORPION  SL-81101000000221027YISA JS                       000002000000145408828104                                  21SCORPION  SL-811010000000CPRTA                                                                            
0200000014540882810000002517202210270039580021357839470010000000135715794900000001120020221101SCORPION  SL-81101000000221027YISA JS                       000002000000145408828104                                  21SCORPION  SL-811010000000CPRTB                                                                            
0200000014540882810000002517202210270039580021357840198765000000110646613600000001120020221101SCORPION  SL-81456000000221027KHOZA G                       000002000000145408828104                                  21SCORPION  SL-814560000000CPRTC                                                                            
0200000014540882810000002517202210270039580021357841198765000000110646613600000001120020221101SCORPION  SL-81456000000221027KHOZA G                       000002000000145408828104                                  21SCORPION  SL-814560000000CPRTD                                                                            
0200000014540882810000002517202210270039580021357842198765000000101466789500000001120020221101SCORPION  SL-82385000000221027MALINGA T                     000002000000145408828104                                  21SCORPION  SL-823850000000CPRTE                                                                            
0200000014540882810000002517202210270039580021357843051001000000042506231700000000560020221101SCORPION  SL-82450000000221027MALINGA KE                    000002000000145408828104                                  21SCORPION  SL-824500000000CPRTF                                                                            
0200000014540882810000002517202210270039580021357844051001000001015630974000000001120020221101SCORPION  SL-82582000000221027NGOMEZULU ES                  000002000000145408828104                                  21SCORPION  SL-825820000000CPRTG                                                                            
0200000014540882810000002517202210270039580021357845198765000000119259726500000001120020221101SCORPION  SL-82805000000221027DLAMINI SP                    000002000000145408828104                                  21SCORPION  SL-828050000000CPRTH                                                                            
0200000014540882810000002517202210270039580021357846051001000000020247661800000001120020221101SCORPION  SL-82993000000221027SIMELANE JT                   000002000000145408828104                                  21SCORPION  SL-829930000000CPRTI                                                                            
0200000014540882810000002517202210270039580021357847051001000000002113234800000001120020221101SCORPION  SL-83265000000221027MABINA NV                     000002000000145408828104                                  21SCORPION  SL-832650000000CPRTJ                                                                            
0200000014540882810000002517202210270039580021357848051001000000000042611300000001120020221101SCORPION  SL-83522000000221027JANSEN VAN VUUREN GJ          000002000000145408828104                                  21SCORPION  SL-835220000000CPRTK                                                                            
0200000014540882810000002517202210270039580021357849250655000006272520237900000001120020221101SCORPION  SL-83922000000221027SIGENU S                      000002000000145408828104                                  21SCORPION  SL-839220000000CPRTL                                                                            
0200000014540882810000002517202210270039580021357850250655000005561002393400000001120020221101SCORPION  SL-83964000000221027TAWADZILIKA C                 000002000000145408828104                                  21SCORPION  SL-839640000000CPRTM                                                                            
0200000014540882810000002517202210270039580021357851250655000006051136024400000001120020221101SCORPION  SL-83983000000221027MASHILOANE N                  000002000000145408828104                                  21SCORPION  SL-839830000000CPRTN                                                                            
0200000014540882810000002517202210270039580021357852051001000000000521423800000001120020221101SCORPION  SL-84423000000221027CHILOANE CK                   000002000000145408828104                                  21SCORPION  SL-844230000000CPRTO                                                                            
0200000014540882810000002517202210270039580021357853470010000000145569018800000001120020221101SCORPION  SL-84495000000221027MATHIBELA GH                  000002000000145408828104                                  21SCORPION  SL-844950000000CPRTP                                                                            
0200000014540882810000002517202210270039580021357854051001000000002238158900000001120020221101SCORPION  SL-84492000000221027RAKHUKHWANA FL                000002000000145408828104                                  21SCORPION  SL-844920000000CPRTQ                                                                            
0200000014540882810000002517202210270039580021357855198765000000285808284700000001120020221101SCORPION  SL-84770000000221027NGWENYA G                     000002000000145408828104                                  21SCORPION  SL-847700000000CPRTR                                                                            
0200000014540882810000002517202210270039580021357856198765000000110786555700000001120020221101SCORPION  SL-84782000000221027MOKGOHLWA PJ                  000002000000145408828104                                  21SCORPION  SL-847820000000CPRTS                                                                            
0200000014540882810000002517202210270039580021357857198765000000195660919900000001120020221101SCORPION  SL-85022000000221027NAKANA M                      000002000000145408828104                                  21SCORPION  SL-850220000000CPRTT                                                                            
0200000014540882810000002517202210270039580021357858470010000000155166306400000001120020221101SCORPION  SL-85157000000221027MAHLANGU BS                   000002000000145408828104                                  21SCORPION  SL-851570000000CPRTU                                                                            
0200000014540882810000002517202210270039580021357859198765000000103946950700000001120020221101SCORPION  SL-86708000000221027MALATJIE BS                   000002000000145408828104                                  21SCORPION  SL-867080000000CPRTV                                                                            
0200000014540882810000002517202210270039580021357860051001000000023391643100000001120020221101SCORPION  SL-86973000000221027MOGALE B                      000002000000145408828104                                  21SCORPION  SL-869730000000CPRTW                                                                            
0200000014540882810000002517202210270039580021357861250655000005314108767700000001120020221101SCORPION  SL-87414000000221027SIBANYONI PM                  000002000000145408828104                                  21SCORPION  SL-874140000000CPRTX                                                                            
0200000014540882810000002517202210270039580021357862470010000000121025464400000001120020221101SCORPION  SL-87804000000221027LETUPU P                      000002000000145408828104                                  21SCORPION  SL-878040000000CPRTY                                                                            
0200000014540882810000002517202210270039580021357863470010000000121025464400000001120020221101SCORPION  SL-87804000000221027LETUPU P                      000002000000145408828104                                  21SCORPION  SL-878040000000CPRTZ                                                                            
0200000014540882810000002517202210270039580021357864632005000000912903286400000001120020221101SCORPION  SL-88643000000221027MOROPYANE J                   000002000000145408828104                                  21SCORPION  SL-886430000000CPRU0                                                                            
0200000014540882810000002517202210270039580021357865051001000000000132012200000001120020221101SCORPION  SL-88989000000221027RADEBE MD                     000002000000145408828104                                  21SCORPION  SL-889890000000CPRU1                                                                            
0200000014540882810000002517202210270039580021357866470010000000146447210400000001120020221101SCORPION  SL-89278000000221027MDHLULI CO                    000002000000145408828104                                  21SCORPION  SL-892780000000CPRU2                                                                            
0200000014540882810000002517202210270039580021357867470010000000164079507100000001120020221101SCORPION  SL-89281000000221027MADUNA F                      000002000000145408828104                                  21SCORPION  SL-892810000000CPRU3                                                                            
0200000014540882810000002517202210270039580021357868470010000000164079507100000001120020221101SCORPION  SL-89281000000221027MADUNA F                      000002000000145408828104                                  21SCORPION  SL-892810000000CPRU4                                                                            
0200000014540882810000002517202210270039580021357869470010000000120042746500000001120020221101SCORPION  SL-89271000000221027MAKGOBA MR                    000002000000145408828104                                  21SCORPION  SL-892710000000CPRU5                                                                            
0200000014540882810000002517202210270039580021357870250655000006200595347800000001120020221101SCORPION  SL-89344000000221027HLONGWANE NE                  000002000000145408828104                                  21SCORPION  SL-893440000000CPRU6                                                                            
0200000014540882810000002517202210270039580021357871051001000000018237189100000001120020221101SCORPION  SL-89478000000221027XUZA A                        000002000000145408828104                                  21SCORPION  SL-894780000000CPRU7                                                                            
0200000014540882810000002517202210270039580021357872198765000000115789343000000001120020221101SCORPION  SL-89568000000221027MATJILA MA                    000002000000145408828104                                  21SCORPION  SL-895680000000CPRU8                                                                            
0200000014540882810000002517202210270039580021357873632005000000920424490800000001120020221101SCORPION  SL-89645000000221027NCUBE VT                      000002000000145408828104                                  21SCORPION  SL-896450000000CPRU9                                                                            
0200000014540882810000002517202210270039580021357874470010000000138469275200000001120020221101SCORPION  SL-90093000000221027MASEMOLA MM                   000002000000145408828104                                  21SCORPION  SL-900930000000CPRUA                                                                            
0200000014540882810000002517202210270039580021357875250655000006200080651500000001120020221101SCORPION  SL-90589000000221027LININGTON RI                  000002000000145408828104                                  21SCORPION  SL-905890000000CPRUB                                                                            
0200000014540882810000002517202210270039580021357876632005000000408777749000000001120020221101SCORPION  SL-91349000000221027MOLOI ML                      000002000000145408828104                                  21SCORPION  SL-913490000000CPRUC                                                                            
0200000014540882810000002517202210270039580021357877632005000000408777749000000001120020221101SCORPION  SL-91349000000221027MOLOI ML                      000002000000145408828104                                  21SCORPION  SL-913490000000CPRUD                                                                            
0200000014540882810000002517202210270039580021357878470010000000135581884000000001120020221101SCORPION  SL-91716000000221027MOTHABENG JM                  000002000000145408828104                                  21SCORPION  SL-917160000000CPRUE                                                                            
0200000014540882810000002517202210270039580021357879470010000000135581884000000001120020221101SCORPION  SL-91716000000221027MOTHABENG JM                  000002000000145408828104                                  21SCORPION  SL-917160000000CPRUF                                                                            
0200000014540882810000002517202210270039580021357880250655000006227030307800000001120020221101SCORPION  SL-91835000000221027MTIYANE V                     000002000000145408828104                                  21SCORPION  SL-918350000000CPRUG                                                                            
0200000014540882810000002517202210270039580021357881632005000003855129014700000001120020221101SCORPION  SL-91849000000221027MOFOKENG MJ                   000002000000145408828104                                  21SCORPION  SL-918490000000CPRUH                                                                            
0200000014540882810000002517202210270039580021357882470010000000164615709300000001120020221101SCORPION  SL-92476000000221027NDLOVU M                      000002000000145408828104                                  21SCORPION  SL-924760000000CPRUI                                                                            
0200000014540882810000002517202210270039580021357883632005000000907620078600000001120020221101SCORPION  SL-92621000000221027MALEPE DM                     000002000000145408828104                                  21SCORPION  SL-926210000000CPRUJ                                                                            
0200000014540882810000002517202210270039580021357884250655000006035124269400000001120020221101SCORPION  SL-92753000000221027TJIPANA PP                    000002000000145408828104                                  21SCORPION  SL-927530000000CPRUK                                                                            
0200000014540882810000002517202210270039580021357885470010000000142801127500000001120020221101SCORPION  SL-92963000000221027MOTSHWENE PP                  000002000000145408828104                                  21SCORPION  SL-929630000000CPRUL                                                                            
0200000014540882810000002517202210270039580021357886470010000000124588095900000001120020221101SCORPION  SL-92964000000221027MTHEMBU AB                    000002000000145408828104                                  21SCORPION  SL-929640000000CPRUM                                                                            
0200000014540882810000002517202210270039580021357887198765000000102586950800000001120020221101SCORPION  SL-93310000000221027SOGA SP                       000002000000145408828104                                  21SCORPION  SL-933100000000CPRUN                                                                            
0200000014540882810000002517202210270039580021357888250655000006244103812300000001120020221101SCORPION  SL-93598000000221027RAKGOGO MJ                    000002000000145408828104                                  21SCORPION  SL-935980000000CPRUO                                                                            
0200000014540882810000002517202210270039580021357889250655000006208029158800000001120020221101SCORPION  SL-93790000000221027MOSOEU S                      000002000000145408828104                                  21SCORPION  SL-937900000000CPRUP                                                                            
0200000014540882810000002517202210270039580021357890250655000006255227418700000001120020221101SCORPION  SL-93827000000221027LEBANG ME                     000002000000145408828104                                  21SCORPION  SL-938270000000CPRUQ                                                                            
0200000014540882810000002517202210270039580021357891632005000003806191016300000001120020221101SCORPION  SL-94097000000221027CHUKUDU M                     000002000000145408828104                                  21SCORPION  SL-940970000000CPRUR                                                                            
0200000014540882810000002517202210270039580021357892470010000000121740312200000001120020221101SCORPION  SL-94796000000221027SEFULI KC                     000002000000145408828104                                  21SCORPION  SL-947960000000CPRUS                                                                            
0200000014540882810000002517202210270039580021357893470010000000121740312200000001030020221101SCORPION  SL-94796000000221027SEFULI KC                     000002000000145408828104                                  21SCORPION  SL-947960000000CPRUT                                                                            
0200000014540882810000002517202210270039580021357894250655000006217884233400000001120020221101SCORPION  SL-95963000000221027MKHATSHWA DG                  000002000000145408828104                                  21SCORPION  SL-959630000000CPRUU                                                                            
0200000014540882810000002517202210270039580021357895470010000000153796256400000001120020221101SCORPION  SL-96259000000221027MASHABELA JK                  000002000000145408828104                                  21SCORPION  SL-962590000000CPRUV                                                                            
0200000014540882810000002517202210270039580021357896632005000000011328743800000001120020221101SCORPION  SL-96841000000221027MANAMELA DL                   000002000000145408828104                                  21SCORPION  SL-968410000000CPRUW                                                                            
0200000014540882810000002517202210270039580021357897250655000006233018105900000001120020221101SCORPION  SL-96853000000221027PHOOKO MH                     000002000000145408828104                                  21SCORPION  SL-968530000000CPRUX                                                                            
0200000014540882810000002517202210270039580021357898470010000000162894331700000001120020221101SCORPION  SL-97203000000221027BUKHALI P                     000002000000145408828104                                  21SCORPION  SL-972030000000CPRUY                                                                            
0200000014540882810000002517202210270039580021357899470010000000162894331700000001120020221101SCORPION  SL-97203000000221027BUKHALI P                     000002000000145408828104                                  21SCORPION  SL-972030000000CPRUZ                                                                            
0200000014540882810000002517202210270039580021357900250655000006213729865100000001120020221101SCORPION  SL-97358000000221027MATHE BM                      000002000000145408828104                                  21SCORPION  SL-973580000000CPRV0                                                                            
0200000014540882810000002517202210270039580021357901632005000000913140769300000000560020221101SCORPION  SL-97653000000221027SEGAE OJ                      000002000000145408828104                                  21SCORPION  SL-976530000000CPRV1                                                                            
0200000014540882810000002517202210270039580021357902470010000000176050251900000001730020221101SCORPION  SL-97840000000221027MATLHONOKO A                  000002000000145408828104                                  21SCORPION  SL-978400000000CPRV2                                                                            
0200000014540882810000002517202210270039580021357903198765000000241147440700000001120020221101SCORPION  SL-98517000000221027RANTHO MP                     000002000000145408828104                                  21SCORPION  SL-985170000000CPRV3                                                                            
0200000014540882810000002517202210270039580021357904051001000000002190487100000001120020221101SCORPION  SL-98559000000221027STRYDOM LC                    000002000000145408828104                                  21SCORPION  SL-985590000000CPRV4                                                                            
0200000014540882810000002517202210270039580021357905470010000000138770504900000001120020221101SCORPION  SL-98892000000221027MOKGOHLOA NS                  000002000000145408828104                                  21SCORPION  SL-988920000000CPRV5                                                                            
0200000014540882810000002517202210270039580021357906250655000006208965002400000001120020221101SCORPION  SL-98950000000221027MOKGATLE MP                   000002000000145408828104                                  21SCORPION  SL-989500000000CPRV6                                                                            
0200000014540882810000002517202210270039580021357907470010000000136686852600000001120020221101SCORPION  SL-99029000000221027NKABINDE NP                   000002000000145408828104                                  21SCORPION  SL-990290000000CPRV7                                                                            
0200000014540882810000002517202210270039580021357908431010000000088736259500000001120020221101SCORPION  SL-99393000000221027XAKHWE M                      000002000000145408828104                                  21SCORPION  SL-993930000000CPRV8                                                                            
0200000014540882810000002517202210270039580021357909470010000000116556590900000001120020221101SCORPION  SL-99392000000221027SMITH EL                      000002000000145408828104                                  21SCORPION  SL-993920000000CPRV9                                                                            
0200000014540882810000002517202210270039580021357910632005000000913870419300000001120020221101SCORPION  SL-99398000000221027MORAJANE T                    000002000000145408828104                                  21SCORPION  SL-993980000000CPRVA                                                                            
0200000014540882810000002517202210270039580021357911198765000000168623054000000001120020221101SCORPION  SL-99846000000221027NETSHILONWE A                 000002000000145408828104                                  21SCORPION  SL-998460000000CPRVB                                                                            
0200000014540882810000002517202210270039580021357912250655000006213296946300000001120020221101SCORPION  SL-10005800000221027MOTSOENENG TD                 000002000000145408828104                                  21SCORPION  SL-100058000000CPRVC                                                                            
0200000014540882810000002517202210270039580021357913250655000006207001896800000001120020221101SCORPION  SL-10063200000221027MASHANE PL                    000002000000145408828104                                  21SCORPION  SL-100632000000CPRVD                                                                            
0200000014540882810000002517202210270039580021357914632005000000905056648300000001120020221101SCORPION  SL-10080300000221027BANDA A                       000002000000145408828104                                  21SCORPION  SL-100803000000CPRVE                                                                            
0200000014540882810000002517202210270039580021357915632005000000011582767700000001120020221101SCORPION  SL-10113900000221027TOLE P                        000002000000145408828104                                  21SCORPION  SL-101139000000CPRVF                                                                            
0200000014540882810000002517202210270039580021357916250655000006205679237000000001120020221101SCORPION  SL-10121600000221027TAU TW                        000002000000145408828104                                  21SCORPION  SL-101216000000CPRVG                                                                            
0200000014540882810000002517202210270039580021357917198765000000114815411600000001120020221101SCORPION  SL-10139300000221027MKIVA M                       000002000000145408828104                                  21SCORPION  SL-101393000000CPRVH                                                                            
0200000014540882810000002517202210270039580021357918632005000000987014632300000001120020221101SCORPION  SL-10144600000221027MTSHALI MM                    000002000000145408828104                                  21SCORPION  SL-101446000000CPRVI                                                                            
0200000014540882810000002517202210270039580021357919632005000000620067653000000001120020221101SCORPION  SL-10159100000221027PHUKUBJE MJ                   000002000000145408828104                                  21SCORPION  SL-101591000000CPRVJ                                                                            
0200000014540882810000002517202210270039580021357920632005000000906907777200000001120020221101SCORPION  SL-10168000000221027KULA X                        000002000000145408828104                                  21SCORPION  SL-101680000000CPRVK                                                                            
0200000014540882810000002517202210270039580021357921632005000000906907777200000001120020221101SCORPION  SL-10168000000221027KULA X                        000002000000145408828104                                  21SCORPION  SL-101680000000CPRVL                                                                            
0200000014540882810000002517202210270039580021357922632005000000906753851200000001120020221101SCORPION  SL-10181300000221027MAGAGULA G                    000002000000145408828104                                  21SCORPION  SL-101813000000CPRVM                                                                            
0200000014540882810000002517202210270039580021357923632005000000906538905400000001120020221101SCORPION  SL-10196700000221027NXUMALO S                     000002000000145408828104                                  21SCORPION  SL-101967000000CPRVN                                                                            
0200000014540882810000002517202210270039580021357924250655000006033001861000000001120020221101SCORPION  SL-10195000000221027KELE LL                       000002000000145408828104                                  21SCORPION  SL-101950000000CPRVO                                                                            
0200000014540882810000002517202210270039580021357925470010000000125969474500000001120020221101SCORPION  SL-10202900000221027MAZALENI LH                   000002000000145408828104                                  21SCORPION  SL-102029000000CPRVP                                                                            
0200000014540882810000002517202210270039580021357926198765000000242815420600000001120020221101SCORPION  SL-10210900000221027NKUNA NA                      000002000000145408828104                                  21SCORPION  SL-102109000000CPRVQ                                                                            
0200000014540882810000002517202210270039580021357927632005000000409208127600000001120020221101SCORPION  SL-10215400000221027NDLOVU E                      000002000000145408828104                                  21SCORPION  SL-102154000000CPRVR                                                                            
0200000014540882810000002517202210270039580021357928632005000000915570910400000001120020221101SCORPION  SL-10219800000221027MOFOKENG DA                   000002000000145408828104                                  21SCORPION  SL-102198000000CPRVS                                                                            
0200000014540882810000002517202210270039580021357929470010000000143347610800000001120020221101SCORPION  SL-10325900000221027HOPETOWN N                    000002000000145408828104                                  21SCORPION  SL-103259000000CPRVT                                                                            
0200000014540882810000002517202210270039580021357930632005000000905232216800000001120020221101SCORPION  SL-10338800000221027NCUBE S                       000002000000145408828104                                  21SCORPION  SL-103388000000CPRVU                                                                            
0200000014540882810000002517202210270039580021357931470010000000118651788100000001120020221101SCORPION  SL-10361200000221027MOTSHWANEDI JM                000002000000145408828104                                  21SCORPION  SL-103612000000CPRVV                                                                            
0200000014540882810000002517202210270039580021357932632005000000907379555200000001120020221101SCORPION  SL-10397100000221027SHUNGUBE M                    000002000000145408828104                                  21SCORPION  SL-103971000000CPRVW                                                                            
0200000014540882810000002517202210270039580021357933632005000000406877529900000001120020221101SCORPION  SL-10405900000221027WILLIAMS G                    000002000000145408828104                                  21SCORPION  SL-104059000000CPRVX                                                                            
0200000014540882810000002517202210270039580021357934632005000000909210584100000001120020221101SCORPION  SL-10428700000221027NGOBESE JM                    000002000000145408828104                                  21SCORPION  SL-104287000000CPRVY                                                                            
0200000014540882810000002517202210270039580021357935470010000000122156351100000001120020221101SCORPION  SL-10443500000221027MAKITLA PM                    000002000000145408828104                                  21SCORPION  SL-104435000000CPRVZ                                                                            
0200000014540882810000002517202210270039580021357936250655000006014433116700000000560020221101SCORPION  SL-10486200000221027TOFILE TT                     000002000000145408828104                                  21SCORPION  SL-104862000000CPRW0                                                                            
0200000014540882810000002517202210270039580021357937198765000000120280349000000001120020221101SCORPION  SL-10487600000221027MLENZANA T                    000002000000145408828104                                  21SCORPION  SL-104876000000CPRW1                                                                            
0200000014540882810000002517202210270039580021357938632005000000909543936400000001120020221101SCORPION  SL-10496800000221027MOTLATLA J                    000002000000145408828104                                  21SCORPION  SL-104968000000CPRW2                                                                            
0200000014540882810000002517202210270039580021357939051001000001012672844300000001120020221101SCORPION  SL-10525500000221027ADAMS J                       000002000000145408828104                                  21SCORPION  SL-105255000000CPRW3                                                                            
0200000014540882810000002517202210270039580021357940632005000000924771628100000001120020221101SCORPION  SL-10535100000221027MATSHEDISHO KE                000002000000145408828104                                  21SCORPION  SL-105351000000CPRW4                                                                            
0200000014540882810000002517202210270039580021357941632005000000408119880000000001120020221101SCORPION  SL-10550700000221027MTHEMBU MR                    000002000000145408828104                                  21SCORPION  SL-105507000000CPRW5                                                                            
0200000014540882810000002517202210270039580021357942250655000006010244602300000001120020221101SCORPION  SL-10568500000221027NDHLOZI D                     000002000000145408828104                                  21SCORPION  SL-105685000000CPRW6                                                                            
0200000014540882810000002517202210270039580021357943250655000006202780408900000001730020221101SCORPION  SL-10569500000221027LOGNATH A                     000002000000145408828104                                  21SCORPION  SL-105695000000CPRW7                                                                            
0200000014540882810000002517202210270039580021357944632005000000620171925800000000560020221101SCORPION  SL-10586900000221027MOSELANE SS                   000002000000145408828104                                  21SCORPION  SL-105869000000CPRW8                                                                            
0200000014540882810000002517202210270039580021357945632005000000933903880400000001730020221101SCORPION  SL-10600300000221027SIWA D                        000002000000145408828104                                  21SCORPION  SL-106003000000CPRW9                                                                            
0200000014540882810000002517202210270039580021357946470010000000114854314500000001120020221101SCORPION  SL-10630300000221027NGEMA TI                      000002000000145408828104                                  21SCORPION  SL-106303000000CPRWA                                                                            
0200000014540882810000002517202210270039580021357947198765000000112704024300000001120020221101SCORPION  SL-10644900000221027MBATHANA TJ                   000002000000145408828104                                  21SCORPION  SL-106449000000CPRWB                                                                            
0200000014540882810000002517202210270039580021357948250655000006224372406100000001120020221101SCORPION  SL-10661600000221027MOSIGI J                      000002000000145408828104                                  21SCORPION  SL-106616000000CPRWC                                                                            
0200000014540882810000002517202210270039580021357949051001000000042038103100000001120020221101SCORPION  SL-10668700000221027NQETHO NZ                     000002000000145408828104                                  21SCORPION  SL-106687000000CPRWD                                                                            
0200000014540882810000002517202210270039580021357950051001000000016414346700000000560020221101SCORPION  SL-10688500000221027MAPUMULO NR                   000002000000145408828104                                  21SCORPION  SL-106885000000CPRWE                                                                            
0200000014540882810000002517202210270039580021357951632005000000910475563300000001120020221101SCORPION  SL-10700400000221027HERMAANS J                    000002000000145408828104                                  21SCORPION  SL-107004000000CPRWF                                                                            
0200000014540882810000002517202210270039580021357952632005000000933354446700000001120020221101SCORPION  SL-10714000000221027MALEPE PR                     000002000000145408828104                                  21SCORPION  SL-107140000000CPRWG                                                                            
0200000014540882810000002517202210270039580021357953470010000000166375084800000001120020221101SCORPION  SL-10725700000221027MMATA FP                      000002000000145408828104                                  21SCORPION  SL-107257000000CPRWH                                                                            
0200000014540882810000002517202210270039580021357954470010000000166375084800000001120020221101SCORPION  SL-10725700000221027MMATA FP                      000002000000145408828104                                  21SCORPION  SL-107257000000CPRWI                                                                            
0200000014540882810000002517202210270039580021357955462005000001956059730100000001120020221101SCORPION  SL-10728300000221027MAPHUMLO V                    000002000000145408828104                                  21SCORPION  SL-107283000000CPRWJ                                                                            
0200000014540882810000002517202210270039580021357956250655000006013132127000000000560020221101SCORPION  SL-10742400000221027MSIBI BM                      000002000000145408828104                                  21SCORPION  SL-107424000000CPRWK                                                                            
0200000014540882810000002517202210270039580021357957250655000006022026290500000001120020221101SCORPION  SL-10749900000221027DLUNGWANE M                   000002000000145408828104                                  21SCORPION  SL-107499000000CPRWL                                                                            
0200000014540882810000002517202210270039580021357958198765000000298838128300000001120020221101SCORPION  SL-10768900000221027MOKOENA RS                    000002000000145408828104                                  21SCORPION  SL-107689000000CPRWM                                                                            
0200000014540882810000002517202210270039580021357959632005000003811494033700000001120020221101SCORPION  SL-10813100000221027MOKOTO AS                     000002000000145408828104                                  21SCORPION  SL-108131000000CPRWN                                                                            
0200000014540882810000002517202210270039580021357960632005000000011465946000000001120020221101SCORPION  SL-10816900000221027SITHOLE SI                    000002000000145408828104                                  21SCORPION  SL-108169000000CPRWO                                                                            
0200000014540882810000002517202210270039580021357961198765000000108131194000000001120020221101SCORPION  SL-10823800000221027DHLAMINI TS                   000002000000145408828104                                  21SCORPION  SL-108238000000CPRWP                                                                            
0200000014540882810000002517202210270039580021357962470010000000162570261000000000560020221101SCORPION  SL-10830900000221027SAGELA JK                     000002000000145408828104                                  21SCORPION  SL-108309000000CPRWQ                                                                            
0200000014540882810000002517202210270039580021357963051001000000002664217400000001120020221101SCORPION  SL-10838800000221027MONCHUSI FN                   000002000000145408828104                                  21SCORPION  SL-108388000000CPRWR                                                                            
0200000014540882810000002517202210270039580021357964250655000005032010842200000001120020221101SCORPION  SL-10881300000221027RADIKGOJANE M                 000002000000145408828104                                  21SCORPION  SL-108813000000CPRWS                                                                            
0200000014540882810000002517202210270039580021357965470010000000160741313000000001120020221101SCORPION  SL-10895600000221027MADUNA C                      000002000000145408828104                                  21SCORPION  SL-108956000000CPRWT                                                                            
0200000014540882810000002517202210270039580021357966632005000000409887736000000001120020221101SCORPION  SL-10922000000221027MAINE OK                      000002000000145408828104                                  21SCORPION  SL-109220000000CPRWU                                                                            
0200000014540882810000002517202210270039580021357967250655000006235066878000000001120020221101SCORPION  SL-10932500000221027DUBE CG                       000002000000145408828104                                  21SCORPION  SL-109325000000CPRWV                                                                            
0200000014540882810000002517202210270039580021357968470010000000154767351400000001120020221101SCORPION  SL-10993200000221027MBANZI P                      000002000000145408828104                                  21SCORPION  SL-109932000000CPRWW                                                                            
0200000014540882810000002517202210270039580021357969051001000000023522704800000001120020221101SCORPION  SL-10992300000221027MATLALA TJ                    000002000000145408828104                                  21SCORPION  SL-109923000000CPRWX                                                                            
0200000014540882810000002517202210270039580021357970250655000006268934485300000001120020221101SCORPION  SL-11008800000221027NXABA JW                      000002000000145408828104                                  21SCORPION  SL-110088000000CPRWY                                                                            
0200000014540882810000002517202210270039580021357971051001000000027288292500000001120020221101SCORPION  SL-11031800000221027NDEVU T                       000002000000145408828104                                  21SCORPION  SL-110318000000CPRWZ                                                                            
0200000014540882810000002517202210270039580021357972051001000000027288292500000001120020221101SCORPION  SL-11031800000221027NDEVU T                       000002000000145408828104                                  21SCORPION  SL-110318000000CPRX0                                                                            
0200000014540882810000002517202210270039580021357973470010000000116591665500000001120020221101SCORPION  SL-11049500000221027CHIRINDZA R                   000002000000145408828104                                  21SCORPION  SL-110495000000CPRX1                                                                            
0200000014540882810000002517202210270039580021357974470010000000116591665500000001120020221101SCORPION  SL-11049500000221027CHIRINDZA R                   000002000000145408828104                                  21SCORPION  SL-110495000000CPRX2                                                                            
0200000014540882810000002517202210270039580021357975470010000000134574077600000001120020221101SCORPION  SL-11062900000221027NKGADIMA LD                   000002000000145408828104                                  21SCORPION  SL-110629000000CPRX3                                                                            
0200000014540882810000002517202210270039580021357976470010000000130024458300000001120020221101SCORPION  SL-11064200000221027MOKGOTHO KH                   000002000000145408828104                                  21SCORPION  SL-110642000000CPRX4                                                                            
0200000014540882810000002517202210270039580021357977430000000002002930351600000001120020221101SCORPION  SL-11090200000221027HLAZO T                       000002000000145408828104                                  21SCORPION  SL-110902000000CPRX5                                                                            
0200000014540882810000002517202210270039580021357978430000000002002930351600000001120020221101SCORPION  SL-11090200000221027HLAZO T                       000002000000145408828104                                  21SCORPION  SL-110902000000CPRX6                                                                            
0200000014540882810000002517202210270039580021357979632005000000100570219100000001730020221101SCORPION  SL-11172700000221027PRETORIUS FC                  000002000000145408828104                                  21SCORPION  SL-111727000000CPRX7                                                                            
0200000014540882810000002517202210270039580021357980198765000000101413233900000001120020221101SCORPION  SL-11174900000221027KHUNOU WO                     000002000000145408828104                                  21SCORPION  SL-111749000000CPRX8                                                                            
0200000014540882810000002517202210270039580021357981198765000000198228229000000000560020221101SCORPION  SL-11178300000221027NAMANYANE LA                  000002000000145408828104                                  21SCORPION  SL-111783000000CPRX9                                                                            
0200000014540882810000002517202210270039580021357982470010000000162396558400000000560020221101SCORPION  SL-11184600000221027MOTSHEGWA B                   000002000000145408828104                                  21SCORPION  SL-111846000000CPRXA                                                                            
0200000014540882810000002517202210270039580021357983198765000000110746954600000001120020221101SCORPION  SL-11195900000221027MOKOENA LM                    000002000000145408828104                                  21SCORPION  SL-111959000000CPRXB                                                                            
0200000014540882810000002517202210270039580021357984250655000006051137208300000001120020221101SCORPION  SL-11198600000221027SIBANDE TW                    000002000000145408828104                                  21SCORPION  SL-111986000000CPRXC                                                                            
0200000014540882810000002517202210270039580021357985198765000000114203647200000001120020221101SCORPION  SL-11212600000221027DLAMINI TS                    000002000000145408828104                                  21SCORPION  SL-112126000000CPRXD                                                                            
0200000014540882810000002517202210270039580021357986632005000000405325729200000001120020221101SCORPION  SL-11235100000221027LENGAU AM                     000002000000145408828104                                  21SCORPION  SL-112351000000CPRXE                                                                            
0200000014540882810000002517202210270039580021357987250655000006200838238500000001120020221101SCORPION  SL-11249400000221027KGASAGO DJ                    000002000000145408828104                                  21SCORPION  SL-112494000000CPRXF                                                                            
0200000014540882810000002517202210270039580021357988470010000000154650891900000001120020221101SCORPION  SL-11253700000221027MBATHA FC                     000002000000145408828104                                  21SCORPION  SL-112537000000CPRXG                                                                            
0200000014540882810000002517202210270039580021357989198765000000114714843000000001120020221101SCORPION  SL-20068670000221027CHETTY R                      000002000000145408828104                                  21SCORPION  SL-200686700000CPRXH                                                                            
0200000014540882810000002517202210270039580021357990198765000000114714843000000001120020221101SCORPION  SL-11257800000221027CHETTY R                      000002000000145408828104                                  21SCORPION  SL-112578000000CPRXI                                                                            
0200000014540882810000002517202210270039580021357991198765000000114714843000000001120020221101SCORPION  SL-27933060000221027CHETTY R                      000002000000145408828104                                  21SCORPION  SL-279330600000CPRXJ                                                                            
0200000014540882810000002517202210270039580021357992198765000000114120304900000001120020221101SCORPION  SL-11268300000221027MANTLOANA MF                  000002000000145408828104                                  21SCORPION  SL-112683000000CPRXK                                                                            
0200000014540882810000002517202210270039580021357993250655000006242131091300000001120020221101SCORPION  SL-11338000000221027MABUSE LC                     000002000000145408828104                                  21SCORPION  SL-113380000000CPRXL                                                                            
0200000014540882810000002517202210270039580021357994470010000000120391517700000001120020221101SCORPION  SL-11362500000221027NTIMANE SM                    000002000000145408828104                                  21SCORPION  SL-113625000000CPRXM                                                                            
0200000014540882810000002517202210270039580021357995632005000000410015213900000001120020221101SCORPION  SL-11381000000221027MAHLANGU VV                   000002000000145408828104                                  21SCORPION  SL-113810000000CPRXN                                                                            
0200000014540882810000002517202210270039580021357996470010000000113616355500000000560020221101SCORPION  SL-11404400000221027MONDI Z                       000002000000145408828104                                  21SCORPION  SL-114044000000CPRXO                                                                            
0200000014540882810000002517202210270039580021357997250655000006222282772900000001120020221101SCORPION  SL-11416600000221027GANTANA F                     000002000000145408828104                                  21SCORPION  SL-114166000000CPRXP                                                                            
0200000014540882810000002517202210270039580021357998632005000000406358633800000001120020221101SCORPION  SL-11472800000221027KALAKGOSI JR                  000002000000145408828104                                  21SCORPION  SL-114728000000CPRXQ                                                                            
0200000014540882810000002517202210270039580021357999051001000000024090899600000001120020221101SCORPION  SL-11536000000221027MOTLHABI MZ                   000002000000145408828104                                  21SCORPION  SL-115360000000CPRXR                                                                            
0200000014540882810000002517202210270039580021358000250655000006210547326900000001120020221101SCORPION  SL-11545700000221027NGWANA M                      000002000000145408828104                                  21SCORPION  SL-115457000000CPRXS                                                                            
0200000014540882810000002517202210270039580021358001250655000005430118177000000001120020221101SCORPION  SL-11582200000221027MABILO KS                     000002000000145408828104                                  21SCORPION  SL-115822000000CPRXT                                                                            
0200000014540882810000002517202210270039580021358002051001000000025172646000000001120020221101SCORPION  SL-11597500000221027MKHOMBE AS                    000002000000145408828104                                  21SCORPION  SL-115975000000CPRXU                                                                            
0200000014540882810000002517202210270039580021358003632005000000406696728200000001730020221101SCORPION  SL-11643800000221027MAMOGALE EM                   000002000000145408828104                                  21SCORPION  SL-116438000000CPRXV                                                                            
0200000014540882810000002517202210270039580021358004250655000006289778042700000001120020221101SCORPION  SL-11650200000221027DLUDLU S                      000002000000145408828104                                  21SCORPION  SL-116502000000CPRXW                                                                            
0200000014540882810000002517202210270039580021358005250655000006289778042700000001120020221101SCORPION  SL-11650200000221027DLUDLU S                      000002000000145408828104                                  21SCORPION  SL-116502000000CPRXX                                                                            
0200000014540882810000002517202210270039580021358006051001000000004181653600000001120020221101SCORPION  SL-11648800000221027MAGUDU LC                     000002000000145408828104                                  21SCORPION  SL-116488000000CPRXY                                                                            
0200000014540882810000002517202210270039580021358007632005000000906537162100000001120020221101SCORPION  SL-11655900000221027MOTSHWANE BJ                  000002000000145408828104                                  21SCORPION  SL-116559000000CPRXZ                                                                            
0200000014540882810000002517202210270039580021358008250655000006016812053800000001120020221101SCORPION  SL-11675300000221027MOFOKENG LE                   000002000000145408828104                                  21SCORPION  SL-116753000000CPRY0                                                                            
0200000014540882810000002517202210270039580021358009632005000000905703028100000001120020221101SCORPION  SL-11675600000221027MORAKILE N                    000002000000145408828104                                  21SCORPION  SL-116756000000CPRY1                                                                            
0200000014540882810000002517202210270039580021358010632005000000904484076800000001730020221101SCORPION  SL-11757500000221027NKOSI KM                      000002000000145408828104                                  21SCORPION  SL-117575000000CPRY2                                                                            
0200000014540882810000002517202210270039580021358011470010000000150303109600000001120020221101SCORPION  SL-11804500000221027BUTSHEKE A                    000002000000145408828104                                  21SCORPION  SL-118045000000CPRY3                                                                            
0200000014540882810000002517202210270039580021358012470010000000119113960100000001120020221101SCORPION  SL-11824700000221027NKOSI E                       000002000000145408828104                                  21SCORPION  SL-118247000000CPRY4                                                                            
0200000014540882810000002517202210270039580021358013051001000000042041045700000001120020221101SCORPION  SL-11848400000221027KUNENE ZP                     000002000000145408828104                                  21SCORPION  SL-118484000000CPRY5                                                                            
0200000014540882810000002517202210270039580021358014051001000000014761295000000001120020221101SCORPION  SL-11855100000221027MOTLOUNG JB                   000002000000145408828104                                  21SCORPION  SL-118551000000CPRY6                                                                            
0200000014540882810000002517202210270039580021358015051001000000040603870800000001120020221101SCORPION  SL-11857800000221027MALEKA DK                     000002000000145408828104                                  21SCORPION  SL-118578000000CPRY7                                                                            
0200000014540882810000002517202210270039580021358016470010000000120132177600000001120020221101SCORPION  SL-11875900000221027MACWELE GS                    000002000000145408828104                                  21SCORPION  SL-118759000000CPRY8                                                                            
0200000014540882810000002517202210270039580021358017198765000000192432487300000001120020221101SCORPION  SL-12014700000221027MALEFANE L                    000002000000145408828104                                  21SCORPION  SL-120147000000CPRY9                                                                            
0200000014540882810000002517202210270039580021358018250655000006037232038800000001730020221101SCORPION  SL-12033800000221027SIBIYA MF                     000002000000145408828104                                  21SCORPION  SL-120338000000CPRYA                                                                            
0200000014540882810000002517202210270039580021358019051001000000002105934900000001120020221101SCORPION  SL-12068400000221027VUMASI MT                     000002000000145408828104                                  21SCORPION  SL-120684000000CPRYB                                                                            
0200000014540882810000002517202210270039580021358020632005000000408799461200000001120020221101SCORPION  SL-12070300000221027MADIKIZELA T                  000002000000145408828104                                  21SCORPION  SL-120703000000CPRYC                                                                            
0200000014540882810000002517202210270039580021358021051001000000067422968100000001120020221101SCORPION  SL-12141400000221027SEOLWANA SF                   000002000000145408828104                                  21SCORPION  SL-121414000000CPRYD                                                                            
0200000014540882810000002517202210270039580021358022051001000000001528464600000001120020221101SCORPION  SL-12148100000221027MHLONGO MF                    000002000000145408828104                                  21SCORPION  SL-121481000000CPRYE                                                                            
0200000014540882810000002517202210270039580021358023250655000005330000850500000001120020221101SCORPION  SL-12152700000221027THOABALA MW                   000002000000145408828104                                  21SCORPION  SL-121527000000CPRYF                                                                            
0200000014540882810000002517202210270039580021358024051001000001009109313700000001120020221101SCORPION  SL-12212200000221027MOKOENA BP                    000002000000145408828104                                  21SCORPION  SL-122122000000CPRYG                                                                            
0200000014540882810000002517202210270039580021358025632005000000406036850700000001120020221101SCORPION  SL-12215000000221027MASENYA LG                    000002000000145408828104                                  21SCORPION  SL-122150000000CPRYH                                                                            
0200000014540882810000002517202210270039580021358026250655000005131007113200000001120020221101SCORPION  SL-12226600000221027MASHOANE MJ                   000002000000145408828104                                  21SCORPION  SL-122266000000CPRYI                                                                            
0200000014540882810000002517202210270039580021358027051001000000024715882800000001120020221101SCORPION  SL-12233800000221027RATOLO TF                     000002000000145408828104                                  21SCORPION  SL-122338000000CPRYJ                                                                            
0200000014540882810000002517202210270039580021358028470010000000136552820900000001730020221101SCORPION  SL-12254300000221027JILI B                        000002000000145408828104                                  21SCORPION  SL-122543000000CPRYK                                                                            
0200000014540882810000002517202210270039580021358029632005000000904038436200000001120020221101SCORPION  SL-12256500000221027RISENGA RV                    000002000000145408828104                                  21SCORPION  SL-122565000000CPRYL                                                                            
0200000014540882810000002517202210270039580021358030051001000000014002995800000001120020221101SCORPION  SL-12272300000221027MSIMANG DV                    000002000000145408828104                                  21SCORPION  SL-122723000000CPRYM                                                                            
0200000014540882810000002517202210270039580021358031250655000006205868312100000001730020221101SCORPION  SL-12276100000221027NOMNQA M                      000002000000145408828104                                  21SCORPION  SL-122761000000CPRYN                                                                            
0200000014540882810000002517202210270039580021358032460005000000009458400200000001120020221101SCORPION  SL-12286100000221027RAMMUSA JM                    000002000000145408828104                                  21SCORPION  SL-122861000000CPRYO                                                                            
0200000014540882810000002517202210270039580021358033632005000000904566961800000001120020221101SCORPION  SL-12288000000221027KGWADI M                      000002000000145408828104                                  21SCORPION  SL-122880000000CPRYP                                                                            
0200000014540882810000002517202210270039580021358034051001000000065638443300000001120020221101SCORPION  SL-12287000000221027KHOZA SC                      000002000000145408828104                                  21SCORPION  SL-122870000000CPRYQ                                                                            
0200000014540882810000002517202210270039580021358035756926000000001902828300000001120020221101SCORPION  SL-12290600000221027DLAMINI G                     000002000000145408828104                                  21SCORPION  SL-122906000000CPRYR                                                                            
0200000014540882810000002517202210270039580021358036632005000000906411539700000001120020221101SCORPION  SL-12301800000221027MATSEMELA MM                  000002000000145408828104                                  21SCORPION  SL-123018000000CPRYS                                                                            
0200000014540882810000002517202210270039580021358037470010000000132033020500000001120020221101SCORPION  SL-12316000000221027MOKOENA TM                    000002000000145408828104                                  21SCORPION  SL-123160000000CPRYT                                                                            
0200000014540882810000002517202210270039580021358038250655000006203479571800000001120020221101SCORPION  SL-12332300000221027NDHLOVU C                     000002000000145408828104                                  21SCORPION  SL-123323000000CPRYU                                                                            
0200000014540882810000002517202210270039580021358039470010000000117281130800000001120020221101SCORPION  SL-12401600000221027BALOYI RB                     000002000000145408828104                                  21SCORPION  SL-124016000000CPRYV                                                                            
0200000014540882810000002517202210270039580021358040470010000000124458835900000001120020221101SCORPION  SL-12449200000221027MABUYA M                      000002000000145408828104                                  21SCORPION  SL-124492000000CPRYW                                                                            
0200000014540882810000002517202210270039580021358041051001000000000110809300000001120020221101SCORPION  SL-12447800000221027NETSIANDA TJ                  000002000000145408828104                                  21SCORPION  SL-124478000000CPRYX                                                                            
0200000014540882810000002517202210270039580021358042051001000000014825714300000001120020221101SCORPION  SL-12531200000221027MOKALODISE DG                 000002000000145408828104                                  21SCORPION  SL-125312000000CPRYY                                                                            
0200000014540882810000002517202210270039580021358043430000000002000728726100000000560020221101SCORPION  SL-12542800000221027MAKHUBO S                     000002000000145408828104                                  21SCORPION  SL-125428000000CPRYZ                                                                            
0200000014540882810000002517202210270039580021358044430000000002000728726100000000560020221101SCORPION  SL-12542800000221027MAKHUBO S                     000002000000145408828104                                  21SCORPION  SL-125428000000CPRZ0                                                                            
0200000014540882810000002517202210270039580021358045250655000006270001866800000001120020221101SCORPION  SL-12541000000221027DWEBA ZH                      000002000000145408828104                                  21SCORPION  SL-125410000000CPRZ1                                                                            
0200000014540882810000002517202210270039580021358046250655000006012213353500000001120020221101SCORPION  SL-12547600000221027TWALA DJ                      000002000000145408828104                                  21SCORPION  SL-125476000000CPRZ2                                                                            
0200000014540882810000002517202210270039580021358047632005000000919949424000000001120020221101SCORPION  SL-12607500000221027MATHE PT                      000002000000145408828104                                  21SCORPION  SL-126075000000CPRZ3                                                                            
0200000014540882810000002517202210270039580021358048632005000000408915423400000001120020221101SCORPION  SL-12632300000221027MABALA PV                     000002000000145408828104                                  21SCORPION  SL-126323000000CPRZ4                                                                            
0200000014540882810000002517202210270039580021358049198765000000198229746800000001120020221101SCORPION  SL-12637600000221027KEKANA J                      000002000000145408828104                                  21SCORPION  SL-126376000000CPRZ5                                                                            
0200000014540882810000002517202210270039580021358050470010000000170866514300000001120020221101SCORPION  SL-12647900000221027NXUMALO R                     000002000000145408828104                                  21SCORPION  SL-126479000000CPRZ6                                                                            
0200000014540882810000002517202210270039580021358051051001000000000237446300000001120020221101SCORPION  SL-12691800000221027BACWADI JL                    000002000000145408828104                                  21SCORPION  SL-126918000000CPRZ7                                                                            
