H04Test202211052022110520221101202211050000015557TWO DAY   01
T4700100001414355910100000011200SCORPION  SL-26055620000      DLAMINI M                     20221101032
T4700100001472100326100000010300SCORPION  SL-20411884000      MKHOSANA D                    20221101032
T4700100001157164615100000011200SCORPION  SL-37246540000      SETWABA E                     20221101032
T4700100001157164615100000011200SCORPION  SL-37246540000      SETWABA E                     20221101032
T4700100001348102142100000011200SCORPION  SL-32179010000      SITHOLE Y                     20221101032
T4700100001329033130100000011200SCORPION  SL-15765540000      RAGANYA M                     20221101032
T4700100001112424766100000011200SCORPION  SL-35125160000      MBATSANE TE                   20221101032
T4700100001112424766100000011200SCORPION  SL-35125160000      MBATSANE TE                   20221101032
T4700100001236435646100000010300SCORPION  SL-20408224000      MODISE K                      20221101032
T4700100001223468575100000010300SCORPION  SL-20409154000      NDABA P                       20221101032
T4700100001309507293100000011200SCORPION  20508108000000      YISAKA Z                      20221101032
T4700100001206027698100000005600SCORPION  SL-25007080000      MOTOLO T                      20221101032
T4700100001339820216100000010300SCORPION  20453890000000      NTLAHLA S                     20221101032
T4700100001376243820100000011200SCORPION  SL-38715460000      MAHLANGU MM                   20221101032
T4700100001408759924100000011200SCORPION  SL-31845060000      RANGOLO M                     20221101032
T4700100001416022102100000010300SCORPION  SL-20410111000      RANA Y                        20221101032
T4700100001326086047100000011200SCORPION  SL-33797970000      MTHETHWA N                    20221101032
T4700100001326086047100000011200SCORPION  SL-33797970000      MTHETHWA N                    20221101032
T4700100001328560161100000005600SCORPION  20512233000000      BOSMAN A                      20221101032
T4700100001120247185100000005600SCORPION  SL-29594680000      MMUTLANE F                    20221101032
T4700100001138542510100000011200SCORPION  SL-31314430000      BUTHELEZI L                   20221101032
T4700100001138542510100000011200SCORPION  SL-31314430000      BUTHELEZI L                   20221101032
T4700100001121717827100000011200SCORPION  SL-40200550000      MASHIANOKE N                  20221101032
T4700100001498370657100000011200SCORPION  SL-38713380000      SHAI J                        20221101032
T4700100001319182346100000011200SCORPION  SL-32593900000      MABELE W                      20221101032
T4700100001349405343100000011200SCORPION  20522348000000      MASEKO M                      20221101032
T4700100001402067540100000011200SCORPION  SL-20406882000      PHASWANE TR                   20221101032
T4700100001427765950100000011200SCORPION  SL-20407555000      MOGASHOA M                    20221101032
T4700100001362965128100000011200SCORPION  20518421000000      MATHIKITHELA N                20221101032
T4700100001201200294100000011200SCORPION  20515078000000      LOABILE K                     20221101032
T4700100001244206863100000011200SCORPION  SL-20405723000      MBHENSE A                     20221101032
T4700100001514474253100000011200SCORPION  20528734000000      MOKOENA L                     20221101032
T4700100001409411654100000011200SCORPION  SL-39500530000      MTSHWENI MP                   20221101032
T4700100001189321406100000005600SCORPION  20506773000000      SHONGWE P                     20221101032
T4700100001330426655100000011200SCORPION  SL-11569960000      MOKGOJE TS                    20221101032
T4700100001471050694100000010300SCORPION  SL-20407170000      GAODIGWE ME                   20221101032
T4700100001471050694100000010300SCORPION  SL-20407170000      GAODIGWE ME                   20221101032
T4700100001401399744100000005600SCORPION  SL-37832070000      PHURAVHATHU S                 20221101032
T4700100001199396689100000005600SCORPION  SL-39660480000      MALINGA S                     20221101032
T4700100001385544633100000011200SCORPION  SL-37362340000      NAYE XP                       20221101032
T4700100001267914686100000010300SCORPION  SL-20407215000      MLUNGUZI NV                   20221101032
T4700100001295905734100000011200SCORPION  SL-39979760000      TAUTSWANE L                   20221101032
T4700100001295905734100000011200SCORPION  SL-39979760000      TAUTSWANE L                   20221101032
T4700100001375746586100000011200SCORPION  SL-39061960000      NXUMALO Z                     20221101032
T4700100001409131244100000005600SCORPION  SL-37317970000      MFEYA S                       20221101032
T4700100001318747080100000011200SCORPION  SL-39828780000      NTSHANGASE N                  20221101032
T4700100001141659652100000011200SCORPION  SL-20430550000      NDARA E                       20221101032
T4700100001373888146100000011200SCORPION  20505252000000      SMITH CC                      20221101032
T4700100001252821318100000011200SCORPION  SL-17021650000      MININYE Z                     20221101032
T4700100001344246514100000011200SCORPION  SL-27101940000      SHUDE N                       20221101032
T4700100001459848770100000010300SCORPION  20444360000000      KLINK D                       20221101032
T4700100001501596401100000010300SCORPION  SL-31418440000      FUMBATHA M                    20221101032
T4700100001439619792100000011200SCORPION  SL-39730570000      SEKAI G                       20221101032
T4700100001327724365100000011200SCORPION  20528849000000      RIBIMBI Z                     20221101032
T4700100001465068978100000005600SCORPION  20475273000000      MTSHALI P                     20221101032
T4700100001465068978100000005600SCORPION  20475273000000      MTSHALI P                     20221101032
T4700100001537073425100000005600SCORPION  SL-39769220000      LUKHELE S                     20221101032
T4700100001408010737100000005600SCORPION  SL-32460360000      FOKO PG                       20221101032
T4700100001291720438100000011200SCORPION  SL-22135040000      RADEBE N                      20221101032
T4700100001377160015100000011200SCORPION  SL-39260200000      MGWATYU A                     20221101032
T4700100001139142435100000011200SCORPION  SL-36662790000      KHOZA MM                      20221101032
T4700100001313143853100000011200SCORPION  SL-35062340000      MORATA M                      20221101032
T4700100001181469633100000011200SCORPION  SL-21249570000      PIKA T                        20221101032
T4700100001118115145100000011200SCORPION  SL-14554430000      SAWA-JAMA M                   20221101032
T4700100001118115145100000011200SCORPION  SL-14554430000      SAWA-JAMA M                   20221101032
T4700100001111888041100000011200SCORPION  SL-40172340000      SELALA MM                     20221101032
T4700100001286116811100000011200SCORPION  SL-38599050000      JANTJIES P                    20221101032
T4700100001311736911100000011200SCORPION  20513786000000      BUTSHINGI K                   20221101032
T4700100001111943123100000011200SCORPION  SL-34242000000      KHUMALO NC                    20221101032
T4700100001364817266100000011200SCORPION  SL-37454590000      MYONA V                       20221101032
T4700100001124173119100000011200SCORPION  SL-16134030000      RIKHOTSO J                    20221101032
T4700100001124173119100000011200SCORPION  SL-16134030000      RIKHOTSO J                    20221101032
T4700100001123951851100000011200SCORPION  SL-27852130000      CHILOANE L                    20221101032
T4700100001207062578100000011200SCORPION  SL-40060770000      MDITSHWA M                    20221101032
T4700100001188760759100000011200SCORPION  SL-17349000000      BOSIGO KJ                     20221101032
T4700100001327787545100000005600SCORPION  SL-38835500000      BEUKES L                      20221101032
T4700100001200503471100000005600SCORPION  SL-24297490000      KAIBE F                       20221101032
T4700100001507936557100000010300SCORPION  20446649000000      SHESHEKU I                    20221101032
T4700100001507936557100000010300SCORPION  20446649000000      SHESHEKU I                    20221101032
T4700100001156913010100000011200SCORPION  20520989000000      MOEKESTI DJ                   20221101032
T4700100001141112793100000011200SCORPION  SL-34815700000      SCHALK B                      20221101032
T4700100001141112793100000011200SCORPION  SL-34815700000      SCHALK B                      20221101032
T4700100001300776399100000005600SCORPION  20460348000000      JACK N                        20221101032
T4700100001247054312100000011200SCORPION  SL-39360660000      RAMMUTLA J                    20221101032
T4700100001373249623100000011200SCORPION  20465122000000      KLEINSMITH W                  20221101032
T4700100001297976620100000005300SCORPION  20435060000000      JACOBS S                      20221101032
T4700100001297976620100000005300SCORPION  20435060000000      JACOBS S                      20221101032
T4700100001171033174100000005600SCORPION  SL-39599630000      MOLONGOANA M                  20221101032
T4700100001133296430100000011200SCORPION  SL-63839600000      MVULA T                       20221101032
T4700100001213914866100000011200SCORPION  SL-66561100000      BLIGNAUT W                    20221101032
T4700100001259129940100000011200SCORPION  20489008000000      TSOTETSI M                    20221101032
T4700100001420681492100000005600SCORPION  SL-10391690000      MOLUSI J                      20221101032
T4700100001333491121100000011200SCORPION  20513839000000      DYANTYI M                     20221101032
T4700100001177040903100000011200SCORPION  SL-37855360000      FALATSE J                     20221101032
T4700100001330106596100000011200SCORPION  SL-39819670000      PHOKANOKA P                   20221101032
T4700100001146886088100000011200SCORPION  SL-33489630000      MDLULI VMM                    20221101032
T4700100001146886088100000011200SCORPION  SL-33489630000      MDLULI VMM                    20221101032
T4700100001313357519100000011200SCORPION  20529089000000      MGEDE M                       20221101032
T4700100001440671875100000011200SCORPION  SL-20723690000      TLHABATAU S                   20221101032
T4700100001492271045100000005600SCORPION  SL-71455000000      DICHABA P                     20221101032
T4700100001340454996100000005600SCORPION  20537229000000      CINDI MS                      20221101032
T4700100001513014836100000011200SCORPION  SL-40153130000      KHUMALO M                     20221101032
T4700100001408424949100000011200SCORPION  SL-83837300000      SEDUNA S                      20221101032
T4700100001545973820100000011200SCORPION  20541615000000      JAFETA L                      20221101032
T4700100001466808924100000005600SCORPION  SL-40068790000      MOSELAKGOMO J                 20221101032
T4700100001356389188100000011200SCORPION  20517733000000      SIBIYA T                      20221101032
T4700100001364471769100000010300SCORPION  SL-20410665000      SHABANGU IM                   20221101032
T4700100001483325944100000011200SCORPION  SL-20073050000      MOTHEO L                      20221101032
T4700100001470755643100000011200SCORPION  SL-36824580000      SERABELE E                    20221101032
T4700100001548433614100000010300SCORPION  SL-20411402000      PHAHLANE K                    20221101032
T4700100001535659481100000011200SCORPION  SL-12059310000      MPHIKE S                      20221101032
T4700100001535659481100000011200SCORPION  SL-12059310000      MPHIKE S                      20221101032
T4700100001529619031100000010300SCORPION  SL-20409033000      KGOMO J                       20221101032
T4700100001386129745100000017300SCORPION  SL-80569500000      ZULU JACOB S                  20221101032
T4700100001451569430100000011200SCORPION  SL-25797850000      MABUZA T                      20221101032
T4700100001497699205100000011200SCORPION  20509514000000      THAELE S                      20221101032
T4700100001552129762100000011200SCORPION  SL-46987400000      MAQALA J                      20221101032
T4700100001555478652100000010300SCORPION  SL-20408597000      ZUMA SP                       20221101032
T4700100001370535021100000011200SCORPION  SL-37151920000      TSOTSO N                      20221101032
T4700100001200900543100000011200SCORPION  SL-17460000000      RAMOLEFO M                    20221101032
T4700100001429751418100000011200SCORPION  SL-37175200000      KGATLE M                      20221101032
T4700100001410492581100000005300SCORPION  SL-29043900000      SAMBO M                       20221101032
T4700100001175432537100000011200SCORPION  SL-39538860000      HILL R                        20221101032
T4700100001205619346100000011200SCORPION  SL-33987060000      MABUZA G                      20221101032
T4700100001359036588100000011200SCORPION  SL-38828250000      DLUDLA M                      20221101032
T4700100001447020691100000010300SCORPION  SL-25890620000      OOSTENWAL F                   20221101032
T4700100001450603503100000011200SCORPION  SL-55294500000      MAVUSO M                      20221101032
T4700100001562223915100000017300SCORPION  SL-19543330000      RAMABOLU NJ                   20221101032
T4700100001173648656100000011200SCORPION  SL-38831420000      MOTAUNG T                     20221101032
T4700100001338013244100000011200SCORPION  SL-40097870000      XOMA V                        20221101032
T4700100001453694550100000005600SCORPION  SL-38752350000      BRETT N                       20221101032
T4700100001172488949100000011200SCORPION  SL-39434030000      MASIKE M                      20221101032
T4700100001552893268100000011200SCORPION  SL-35326230000      KEKANA TB                     20221101032
T4700100001400433795100000011200SCORPION  SL-23602410000      KHOSA S                       20221101032
T4700100001552702977100000011200SCORPION  SL-36839960000      MHLALUKA B                    20221101032
T4700100001472643834100000010300SCORPION  SL-20405423000      LETEBA G                      20221101032
T4700100001367882980100000011200SCORPION  SL-35643000000      PITA K                        20221101032
T4700100001343615494100000010300SCORPION  SL-20406686000      MOTAUNG T                     20221101032
T4700100001128582072100000017300SCORPION  SL-19231920000      MATAFENI B                    20221101032
T4700100001447527753100000011200SCORPION  SL-39245810000      NKUNA J                       20221101032
T4700100001260845964100000011200SCORPION  SL-23048550000      LETELE M                      20221101032
T4700100001563528280100000010300SCORPION  SL-20407031000      TIJA TJ                       20221101032
T4700100001563528280100000010300SCORPION  SL-20407031000      TIJA TJ                       20221101032
T4700100001139309046100000011200SCORPION  SL-38936500000      TSHABALALA R                  20221101032
T4700100001139309046100000011200SCORPION  SL-38936500000      TSHABALALA R                  20221101032
T4700100001325331137100000011200SCORPION  SL-37533200000      ODENDAAL J                    20221101032
T4700100001499497871100000005600SCORPION  20481327000000      SIMANGO B                     20221101032
T4700100001178168741100000011200SCORPION  SL-24913000000      VILEM M                       20221101032
T4700100001180688811100000011200SCORPION  SL-30924650000      MAMABOLO M                    20221101032
T4700100001154166463100000017300SCORPION  SL-18418900000      NDLOVU P                      20221101032
T4700100001170797928100000011200SCORPION  20483705000000      LIEDERMAN R                   20221101032
T4700100001120500476100000011200SCORPION  20533636000000      KESWA NJ                      20221101032
T4700100001149253353100000010300SCORPION  SL-20409564000      MAHLABA M                     20221101032
T4700100001352916876100000011200SCORPION  20515756000000      CAGWE L                       20221101032
T4700100001313151503100000011200SCORPION  SL-23519770000      NTSEOANA A                    20221101032
T4700100001242076660100000011200SCORPION  20471304000000      MAVHANDU N                    20221101032
T4700100001354257012100000011200SCORPION  SL-33048920000      MEMELA S                      20221101032
T4700100001316725330100000011200SCORPION  SL-24462560000      MABOLAWA T                    20221101032
T4700100001143323236100000005600SCORPION  SL-38407750000      LETSOALO J                    20221101032
T4700100001553190627100000011200SCORPION  SL-72967000000      MAMAILA M                     20221101032
T4700100001584075579100000011200SCORPION  SL-15514050000      SESINYI PD                    20221101032
T4700100001359030091100000011200SCORPION  SL-38203430000      MSIZA B                       20221101032
T4700100001359030091100000011200SCORPION  SL-38203430000      MSIZA B                       20221101032
T4700100001468109705100000017300SCORPION  SL-29155280000      NDLOVU J                      20221101032
T4700100001229791084100000011200SCORPION  SL-22144780000      SITHOLE L                     20221101032
T4700100001321428535100000011200SCORPION  SL-27786550000      SELEKE B                      20221101032
T4700100001312458532100000005600SCORPION  SL-40243460000      DLULISA T                     20221101032
T4700100001232970172100000011200SCORPION  SL-80864500000      MOTAUNG R                     20221101032
T4700100001232970172100000011200SCORPION  SL-80864500000      MOTAUNG R                     20221101032
T4700100001278637107100000011200SCORPION  SL-10679890000      NOTSHIKILA TP                 20221101032
T4700100001385597133100000011200SCORPION  20532662000000      LETCHER C                     20221101032
T4700100001369244116100000011200SCORPION  SL-11218380000      AUGUSTINE D                   20221101032
T4700100001304288534100000017300SCORPION  SL-36680980000      RAJKUMAR N                    20221101032
T4700100001551356528100000005600SCORPION  20502803000000      SLINGER G                     20221101032
T4700100001512407400100000011200SCORPION  SL-24036690000      MTILENI P                     20221101032
T4700100001512407400100000011200SCORPION  SL-24036690000      MTILENI P                     20221101032
T4700100001593123769100000010300SCORPION  20452590000000      MAKGOPA J                     20221101032
T4700100001121636711100000011200SCORPION  SL-19665830000      MAKHASI T                     20221101032
T4700100001577730907100000011200SCORPION  SL-40092630000      MTHEMBU D                     20221101032
T4700100001577730907100000011200SCORPION  SL-40092630000      MTHEMBU D                     20221101032
T4700100001223585407100000011200SCORPION  20460600000000      MOLI N                        20221101032
T4700100001223585407100000011200SCORPION  20460600000000      MOLI N                        20221101032
T4700100001432057977100000011200SCORPION  SL-14880370000      MOHOTO T                      20221101032
T4700100001433294794100000010300SCORPION  SL-40080410000      MABASO N                      20221101032
T4700100001593617338100000011200SCORPION  SL-37320120000      SKHOSANA L                    20221101032
T4700100001357354159100000011200SCORPION  SL-40095250000      HENDRICK A                    20221101032
T4700100001276984179100000011200SCORPION  20528114000000      SUZETTE B                     20221101032
T4700100001376452969100000011200SCORPION  SL-38764540000      MDAKA T                       20221101032
T4700100001600821810100000011200SCORPION  SL-14799190000      DLAMINI CW                    20221101032
T4700100001446457077100000005600SCORPION  SL-39738620000      MOKOKO M                      20221101032
T4700100001230398633100000005300SCORPION  SL-35924820000      LEPELLE M                     20221101032
T4700100001462121312100000011200SCORPION  SL-39672640000      MABALA R                      20221101032
T4700100001369618792100000005600SCORPION  20532496000000      KATI S                        20221101032
T4700100001321518364100000011200SCORPION  SL-39966970000      MKHWANAZI G                   20221101032
T4700100001368352055100000017300SCORPION  SL-27785640000      TITUS E                       20221101032
T4700100001564256357100000005600SCORPION  SL-34069110000      NKOMONYE T                    20221101032
T4700100001564256357100000003800SCORPION  SL-34069110000      NKOMONYE T                    20221101032
T4700100001378264868100000011200SCORPION  SL-38315690000      SEDISE S                      20221101032
T4700100001267769805100000005600SCORPION  20510383000000      DAUTH F                       20221101032
T4700100001323936228100000011200SCORPION  SL-39969180000      DASI L                        20221101032
T4700100001443100410100000010300SCORPION  SL-78974200000      NTSHOLE N                     20221101032
T4700100001443100410100000010300SCORPION  SL-78974200000      NTSHOLE N                     20221101032
T4700100001621788618100000011200SCORPION  20525491000000      MUDAU T                       20221101032
T4700100001576722366100000010300SCORPION  SL-38591310000      KHOMO S                       20221101032
T4700100001434910081100000011200SCORPION  SL-38008130000      MOILOA S                      20221101032
T4700100001346798913100000005600SCORPION  20488283000000      MGXWATI P                     20221101032
T4700100001355705175100000011200SCORPION  SL-34030510000      MOETSELA B                    20221101032
T4700100001628118766100000011200SCORPION  SL-39704170000      SHIBURI M                     20221101032
T4700100001577143084100000011200SCORPION  SL-70107800000      MASHILO G                     20221101032
T4700100001626701464100000011200SCORPION  SL-39306350000      MATEYISI N                    20221101032
T4700100001362590051100000011200SCORPION  20485509000000      MOGATLA M                     20221101032
T4700100001635735899100000005600SCORPION  20491533000000      HLONGWANE N                   20221101032
T4700100001589968849100000010300SCORPION  SL-20406342000      QHEKOANE D                    20221101032
T4700100001589968849100000010300SCORPION  SL-20406342000      QHEKOANE D                    20221101032
T4700100001637285491100000011200SCORPION  SL-33688080000      SEBOTHA P                     20221101032
T4700100001538854226100000011200SCORPION  SL-40179420000      MASANGO T                     20221101032
T4700100001267868250100000011200SCORPION  SL-34233380000      YAMANI A                      20221101032
T4700100001620274874100000011200SCORPION  20468589000000      NCANYWA A                     20221101032
T4700100001612757950100000011200SCORPION  20532024000000      GAYI L                        20221101032
T4700100001469458398100000011200SCORPION  20473906000000      NDLOVU H                      20221101032
T4700100001452983664100000017300SCORPION  SL-38299610000      MOSTEPE I                     20221101032
T4700100001167341056100000011200SCORPION  20502910000000      BUKHOSINI M                   20221101032
T4700100001139118534100000011200SCORPION  20496618000000      ENGELBRECHT S                 20221101032
T4700100001300275306100000011200SCORPION  SL-27927290000      THABEDE T                     20221101032
T4700100001158767429100000011200SCORPION  SL-37073240000      MABASO I                      20221101032
T4700100001648853933100000005600SCORPION  SL-37476040000      SOSUKWANA S                   20221101032
T4700100001648853933100000005600SCORPION  SL-37476040000      SOSUKWANA S                   20221101032
T4700100001256019184100000011200SCORPION  SL-23903840000      TOTO K                        20221101032
T4700100001323229424100000011200SCORPION  20514895000000      ZENGELE J                     20221101032
T4700100001320649260100000010300SCORPION  SL-20408017000      MASHABA F                     20221101032
T4700100001594394723100000011200SCORPION  20471011000000      MAILA M                       20221101032
T4700100001110561782100000011200SCORPION  SL-39201530000      NQENO P                       20221101032
T4700100001289521342100000011200SCORPION  20482127000000      NJAPHA S                      20221101032
T4700100001289521342100000011200SCORPION  20482127000000      NJAPHA S                      20221101032
T4700100001537763057100000011200SCORPION  SL-37699310000      MOOKI BJ                      20221101032
T4700100001297694331100000011200SCORPION  SL-35536050000      MAGADLA S                     20221101032
T4700100001663119692100000011200SCORPION  SL-39617110000      MOSIA T                       20221101032
T4700100001368385271100000011200SCORPION  SL-22565360000      QWABE S                       20221101032
T4700100001361207092100000011200SCORPION  SL-38472750000      NDLOVU C                      20221101032
T4700100001631307213100000005600SCORPION  20526168000000      TWAYISE-NGALO B               20221101032
T4700100001239530763100000010300SCORPION  SL-20407820000      MGAWULI N                     20221101032
T4700100001460023208100000010300SCORPION  SL-20408721000      NCONGWANE PV                  20221101032
T4700100001460023208100000010300SCORPION  SL-20408721000      NCONGWANE PV                  20221101032
T4700100001182462993100000011200SCORPION  SL-23864590000      MOLAUTSI F                    20221101032
T4700100001182462993100000011200SCORPION  SL-23864590000      MOLAUTSI F                    20221101032
T4700100001606607985100000010300SCORPION  SL-20409295000      SHILABYE J                    20221101032
T4700100001123592045100000010300SCORPION  20432713000000      MONETHI B                     20221101032
T4700100001410832668100000011200SCORPION  SL-33917840000      MANGWATO F                    20221101032
T4700100001410832668100000011200SCORPION  SL-33917840000      MANGWATO F                    20221101032
T4700100001535780981100000011200SCORPION  20510752000000      HLOPHE M                      20221101032
T4700100001640563642100000011200SCORPION  SL-40145010000      SHUGUBE M                     20221101032
T4700100001309752573100000011200SCORPION  SL-39152020000      RAMMETSI M                    20221101032
T4700100001141792395100000011200SCORPION  SL-20337220000      MAYEKISO M                    20221101032
T4700100001542542713100000011200SCORPION  SL-35267450000      NTSHINGQAYO TS                20221101032
T4700100001135872390100000011200SCORPION  SL-40199000000      SITATELA L                    20221101032
T4700100001135872390100000011200SCORPION  SL-40199000000      SITATELA L                    20221101032
T4700100001289472910100000011200SCORPION  SL-39889370000      MOLAPO P                      20221101032
T4700100001289472910100000011200SCORPION  SL-39889370000      MOLAPO P                      20221101032
T4700100001584443519100000011200SCORPION  SL-37400580000      SONJICA M                     20221101032
T4700100001187633478100000011200SCORPION  20525258000000      JEBESE S                      20221101032
T4700100001167697063100000005600SCORPION  20501139000000      RAKUMAKU P                    20221101032
T4700100001211112320100000011200SCORPION  SL-13468840000      GAOBUSWE R                    20221101032
T4700100001633829330100000011200SCORPION  20466797000000      JOUBERT CG                    20221101032
T4700100001550160867100000011200SCORPION  SL-36073300000      MLUNGWANA                     20221101032
T4700100001434018553100000010300SCORPION  20444804000000      MASWANGANYE T                 20221101032
T4700100001416350185100000011200SCORPION  SL-19503440000      MATLHAELA N                   20221101032
T4700100001566819588100000011200SCORPION  20530765000000      COETZEE B                     20221101032
T4700100001539955794100000011200SCORPION  SL-39473660000      NDLOVU W                      20221101032
T4700100001497488654100000005600SCORPION  SL-36435970000      RIKHOTSO J                    20221101032
T4700100001484545565100000011200SCORPION  SL-36141980000      MANDLAZI J                    20221101032
T4700100001579136166100000011200SCORPION  SL-11574600000      MABESSE M                     20221101032
T4700100001199171237100000010300SCORPION  SL-20408477000      CIDANI E                      20221101032
T4700100001156503025100000011200SCORPION  20532420000000      MPINDWANA S                   20221101032
T4700100001659271469100000011200SCORPION  20509560000000      MADUE J                       20221101032
T4700100001143037608100000011200SCORPION  SL-90621300000      NDYENGA N                     20221101032
T4700100001657089590100000011200SCORPION  SL-13306100000      TSHIKHWAMA MJ                 20221101032
T4700100001679170684100000010300SCORPION  SL-20408376000      SEIPELO L                     20221101032
T4700100001224652779100000010300SCORPION  20430691000000      XOKI S                        20221101032
T4700100001424100710100000017300SCORPION  SL-31378110000      MHLAMBISO M                   20221101032
T4700100001424100710100000017300SCORPION  SL-31378110000      MHLAMBISO M                   20221101032
T4700100001183589040100000011200SCORPION  SL-28267680000      CLOETE D                      20221101032
T4700100001128895011100000011200SCORPION  SL-22065840000      MAPHISA M                     20221101032
T4700100001633847657100000011200SCORPION  SL-39109890000      MOKOTO T                      20221101032
T4700100001272751447100000011200SCORPION  SL-23836710000      SEME V                        20221101032
T4700100001460038744100000011200SCORPION  SL-39739600000      JACOBS D                      20221101032
T4700100001565546480100000011200SCORPION  SL-40203750000      NQETHO R                      20221101032
T4700100001139586775100000011200SCORPION  SL-35435480000      WILLEMAN S                    20221101032
T4700100001321401726100000011200SCORPION  SL-25699800000      MOLOI EN                      20221101032
T4700100001262551291100000011200SCORPION  SL-43242000000      NCONGWANE M                   20221101032
T4700100001262551291100000011200SCORPION  SL-43242000000      NCONGWANE M                   20221101032
T4700100001127138306100000011200SCORPION  SL-14314910000      LEKGETHO G                    20221101032
T4700100001549899706100000011200SCORPION  SL-25572660000      KUTUMELA L                    20221101032
T4700100001463077856100000011200SCORPION  SL-40239360000      BUNTSE S                      20221101032
T4700100001671796614100000011200SCORPION  SL-39828840000      KWESABA M                     20221101032
T4700100001671796614100000011200SCORPION  SL-39828840000      KWESABA M                     20221101032
T4700100001195150197100000011200SCORPION  SL-19146910000      GELA M                        20221101032
T4700100001717725935100000011200SCORPION  SL-39252950000      DE WEE E                      20221101032
T4700100001717725935100000011200SCORPION  SL-39252950000      DE WEE E                      20221101032
T4700100001637663739100000011200SCORPION  20463049000000      NZIMANDE S                    20221101032
T4700100001264173987100000011200SCORPION  20496065000000      BUNGANE M                     20221101032
T4700100001257098878100000011200SCORPION  SL-36006330000      MVULA V                       20221101032
T4700100001257098878100000011200SCORPION  SL-36006330000      MVULA V                       20221101032
T4700100001396543994100000011200SCORPION  SL-36321840000      LEBEPE T                      20221101032
T4700100001476588560100000011200SCORPION  SL-35513800000      MOKOENA HB                    20221101032
T4700100001155502165100000011200SCORPION  20500123000000      SIBIYA T                      20221101032
T4700100001558926540100000011200SCORPION  SL-74787500000      MAKAULA Z                     20221101032
T4700100001116368283100000011200SCORPION  SL-30620970000      MOLEBATSI TE                  20221101032
T4700100001145207381100000011200SCORPION  SL-15776300000      MNTENGWANE TC                 20221101032
T4700100001118631623100000011200SCORPION  SL-26404980000      TLEDIMA BM                    20221101032
T4700100001296767890100000011200SCORPION  SL-39614550000      MOETI MC                      20221101032
T4700100001139173098100000011200SCORPION  SL-35103590000      MONETHI M                     20221101032
T4700100001324550021100000011200SCORPION  SL-36097040000      ADAMS NE                      20221101032
T4700100001482642601100000011200SCORPION  SL-39142580000      SEBETLELA KE                  20221101032
T4700100001636326135100000011200SCORPION  SL-39691310000      TSHAYINTAKA Y                 20221101032
T4700100001187078733100000011200SCORPION  SL-12617380000      NOCUZE Z                      20221101032
T4700100001196567199100000011200SCORPION  SL-38725420000      MOKUBUNG R                    20221101032
T4700100001349139538100000011200SCORPION  20497952000000      MASHIANE E                    20221101032
T4700100001658496610100000011200SCORPION  SL-22756760000      MALAKA M                      20221101032
T4700100001716595930100000011200SCORPION  SL-40037890000      PROUSE C                      20221101032
T4700100001137395220100000005600SCORPION  SL-40208450000      KUTAMA M                      20221101032
T4700100001671431926100000017300SCORPION  SL-39893060000      KHUMALO NP                    20221101032
T4700100001680752977100000011200SCORPION  SL-59232900000      NGINDANA S                    20221101032
T4700100001749798148100000010300SCORPION  SL-20409022000      MOFOKENG H                    20221101032
T4700100001170999210100000005300SCORPION  20420672000000      NGONDO M                      20221101032
T4700100001170999210100000005300SCORPION  20420672000000      NGONDO M                      20221101032
T4700100001707617226100000011200SCORPION  20513768000000      OGANNE T                      20221101032
T4700100001469114176100000011200SCORPION  SL-39555410000      MORAPELI T                    20221101032
T4700100001140850030100000005600SCORPION  20506585000000      MATYHALI T                    20221101032
T4700100001540282854100000011200SCORPION  20487793000000      MNINTYANA D                   20221101032
T4700100001612313858100000011200SCORPION  SL-39759480000      THIBELI E                     20221101032
T4700100001146596438100000011200SCORPION  SL-13378300000      BETHA O                       20221101032
T4700100001656938187100000011200SCORPION  SL-22203590000      LUVALO M                      20221101032
T4700100001232556015100000011200SCORPION  20526573000000      SIMELANI T                    20221101032
T4700100001293238242100000005600SCORPION  SL-39604930000      NETILI T                      20221101032
T4700100001469738927100000011200SCORPION  SL-33556560000      MABELA E                      20221101032
T4700100001649173820100000005600SCORPION  SL-39907770000      NDLELA N                      20221101032
T4700100001414257153100000011200SCORPION  20449483000000      MOKHELE T                     20221101032
T4700100001234864434100000011200SCORPION  SL-39621580000      MAPONYA J                     20221101032
T4700100001693625227100000005600SCORPION  20479543000000      NDLOVU P                      20221101032
T4700100001757976572100000011200SCORPION  SL-40135080000      AMAECHI C                     20221101032
T4700100001434342172100000011200SCORPION  20461701000000      PALE L                        20221101032
T4700100001607597509100000011200SCORPION  SL-39801950000      GIANI M                       20221101032
T4700100001607597509100000011200SCORPION  SL-39801950000      GIANI M                       20221101032
T4700100001443289890100000011200SCORPION  SL-39348030000      BANGISO M                     20221101032
T4700100001735985757100000011200SCORPION  SL-26479120000      APLENI W                      20221101032
T4700100001735985757100000011200SCORPION  SL-26479120000      APLENI W                      20221101032
T4700100001662051806100000011200SCORPION  SL-74586900000      MOKOME S                      20221101032
T4700100001673060895100000011200SCORPION  SL-39874220000      SIYAYA T                      20221101032
T4700100001673060895100000011200SCORPION  SL-39874220000      SIYAYA T                      20221101032
T4700100001424532696100000011200SCORPION  SL-11729890000      SMUTS  S                      20221101032
T4700100001776268219100000011200SCORPION  SL-22548830000      MELINJANI S                   20221101032
T4700100001318318155100000011200SCORPION  20486342000000      DLOVA A                       20221101032
T4700100001318318155100000011200SCORPION  20486342000000      DLOVA A                       20221101032
T4700100001765170433100000011200SCORPION  SL-16156180000      SETHOLE S                     20221101032
T4700100001414779761100000011200SCORPION  SL-39927000000      JACOBS V                      20221101032
T4700100001773390757100000011200SCORPION  SL-16626360000      MSOMI M                       20221101032
T4700100001269998100100000011200SCORPION  SL-24559520000      MBAMBO S                      20221101032
T4700100001419326633100000011200SCORPION  20525275000000      RICHARDS R                    20221101032
T4700100001321209841100000011200SCORPION  20537849000000      MOHALE P                      20221101032
T4700100001455940923100000011200SCORPION  SL-20265050000      MALULEKA S                    20221101032
T4700100001754307335100000011200SCORPION  SL-33983610000      MASELA E                      20221101032
T4700100001465642186100000011200SCORPION  20530597000000      MATUSSE S                     20221101032
T4700100001722407423100000011200SCORPION  SL-74824200000      VILAKAZI E                    20221101032
T4700100001202470538100000005600SCORPION  SL-85086600000      MOCHE D                       20221101032
T4700100001383075296100000005600SCORPION  SL-36566960000      ZIMBOVU G                     20221101032
T4700100001459511016100000005300SCORPION  SL-20411059000      MATHEBULA S                   20221101032
T4700100001555524794100000011200SCORPION  SL-39784060000      FRANS N                       20221101032
T4700100001333189573100000011200SCORPION  20472844000000      SOKETYE M                     20221101032
T4700100001333189573100000011200SCORPION  20472844000000      SOKETYE M                     20221101032
T4700100001607229186100000005600SCORPION  20538248000000      MBATHA K                      20221101032
T4700100001174370937100000011200SCORPION  SL-37864050000      MKOBI J                       20221101032
T4700100001851142191100000011200SCORPION  20497566000000      SODLULASHE S                  20221101032
T4700100001339072724100000005600SCORPION  SL-18590980000      SCHALK T                      20221101032
T4700100001339072724100000005600SCORPION  SL-18590980000      SCHALK T                      20221101032
T4700100001608753806100000011200SCORPION  SL-40142710000      THWALA A                      20221101032
T4700100001167239758100000010300SCORPION  SL-13140720000      MBATHA N                      20221101032
T4700100001503223033100000005600SCORPION  20531735000000      SITHOLE P                     20221101032
T4700100001739180958100000010300SCORPION  20432387000000      GCINA P                       20221101032
T4700100001699913585100000005600SCORPION  20506104000000      MOSEPIDI J                    20221101032
T4700100001698539787100000011200SCORPION  SL-40255930000      THUTSE K                      20221101032
T4700100001661511986100000011200SCORPION  SL-39239520000      MKHWANAZI M                   20221101032
T4700100001167174915100000012600SCORPION  SL-21321560000      MODISANE KL                   20221101032
T4700100001560100603100000011200SCORPION  SL-27929420000      MAHLANYA R                    20221101032
T4700100001682731357100000005300SCORPION  SL-20407711000      SIKHOVE L                     20221101032
T4700100001551550243100000005600SCORPION  SL-10960000000      MASHEGO CM                    20221101032
T4700100001470078889100000011200SCORPION  SL-11619000000      SATEKGE BW                    20221101032
T4700100001456449115100000017300SCORPION  SL-11757000000      MAKETLO R                     20221101032
T4700100001206591208100000011200SCORPION  SL-12336000000      MOILOA ES                     20221101032
T4700100001140535879100000011200SCORPION  SL-12937000000      NENE D                        20221101032
T4700100001138461472100000011200SCORPION  SL-13574000000      SEKHUMISE M                   20221101032
T4700100001434717613100000011200SCORPION  SL-13756000000      LIPALI MD                     20221101032
T4700100001201563168100000011200SCORPION  SL-16383000000      MAPHASA PM                    20221101032
T4700100001398765269100000011200SCORPION  SL-17515000000      MASHISHI M                    20221101032
T4700100001398765269100000011200SCORPION  SL-17515000000      MASHISHI M                    20221101032
T4700100001775335885100000011200SCORPION  SL-18514000000      MBOKAZI ZJ                    20221101032
T4700100001303203632100000011200SCORPION  SL-19325000000      DLAMINI MJ                    20221101032
T4700100001315576218100000011200SCORPION  SL-20865000000      KHOZA JJ                      20221101032
T4700100001182369829100000017300SCORPION  SL-21676000000      PHAKATHI J                    20221101032
T4700100001351560199100000011200SCORPION  SL-22044000000      MSEBENZI S                    20221101032
T4700100001122856707100000011200SCORPION  SL-23006000000      MOELETSI MF                   20221101032
T4700100001144382929100000011200SCORPION  SL-23348000000      LEPHALALA TI                  20221101032
T4700100001159153556100000008900SCORPION  SL-23345000000      JOSEPH K                      20221101032
T4700100001159153556100000011200SCORPION  20525589000000      JOSEPH K                      20221101032
T4700100001243467507100000011200SCORPION  SL-23414000000      SEFARA WM                     20221101032
T4700100001244984904100000011200SCORPION  SL-24207000000      KHUMALO MP                    20221101032
T4700100001244984904100000011200SCORPION  SL-24207000000      KHUMALO MP                    20221101032
T4700100001325022835100000017300SCORPION  SL-24292000000      NGWENYA V                     20221101032
T4700100001283966873100000011200SCORPION  SL-25743000000      MAPETLA KP                    20221101032
T4700100001385865049100000011200SCORPION  SL-25862000000      HLONGWANE SA                  20221101032
T4700100001472548718100000017300SCORPION  SL-27740000000      DLAMINI B                     20221101032
T4700100001161187292100000011200SCORPION  SL-27748000000      KGAPANE G                     20221101032
T4700100001261742425100000011200SCORPION  SL-29098000000      KHUMALO FP                    20221101032
T4700100001716553227100000011200SCORPION  SL-29140000000      MALULEKE MG                   20221101032
T4700100001149502094100000011200SCORPION  SL-36448680000      MOLATEDI C                    20221101032
T4700100001355031484100000017300SCORPION  SL-30374000000      KHOSA MS                      20221101032
T4700100001465097935100000011200SCORPION  SL-30570000000      MAPHELA LE                    20221101032
T4700100001517094192100000011200SCORPION  SL-31391000000      MEKWA A                       20221101032
T4700100001517094192100000011200SCORPION  SL-31391000000      MEKWA A                       20221101032
T4700100001659459042100000011200SCORPION  SL-31631000000      NKELENJANE MV                 20221101032
T4700100001114295696100000011200SCORPION  SL-32155000000      KEKANA JM                     20221101032
T4700100001636740373100000011200SCORPION  SL-32592000000      MANAMELA SM                   20221101032
T4700100001213012242100000011900SCORPION  SL-38300130000      MANYEKE TM                    20221101032
T4700100001213012242100000011200SCORPION  SL-32969000000      MANYEKE TM                    20221101032
T4700100001155384766100000011200SCORPION  SL-35198000000      MAZIBE PS                     20221101032
T4700100001559993659100000011200SCORPION  SL-36916000000      MHLANGA R                     20221101032
T4700100001491972805100000011200SCORPION  SL-38613000000      RAMUHASHI SN                  20221101032
T4700100001696678194100000011200SCORPION  SL-38625000000      DIKGALE MS                    20221101032
T4700100001187697565100000011200SCORPION  SL-41823000000      SIGASA MJ                     20221101032
T4700100001110401963100000005600SCORPION  SL-42210000000      MOGALE C                      20221101032
T4700100001226008966100000017300SCORPION  SL-42626000000      DUBE N                        20221101032
T4700100001322891948100000011200SCORPION  SL-43014000000      MABOKO M                      20221101032
T4700100001433856288100000011200SCORPION  SL-48856000000      TAU L                         20221101032
T4700100001426234870100000005600SCORPION  SL-49433000000      LEOTLELA M                    20221101032
T4700100001566936312100000011200SCORPION  SL-50674000000      KHUMALO MJ                    20221101032
T4700100001117638292100000011200SCORPION  SL-51303000000      MOAHLUDI K                    20221101032
T4700100001499860712100000011200SCORPION  SL-51584000000      RADEBE MP                     20221101032
T4700100001600569291100000011200SCORPION  SL-51666000000      KHUMALO VN                    20221101032
T4700100001407677053100000011200SCORPION  SL-54844000000      TSHABALALA IL                 20221101032
T4700100001300022521100000011200SCORPION  SL-55398000000      MALUNGANA F                   20221101032
T4700100001192546294100000005600SCORPION  SL-55433000000      KOTSOKWANE JN                 20221101032
T4700100001450153176100000011200SCORPION  SL-56560000000      MASONDO VE                    20221101032
T4700100001381933104100000011200SCORPION  SL-57012000000      MASHAO MJ                     20221101032
T4700100001543987530100000011200SCORPION  SL-57176000000      MASHABELA MM                  20221101032
T4700100001483152233100000011200SCORPION  SL-58327000000      MAHLANGU TA                   20221101032
T4700100001213562242100000011200SCORPION  SL-59793000000      SITHOLE A                     20221101032
T4700100001320494720100000011200SCORPION  SL-59974000000      MADUMO AK                     20221101032
T4700100001115247113100000011200SCORPION  SL-61396000000      MAVIMBELA M                   20221101032
T4700100001203313495100000011200SCORPION  SL-61670000000      SEBEKO M                      20221101032
T4700100001124312690100000011200SCORPION  SL-62893000000      NHLAPO NI                     20221101032
T4700100001310517965100000011200SCORPION  SL-64141000000      MOEKETSI TA                   20221101032
T4700100001429641566100000011200SCORPION  SL-64737000000      MOKHELE M                     20221101032
T4700100001162613031100000011200SCORPION  SL-65183000000      ZWANE MJ                      20221101032
T4700100001691974623100000011200SCORPION  SL-65985000000      GANA M                        20221101032
T4700100001601689053100000011200SCORPION  SL-66671000000      MASENYE D                     20221101032
T4700100001223923787100000005600SCORPION  SL-67730000000      MARIBE MT                     20221101032
T4700100001612780731100000011200SCORPION  SL-68012000000      MASHISHI TI                   20221101032
T4700100001453628914100000011200SCORPION  SL-68306000000      MAVUNDLA FO                   20221101032
T4700100001173280756100000005600SCORPION  SL-68626000000      SEGOALE FLT                   20221101032
T4700100001299276855100000005600SCORPION  SL-70339000000      BACELA AM                     20221101032
T4700100001367676981100000011200SCORPION  SL-72056000000      DUMA MA                       20221101032
T4700100001367676981100000011200SCORPION  SL-72056000000      DUMA MA                       20221101032
T4700100001336565282100000011200SCORPION  SL-72377000000      NGOBENI LN                    20221101032
T4700100001498756970100000011200SCORPION  SL-73010000000      MOHLABANE JL                  20221101032
T4700100001662658638100000010300SCORPION  SL-73127000000      MOTLOUNG L                    20221101032
T4700100001213764708100000011200SCORPION  SL-73475000000      ZITHA NC                      20221101032
T4700100001213764708100000011200SCORPION  SL-73475000000      ZITHA NC                      20221101032
T4700100001431513677100000011200SCORPION  SL-73689000000      GANDELA G                     20221101032
T4700100001506294586100000011200SCORPION  SL-73720000000      JOGOM GA                      20221101032
T4700100001634232206100000011200SCORPION  SL-75120000000      TSHABALALA MD                 20221101032
T4700100001643274811100000011200SCORPION  SL-77070000000      MATLALA EL                    20221101032
T4700100001643274811100000011200SCORPION  SL-77070000000      MATLALA EL                    20221101032
T4700100001641051823100000011200SCORPION  SL-77494000000      MATHENJWA P                   20221101032
T4700100001284642389100000011200SCORPION  SL-77874000000      MARUMO T                      20221101032
T4700100001619752024100000011200SCORPION  SL-78688000000      POLORI JM                     20221101032
T4700100001357157949100000011200SCORPION  SL-81101000000      YISA JS                       20221101032
T4700100001357157949100000011200SCORPION  SL-81101000000      YISA JS                       20221101032
T4700100001455690188100000011200SCORPION  SL-84495000000      MATHIBELA GH                  20221101032
T4700100001551663064100000011200SCORPION  SL-85157000000      MAHLANGU BS                   20221101032
T4700100001210254644100000011200SCORPION  SL-87804000000      LETUPU P                      20221101032
T4700100001210254644100000011200SCORPION  SL-87804000000      LETUPU P                      20221101032
T4700100001464472104100000011200SCORPION  SL-89278000000      MDHLULI CO                    20221101032
T4700100001640795071100000011200SCORPION  SL-89281000000      MADUNA F                      20221101032
T4700100001640795071100000011200SCORPION  SL-89281000000      MADUNA F                      20221101032
T4700100001200427465100000011200SCORPION  SL-89271000000      MAKGOBA MR                    20221101032
T4700100001384692752100000011200SCORPION  SL-90093000000      MASEMOLA MM                   20221101032
T4700100001355818840100000011200SCORPION  SL-91716000000      MOTHABENG JM                  20221101032
T4700100001355818840100000011200SCORPION  SL-91716000000      MOTHABENG JM                  20221101032
T4700100001646157093100000011200SCORPION  SL-92476000000      NDLOVU M                      20221101032
T4700100001428011275100000011200SCORPION  SL-92963000000      MOTSHWENE PP                  20221101032
T4700100001245880959100000011200SCORPION  SL-92964000000      MTHEMBU AB                    20221101032
T4700100001217403122100000011200SCORPION  SL-94796000000      SEFULI KC                     20221101032
T4700100001217403122100000010300SCORPION  SL-94796000000      SEFULI KC                     20221101032
T4700100001537962564100000011200SCORPION  SL-96259000000      MASHABELA JK                  20221101032
T4700100001628943317100000011200SCORPION  SL-97203000000      BUKHALI P                     20221101032
T4700100001628943317100000011200SCORPION  SL-97203000000      BUKHALI P                     20221101032
T4700100001760502519100000017300SCORPION  SL-97840000000      MATLHONOKO A                  20221101032
T4700100001387705049100000011200SCORPION  SL-98892000000      MOKGOHLOA NS                  20221101032
T4700100001366868526100000011200SCORPION  SL-99029000000      NKABINDE NP                   20221101032
T4700100001165565909100000011200SCORPION  SL-99392000000      SMITH EL                      20221101032
T4700100001259694745100000011200SCORPION  SL-10202900000      MAZALENI LH                   20221101032
T4700100001433476108100000011200SCORPION  SL-10325900000      HOPETOWN N                    20221101032
T4700100001186517881100000011200SCORPION  SL-10361200000      MOTSHWANEDI JM                20221101032
T4700100001221563511100000011200SCORPION  SL-10443500000      MAKITLA PM                    20221101032
T4700100001148543145100000011200SCORPION  SL-10630300000      NGEMA TI                      20221101032
T4700100001663750848100000011200SCORPION  SL-10725700000      MMATA FP                      20221101032
T4700100001663750848100000011200SCORPION  SL-10725700000      MMATA FP                      20221101032
T4700100001625702610100000005600SCORPION  SL-10830900000      SAGELA JK                     20221101032
T4700100001607413130100000011200SCORPION  SL-10895600000      MADUNA C                      20221101032
T4700100001547673514100000011200SCORPION  SL-10993200000      MBANZI P                      20221101032
T4700100001165916655100000011200SCORPION  SL-11049500000      CHIRINDZA R                   20221101032
T4700100001165916655100000011200SCORPION  SL-11049500000      CHIRINDZA R                   20221101032
T4700100001345740776100000011200SCORPION  SL-11062900000      NKGADIMA LD                   20221101032
T4700100001300244583100000011200SCORPION  SL-11064200000      MOKGOTHO KH                   20221101032
T4700100001623965584100000005600SCORPION  SL-11184600000      MOTSHEGWA B                   20221101032
T4700100001546508919100000011200SCORPION  SL-11253700000      MBATHA FC                     20221101032
T4700100001203915177100000011200SCORPION  SL-11362500000      NTIMANE SM                    20221101032
T4700100001136163555100000005600SCORPION  SL-11404400000      MONDI Z                       20221101032
T4700100001503031096100000011200SCORPION  SL-11804500000      BUTSHEKE A                    20221101032
T4700100001191139601100000011200SCORPION  SL-11824700000      NKOSI E                       20221101032
T4700100001201321776100000011200SCORPION  SL-11875900000      MACWELE GS                    20221101032
T4700100001365528209100000017300SCORPION  SL-12254300000      JILI B                        20221101032
T4700100001320330205100000011200SCORPION  SL-12316000000      MOKOENA TM                    20221101032
T4700100001172811308100000011200SCORPION  SL-12401600000      BALOYI RB                     20221101032
T4700100001244588359100000011200SCORPION  SL-12449200000      MABUYA M                      20221101032
T4700100001708665143100000011200SCORPION  SL-12647900000      NXUMALO R                     20221101032
T4700100001144301813100000011200SCORPION  SL-12697500000      MOLEFE SB                     20221101032
T4700100001455393914100000011200SCORPION  SL-12995300000      MALEKA TF                     20221101032
T4700100001227837524100000011200SCORPION  SL-13005800000      MPHATHI I                     20221101032
T4700100001463752820100000011200SCORPION  SL-13069900000      CHABALALA MA                  20221101032
T4700100001232105935100000011200SCORPION  SL-13106600000      MOYO PM                       20221101032
T4700100001237370831100000011200SCORPION  SL-13146900000      SIKAMPULA L                   20221101032
T4700100001237370831100000011200SCORPION  SL-13146900000      SIKAMPULA L                   20221101032
T4700100001365955905100000011200SCORPION  SL-13252500000      MASHALA TE                    20221101032
T4700100001177739990100000011200SCORPION  SL-13330700000      MOFOKENG CP                   20221101032
T4700100001177739990100000011200SCORPION  SL-13330700000      MOFOKENG CP                   20221101032
T4700100001317205160100000011200SCORPION  SL-13342500000      TSHOTETSI J                   20221101032
T4700100001427440539100000011200SCORPION  SL-13390200000      SIONE GW                      20221101032
T4700100001398213398100000005600SCORPION  SL-13443000000      MOHOBO JM                     20221101032
T4700100001660915749100000011200SCORPION  SL-13733100000      NAILANA NS                    20221101032
T4700100001122684000100000011200SCORPION  SL-14029000000      TAUMANG M                     20221101032
T4700100001358992825100000011200SCORPION  SL-14106000000      KLAAS Z                       20221101032
T4700100001137484878100000011200SCORPION  SL-14170200000      GALEHOLE MA                   20221101032
T4700100001171410423100000011200SCORPION  SL-14703000000      MOTHUPI AM                    20221101032
T4700100001426862464100000017300SCORPION  SL-14758500000      MOKONE SM                     20221101032
T4700100001324329562100000011200SCORPION  SL-14764000000      MBATHA S                      20221101032
T4700100001117753660100000011200SCORPION  SL-14862400000      MALEME M                      20221101032
T4700100001117753660100000011200SCORPION  SL-14862400000      MALEME M                      20221101032
T4700100001185442098100000005600SCORPION  SL-14911300000      SEGOPOLO MK                   20221101032
T4700100001315246633100000011200SCORPION  SL-15043400000      MABOTJA MP                    20221101032
T4700100001319073172100000005600SCORPION  SL-15081300000      MAHAMANI D                    20221101032
T4700100001222307039100000011200SCORPION  SL-15135900000      NKHWASHU DE                   20221101032
T4700100001357784331100000011200SCORPION  SL-15250300000      MAHLANGU GG                   20221101032
T4700100001275855510100000011200SCORPION  SL-15276400000      NGOBENI JR                    20221101032
T4700100001121476986100000019700SCORPION  SL-15318300000      RAMMUTLA MD                   20221101032
T4700100001329096620100000005600SCORPION  SL-15381000000      MUSHIA AV                     20221101032
T4700100001248712321100000005600SCORPION  SL-15396600000      LUBISI S                      20221101032
T4700100001362678439100000011200SCORPION  SL-15409900000      MABUNDA MS                    20221101032
T4700100001429992725100000011200SCORPION  SL-15466800000      BUDELI RN                     20221101032
T4700100001702311463100000011200SCORPION  SL-15919600000      KAMBULE S                     20221101032
T4700100001702311463100000011200SCORPION  SL-15919600000      KAMBULE S                     20221101032
T4700100001609909141100000011200SCORPION  SL-15927200000      OLIVIER JTR                   20221101032
T4700100001537280382100000011200SCORPION  SL-15952100000      MATLAKENG D                   20221101032
T4700100001134330926100000017300SCORPION  SL-16018800000      COLVEL M                      20221101032
T4700100001669171262100000011200SCORPION  SL-16073800000      MAKUWA TJ                     20221101032
T4700100001669171262100000011200SCORPION  SL-16073800000      MAKUWA TJ                     20221101032
T4700100001365413541100000011200SCORPION  SL-16213000000      MOCWALEDI LJ                  20221101032
T4700100001183873482100000005600SCORPION  SL-16219900000      MTSHALI A                     20221101032
T4700100001471206066100000011200SCORPION  SL-16315200000      THOBEJANE EM                  20221101032
T4700100001327526903100000011200SCORPION  SL-16493100000      MOTSOENENG J                  20221101032
T4700100001321495933100000011200SCORPION  SL-16515500000      RAMBAU NCJ                    20221101032
T4700100001549634834100000011200SCORPION  SL-16585700000      BOTTOMAN M                    20221101032
T4700100001215744798100000011200SCORPION  SL-16809900000      MATHABATHE L                  20221101032
T4700100001395317044100000010900SCORPION  SL-16924300000      MTEMBO M                      20221101032
T4700100001169532681100000011200SCORPION  SL-16957400000      MBATHA KC                     20221101032
T4700100001452612313100000011200SCORPION  SL-16958600000      MARUMO RM                     20221101032
T4700100001540671109100000011200SCORPION  SL-17042900000      MASEKO W                      20221101032
T4700100001540671109100000011200SCORPION  SL-17042900000      MASEKO W                      20221101032
T4700100001526644086100000011200SCORPION  SL-17117000000      TSHABALALA MP                 20221101032
T4700100001614226022100000011200SCORPION  SL-17170600000      MOTSHABENG MJ                 20221101032
T4700100001167521372100000011200SCORPION  SL-17286900000      PHALADI JM                    20221101032
T4700100001340363680100000017300SCORPION  SL-17549100000      GOLIATH AJ                    20221101032
T4700100001251600598100000011200SCORPION  SL-17621200000      MOKOENA L                     20221101032
T4700100001409650578100000011200SCORPION  SL-17622000000      MODUNGWANA SO                 20221101032
T4700100001522040895100000005600SCORPION  SL-17687700000      MAKHUVHA F                    20221101032
T4700100001522040895100000005600SCORPION  SL-17687700000      MAKHUVHA F                    20221101032
T4700100001878351271100000011200SCORPION  SL-17757400000      GABORONE T                    20221101032
T4700100001123970813100000011200SCORPION  SL-17925800000      SEKHUTSOANYANE LJ             20221101032
T4700100001344693219100000012600SCORPION  SL-18178900000      FREEMAN SG                    20221101032
T4700100001110161717100000005600SCORPION  SL-39229460000      MAROBE PB                     20221101032
T4700100001555507164100000011200SCORPION  SL-18426400000      NGWENYA R                     20221101032
T4700100001646216081100000011200SCORPION  SL-18564600000      MARIMA J                      20221101032
T4700100001202313297100000011200SCORPION  SL-18656700000      KANAKANG K                    20221101032
T4700100001151875447100000011200SCORPION  SL-18708000000      SOKUPHA SB                    20221101032
T4700100001151875447100000011200SCORPION  SL-18708000000      SOKUPHA SB                    20221101032
T4700100001201657081100000011200SCORPION  SL-18724900000      RATIYANA BM                   20221101032
T4700100001190519532100000011200SCORPION  SL-18738200000      MDUNYISWA M                   20221101032
T4700100001524639336100000011200SCORPION  SL-18756700000      NDEBELE G                     20221101032
T4700100001113968816100000011200SCORPION  SL-18930900000      VAPHI Z                       20221101032
T4700100001482772130100000011200SCORPION  SL-19166900000      ZWANE DM                      20221101032
T4700100001506762563100000011200SCORPION  SL-19168900000      MAWELA F                      20221101032
T4700100001269451446100000011200SCORPION  SL-19304700000      MAHLANGU E                    20221101032
T4700100001559440188100000011200SCORPION  SL-19525300000      FUZAMA P                      20221101032
T4700100001371447363100000011200SCORPION  SL-19577000000      MOGOMOTSI E                   20221101032
T4700100001251512745100000011200SCORPION  SL-19718500000      MABASO M                      20221101032
T4700100001555781657100000017300SCORPION  SL-19750000000      RAMASHIA R                    20221101032
T4700100001146744267100000011200SCORPION  SL-20272900000      SIBANYONI MG                  20221101032
T4700100001293903904100000011200SCORPION  SL-20383300000      NGONYAMA IX                   20221101032
T4700100001699015757100000011200SCORPION  SL-20460100000      RASEROKA S                    20221101032
T4700100001731658190100000011200SCORPION  SL-20567100000      NKHOMA A                      20221101032
T4700100001112709655100000011200SCORPION  SL-20571700000      KGATI I                       20221101032
T4700100001252103091100000005600SCORPION  SL-20864600000      MAHLANGU LK                   20221101032
T4700100001286462426100000005600SCORPION  SL-21123000000      MANGANYI MJ                   20221101032
T4700100001745286495100000011200SCORPION  SL-21199400000      SHOZI FL                      20221101032
Z92Test0000010006142211012211050006130000000000010000065403000000000000000000846197486320
