0100000025170000002517202210270039580100000014540882810000001454088281SCORPION                                                                                                                                                                                                                                                  
0200000014540882810000002517202210270039580021356342632005000000002978660700000001120020221101SCORPION  SL-38832900000221027MOTLHALANE JM                 000002000000145408828104                                  21SCORPION  SL-388329000000CPQNQ                                                                            
0200000014540882810000002517202210270039580021356343051001000000025634740900000001120020221101SCORPION  SL-36742630000221027KHOMO M                       000002000000145408828104                                  21SCORPION  SL-367426300000CPQNR                                                                            
0200000014540882810000002517202210270039580021356344051001000000016516589800000001120020221101SCORPION  SL-19599950000221027SIMELANE SM                   000002000000145408828104                                  21SCORPION  SL-195999500000CPQNS                                                                            
0200000014540882810000002517202210270039580021356345250655000006238824948700000001260020221101SCORPION  SL-11815530000221027NKAMBULE P                    000002000000145408828104                                  21SCORPION  SL-118155300000CPQNT                                                                            
0200000014540882810000002517202210270039580021356346470010000000116431066400000001120020221101SCORPION  SL-28839830000221027NDEBELE T                     000002000000145408828104                                  21SCORPION  SL-288398300000CPQNU                                                                            
0200000014540882810000002517202210270039580021356347250655000006262062012100000001120020221101SCORPION  SL-36142780000221027DINCE T                       000002000000145408828104                                  21SCORPION  SL-361427800000CPQNV                                                                            
0200000014540882810000002517202210270039580021356348632005000000071282608800000001120020221101SCORPION  20460557000000221027CIMI L                        000002000000145408828104                                  21SCORPION  204605570000000CPQNW                                                                            
0200000014540882810000002517202210270039580021356349470010000000141473135100000001730020221101SCORPION  20460627000000221027JACOBS W                      000002000000145408828104                                  21SCORPION  204606270000000CPQNX                                                                            
0200000014540882810000002517202210270039580021356350250655000005060011774700000000560020221101SCORPION  SL-39610000000221027RAMOKGOPA T                   000002000000145408828104                                  21SCORPION  SL-396100000000CPQNY                                                                            
0200000014540882810000002517202210270039580021356351051001000000008020885100000001120020221101SCORPION  SL-20338500000221027NDIMBA M                      000002000000145408828104                                  21SCORPION  SL-203385000000CPQNZ                                                                            
0200000014540882810000002517202210270039580021356352051001000000040253572300000001120020221101SCORPION  SL-89440900000221027KATE MM                       000002000000145408828104                                  21SCORPION  SL-894409000000CPQO0                                                                            
0200000014540882810000002517202210270039580021356353632005000000620201431000000001120020221101SCORPION  SL-13908680000221027BHENGU F                      000002000000145408828104                                  21SCORPION  SL-139086800000CPQO1                                                                            
0200000014540882810000002517202210270039580021356354051001000000016611925300000001120020221101SCORPION  SL-19883960000221027HLWATIKA SS                   000002000000145408828104                                  21SCORPION  SL-198839600000CPQO2                                                                            
0200000014540882810000002517202210270039580021356355198765000000105606309200000001120020221101SCORPION  SL-39984070000221027BENELWA X                     000002000000145408828104                                  21SCORPION  SL-399840700000CPQO3                                                                            
0200000014540882810000002517202210270039580021356356198765000000105606309200000001120020221101SCORPION  SL-39984070000221027BENELWA X                     000002000000145408828104                                  21SCORPION  SL-399840700000CPQO4                                                                            
0200000014540882810000002517202210270039580021356357470010000000133202667000000001120020221101SCORPION  SL-11480550000221027MATLOU R                      000002000000145408828104                                  21SCORPION  SL-114805500000CPQO5                                                                            
0200000014540882810000002517202210270039580021356358470010000000129358894400000001030020221101SCORPION  20452901000000221027NDLOVU M                      000002000000145408828104                                  21SCORPION  204529010000000CPQO6                                                                            
0200000014540882810000002517202210270039580021356359250655000005224002041300000001120020221101SCORPION  SL-12142100000221027MUKOYO PH                     000002000000145408828104                                  21SCORPION  SL-121421000000CPQO7                                                                            
0200000014540882810000002517202210270039580021356360198765000000105878859000000000560020221101SCORPION  SL-34847950000221027MOLOABI ME                    000002000000145408828104                                  21SCORPION  SL-348479500000CPQO8                                                                            
0200000014540882810000002517202210270039580021356361470010000000139936081500000001120020221101SCORPION  SL-33066520000221027MODISE T                      000002000000145408828104                                  21SCORPION  SL-330665200000CPQO9                                                                            
0200000014540882810000002517202210270039580021356362632005000000062985607200000001120020221101SCORPION  SL-19635870000221027SAMBO NT                      000002000000145408828104                                  21SCORPION  SL-196358700000CPQOA                                                                            
0200000014540882810000002517202210270039580021356363051001000001002606977400000001120020221101SCORPION  SL-69353200000221027MOTATA K                      000002000000145408828104                                  21SCORPION  SL-693532000000CPQOB                                                                            
0200000014540882810000002517202210270039580021356364250655000006043509027400000001120020221101SCORPION  SL-51868700000221027MPUNZI MP                     000002000000145408828104                                  21SCORPION  SL-518687000000CPQOC                                                                            
0200000014540882810000002517202210270039580021356365470010000000117839428800000001120020221101SCORPION  SL-71480900000221027DUMISA VM                     000002000000145408828104                                  21SCORPION  SL-714809000000CPQOD                                                                            
0200000014540882810000002517202210270039580021356366250655000006267168540500000001120020221101SCORPION  SL-37364760000221027MYLES E                       000002000000145408828104                                  21SCORPION  SL-373647600000CPQOE                                                                            
0200000014540882810000002517202210270039580021356367632005000000915302234800000001120020221101SCORPION  SL-25915680000221027MUKHARI D                     000002000000145408828104                                  21SCORPION  SL-259156800000CPQOF                                                                            
0200000014540882810000002517202210270039580021356368250655000006238414819600000001120020221101SCORPION  SL-12403070000221027MFUKULI IN                    000002000000145408828104                                  21SCORPION  SL-124030700000CPQOG                                                                            
0200000014540882810000002517202210270039580021356369051001000000014445059300000001120020221101SCORPION  SL-20738510000221027KUMALO N                      000002000000145408828104                                  21SCORPION  SL-207385100000CPQOH                                                                            
0200000014540882810000002517202210270039580021356370470010000000112225679300000001120020221101SCORPION  SL-67850100000221027BANDA J                       000002000000145408828104                                  21SCORPION  SL-678501000000CPQOI                                                                            
0200000014540882810000002517202210270039580021356371632005000003800432078300000001120020221101SCORPION  SL-38432090000221027LOTTERING LRH                 000002000000145408828104                                  21SCORPION  SL-384320900000CPQOJ                                                                            
0200000014540882810000002517202210270039580021356372470010000000123116187400000001120020221101SCORPION  SL-38595990000221027MODISE LT                     000002000000145408828104                                  21SCORPION  SL-385959900000CPQOK                                                                            
0200000014540882810000002517202210270039580021356373470010000000123116187400000001120020221101SCORPION  SL-38595990000221027MODISE LT                     000002000000145408828104                                  21SCORPION  SL-385959900000CPQOL                                                                            
0200000014540882810000002517202210270039580021356374470010000000116362735400000001120020221101SCORPION  SL-22767300000221027JUJUJU M                      000002000000145408828104                                  21SCORPION  SL-227673000000CPQOM                                                                            
0200000014540882810000002517202210270039580021356375470010000000116362735400000001120020221101SCORPION  SL-22767300000221027JUJUJU M                      000002000000145408828104                                  21SCORPION  SL-227673000000CPQON                                                                            
0200000014540882810000002517202210270039580021356376632005000000406056533300000001120020221101SCORPION  SL-18077670000221027SHABANGU EZ                   000002000000145408828104                                  21SCORPION  SL-180776700000CPQOO                                                                            
0200000014540882810000002517202210270039580021356377632005000000081928017700000001120020221101SCORPION  SL-30879270000221027DIKANA KA                     000002000000145408828104                                  21SCORPION  SL-308792700000CPQOP                                                                            
0200000014540882810000002517202210270039580021356378632005000000905774629200000001730020221101SCORPION  20530480000000221027MABIZELA O                    000002000000145408828104                                  21SCORPION  205304800000000CPQOQ                                                                            
0200000014540882810000002517202210270039580021356379632005000000293014526500000001120020221101SCORPION  SL-30117000000221027MOKGATHLE O                   000002000000145408828104                                  21SCORPION  SL-301170000000CPQOR                                                                            
0200000014540882810000002517202210270039580021356380051001000000033054350400000001040020221101SCORPION  SL-31401580000221027MOFOKENG N                    000002000000145408828104                                  21SCORPION  SL-314015800000CPQOS                                                                            
0200000014540882810000002517202210270039580021356381632005000000406825084500000001030020221101SCORPION  20444209000000221027MOREMI P                      000002000000145408828104                                  21SCORPION  204442090000000CPQOT                                                                            
0200000014540882810000002517202210270039580021356382632005000000917224316100000001120020221101SCORPION  SL-19260420000221027MKWANAZI J                    000002000000145408828104                                  21SCORPION  SL-192604200000CPQOU                                                                            
0200000014540882810000002517202210270039580021356383632005000000904268045500000001120020221101SCORPION  SL-39244410000221027MOTSHWENI E                   000002000000145408828104                                  21SCORPION  SL-392444100000CPQOV                                                                            
0200000014540882810000002517202210270039580021356384470010000000111149945200000001120020221101SCORPION  SL-36296870000221027MADISHA A                     000002000000145408828104                                  21SCORPION  SL-362968700000CPQOW                                                                            
0200000014540882810000002517202210270039580021356385470010000000124844271500000001120020221101SCORPION  20494320000000221027BOSHIELO E                    000002000000145408828104                                  21SCORPION  204943200000000CPQOX                                                                            
0200000014540882810000002517202210270039580021356386470010000000124844271500000000560020221101SCORPION  SL-39778230000221027BOSHIELO E                    000002000000145408828104                                  21SCORPION  SL-397782300000CPQOY                                                                            
0200000014540882810000002517202210270039580021356387632005000000126817316800000000560020221101SCORPION  SL-37481980000221027SEALE J                       000002000000145408828104                                  21SCORPION  SL-374819800000CPQOZ                                                                            
0200000014540882810000002517202210270039580021356388250655000005939116782100000001120020221101SCORPION  SL-13949290000221027BODIBE MP                     000002000000145408828104                                  21SCORPION  SL-139492900000CPQP0                                                                            
0200000014540882810000002517202210270039580021356389632005000000406869925500000001120020221101SCORPION  SL-11930270000221027KOLA WM                       000002000000145408828104                                  21SCORPION  SL-119302700000CPQP1                                                                            
0200000014540882810000002517202210270039580021356390632005000000915831228100000001120020221101SCORPION  SL-38713330000221027METHULA E                     000002000000145408828104                                  21SCORPION  SL-387133300000CPQP2                                                                            
0200000014540882810000002517202210270039580021356391250655000005939002179700000001120020221101SCORPION  SL-17806300000221027MONEI TME                     000002000000145408828104                                  21SCORPION  SL-178063000000CPQP3                                                                            
0200000014540882810000002517202210270039580021356392632005000003801294053700000001120020221101SCORPION  20486494000000221027BINDEMAN J                    000002000000145408828104                                  21SCORPION  204864940000000CPQP4                                                                            
0200000014540882810000002517202210270039580021356393632005000003801294053700000001030020221101SCORPION  SL-20408489000221027BINDEMAN J                    000002000000145408828104                                  21SCORPION  SL-204084890000CPQP5                                                                            
0200000014540882810000002517202210270039580021356394632005000000902789273500000001120020221101SCORPION  SL-22146050000221027MALGAS Z                      000002000000145408828104                                  21SCORPION  SL-221460500000CPQP6                                                                            
0200000014540882810000002517202210270039580021356395051001000000025297957500000001120020221101SCORPION  SL-29442910000221027MBHELE MC                     000002000000145408828104                                  21SCORPION  SL-294429100000CPQP7                                                                            
0200000014540882810000002517202210270039580021356396250655000005271002277500000001120020221101SCORPION  SL-13016610000221027MONA WN                       000002000000145408828104                                  21SCORPION  SL-130166100000CPQP8                                                                            
0200000014540882810000002517202210270039580021356397632005000000906901367300000001120020221101SCORPION  SL-14412100000221027MOYO OM                       000002000000145408828104                                  21SCORPION  SL-144121000000CPQP9                                                                            
0200000014540882810000002517202210270039580021356398632005000000404725949400000001400020221101SCORPION  SL-37612270000221027SOLAI GK                      000002000000145408828104                                  21SCORPION  SL-376122700000CPQPA                                                                            
0200000014540882810000002517202210270039580021356399470010000000111529809500000001120020221101SCORPION  SL-22735500000221027NGCOBO BD                     000002000000145408828104                                  21SCORPION  SL-227355000000CPQPB                                                                            
0200000014540882810000002517202210270039580021356400470010000000120467519600000001120020221101SCORPION  20525037000000221027DE BRUIN J                    000002000000145408828104                                  21SCORPION  205250370000000CPQPC                                                                            
0200000014540882810000002517202210270039580021356401250655000006233076017600000001120020221101SCORPION  SL-37860340000221027PHALADI SH                    000002000000145408828104                                  21SCORPION  SL-378603400000CPQPD                                                                            
0200000014540882810000002517202210270039580021356402250655000006206736085100000001120020221101SCORPION  20537427000000221027MTETO Z                       000002000000145408828104                                  21SCORPION  205374270000000CPQPE                                                                            
0200000014540882810000002517202210270039580021356403470010000000146467068200000001120020221101SCORPION  20523718000000221027SELALA M                      000002000000145408828104                                  21SCORPION  205237180000000CPQPF                                                                            
0200000014540882810000002517202210270039580021356404470010000000123615446900000001120020221101SCORPION  SL-26874460000221027MOSALA K                      000002000000145408828104                                  21SCORPION  SL-268744600000CPQPG                                                                            
0200000014540882810000002517202210270039580021356405470010000000113630197400000001120020221101SCORPION  SL-38916040000221027HANS LA                       000002000000145408828104                                  21SCORPION  SL-389160400000CPQPH                                                                            
0200000014540882810000002517202210270039580021356406470010000000113630197400000001120020221101SCORPION  SL-38916040000221027HANS LA                       000002000000145408828104                                  21SCORPION  SL-389160400000CPQPI                                                                            
0200000014540882810000002517202210270039580021356407632005000000282968150400000001120020221101SCORPION  SL-50993100000221027LENONG M                      000002000000145408828104                                  21SCORPION  SL-509931000000CPQPJ                                                                            
0200000014540882810000002517202210270039580021356408632005000000907419417300000001120020221101SCORPION  SL-12638930000221027NYONDO N                      000002000000145408828104                                  21SCORPION  SL-126389300000CPQPK                                                                            
0200000014540882810000002517202210270039580021356409470010000000111829493700000001120020221101SCORPION  SL-12944920000221027LEHUMANEGO S                  000002000000145408828104                                  21SCORPION  SL-129449200000CPQPL                                                                            
0200000014540882810000002517202210270039580021356410632005000000930833848100000001120020221101SCORPION  SL-73511000000221027MTSHEMLA GB                   000002000000145408828104                                  21SCORPION  SL-735110000000CPQPM                                                                            
0200000014540882810000002517202210270039580021356411051001000000024169898700000000560020221101SCORPION  SL-39685460000221027JURETIC D                     000002000000145408828104                                  21SCORPION  SL-396854600000CPQPN                                                                            
0200000014540882810000002517202210270039580021356412198765000000100512796400000001730020221101SCORPION  SL-36900870000221027SCOPETTI CE                   000002000000145408828104                                  21SCORPION  SL-369008700000CPQPO                                                                            
0200000014540882810000002517202210270039580021356413198765000000105002968200000001120020221101SCORPION  20488788000000221027NDZOTYANA S                   000002000000145408828104                                  21SCORPION  204887880000000CPQPP                                                                            
0200000014540882810000002517202210270039580021356414198765000000101384311800000001120020221101SCORPION  20493513000000221027NKUNA L                       000002000000145408828104                                  21SCORPION  204935130000000CPQPQ                                                                            
0200000014540882810000002517202210270039580021356415198765000000101384311800000001120020221101SCORPION  SL-99317000000221027NKUNA L                       000002000000145408828104                                  21SCORPION  SL-993170000000CPQPR                                                                            
0200000014540882810000002517202210270039580021356416470010000000119781915900000001120020221101SCORPION  SL-22166270000221027NKUMBI N                      000002000000145408828104                                  21SCORPION  SL-221662700000CPQPS                                                                            
0200000014540882810000002517202210270039580021356417470010000000134669648700000001120020221101SCORPION  SL-38322760000221027BANGANI FO                    000002000000145408828104                                  21SCORPION  SL-383227600000CPQPT                                                                            
0200000014540882810000002517202210270039580021356418198765000000238151851700000001120020221101SCORPION  SL-39088820000221027SHA M                         000002000000145408828104                                  21SCORPION  SL-390888200000CPQPU                                                                            
0200000014540882810000002517202210270039580021356419198765000000240700702600000001120020221101SCORPION  SL-39552450000221027MOFOKENG T                    000002000000145408828104                                  21SCORPION  SL-395524500000CPQPV                                                                            
0200000014540882810000002517202210270039580021356420632005000005301402256100000001120020221101SCORPION  SL-36298330000221027KEPEYI A                      000002000000145408828104                                  21SCORPION  SL-362983300000CPQPW                                                                            
0200000014540882810000002517202210270039580021356421470010000000118026492200000001120020221101SCORPION  20483525000000221027MOGALE D                      000002000000145408828104                                  21SCORPION  204835250000000CPQPX                                                                            
0200000014540882810000002517202210270039580021356422470010000000120347493600000001120020221101SCORPION  SL-37578940000221027KHOTLE T                      000002000000145408828104                                  21SCORPION  SL-375789400000CPQPY                                                                            
0200000014540882810000002517202210270039580021356423470010000000120347493600000001120020221101SCORPION  SL-37578940000221027KHOTLE T                      000002000000145408828104                                  21SCORPION  SL-375789400000CPQPZ                                                                            
0200000014540882810000002517202210270039580021356424470010000000113970058600000001120020221101SCORPION  SL-15083930000221027THUBISI O                     000002000000145408828104                                  21SCORPION  SL-150839300000CPQQ0                                                                            
0200000014540882810000002517202210270039580021356425051001000000008262200000000000560020221101SCORPION  SL-37160890000221027OLIPHANT N                    000002000000145408828104                                  21SCORPION  SL-371608900000CPQQ1                                                                            
0200000014540882810000002517202210270039580021356426632005000000916695305900000001120020221101SCORPION  SL-25108900000221027NKANI M                       000002000000145408828104                                  21SCORPION  SL-251089000000CPQQ2                                                                            
0200000014540882810000002517202210270039580021356427752324000000002316496600000001120020221101SCORPION  SL-15459850000221027JOBE V                        000002000000145408828104                                  21SCORPION  SL-154598500000CPQQ3                                                                            
0200000014540882810000002517202210270039580021356428632005000000407834288600000001120020221101SCORPION  SL-29048490000221027MOKOENA K                     000002000000145408828104                                  21SCORPION  SL-290484900000CPQQ4                                                                            
0200000014540882810000002517202210270039580021356429250655000006208185143000000001120020221101SCORPION  20528553000000221027DE KOKER M                    000002000000145408828104                                  21SCORPION  205285530000000CPQQ5                                                                            
0200000014540882810000002517202210270039580021356430632005000000001538822600000001120020221101SCORPION  SL-25733440000221027SIMANI SUKA N                 000002000000145408828104                                  21SCORPION  SL-257334400000CPQQ6                                                                            
0200000014540882810000002517202210270039580021356431632005000000001538822600000001120020221101SCORPION  SL-25733440000221027SIMANI SUKA N                 000002000000145408828104                                  21SCORPION  SL-257334400000CPQQ7                                                                            
0200000014540882810000002517202210270039580021356432470010000000118260608100000001030020221101SCORPION  SL-20861270000221027MOKHUTSOANE K                 000002000000145408828104                                  21SCORPION  SL-208612700000CPQQ8                                                                            
0200000014540882810000002517202210270039580021356433250655000005046004535200000001120020221101SCORPION  SL-27821100000221027TSIENYANE CSA                 000002000000145408828104                                  21SCORPION  SL-278211000000CPQQ9                                                                            
0200000014540882810000002517202210270039580021356434470010000000149103043500000000530020221101SCORPION  SL-31015950000221027SEETELO M                     000002000000145408828104                                  21SCORPION  SL-310159500000CPQQA                                                                            
0200000014540882810000002517202210270039580021356435198765000000103971364500000001030020221101SCORPION  SL-20407718000221027MBOPHA NL                     000002000000145408828104                                  21SCORPION  SL-204077180000CPQQB                                                                            
0200000014540882810000002517202210270039580021356436632005000000907486449500000001030020221101SCORPION  SL-20406031000221027LUKHELE FW                    000002000000145408828104                                  21SCORPION  SL-204060310000CPQQC                                                                            
0200000014540882810000002517202210270039580021356437632005000000907486449500000001030020221101SCORPION  SL-20406031000221027LUKHELE FW                    000002000000145408828104                                  21SCORPION  SL-204060310000CPQQD                                                                            
0200000014540882810000002517202210270039580021356438250655000006255246367300000001120020221101SCORPION  SL-39044720000221027MASCHER A                     000002000000145408828104                                  21SCORPION  SL-390447200000CPQQE                                                                            
0200000014540882810000002517202210270039580021356439470010000000149940080000000001120020221101SCORPION  SL-37837530000221027SEBELA M                      000002000000145408828104                                  21SCORPION  SL-378375300000CPQQF                                                                            
0200000014540882810000002517202210270039580021356440632005000000407832692300000001120020221101SCORPION  SL-16587050000221027FILANDER K                    000002000000145408828104                                  21SCORPION  SL-165870500000CPQQG                                                                            
0200000014540882810000002517202210270039580021356441462005000000447960230100000001120020221101SCORPION  20533874000000221027KUHN J                        000002000000145408828104                                  21SCORPION  205338740000000CPQQH                                                                            
0200000014540882810000002517202210270039580021356442051001000000023350044800000001120020221101SCORPION  SL-39943110000221027LEMUEL V                      000002000000145408828104                                  21SCORPION  SL-399431100000CPQQI                                                                            
0200000014540882810000002517202210270039580021356443051001000000023350044800000001120020221101SCORPION  SL-39943110000221027LEMUEL V                      000002000000145408828104                                  21SCORPION  SL-399431100000CPQQJ                                                                            
0200000014540882810000002517202210270039580021356444470010000000130181414600000001120020221101SCORPION  SL-21055930000221027SIYEPHU T                     000002000000145408828104                                  21SCORPION  SL-210559300000CPQQK                                                                            
0200000014540882810000002517202210270039580021356445470010000000120889603000000001120020221101SCORPION  SL-12502700000221027BOJANG GE                     000002000000145408828104                                  21SCORPION  SL-125027000000CPQQL                                                                            
0200000014540882810000002517202210270039580021356446250655000006205270314900000001120020221101SCORPION  SL-17558930000221027MATSEPE T                     000002000000145408828104                                  21SCORPION  SL-175589300000CPQQM                                                                            
0200000014540882810000002517202210270039580021356447470010000000126923389900000001120020221101SCORPION  SL-39214760000221027TITUS E                       000002000000145408828104                                  21SCORPION  SL-392147600000CPQQN                                                                            
0200000014540882810000002517202210270039580021356448632005000000912974754400000001120020221101SCORPION  20466004000000221027CONRADIE C                    000002000000145408828104                                  21SCORPION  204660040000000CPQQO                                                                            
0200000014540882810000002517202210270039580021356449470010000000145326654000000001120020221101SCORPION  20480469000000221027NKAMBULE M                    000002000000145408828104                                  21SCORPION  204804690000000CPQQP                                                                            
0200000014540882810000002517202210270039580021356450470010000000117522209500000001030020221101SCORPION  20455266000000221027TYOKOLO M                     000002000000145408828104                                  21SCORPION  204552660000000CPQQQ                                                                            
0200000014540882810000002517202210270039580021356451470010000000133281545400000001120020221101SCORPION  SL-20181320000221027SWARTZ HF                     000002000000145408828104                                  21SCORPION  SL-201813200000CPQQR                                                                            
0200000014540882810000002517202210270039580021356452470010000000118176003600000001120020221101SCORPION  SL-39797790000221027EBRAHIM F                     000002000000145408828104                                  21SCORPION  SL-397977900000CPQQS                                                                            
0200000014540882810000002517202210270039580021356453250655000005295002089400000001120020221101SCORPION  SL-32971900000221027BOSHIELO SA                   000002000000145408828104                                  21SCORPION  SL-329719000000CPQQT                                                                            
0200000014540882810000002517202210270039580021356454250655000006029903980600000001120020221101SCORPION  SL-75011300000221027HLONGWANE BS                  000002000000145408828104                                  21SCORPION  SL-750113000000CPQQU                                                                            
0200000014540882810000002517202210270039580021356455250655000006029903980600000001120020221101SCORPION  SL-36479110000221027HLONGWANE BS                  000002000000145408828104                                  21SCORPION  SL-364791100000CPQQV                                                                            
0200000014540882810000002517202210270039580021356456051001000000025227285400000001120020221101SCORPION  SL-21114850000221027MABETSHE ZM                   000002000000145408828104                                  21SCORPION  SL-211148500000CPQQW                                                                            
0200000014540882810000002517202210270039580021356457470010000000118952853100000000560020221101SCORPION  SL-16695040000221027ERASMUS E                     000002000000145408828104                                  21SCORPION  SL-166950400000CPQQX                                                                            
0200000014540882810000002517202210270039580021356458051001000000033447111700000001120020221101SCORPION  SL-24968600000221027BOLO NV                       000002000000145408828104                                  21SCORPION  SL-249686000000CPQQY                                                                            
0200000014540882810000002517202210270039580021356459632005000000930402869000000001120020221101SCORPION  SL-40115860000221027SIBANDE J                     000002000000145408828104                                  21SCORPION  SL-401158600000CPQQZ                                                                            
0200000014540882810000002517202210270039580021356460470010000000140237411700000001120020221101SCORPION  SL-20361700000221027NTSEUOA L                     000002000000145408828104                                  21SCORPION  SL-203617000000CPQR0                                                                            
0200000014540882810000002517202210270039580021356461051001000001001215783800000001120020221101SCORPION  SL-23960350000221027MAZIBUKO S                    000002000000145408828104                                  21SCORPION  SL-239603500000CPQR1                                                                            
0200000014540882810000002517202210270039580021356462470010000000111583554600000001120020221101SCORPION  SL-37918860000221027JANSEN I                      000002000000145408828104                                  21SCORPION  SL-379188600000CPQR2                                                                            
0200000014540882810000002517202210270039580021356463051001000000003068301700000001030020221101SCORPION  SL-20407320000221027MFUSI MT                      000002000000145408828104                                  21SCORPION  SL-204073200000CPQR3                                                                            
0200000014540882810000002517202210270039580021356464470010000000137855886100000001120020221101SCORPION  SL-69552100000221027LEREKWANG F                   000002000000145408828104                                  21SCORPION  SL-695521000000CPQR4                                                                            
0200000014540882810000002517202210270039580021356465470010000000118630292300000001030020221101SCORPION  SL-92990100000221027TSHABI S                      000002000000145408828104                                  21SCORPION  SL-929901000000CPQR5                                                                            
0200000014540882810000002517202210270039580021356466470010000000118630292300000001030020221101SCORPION  SL-92990100000221027TSHABI S                      000002000000145408828104                                  21SCORPION  SL-929901000000CPQR6                                                                            
0200000014540882810000002517202210270039580021356467470010000000135660435600000001120020221101SCORPION  SL-35175070000221027DILIMA N                      000002000000145408828104                                  21SCORPION  SL-351750700000CPQR7                                                                            
0200000014540882810000002517202210270039580021356468051001000000002313306600000001120020221101SCORPION  20524894000000221027RAMOCHELE MC                  000002000000145408828104                                  21SCORPION  205248940000000CPQR8                                                                            
0200000014540882810000002517202210270039580021356469470010000000138184872700000001120020221101SCORPION  SL-38516610000221027NYALAMBISA P                  000002000000145408828104                                  21SCORPION  SL-385166100000CPQR9                                                                            
0200000014540882810000002517202210270039580021356470470010000000151932268000000001120020221101SCORPION  SL-40092200000221027SEPTEMBER A                   000002000000145408828104                                  21SCORPION  SL-400922000000CPQRA                                                                            
0200000014540882810000002517202210270039580021356471470010000000151932268000000001120020221101SCORPION  SL-40092200000221027SEPTEMBER A                   000002000000145408828104                                  21SCORPION  SL-400922000000CPQRB                                                                            
0200000014540882810000002517202210270039580021356472250655000005135006860200000001120020221101SCORPION  SL-35886110000221027DAVIDS L                      000002000000145408828104                                  21SCORPION  SL-358861100000CPQRC                                                                            
0200000014540882810000002517202210270039580021356473250655000005005002100100000001120020221101SCORPION  SL-34831480000221027MQAMELO M                     000002000000145408828104                                  21SCORPION  SL-348314800000CPQRD                                                                            
0200000014540882810000002517202210270039580021356474632005000000011082531500000000560020221101SCORPION  SL-22324240000221027MBHELE M                      000002000000145408828104                                  21SCORPION  SL-223242400000CPQRE                                                                            
0200000014540882810000002517202210270039580021356475632005000000909506790700000001120020221101SCORPION  SL-34911410000221027PIETERSE R                    000002000000145408828104                                  21SCORPION  SL-349114100000CPQRF                                                                            
0200000014540882810000002517202210270039580021356476051001000000018101690700000001120020221101SCORPION  SL-21629440000221027MKETILE M                     000002000000145408828104                                  21SCORPION  SL-216294400000CPQRG                                                                            
0200000014540882810000002517202210270039580021356477051001000000033242103100000001120020221101SCORPION  SL-32226830000221027AFRICA PL                     000002000000145408828104                                  21SCORPION  SL-322268300000CPQRH                                                                            
0200000014540882810000002517202210270039580021356478632005000000912075950800000001120020221101SCORPION  SL-29334430000221027MAKUNKE SM                    000002000000145408828104                                  21SCORPION  SL-293344300000CPQRI                                                                            
0200000014540882810000002517202210270039580021356479470010000000118835054200000001120020221101SCORPION  SL-35307660000221027MAMBA P                       000002000000145408828104                                  21SCORPION  SL-353076600000CPQRJ                                                                            
0200000014540882810000002517202210270039580021356480470010000000136383815400000001120020221101SCORPION  SL-12597750000221027PETER L                       000002000000145408828104                                  21SCORPION  SL-125977500000CPQRK                                                                            
0200000014540882810000002517202210270039580021356481470010000000114122288200000001120020221101SCORPION  SL-52306000000221027RATHEBE Z                     000002000000145408828104                                  21SCORPION  SL-523060000000CPQRL                                                                            
0200000014540882810000002517202210270039580021356482470010000000114122288200000001120020221101SCORPION  SL-52306000000221027RATHEBE Z                     000002000000145408828104                                  21SCORPION  SL-523060000000CPQRM                                                                            
0200000014540882810000002517202210270039580021356483198765000000215836600100000001730020221101SCORPION  SL-39750650000221027VAN DER WATT M                000002000000145408828104                                  21SCORPION  SL-397506500000CPQRN                                                                            
0200000014540882810000002517202210270039580021356484470010000000115744756000000001120020221101SCORPION  SL-23743850000221027XIMBA L                       000002000000145408828104                                  21SCORPION  SL-237438500000CPQRO                                                                            
0200000014540882810000002517202210270039580021356485250655000006224551664800000001120020221101SCORPION  SL-39744460000221027WILLEMSE C                    000002000000145408828104                                  21SCORPION  SL-397444600000CPQRP                                                                            
0200000014540882810000002517202210270039580021356486250655000006260249388500000000560020221101SCORPION  20525658000000221027LESUFI L                      000002000000145408828104                                  21SCORPION  205256580000000CPQRQ                                                                            
0200000014540882810000002517202210270039580021356487250655000006214186400000000001120020221101SCORPION  20464460000000221027SIMBA L                       000002000000145408828104                                  21SCORPION  204644600000000CPQRR                                                                            
0200000014540882810000002517202210270039580021356488470010000000114259292600000001120020221101SCORPION  SL-27134730000221027GILBERT D                     000002000000145408828104                                  21SCORPION  SL-271347300000CPQRS                                                                            
0200000014540882810000002517202210270039580021356489632005000000405567860000000001030020221101SCORPION  SL-20405585000221027MOKONE ML                     000002000000145408828104                                  21SCORPION  SL-204055850000CPQRT                                                                            
0200000014540882810000002517202210270039580021356490632005000000012297693900000001120020221101SCORPION  SL-34827510000221027MANGENA MM                    000002000000145408828104                                  21SCORPION  SL-348275100000CPQRU                                                                            
0200000014540882810000002517202210270039580021356491198765000000107086268100000000530020221101SCORPION  20429839000000221027MSOMI N                       000002000000145408828104                                  21SCORPION  204298390000000CPQRV                                                                            
0200000014540882810000002517202210270039580021356492470010000000121824809000000001120020221101SCORPION  SL-28260520000221027MORAKE R                      000002000000145408828104                                  21SCORPION  SL-282605200000CPQRW                                                                            
0200000014540882810000002517202210270039580021356493051001000000014430423600000001030020221101SCORPION  20414071000000221027MAJO G                        000002000000145408828104                                  21SCORPION  204140710000000CPQRX                                                                            
0200000014540882810000002517202210270039580021356494470010000000113491177500000001120020221101SCORPION  SL-39838840000221027LETIMILE M                    000002000000145408828104                                  21SCORPION  SL-398388400000CPQRY                                                                            
0200000014540882810000002517202210270039580021356495470010000000142467571300000001120020221101SCORPION  20491183000000221027MAEYANE F                     000002000000145408828104                                  21SCORPION  204911830000000CPQRZ                                                                            
0200000014540882810000002517202210270039580021356496470010000000137319374100000001120020221101SCORPION  SL-66319600000221027THOMAS F                      000002000000145408828104                                  21SCORPION  SL-663196000000CPQS0                                                                            
0200000014540882810000002517202210270039580021356497470010000000137319374100000001120020221101SCORPION  SL-66319600000221027THOMAS F                      000002000000145408828104                                  21SCORPION  SL-663196000000CPQS1                                                                            
0200000014540882810000002517202210270039580021356498470010000000118852908900000001120020221101SCORPION  SL-22804970000221027TSHOSHANE M                   000002000000145408828104                                  21SCORPION  SL-228049700000CPQS2                                                                            
0200000014540882810000002517202210270039580021356499470010000000118852908900000001120020221101SCORPION  SL-22804970000221027TSHOSHANE M                   000002000000145408828104                                  21SCORPION  SL-228049700000CPQS3                                                                            
0200000014540882810000002517202210270039580021356500051001000000067498331900000001120020221101SCORPION  SL-28579640000221027MADUNA T                      000002000000145408828104                                  21SCORPION  SL-285796400000CPQS4                                                                            
0200000014540882810000002517202210270039580021356501470010000000133798664800000001120020221101SCORPION  SL-37614420000221027MKIVA L                       000002000000145408828104                                  21SCORPION  SL-376144200000CPQS5                                                                            
0200000014540882810000002517202210270039580021356502470010000000127590020600000001120020221101SCORPION  SL-34379960000221027MOKOPANELA GJ                 000002000000145408828104                                  21SCORPION  SL-343799600000CPQS6                                                                            
0200000014540882810000002517202210270039580021356503051001000000025174965700000001120020221101SCORPION  SL-17355700000221027SEKONYA M                     000002000000145408828104                                  21SCORPION  SL-173557000000CPQS7                                                                            
0200000014540882810000002517202210270039580021356504470010000000114259463500000001120020221101SCORPION  SL-39375190000221027SESEDINYANE M                 000002000000145408828104                                  21SCORPION  SL-393751900000CPQS8                                                                            
0200000014540882810000002517202210270039580021356505470010000000114259463500000001120020221101SCORPION  SL-39375190000221027SESEDINYANE M                 000002000000145408828104                                  21SCORPION  SL-393751900000CPQS9                                                                            
0200000014540882810000002517202210270039580021356506470010000000113728014800000001120020221101SCORPION  SL-74093000000221027SEKELE J                      000002000000145408828104                                  21SCORPION  SL-740930000000CPQSA                                                                            
0200000014540882810000002517202210270039580021356507250655000005210002519900000001730020221101SCORPION  20509580000000221027NGOBENI J                     000002000000145408828104                                  21SCORPION  205095800000000CPQSB                                                                            
0200000014540882810000002517202210270039580021356508632005000000409140887300000001120020221101SCORPION  SL-85919400000221027NKOSI M                       000002000000145408828104                                  21SCORPION  SL-859194000000CPQSC                                                                            
0200000014540882810000002517202210270039580021356509250655000006238424146100000001120020221101SCORPION  SL-36700400000221027MUDAU L                       000002000000145408828104                                  21SCORPION  SL-367004000000CPQSD                                                                            
0200000014540882810000002517202210270039580021356510632005000000916750702700000001120020221101SCORPION  SL-37920740000221027BOTHA T                       000002000000145408828104                                  21SCORPION  SL-379207400000CPQSE                                                                            
0200000014540882810000002517202210270039580021356511632005000000916750702700000001120020221101SCORPION  SL-38589100000221027BOTHA T                       000002000000145408828104                                  21SCORPION  SL-385891000000CPQSF                                                                            
0200000014540882810000002517202210270039580021356512198765000000102756137300000001120020221101SCORPION  SL-32595100000221027ERASMUS A                     000002000000145408828104                                  21SCORPION  SL-325951000000CPQSG                                                                            
0200000014540882810000002517202210270039580021356513470010000000122372126200000001030020221101SCORPION  SL-20407517000221027MATHIBELI C                   000002000000145408828104                                  21SCORPION  SL-204075170000CPQSH                                                                            
0200000014540882810000002517202210270039580021356514632005000000908890040500000000560020221101SCORPION  20513303000000221027NTAMO N                       000002000000145408828104                                  21SCORPION  205133030000000CPQSI                                                                            
0200000014540882810000002517202210270039580021356515051001000000008197438800000001120020221101SCORPION  SL-40231570000221027JULIUS NC                     000002000000145408828104                                  21SCORPION  SL-402315700000CPQSJ                                                                            
0200000014540882810000002517202210270039580021356516470010000000132129478400000000530020221101SCORPION  SL-62827300000221027MACHABA P                     000002000000145408828104                                  21SCORPION  SL-628273000000CPQSK                                                                            
0200000014540882810000002517202210270039580021356517198765000000109173976500000001120020221101SCORPION  20540728000000221027XABA D                        000002000000145408828104                                  21SCORPION  205407280000000CPQSL                                                                            
0200000014540882810000002517202210270039580021356518250655000006263631204300000001730020221101SCORPION  SL-35479140000221027BACKHOFF G                    000002000000145408828104                                  21SCORPION  SL-354791400000CPQSM                                                                            
0200000014540882810000002517202210270039580021356519632005000000071327571900000001120020221101SCORPION  SL-19899410000221027NKOSI H                       000002000000145408828104                                  21SCORPION  SL-198994100000CPQSN                                                                            
0200000014540882810000002517202210270039580021356520470010000000128417088600000001120020221101SCORPION  20515897000000221027MAFOKENG A                    000002000000145408828104                                  21SCORPION  205158970000000CPQSO                                                                            
0200000014540882810000002517202210270039580021356521250655000006246485413400000001120020221101SCORPION  SL-35155730000221027KUNENE P                      000002000000145408828104                                  21SCORPION  SL-351557300000CPQSP                                                                            
0200000014540882810000002517202210270039580021356522470010000000130136674700000000560020221101SCORPION  20488043000000221027MORAMAGA M                    000002000000145408828104                                  21SCORPION  204880430000000CPQSQ                                                                            
0200000014540882810000002517202210270039580021356523051001000000040583746100000000560020221101SCORPION  SL-51152300000221027MOABI D                       000002000000145408828104                                  21SCORPION  SL-511523000000CPQSR                                                                            
0200000014540882810000002517202210270039580021356524250655000005650000695700000001120020221101SCORPION  SL-27765450000221027MNISI N                       000002000000145408828104                                  21SCORPION  SL-277654500000CPQSS                                                                            
0200000014540882810000002517202210270039580021356525753324000000003356177200000001120020221101SCORPION  SL-12977860000221027NYANDENI B                    000002000000145408828104                                  21SCORPION  SL-129778600000CPQST                                                                            
0200000014540882810000002517202210270039580021356526198765000000159995130400000000560020221101SCORPION  20517396000000221027MABASA S                      000002000000145408828104                                  21SCORPION  205173960000000CPQSU                                                                            
0200000014540882810000002517202210270039580021356527632005000000406898123400000001730020221101SCORPION  SL-31226900000221027MAKHANYA M                    000002000000145408828104                                  21SCORPION  SL-312269000000CPQSV                                                                            
0200000014540882810000002517202210270039580021356528470010000000134499566500000001120020221101SCORPION  SL-22987590000221027MSEMBA MBENAMA N              000002000000145408828104                                  21SCORPION  SL-229875900000CPQSW                                                                            
0200000014540882810000002517202210270039580021356529470010000000133777186200000000560020221101SCORPION  20517226000000221027SESOKO C                      000002000000145408828104                                  21SCORPION  205172260000000CPQSX                                                                            
0200000014540882810000002517202210270039580021356530632005000000408791001200000001030020221101SCORPION  20417795000000221027BUDAZA N                      000002000000145408828104                                  21SCORPION  204177950000000CPQSY                                                                            
0200000014540882810000002517202210270039580021356531198765000000104982506300000001030020221101SCORPION  20432832000000221027MOTIA M                       000002000000145408828104                                  21SCORPION  204328320000000CPQSZ                                                                            
0200000014540882810000002517202210270039580021356532470010000000134898944900000000560020221101SCORPION  SL-39375220000221027SEOKA M                       000002000000145408828104                                  21SCORPION  SL-393752200000CPQT0                                                                            
0200000014540882810000002517202210270039580021356533470010000000134898944900000000560020221101SCORPION  SL-39375220000221027SEOKA M                       000002000000145408828104                                  21SCORPION  SL-393752200000CPQT1                                                                            
0200000014540882810000002517202210270039580021356534632005000000909789301500000001120020221101SCORPION  SL-37469520000221027WILLIAMS A                    000002000000145408828104                                  21SCORPION  SL-374695200000CPQT2                                                                            
0200000014540882810000002517202210270039580021356535470010000000144882089600000001120020221101SCORPION  SL-23416220000221027MOKOENA MD                    000002000000145408828104                                  21SCORPION  SL-234162200000CPQT3                                                                            
0200000014540882810000002517202210270039580021356536051001000000020071898300000001030020221101SCORPION  20441788000000221027CHILIZA N                     000002000000145408828104                                  21SCORPION  204417880000000CPQT4                                                                            
0200000014540882810000002517202210270039580021356537051001000000025280902500000000560020221101SCORPION  SL-40269720000221027NAIDOO T                      000002000000145408828104                                  21SCORPION  SL-402697200000CPQT5                                                                            
0200000014540882810000002517202210270039580021356538198765000000280330942400000001120020221101SCORPION  SL-37995790000221027NTIBANE X                     000002000000145408828104                                  21SCORPION  SL-379957900000CPQT6                                                                            
0200000014540882810000002517202210270039580021356539051001000000007048358200000000560020221101SCORPION  SL-38837550000221027ODENDAAL G                    000002000000145408828104                                  21SCORPION  SL-388375500000CPQT7                                                                            
0200000014540882810000002517202210270039580021356540198765000000113469445800000001120020221101SCORPION  SL-40003060000221027MLABA P                       000002000000145408828104                                  21SCORPION  SL-400030600000CPQT8                                                                            
0200000014540882810000002517202210270039580021356541470010000000142977138900000001120020221101SCORPION  SL-21274500000221027VILAKAZI M                    000002000000145408828104                                  21SCORPION  SL-212745000000CPQT9                                                                            
0200000014540882810000002517202210270039580021356542470010000000111761166100000001030020221101SCORPION  20427716000000221027LUPHALULE N                   000002000000145408828104                                  21SCORPION  204277160000000CPQTA                                                                            
0200000014540882810000002517202210270039580021356543250655000006045220386800000000560020221101SCORPION  SL-39110730000221027ZULU N                        000002000000145408828104                                  21SCORPION  SL-391107300000CPQTB                                                                            
0200000014540882810000002517202210270039580021356544198765000000230126314200000001120020221101SCORPION  SL-40081560000221027ROOPCHAND A                   000002000000145408828104                                  21SCORPION  SL-400815600000CPQTC                                                                            
0200000014540882810000002517202210270039580021356545250655000006034839730300000001730020221101SCORPION  SL-23533430000221027XOLO BV                       000002000000145408828104                                  21SCORPION  SL-235334300000CPQTD                                                                            
0200000014540882810000002517202210270039580021356546250655000006253017998700000001120020221101SCORPION  SL-38187970000221027GILBERT M                     000002000000145408828104                                  21SCORPION  SL-381879700000CPQTE                                                                            
0200000014540882810000002517202210270039580021356547051001000000005441368000000001120020221101SCORPION  SL-31248670000221027GUMEDE S                      000002000000145408828104                                  21SCORPION  SL-312486700000CPQTF                                                                            
0200000014540882810000002517202210270039580021356548470010000000124119050800000001120020221101SCORPION  SL-51793600000221027SIGUDU C                      000002000000145408828104                                  21SCORPION  SL-517936000000CPQTG                                                                            
0200000014540882810000002517202210270039580021356549250655000006213001936900000001120020221101SCORPION  SL-39251120000221027JULIUS P                      000002000000145408828104                                  21SCORPION  SL-392511200000CPQTH                                                                            
0200000014540882810000002517202210270039580021356550470010000000112990141400000000530020221101SCORPION  20438722000000221027MALAPANE ZO                   000002000000145408828104                                  21SCORPION  204387220000000CPQTI                                                                            
0200000014540882810000002517202210270039580021356551051001000000041129910700000001120020221101SCORPION  SL-18362950000221027SIBEKO BJ                     000002000000145408828104                                  21SCORPION  SL-183629500000CPQTJ                                                                            
0200000014540882810000002517202210270039580021356552250655000006221570449700000001120020221101SCORPION  SL-49155500000221027MAPHUTSI M                    000002000000145408828104                                  21SCORPION  SL-491555000000CPQTK                                                                            
0200000014540882810000002517202210270039580021356553198765000000163118463600000001120020221101SCORPION  SL-40237780000221027MTHEMBU N                     000002000000145408828104                                  21SCORPION  SL-402377800000CPQTL                                                                            
0200000014540882810000002517202210270039580021356554250655000006220979787000000001030020221101SCORPION  20433044000000221027SITHOLE M                     000002000000145408828104                                  21SCORPION  204330440000000CPQTM                                                                            
0200000014540882810000002517202210270039580021356555470010000000125376469500000001120020221101SCORPION  SL-26019730000221027GONIWE I                      000002000000145408828104                                  21SCORPION  SL-260197300000CPQTN                                                                            
0200000014540882810000002517202210270039580021356556632005000000002032552600000001120020221101SCORPION  SL-80387500000221027MAKHUBELA WM                  000002000000145408828104                                  21SCORPION  SL-803875000000CPQTO                                                                            
0200000014540882810000002517202210270039580021356557470010000000117235609000000001030020221101SCORPION  SL-20408338000221027GIBSON PP                     000002000000145408828104                                  21SCORPION  SL-204083380000CPQTP                                                                            
0200000014540882810000002517202210270039580021356558198765000000133004641200000001120020221101SCORPION  SL-39711520000221027VAWDA IA                      000002000000145408828104                                  21SCORPION  SL-397115200000CPQTQ                                                                            
0200000014540882810000002517202210270039580021356559470010000000123359618500000001120020221101SCORPION  SL-26693390000221027MASETLA K                     000002000000145408828104                                  21SCORPION  SL-266933900000CPQTR                                                                            
0200000014540882810000002517202210270039580021356560250655000006250263125400000001120020221101SCORPION  SL-36097580000221027MOSES D                       000002000000145408828104                                  21SCORPION  SL-360975800000CPQTS                                                                            
0200000014540882810000002517202210270039580021356561470010000000122425786100000001120020221101SCORPION  SL-11725910000221027NKUNA EM                      000002000000145408828104                                  21SCORPION  SL-117259100000CPQTT                                                                            
0200000014540882810000002517202210270039580021356562198765000000108814482900000000560020221101SCORPION  SL-29905070000221027MLAMBO C                      000002000000145408828104                                  21SCORPION  SL-299050700000CPQTU                                                                            
0200000014540882810000002517202210270039580021356563470010000000139186646900000001030020221101SCORPION  20444198000000221027MATHIBELA T                   000002000000145408828104                                  21SCORPION  204441980000000CPQTV                                                                            
0200000014540882810000002517202210270039580021356564470010000000113548722500000000560020221101SCORPION  20528574000000221027NGCOBO T                      000002000000145408828104                                  21SCORPION  205285740000000CPQTW                                                                            
0200000014540882810000002517202210270039580021356565632005000000405359835100000000560020221101SCORPION  SL-39993280000221027SIQOLA Z                      000002000000145408828104                                  21SCORPION  SL-399932800000CPQTX                                                                            
0200000014540882810000002517202210270039580021356566632005000000920399782300000001120020221101SCORPION  SL-39877180000221027CELE ZP                       000002000000145408828104                                  21SCORPION  SL-398771800000CPQTY                                                                            
0200000014540882810000002517202210270039580021356567250655000006243623674000000001120020221101SCORPION  SL-94741000000221027ZWANE DJ                      000002000000145408828104                                  21SCORPION  SL-947410000000CPQTZ                                                                            
0200000014540882810000002517202210270039580021356568250655000006243260778900000001120020221101SCORPION  SL-69878400000221027MASHABELA NA                  000002000000145408828104                                  21SCORPION  SL-698784000000CPQU0                                                                            
0200000014540882810000002517202210270039580021356569470010000000125369790400000001120020221101SCORPION  SL-37830380000221027NCIPA S                       000002000000145408828104                                  21SCORPION  SL-378303800000CPQU1                                                                            
0200000014540882810000002517202210270039580021356570470010000000127950172100000001120020221101SCORPION  SL-11366700000221027MKHIZE N                      000002000000145408828104                                  21SCORPION  SL-113667000000CPQU2                                                                            
0200000014540882810000002517202210270039580021356571470010000000133744113700000001120020221101SCORPION  20531162000000221027PHOGOLE J                     000002000000145408828104                                  21SCORPION  205311620000000CPQU3                                                                            
0200000014540882810000002517202210270039580021356572470010000000131595077200000001120020221101SCORPION  SL-39403430000221027MPANZA E                      000002000000145408828104                                  21SCORPION  SL-394034300000CPQU4                                                                            
0200000014540882810000002517202210270039580021356573470010000000112025001100000001120020221101SCORPION  SL-45862900000221027ZONDO RP                      000002000000145408828104                                  21SCORPION  SL-458629000000CPQU5                                                                            
0200000014540882810000002517202210270039580021356574470010000000139038283200000001120020221101SCORPION  20504936000000221027MFUNELI J                     000002000000145408828104                                  21SCORPION  205049360000000CPQU6                                                                            
0200000014540882810000002517202210270039580021356575470010000000129405699700000001030020221101SCORPION  SL-20406296000221027SELEPE S                      000002000000145408828104                                  21SCORPION  SL-204062960000CPQU7                                                                            
0200000014540882810000002517202210270039580021356576470010000000139735014600000001030020221101SCORPION  SL-20406685000221027MALEKE L                      000002000000145408828104                                  21SCORPION  SL-204066850000CPQU8                                                                            
0200000014540882810000002517202210270039580021356577470010000000135075620000000001120020221101SCORPION  20464743000000221027MOTLOUNG L                    000002000000145408828104                                  21SCORPION  204647430000000CPQU9                                                                            
0200000014540882810000002517202210270039580021356578470010000000125555171000000001120020221101SCORPION  SL-32062410000221027LEBONA ML                     000002000000145408828104                                  21SCORPION  SL-320624100000CPQUA                                                                            
0200000014540882810000002517202210270039580021356579470010000000137466765800000000560020221101SCORPION  SL-38006870000221027SIMELANE E                    000002000000145408828104                                  21SCORPION  SL-380068700000CPQUB                                                                            
0200000014540882810000002517202210270039580021356580632005000000918347617900000001120020221101SCORPION  SL-39808910000221027MODUMO C                      000002000000145408828104                                  21SCORPION  SL-398089100000CPQUC                                                                            
0200000014540882810000002517202210270039580021356581632005000000962410688400000000560020221101SCORPION  SL-38044930000221027GUMEDE A                      000002000000145408828104                                  21SCORPION  SL-380449300000CPQUD                                                                            
0200000014540882810000002517202210270039580021356582632005000000404361514100000001120020221101SCORPION  SL-37695990000221027RAMKLOWN C                    000002000000145408828104                                  21SCORPION  SL-376959900000CPQUE                                                                            
0200000014540882810000002517202210270039580021356583470010000000120739403100000001120020221101SCORPION  SL-30506470000221027MTSWENI DG                    000002000000145408828104                                  21SCORPION  SL-305064700000CPQUF                                                                            
0200000014540882810000002517202210270039580021356584632005000000407500333600000000530020221101SCORPION  SL-31677380000221027MAHOMED R                     000002000000145408828104                                  21SCORPION  SL-316773800000CPQUG                                                                            
0200000014540882810000002517202210270039580021356585632005000003808084030300000001120020221101SCORPION  SL-64329000000221027MNGUNI J                      000002000000145408828104                                  21SCORPION  SL-643290000000CPQUH                                                                            
0200000014540882810000002517202210270039580021356586632005000000905621652700000001120020221101SCORPION  SL-27191950000221027LEKOTA JM                     000002000000145408828104                                  21SCORPION  SL-271919500000CPQUI                                                                            
0200000014540882810000002517202210270039580021356587051001000000030221037700000001120020221101SCORPION  20482394000000221027TSHABALALA L                  000002000000145408828104                                  21SCORPION  204823940000000CPQUJ                                                                            
0200000014540882810000002517202210270039580021356588632005000000001421371600000001120020221101SCORPION  SL-11285660000221027MBAMBO PE                     000002000000145408828104                                  21SCORPION  SL-112856600000CPQUK                                                                            
0200000014540882810000002517202210270039580021356589470010000000114031375200000001120020221101SCORPION  SL-19720240000221027DLADLA P                      000002000000145408828104                                  21SCORPION  SL-197202400000CPQUL                                                                            
0200000014540882810000002517202210270039580021356590051001000000000603710000000000560020221101SCORPION  SL-39899980000221027MALEKA B                      000002000000145408828104                                  21SCORPION  SL-398999800000CPQUM                                                                            
0200000014540882810000002517202210270039580021356591051001000000000177304600000001120020221101SCORPION  SL-38209340000221027NKOSI D                       000002000000145408828104                                  21SCORPION  SL-382093400000CPQUN                                                                            
0200000014540882810000002517202210270039580021356592470010000000122210151100000001120020221101SCORPION  SL-39768210000221027HLUNGWANE J                   000002000000145408828104                                  21SCORPION  SL-397682100000CPQUO                                                                            
0200000014540882810000002517202210270039580021356593632005000000408387890700000001120020221101SCORPION  SL-22871150000221027VELAPHI IZ                    000002000000145408828104                                  21SCORPION  SL-228711500000CPQUP                                                                            
0200000014540882810000002517202210270039580021356594470010000000123484120500000001120020221101SCORPION  20430382000000221027KANE N                        000002000000145408828104                                  21SCORPION  204303820000000CPQUQ                                                                            
0200000014540882810000002517202210270039580021356595470010000000123484120500000001120020221101SCORPION  20430382000000221027KANE N                        000002000000145408828104                                  21SCORPION  204303820000000CPQUR                                                                            
0200000014540882810000002517202210270039580021356596470010000000115685959800000000560020221101SCORPION  SL-40184430000221027MABUNDA R                     000002000000145408828104                                  21SCORPION  SL-401844300000CPQUS                                                                            
0200000014540882810000002517202210270039580021356597250655000006052613722400000000560020221101SCORPION  SL-22269330000221027SNELL J                       000002000000145408828104                                  21SCORPION  SL-222693300000CPQUT                                                                            
0200000014540882810000002517202210270039580021356598470010000000129458801800000001120020221101SCORPION  SL-32194600000221027MOSHOBANE L                   000002000000145408828104                                  21SCORPION  SL-321946000000CPQUU                                                                            
0200000014540882810000002517202210270039580021356599470010000000129458801800000001120020221101SCORPION  SL-32194600000221027MOSHOBANE L                   000002000000145408828104                                  21SCORPION  SL-321946000000CPQUV                                                                            
0200000014540882810000002517202210270039580021356600051001000000014106474900000001120020221101SCORPION  SL-85568100000221027GUDWANA E                     000002000000145408828104                                  21SCORPION  SL-855681000000CPQUW                                                                            
0200000014540882810000002517202210270039580021356601470010000000147998528500000001120020221101SCORPION  SL-39475990000221027MASILANI A                    000002000000145408828104                                  21SCORPION  SL-394759900000CPQUX                                                                            
0200000014540882810000002517202210270039580021356602250655000006016315054800000001120020221101SCORPION  SL-36885670000221027ISAAC BE                      000002000000145408828104                                  21SCORPION  SL-368856700000CPQUY                                                                            
0200000014540882810000002517202210270039580021356603250655000006216891501800000001120020221101SCORPION  SL-39089870000221027MHLARI M                      000002000000145408828104                                  21SCORPION  SL-390898700000CPQUZ                                                                            
0200000014540882810000002517202210270039580021356604051001000000025311661900000001120020221101SCORPION  20470680000000221027MAKHALANYANE M                000002000000145408828104                                  21SCORPION  204706800000000CPQV0                                                                            
0200000014540882810000002517202210270039580021356605470010000000136243687700000001120020221101SCORPION  SL-11060950000221027DITHEBE M                     000002000000145408828104                                  21SCORPION  SL-110609500000CPQV1                                                                            
0200000014540882810000002517202210270039580021356606198765000000106804355500000000530020221101SCORPION  SL-35271760000221027NDLANGISA E                   000002000000145408828104                                  21SCORPION  SL-352717600000CPQV2                                                                            
0200000014540882810000002517202210270039580021356607198765000000106804355500000000530020221101SCORPION  SL-35271760000221027NDLANGISA E                   000002000000145408828104                                  21SCORPION  SL-352717600000CPQV3                                                                            
0200000014540882810000002517202210270039580021356608051001000000000212240500000001120020221101SCORPION  SL-70573500000221027MBOKAZI FM                    000002000000145408828104                                  21SCORPION  SL-705735000000CPQV4                                                                            
0200000014540882810000002517202210270039580021356609470010000000122776304000000001120020221101SCORPION  SL-29380290000221027MONARE G                      000002000000145408828104                                  21SCORPION  SL-293802900000CPQV5                                                                            
0200000014540882810000002517202210270039580021356610470010000000128998698100000001120020221101SCORPION  SL-37140780000221027MNCUBE BB                     000002000000145408828104                                  21SCORPION  SL-371407800000CPQV6                                                                            
0200000014540882810000002517202210270039580021356611470010000000124806076600000000560020221101SCORPION  SL-37686200000221027SEROKA K                      000002000000145408828104                                  21SCORPION  SL-376862000000CPQV7                                                                            
0200000014540882810000002517202210270039580021356612470010000000129573644400000001120020221101SCORPION  SL-37779740000221027NJUNGWINI N                   000002000000145408828104                                  21SCORPION  SL-377797400000CPQV8                                                                            
0200000014540882810000002517202210270039580021356613470010000000119463261900000001120020221101SCORPION  SL-63894400000221027RAMAISA P                     000002000000145408828104                                  21SCORPION  SL-638944000000CPQV9                                                                            
0200000014540882810000002517202210270039580021356614470010000000119463261900000001120020221101SCORPION  SL-31963430000221027RAMAISA P                     000002000000145408828104                                  21SCORPION  SL-319634300000CPQVA                                                                            
0200000014540882810000002517202210270039580021356615632005000000407897423700000001120020221101SCORPION  SL-39124190000221027LAWRENCE B                    000002000000145408828104                                  21SCORPION  SL-391241900000CPQVB                                                                            
0200000014540882810000002517202210270039580021356616632005000000408772940500000001120020221101SCORPION  20479356000000221027MORAPEDI S                    000002000000145408828104                                  21SCORPION  204793560000000CPQVC                                                                            
0200000014540882810000002517202210270039580021356617632005000000928162065600000001730020221101SCORPION  SL-39358130000221027MAPHOPHA M                    000002000000145408828104                                  21SCORPION  SL-393581300000CPQVD                                                                            
0200000014540882810000002517202210270039580021356618198765000000191701971800000001730020221101SCORPION  SL-39696340000221027PATTERSON E                   000002000000145408828104                                  21SCORPION  SL-396963400000CPQVE                                                                            
0200000014540882810000002517202210270039580021356619632005000000406144295600000001120020221101SCORPION  SL-29452630000221027MOSIFANE B                    000002000000145408828104                                  21SCORPION  SL-294526300000CPQVF                                                                            
0200000014540882810000002517202210270039580021356620470010000000113808782100000001120020221101SCORPION  20507531000000221027SOKUPA M                      000002000000145408828104                                  21SCORPION  205075310000000CPQVG                                                                            
0200000014540882810000002517202210270039580021356621470010000000138866770100000001120020221101SCORPION  SL-30808290000221027MAHLANGU E                    000002000000145408828104                                  21SCORPION  SL-308082900000CPQVH                                                                            
0200000014540882810000002517202210270039580021356622250655000006252199867700000001120020221101SCORPION  SL-18836400000221027NDIMA S                       000002000000145408828104                                  21SCORPION  SL-188364000000CPQVI                                                                            
0200000014540882810000002517202210270039580021356623250655000006252199867700000001120020221101SCORPION  SL-18836400000221027NDIMA S                       000002000000145408828104                                  21SCORPION  SL-188364000000CPQVJ                                                                            
0200000014540882810000002517202210270039580021356624470010000000126509711700000000560020221101SCORPION  SL-38381210000221027MORAKE T                      000002000000145408828104                                  21SCORPION  SL-383812100000CPQVK                                                                            
0200000014540882810000002517202210270039580021356625470010000000127978169400000001120020221101SCORPION  20531071000000221027MAHLANGU S                    000002000000145408828104                                  21SCORPION  205310710000000CPQVL                                                                            
0200000014540882810000002517202210270039580021356626470010000000135319236700000001120020221101SCORPION  SL-28138330000221027MAILWANE P                    000002000000145408828104                                  21SCORPION  SL-281383300000CPQVM                                                                            
0200000014540882810000002517202210270039580021356627470010000000135888196900000001120020221101SCORPION  SL-14164950000221027CORDIER C                     000002000000145408828104                                  21SCORPION  SL-141649500000CPQVN                                                                            
0200000014540882810000002517202210270039580021356628470010000000135888196900000001120020221101SCORPION  SL-14164950000221027CORDIER C                     000002000000145408828104                                  21SCORPION  SL-141649500000CPQVO                                                                            
0200000014540882810000002517202210270039580021356629470010000000137497103900000000560020221101SCORPION  SL-35543600000221027PILLAY G                      000002000000145408828104                                  21SCORPION  SL-355436000000CPQVP                                                                            
0200000014540882810000002517202210270039580021356630250655000006231622488100000001120020221101SCORPION  SL-35282250000221027VUKEYA G                      000002000000145408828104                                  21SCORPION  SL-352822500000CPQVQ                                                                            
0200000014540882810000002517202210270039580021356631632005000000407725647400000001120020221101SCORPION  SL-28156750000221027BRAY M                        000002000000145408828104                                  21SCORPION  SL-281567500000CPQVR                                                                            
0200000014540882810000002517202210270039580021356632470010000000125970139300000001030020221101SCORPION  SL-25477310000221027MYELELI N                     000002000000145408828104                                  21SCORPION  SL-254773100000CPQVS                                                                            
0200000014540882810000002517202210270039580021356633470010000000120403061600000001120020221101SCORPION  SL-39870120000221027RAKOMETSI T                   000002000000145408828104                                  21SCORPION  SL-398701200000CPQVT                                                                            
0200000014540882810000002517202210270039580021356634632005000000912340914100000001120020221101SCORPION  SL-19102000000221027SIBEKO N                      000002000000145408828104                                  21SCORPION  SL-191020000000CPQVU                                                                            
0200000014540882810000002517202210270039580021356635051001000000004199729800000001120020221101SCORPION  20497087000000221027NDULULA T                     000002000000145408828104                                  21SCORPION  204970870000000CPQVV                                                                            
0200000014540882810000002517202210270039580021356636470010000000111095965400000000560020221101SCORPION  SL-27760200000221027MAKOLA L                      000002000000145408828104                                  21SCORPION  SL-277602000000CPQVW                                                                            
0200000014540882810000002517202210270039580021356637470010000000134190301800000001120020221101SCORPION  SL-35497150000221027CHEBASE M                     000002000000145408828104                                  21SCORPION  SL-354971500000CPQVX                                                                            
0200000014540882810000002517202210270039580021356638470010000000132246841700000001030020221101SCORPION  20450253000000221027MDANDA T                      000002000000145408828104                                  21SCORPION  204502530000000CPQVY                                                                            
0200000014540882810000002517202210270039580021356639470010000000132246841700000001030020221101SCORPION  20450253000000221027MDANDA T                      000002000000145408828104                                  21SCORPION  204502530000000CPQVZ                                                                            
0200000014540882810000002517202210270039580021356640470010000000117586774600000001120020221101SCORPION  20483994000000221027PHALANNDWA T                  000002000000145408828104                                  21SCORPION  204839940000000CPQW0                                                                            
0200000014540882810000002517202210270039580021356641198765000000166904705900000001120020221101SCORPION  SL-17351600000221027MOITSI M                      000002000000145408828104                                  21SCORPION  SL-173516000000CPQW1                                                                            
0200000014540882810000002517202210270039580021356642470010000000111523642100000001120020221101SCORPION  SL-54771200000221027MADOLO M                      000002000000145408828104                                  21SCORPION  SL-547712000000CPQW2                                                                            
0200000014540882810000002517202210270039580021356643470010000000111523642100000001120020221101SCORPION  SL-54771200000221027MADOLO M                      000002000000145408828104                                  21SCORPION  SL-547712000000CPQW3                                                                            
0200000014540882810000002517202210270039580021356644632005000000966074216700000001120020221101SCORPION  SL-55806200000221027MASHIANE MM                   000002000000145408828104                                  21SCORPION  SL-558062000000CPQW4                                                                            
0200000014540882810000002517202210270039580021356645198765000000100273773700000001120020221101SCORPION  SL-38803990000221027SIBIYA T                      000002000000145408828104                                  21SCORPION  SL-388039900000CPQW5                                                                            
0200000014540882810000002517202210270039580021356646470010000000123875171500000001030020221101SCORPION  SL-20406581000221027MATLOKGA P                    000002000000145408828104                                  21SCORPION  SL-204065810000CPQW6                                                                            
0200000014540882810000002517202210270039580021356647470010000000123899320400000001030020221101SCORPION  20456728000000221027NKEHLENI B                    000002000000145408828104                                  21SCORPION  204567280000000CPQW7                                                                            
0200000014540882810000002517202210270039580021356648051001000000002375809000000001120020221101SCORPION  SL-23430880000221027MASHIKE SN                    000002000000145408828104                                  21SCORPION  SL-234308800000CPQW8                                                                            
0200000014540882810000002517202210270039580021356649470010000000127960553500000001120020221101SCORPION  SL-35849180000221027KAMANYANE K                   000002000000145408828104                                  21SCORPION  SL-358491800000CPQW9                                                                            
0200000014540882810000002517202210270039580021356650470010000000149763871000000001120020221101SCORPION  SL-14821550000221027KHOZA E                       000002000000145408828104                                  21SCORPION  SL-148215500000CPQWA                                                                            
