0100000025170000002517202210270039580100000014540882810000001454088281SCORPION                                                                                                                                                                                                                                                  
0200000014540882810000002517202210270039580021356985470010000000130077639900000000560020221101SCORPION  20460348000000221027JACK N                        000002000000145408828104                                  21SCORPION  204603480000000CPR5L                                                                           
0200000014540882810000002517202210270039580021358136470010000000111775366000000001120020221101SCORPION  SL-14862400000221027MALEME M                      000002000000145408828104                                  21SCORPION  SL-148624000000CPS1K                                                                           
0200000014540882810000002517202210270039580021357486470010000000133907272400000000560020221101SCORPION  SL-18590980000221027SCHALK T                      000002000000145408828104                                  21SCORPION  SL-185909800000CPRJI                                                                           
0200000014540882810000002517202210270039580021356938470010000000111188804100000001120020221101SCORPION  SL-40172340000221027SELALA MM                     000002000000145408828104                                  21SCORPION  SL-401723400000CPR4A                                                                           
0200000014540882810000002517202210270039580021357089470010000000115416646300000001730020221101SCORPION  SL-18418900000221027NDLOVU P                      000002000000145408828104                                  21SCORPION  SL-184189000000CPR8H                                                                           
0200000014540882810000002517202210270039580021358392470010000000128646242600000000560020221101SCORPION  SL-21123000000221027MANGANYI MJ                   000002000000145408828104                                  21SCORPION  SL-211230000000CPS8O                                                                           
0200000014540882810000002517202210270039580021357725470010000000154398753000000001120020221101SCORPION  SL-57176000000221027MASHABELA MM                  000002000000145408828104                                  21SCORPION  SL-571760000000CPRQ5                                                                           
0200000014540882810000002517202210270039580021357065470010000000145369455000000000560020221101SCORPION  SL-38752350000221027BRETT N                       000002000000145408828104                                  21SCORPION  SL-387523500000CPR7T                                                                           
0200000014540882810000002517202210270039580021357196470010000000158996884900000001030020221101SCORPION  SL-20406342000221027QHEKOANE D                    000002000000145408828104                                  21SCORPION  SL-204063420000CPRBG                                                                           
0200000014540882810000002517202210270039580021356912470010000000131314385300000001120020221101SCORPION  SL-35062340000221027MORATA M                      000002000000145408828104                                  21SCORPION  SL-350623400000CPR3K                                                                           
0200000014540882810000002517202210270039580021357931470010000000118651788100000001120020221101SCORPION  SL-10361200000221027MOTSHWANEDI JM                000002000000145408828104                                  21SCORPION  SL-103612000000CPRVV                                                                           
0200000014540882810000002517202210270039580021357160470010000000132151836400000001120020221101SCORPION  SL-39966970000221027MKHWANAZI G                   000002000000145408828104                                  21SCORPION  SL-399669700000CPRAG                                                                           
0200000014540882810000002517202210270039580021357057470010000000135903658800000001120020221101SCORPION  SL-38828250000221027DLUDLA M                      000002000000145408828104                                  21SCORPION  SL-388282500000CPR7L                                                                           
0200000014540882810000002517202210270039580021358193470010000000166917126200000001120020221101SCORPION  SL-16073800000221027MAKUWA TJ                     000002000000145408828104                                  21SCORPION  SL-160738000000CPS35                                                                           
0200000014540882810000002517202210270039580021357260470010000000113587239000000001120020221101SCORPION  SL-40199000000221027SITATELA L                    000002000000145408828104                                  21SCORPION  SL-401990000000CPRD8                                                                           
0200000014540882810000002517202210270039580021357148470010000000137645296900000001120020221101SCORPION  SL-38764540000221027MDAKA T                       000002000000145408828104                                  21SCORPION  SL-387645400000CPRA4                                                                           
0200000014540882810000002517202210270039580021356837470010000000132608604700000001120020221101SCORPION  SL-33797970000221027MTHETHWA N                    000002000000145408828104                                  21SCORPION  SL-337979700000CPR1H                                                                           
0200000014540882810000002517202210270039580021357386470010000000165849661000000001120020221101SCORPION  SL-22756760000221027MALAKA M                      000002000000145408828104                                  21SCORPION  SL-227567600000CPRGQ                                                                           
0200000014540882810000002517202210270039580021357248470010000000141083266800000001120020221101SCORPION  SL-33917840000221027MANGWATO F                    000002000000145408828104                                  21SCORPION  SL-339178400000CPRCW                                                                           
0200000014540882810000002517202210270039580021356979470010000000115691301000000001120020221101SCORPION  20520989000000221027MOEKESTI DJ                   000002000000145408828104                                  21SCORPION  205209890000000CPR5F                                                                           
0200000014540882810000002517202210270039580021357500470010000000166151198600000001120020221101SCORPION  SL-39239520000221027MKHWANAZI M                   000002000000145408828104                                  21SCORPION  SL-392395200000CPRJW                                                                           
0200000014540882810000002517202210270039580021357083470010000000113930904600000001120020221101SCORPION  SL-38936500000221027TSHABALALA R                  000002000000145408828104                                  21SCORPION  SL-389365000000CPR8B                                                                           
0200000014540882810000002517202210270039580021357762470010000000116261303100000001120020221101SCORPION  SL-65183000000221027ZWANE MJ                      000002000000145408828104                                  21SCORPION  SL-651830000000CPRR6                                                                           
0200000014540882810000002517202210270039580021357184470010000000162811876600000001120020221101SCORPION  SL-39704170000221027SHIBURI M                     000002000000145408828104                                  21SCORPION  SL-397041700000CPRB4                                                                           
0200000014540882810000002517202210270039580021357968470010000000154767351400000001120020221101SCORPION  SL-10993200000221027MBANZI P                      000002000000145408828104                                  21SCORPION  SL-109932000000CPRWW                                                                           
0200000014540882810000002517202210270039580021357287470010000000149748865400000000560020221101SCORPION  SL-36435970000221027RIKHOTSO J                    000002000000145408828104                                  21SCORPION  SL-364359700000CPRDZ                                                                           
0200000014540882810000002517202210270039580021357415470010000000129323824200000000560020221101SCORPION  SL-39604930000221027NETILI T                      000002000000145408828104                                  21SCORPION  SL-396049300000CPRHJ                                                                           
0200000014540882810000002517202210270039580021357272470010000000163382933000000001120020221101SCORPION  20466797000000221027JOUBERT CG                    000002000000145408828104                                  21SCORPION  204667970000000CPRDK                                                                           
0200000014540882810000002517202210270039580021357566470010000000131557621800000001120020221101SCORPION  SL-20865000000221027KHOZA JJ                      000002000000145408828104                                  21SCORPION  SL-208650000000CPRLQ                                                                           
0200000014540882810000002517202210270039580021357405470010000000114085003000000000560020221101SCORPION  20506585000000221027MATYHALI T                    000002000000145408828104                                  21SCORPION  205065850000000CPRH9                                                                           
0200000014540882810000002517202210270039580021357801470010000000121376470800000001120020221101SCORPION  SL-73475000000221027ZITHA NC                      000002000000145408828104                                  21SCORPION  SL-734750000000CPRS9                                                                           
0200000014540882810000002517202210270039580021357556470010000000139876526900000001120020221101SCORPION  SL-17515000000221027MASHISHI M                    000002000000145408828104                                  21SCORPION  SL-175150000000CPRLG                                                                           
0200000014540882810000002517202210270039580021358050470010000000170866514300000001120020221101SCORPION  SL-12647900000221027NXUMALO R                     000002000000145408828104                                  21SCORPION  SL-126479000000CPRZ6                                                                           
0200000014540882810000002517202210270039580021357796470010000000133656528200000001120020221101SCORPION  SL-72377000000221027NGOBENI LN                    000002000000145408828104                                  21SCORPION  SL-723770000000CPRS4                                                                           
0200000014540882810000002517202210270039580021358280470010000000134469321900000001260020221101SCORPION  SL-18178900000221027FREEMAN SG                    000002000000145408828104                                  21SCORPION  SL-181789000000CPS5K                                                                           
0200000014540882810000002517202210270039580021358012470010000000119113960100000001120020221101SCORPION  SL-11824700000221027NKOSI E                       000002000000145408828104                                  21SCORPION  SL-118247000000CPRY4                                                                           
0200000014540882810000002517202210270039580021356868470010000000138554463300000001120020221101SCORPION  SL-37362340000221027NAYE XP                       000002000000145408828104                                  21SCORPION  SL-373623400000CPR2C                                                                           
0200000014540882810000002517202210270039580021358260470010000000152204089500000000560020221101SCORPION  SL-17687700000221027MAKHUVHA F                    000002000000145408828104                                  21SCORPION  SL-176877000000CPS50                                                                           
0200000014540882810000002517202210270039580021357026470010000000134045499600000000560020221101SCORPION  20537229000000221027CINDI MS                      000002000000145408828104                                  21SCORPION  205372290000000CPR6Q                                                                           
0200000014540882810000002517202210270039580021357142470010000000159361733800000001120020221101SCORPION  SL-37320120000221027SKHOSANA L                    000002000000145408828104                                  21SCORPION  SL-373201200000CPR9Y                                                                           
0200000014540882810000002517202210270039580021356863470010000000147105069400000001030020221101SCORPION  SL-20407170000221027GAODIGWE ME                   000002000000145408828104                                  21SCORPION  SL-204071700000CPR27                                                                           
0200000014540882810000002517202210270039580021357118470010000000123297017200000001120020221101SCORPION  SL-80864500000221027MOTAUNG R                     000002000000145408828104                                  21SCORPION  SL-808645000000CPR9A                                                                           
0200000014540882810000002517202210270039580021357019470010000000114688608800000001120020221101SCORPION  SL-33489630000221027MDLULI VMM                    000002000000145408828104                                  21SCORPION  SL-334896300000CPR6J                                                                           
0200000014540882810000002517202210270039580021357223470010000000159439472300000001120020221101SCORPION  20471011000000221027MAILA M                       000002000000145408828104                                  21SCORPION  204710110000000CPRC7                                                                           
0200000014540882810000002517202210270039580021357111470010000000146810970500000001730020221101SCORPION  SL-29155280000221027NDLOVU J                      000002000000145408828104                                  21SCORPION  SL-291552800000CPR93                                                                           
0200000014540882810000002517202210270039580021357329470010000000154989970600000001120020221101SCORPION  SL-25572660000221027KUTUMELA L                    000002000000145408828104                                  21SCORPION  SL-255726600000CPRF5                                                                           
0200000014540882810000002517202210270039580021357218470010000000164885393300000000560020221101SCORPION  SL-37476040000221027SOSUKWANA S                   000002000000145408828104                                  21SCORPION  SL-374760400000CPRC2                                                                           
0200000014540882810000002517202210270039580021357445470010000000131831815500000001120020221101SCORPION  20486342000000221027DLOVA A                       000002000000145408828104                                  21SCORPION  204863420000000CPRID                                                                           
0200000014540882810000002517202210270039580021357317470010000000132140172600000001120020221101SCORPION  SL-25699800000221027MOLOI EN                      000002000000145408828104                                  21SCORPION  SL-256998000000CPRET                                                                           
0200000014540882810000002517202210270039580021357616470010000000111429569600000001120020221101SCORPION  SL-32155000000221027KEKANA JM                     000002000000145408828104                                  21SCORPION  SL-321550000000CPRN4                                                                           
0200000014540882810000002517202210270039580021357439470010000000167306089500000001120020221101SCORPION  SL-39874220000221027SIYAYA T                      000002000000145408828104                                  21SCORPION  SL-398742200000CPRI7                                                                           
0200000014540882810000002517202210270039580021357874470010000000138469275200000001120020221101SCORPION  SL-90093000000221027MASEMOLA MM                   000002000000145408828104                                  21SCORPION  SL-900930000000CPRUA                                                                           
0200000014540882810000002517202210270039580021357609470010000000146509793500000001120020221101SCORPION  SL-30570000000221027MAPHELA LE                    000002000000145408828104                                  21SCORPION  SL-305700000000CPRMX                                                                           
0200000014540882810000002517202210270039580021358137470010000000111775366000000001120020221101SCORPION  SL-14862400000221027MALEME M                      000002000000145408828104                                  21SCORPION  SL-148624000000CPS1L                                                                           
0200000014540882810000002517202210270039580021357866470010000000146447210400000001120020221101SCORPION  SL-89278000000221027MDHLULI CO                    000002000000145408828104                                  21SCORPION  SL-892780000000CPRU2                                                                           
0200000014540882810000002517202210270039580021358400470010000000174528649500000001120020221101SCORPION  SL-21199400000221027SHOZI FL                      000002000000145408828104                                  21SCORPION  SL-211994000000CPS8W                                                                           
0200000014540882810000002517202210270039580021358112470010000000113748487800000001120020221101SCORPION  SL-14170200000221027GALEHOLE MA                   000002000000145408828104                                  21SCORPION  SL-141702000000CPS0W                                                                           
0200000014540882810000002517202210270039580021358364470010000000129390390400000001120020221101SCORPION  SL-20383300000221027NGONYAMA IX                   000002000000145408828104                                  21SCORPION  SL-203833000000CPS7W                                                                           
0200000014540882810000002517202210270039580021356902470010000000153707342500000000560020221101SCORPION  SL-39769220000221027LUKHELE S                     000002000000145408828104                                  21SCORPION  SL-397692200000CPR3A                                                                           
0200000014540882810000002517202210270039580021357051470010000000120090054300000001120020221101SCORPION  SL-17460000000221027RAMOLEFO M                    000002000000145408828104                                  21SCORPION  SL-174600000000CPR7F                                                                           
0200000014540882810000002517202210270039580021357895470010000000153796256400000001120020221101SCORPION  SL-96259000000221027MASHABELA JK                  000002000000145408828104                                  21SCORPION  SL-962590000000CPRUV                                                                           
0200000014540882810000002517202210270039580021357140470010000000143205797700000001120020221101SCORPION  SL-14880370000221027MOHOTO T                      000002000000145408828104                                  21SCORPION  SL-148803700000CPR9W                                                                           
0200000014540882810000002517202210270039580021358168470010000000142999272500000001120020221101SCORPION  SL-15466800000221027BUDELI RN                     000002000000145408828104                                  21SCORPION  SL-154668000000CPS2G                                                                           
0200000014540882810000002517202210270039580021357245470010000000160660798500000001030020221101SCORPION  SL-20409295000221027SHILABYE J                    000002000000145408828104                                  21SCORPION  SL-204092950000CPRCT                                                                           
0200000014540882810000002517202210270039580021356821470010000000111242476600000001120020221101SCORPION  SL-35125160000221027MBATSANE TE                   000002000000145408828104                                  21SCORPION  SL-351251600000CPR11                                                                           
0200000014540882810000002517202210270039580021357366470010000000111636828300000001120020221101SCORPION  SL-30620970000221027MOLEBATSI TE                  000002000000145408828104                                  21SCORPION  SL-306209700000CPRG6                                                                           
0200000014540882810000002517202210270039580021357081470010000000156352828000000001030020221101SCORPION  SL-20407031000221027TIJA TJ                       000002000000145408828104                                  21SCORPION  SL-204070310000CPR89                                                                           
0200000014540882810000002517202210270039580021356959470010000000112417311900000001120020221101SCORPION  SL-16134030000221027RIKHOTSO J                    000002000000145408828104                                  21SCORPION  SL-161340300000CPR4V                                                                           
0200000014540882810000002517202210270039580021357483470010000000185114219100000001120020221101SCORPION  20497566000000221027SODLULASHE S                  000002000000145408828104                                  21SCORPION  204975660000000CPRJF                                                                           
0200000014540882810000002517202210270039580021357175470010000000162178861800000001120020221101SCORPION  20525491000000221027MUDAU T                       000002000000145408828104                                  21SCORPION  205254910000000CPRAV                                                                           
0200000014540882810000002517202210270039580021357347470010000000125709887800000001120020221101SCORPION  SL-36006330000221027MVULA V                       000002000000145408828104                                  21SCORPION  SL-360063300000CPRFN                                                                           
0200000014540882810000002517202210270039580021357076470010000000134361549400000001030020221101SCORPION  SL-20406686000221027MOTAUNG T                     000002000000145408828104                                  21SCORPION  SL-204066860000CPR84                                                                           
0200000014540882810000002517202210270039580021357721470010000000145015317600000001120020221101SCORPION  SL-56560000000221027MASONDO VE                    000002000000145408828104                                  21SCORPION  SL-565600000000CPRQ1                                                                           
0200000014540882810000002517202210270039580021357274470010000000155016086700000001120020221101SCORPION  SL-36073300000221027MLUNGWANA                     000002000000145408828104                                  21SCORPION  SL-360733000000CPRDM                                                                           
0200000014540882810000002517202210270039580021357474470010000000133318957300000001120020221101SCORPION  20472844000000221027SOKETYE M                     000002000000145408828104                                  21SCORPION  204728440000000CPRJ6                                                                           
0200000014540882810000002517202210270039580021357168470010000000126776980500000000560020221101SCORPION  20510383000000221027DAUTH F                       000002000000145408828104                                  21SCORPION  205103830000000CPRAO                                                                           
0200000014540882810000002517202210270039580021357925470010000000125969474500000001120020221101SCORPION  SL-10202900000221027MAZALENI LH                   000002000000145408828104                                  21SCORPION  SL-102029000000CPRVP                                                                           
0200000014540882810000002517202210270039580021356863470010000000147105069400000001030020221101SCORPION  SL-20407170000221027GAODIGWE ME                   000002000000145408828104                                  21SCORPION  SL-204071700000CPR27                                                                           
0200000014540882810000002517202210270039580021357409470010000000154028285400000001120020221101SCORPION  20487793000000221027MNINTYANA D                   000002000000145408828104                                  21SCORPION  204877930000000CPRHD                                                                           
0200000014540882810000002517202210270039580021357263470010000000128947291000000001120020221101SCORPION  SL-39889370000221027MOLAPO P                      000002000000145408828104                                  21SCORPION  SL-398893700000CPRDB                                                                           
0200000014540882810000002517202210270039580021358192470010000000166917126200000001120020221101SCORPION  SL-16073800000221027MAKUWA TJ                     000002000000145408828104                                  21SCORPION  SL-160738000000CPS34                                                                           
0200000014540882810000002517202210270039580021357556470010000000139876526900000001120020221101SCORPION  SL-17515000000221027MASHISHI M                    000002000000145408828104                                  21SCORPION  SL-175150000000CPRLG                                                                           
0200000014540882810000002517202210270039580021357398470010000000117099921000000000530020221101SCORPION  20420672000000221027NGONDO M                      000002000000145408828104                                  21SCORPION  204206720000000CPRH2                                                                           
0200000014540882810000002517202210270039580021356836470010000000132608604700000001120020221101SCORPION  SL-33797970000221027MTHETHWA N                    000002000000145408828104                                  21SCORPION  SL-337979700000CPR1G                                                                           
0200000014540882810000002517202210270039580021357797470010000000149875697000000001120020221101SCORPION  SL-73010000000221027MOHLABANE JL                  000002000000145408828104                                  21SCORPION  SL-730100000000CPRS5                                                                           
0200000014540882810000002517202210270039580021357019470010000000114688608800000001120020221101SCORPION  SL-33489630000221027MDLULI VMM                    000002000000145408828104                                  21SCORPION  SL-334896300000CPR6J                                                                           
0200000014540882810000002517202210270039580021357528470010000000120659120800000001120020221101SCORPION  SL-12336000000221027MOILOA ES                     000002000000145408828104                                  21SCORPION  SL-123360000000CPRKO                                                                           
0200000014540882810000002517202210270039580021358016470010000000120132177600000001120020221101SCORPION  SL-11875900000221027MACWELE GS                    000002000000145408828104                                  21SCORPION  SL-118759000000CPRY8                                                                           
0200000014540882810000002517202210270039580021357111470010000000146810970500000001730020221101SCORPION  SL-29155280000221027NDLOVU J                      000002000000145408828104                                  21SCORPION  SL-291552800000CPR93                                                                           
0200000014540882810000002517202210270039580021357788470010000000129927685500000000560020221101SCORPION  SL-70339000000221027BACELA AM                     000002000000145408828104                                  21SCORPION  SL-703390000000CPRRW                                                                           
0200000014540882810000002517202210270039580021358260470010000000152204089500000000560020221101SCORPION  SL-17687700000221027MAKHUVHA F                    000002000000145408828104                                  21SCORPION  SL-176877000000CPS50                                                                           
0200000014540882810000002517202210270039580021357218470010000000164885393300000000560020221101SCORPION  SL-37476040000221027SOSUKWANA S                   000002000000145408828104                                  21SCORPION  SL-374760400000CPRC2                                                                           
0200000014540882810000002517202210270039580021357982470010000000162396558400000000560020221101SCORPION  SL-11184600000221027MOTSHEGWA B                   000002000000145408828104                                  21SCORPION  SL-111846000000CPRXA                                                                           
0200000014540882810000002517202210270039580021358236470010000000161422602200000001120020221101SCORPION  SL-17170600000221027MOTSHABENG MJ                 000002000000145408828104                                  21SCORPION  SL-171706000000CPS4C                                                                           
0200000014540882810000002517202210270039580021356853470010000000124420686300000001120020221101SCORPION  SL-20405723000221027MBHENSE A                     000002000000145408828104                                  21SCORPION  SL-204057230000CPR1X                                                                           
0200000014540882810000002517202210270039580021357008470010000000142068149200000000560020221101SCORPION  SL-10391690000221027MOLUSI J                      000002000000145408828104                                  21SCORPION  SL-103916900000CPR68                                                                           
0200000014540882810000002517202210270039580021357106470010000000158407557900000001120020221101SCORPION  SL-15514050000221027SESINYI PD                    000002000000145408828104                                  21SCORPION  SL-155140500000CPR8Y                                                                           
0200000014540882810000002517202210270039580021357214470010000000116734105600000001120020221101SCORPION  20502910000000221027BUKHOSINI M                   000002000000145408828104                                  21SCORPION  205029100000000CPRBY                                                                           
0200000014540882810000002517202210270039580021357310470010000000163384765700000001120020221101SCORPION  SL-39109890000221027MOKOTO T                      000002000000145408828104                                  21SCORPION  SL-391098900000CPREM                                                                           
0200000014540882810000002517202210270039580021357435470010000000173598575700000001120020221101SCORPION  SL-26479120000221027APLENI W                      000002000000145408828104                                  21SCORPION  SL-264791200000CPRI3                                                                           
0200000014540882810000002517202210270039580021357302470010000000142410071000000001730020221101SCORPION  SL-31378110000221027MHLAMBISO M                   000002000000145408828104                                  21SCORPION  SL-313781100000CPREE                                                                           
0200000014540882810000002517202210270039580021357599470010000000116118729200000001120020221101SCORPION  SL-27748000000221027KGAPANE G                     000002000000145408828104                                  21SCORPION  SL-277480000000CPRMN                                                                           
0200000014540882810000002517202210270039580021357431470010000000160759750900000001120020221101SCORPION  SL-39801950000221027GIANI M                       000002000000145408828104                                  21SCORPION  SL-398019500000CPRHZ                                                                           
0200000014540882810000002517202210270039580021357858470010000000155166306400000001120020221101SCORPION  SL-85157000000221027MAHLANGU BS                   000002000000145408828104                                  21SCORPION  SL-851570000000CPRTU                                                                           
0200000014540882810000002517202210270039580021356821470010000000111242476600000001120020221101SCORPION  SL-35125160000221027MBATSANE TE                   000002000000145408828104                                  21SCORPION  SL-351251600000CPR11                                                                           
0200000014540882810000002517202210270039580021357584470010000000124498490400000001120020221101SCORPION  SL-24207000000221027KHUMALO MP                    000002000000145408828104                                  21SCORPION  SL-242070000000CPRM8                                                                           
0200000014540882810000002517202210270039580021358081470010000000142744053900000001120020221101SCORPION  SL-13390200000221027SIONE GW                      000002000000145408828104                                  21SCORPION  SL-133902000000CPS01                                                                           
0200000014540882810000002517202210270039580021357832470010000000161975202400000001120020221101SCORPION  SL-78688000000221027POLORI JM                     000002000000145408828104                                  21SCORPION  SL-786880000000CPRT4                                                                           
0200000014540882810000002517202210270039580021358330470010000000155944018800000001120020221101SCORPION  SL-19525300000221027FUZAMA P                      000002000000145408828104                                  21SCORPION  SL-195253000000CPS6Y                                                                           
0200000014540882810000002517202210270039580021356959470010000000112417311900000001120020221101SCORPION  SL-16134030000221027RIKHOTSO J                    000002000000145408828104                                  21SCORPION  SL-161340300000CPR4V                                                                           
0200000014540882810000002517202210270039580021358073470010000000136595590500000001120020221101SCORPION  SL-13252500000221027MASHALA TE                    000002000000145408828104                                  21SCORPION  SL-132525000000CPRZT                                                                           
0200000014540882810000002517202210270039580021356899470010000000132772436500000001120020221101SCORPION  20528849000000221027RIBIMBI Z                     000002000000145408828104                                  21SCORPION  205288490000000CPR37                                                                           
0200000014540882810000002517202210270039580021357076470010000000134361549400000001030020221101SCORPION  SL-20406686000221027MOTAUNG T                     000002000000145408828104                                  21SCORPION  SL-204066860000CPR84                                                                           
0200000014540882810000002517202210270039580021358303470010000000119051953200000001120020221101SCORPION  SL-18738200000221027MDUNYISWA M                   000002000000145408828104                                  21SCORPION  SL-187382000000CPS67                                                                           
0200000014540882810000002517202210270039580021357042470010000000145156943000000001120020221101SCORPION  SL-25797850000221027MABUZA T                      000002000000145408828104                                  21SCORPION  SL-257978500000CPR76                                                                           
0200000014540882810000002517202210270039580021357168470010000000126776980500000000560020221101SCORPION  20510383000000221027DAUTH F                       000002000000145408828104                                  21SCORPION  205103830000000CPRAO                                                                           
0200000014540882810000002517202210270039580021356891470010000000137388814600000001120020221101SCORPION  20505252000000221027SMITH CC                      000002000000145408828104                                  21SCORPION  205052520000000CPR2Z                                                                           
0200000014540882810000002517202210270039580021357135470010000000157773090700000001120020221101SCORPION  SL-40092630000221027MTHEMBU D                     000002000000145408828104                                  21SCORPION  SL-400926300000CPR9R                                                                           
0200000014540882810000002517202210270039580021357038470010000000153565948100000001120020221101SCORPION  SL-12059310000221027MPHIKE S                      000002000000145408828104                                  21SCORPION  SL-120593100000CPR72                                                                           
0200000014540882810000002517202210270039580021357241470010000000146002320800000001030020221101SCORPION  SL-20408721000221027NCONGWANE PV                  000002000000145408828104                                  21SCORPION  SL-204087210000CPRCP                                                                           
0200000014540882810000002517202210270039580021357130470010000000151240740000000001120020221101SCORPION  SL-24036690000221027MTILENI P                     000002000000145408828104                                  21SCORPION  SL-240366900000CPR9M                                                                           
0200000014540882810000002517202210270039580021357347470010000000125709887800000001120020221101SCORPION  SL-36006330000221027MVULA V                       000002000000145408828104                                  21SCORPION  SL-360063300000CPRFN                                                                           
0200000014540882810000002517202210270039580021357236470010000000136120709200000001120020221101SCORPION  SL-38472750000221027NDLOVU C                      000002000000145408828104                                  21SCORPION  SL-384727500000CPRCK                                                                           
0200000014540882810000002517202210270039580021357474470010000000133318957300000001120020221101SCORPION  20472844000000221027SOKETYE M                     000002000000145408828104                                  21SCORPION  204728440000000CPRJ6                                                                           
0200000014540882810000002517202210270039580021357342470010000000171772593500000001120020221101SCORPION  SL-39252950000221027DE WEE E                      000002000000145408828104                                  21SCORPION  SL-392529500000CPRFI                                                                           
0200000014540882810000002517202210270039580021357698470010000000149986071200000001120020221101SCORPION  SL-51584000000221027RADEBE MP                     000002000000145408828104                                  21SCORPION  SL-515840000000CPRPE                                                                           
0200000014540882810000002517202210270039580021357464470010000000172240742300000001120020221101SCORPION  SL-74824200000221027VILAKAZI E                    000002000000145408828104                                  21SCORPION  SL-748242000000CPRIW                                                                           
0200000014540882810000002517202210270039580021357899470010000000162894331700000001120020221101SCORPION  SL-97203000000221027BUKHALI P                     000002000000145408828104                                  21SCORPION  SL-972030000000CPRUZ                                                                           
0200000014540882810000002517202210270039580021357665470010000000122600896600000001730020221101SCORPION  SL-42626000000221027DUBE N                        000002000000145408828104                                  21SCORPION  SL-426260000000CPROH                                                                           
0200000014540882810000002517202210270039580021357261470010000000113587239000000001120020221101SCORPION  SL-40199000000221027SITATELA L                    000002000000145408828104                                  21SCORPION  SL-401990000000CPRD9                                                                           
0200000014540882810000002517202210270039580021358184470010000000170231146300000001120020221101SCORPION  SL-15919600000221027KAMBULE S                     000002000000145408828104                                  21SCORPION  SL-159196000000CPS2W                                                                           
0200000014540882810000002517202210270039580021357893470010000000121740312200000001030020221101SCORPION  SL-94796000000221027SEFULI KC                     000002000000145408828104                                  21SCORPION  SL-947960000000CPRUT                                                                           
0200000014540882810000002517202210270039580021357389470010000000113739522000000000560020221101SCORPION  SL-40208450000221027KUTAMA M                      000002000000145408828104                                  21SCORPION  SL-402084500000CPRGT                                                                           
0200000014540882810000002517202210270039580021357252470010000000164056364200000001120020221101SCORPION  SL-40145010000221027SHUGUBE M                     000002000000145408828104                                  21SCORPION  SL-401450100000CPRD0                                                                           
0200000014540882810000002517202210270039580021358164470010000000124871232100000000560020221101SCORPION  SL-15396600000221027LUBISI S                      000002000000145408828104                                  21SCORPION  SL-153966000000CPS2C                                                                           
0200000014540882810000002517202210270039580021357502470010000000156010060300000001120020221101SCORPION  SL-27929420000221027MAHLANYA R                    000002000000145408828104                                  21SCORPION  SL-279294200000CPRJY                                                                           
0200000014540882810000002517202210270039580021357379470010000000163632613500000001120020221101SCORPION  SL-39691310000221027TSHAYINTAKA Y                 000002000000145408828104                                  21SCORPION  SL-396913100000CPRGJ                                                                           
0200000014540882810000002517202210270039580021356820470010000000111242476600000001120020221101SCORPION  SL-35125160000221027MBATSANE TE                   000002000000145408828104                                  21SCORPION  SL-351251600000CPR10                                                                           
0200000014540882810000002517202210270039580021357767470010000000160168905300000001120020221101SCORPION  SL-66671000000221027MASENYE D                     000002000000145408828104                                  21SCORPION  SL-666710000000CPRRB                                                                           
0200000014540882810000002517202210270039580021357493470010000000150322303300000000560020221101SCORPION  20531735000000221027SITHOLE P                     000002000000145408828104                                  21SCORPION  205317350000000CPRJP                                                                           
0200000014540882810000002517202210270039580021356958470010000000112417311900000001120020221101SCORPION  SL-16134030000221027RIKHOTSO J                    000002000000145408828104                                  21SCORPION  SL-161340300000CPR4U                                                                           
0200000014540882810000002517202210270039580021357973470010000000116591665500000001120020221101SCORPION  SL-11049500000221027CHIRINDZA R                   000002000000145408828104                                  21SCORPION  SL-110495000000CPRX1                                                                           
0200000014540882810000002517202210270039580021357749470010000000120331349500000001120020221101SCORPION  SL-61670000000221027SEBEKO M                      000002000000145408828104                                  21SCORPION  SL-616700000000CPRQT                                                                           
0200000014540882810000002517202210270039580021357073470010000000147264383400000001030020221101SCORPION  SL-20405423000221027LETEBA G                      000002000000145408828104                                  21SCORPION  SL-204054230000CPR81                                                                           
0200000014540882810000002517202210270039580021358231470010000000154067110900000001120020221101SCORPION  SL-17042900000221027MASEKO W                      000002000000145408828104                                  21SCORPION  SL-170429000000CPS47                                                                           
0200000014540882810000002517202210270039580021357954470010000000166375084800000001120020221101SCORPION  SL-10725700000221027MMATA FP                      000002000000145408828104                                  21SCORPION  SL-107257000000CPRWI                                                                           
0200000014540882810000002517202210270039580021356847470010000000134940534300000001120020221101SCORPION  20522348000000221027MASEKO M                      000002000000145408828104                                  21SCORPION  205223480000000CPR1R                                                                           
0200000014540882810000002517202210270039580021358212470010000000132149593300000001120020221101SCORPION  SL-16515500000221027RAMBAU NCJ                    000002000000145408828104                                  21SCORPION  SL-165155000000CPS3O                                                                           
0200000014540882810000002517202210270039580021356996470010000000129797662000000000530020221101SCORPION  20435060000000221027JACOBS S                      000002000000145408828104                                  21SCORPION  204350600000000CPR5W                                                                           
0200000014540882810000002517202210270039580021356841470010000000113854251000000001120020221101SCORPION  SL-31314430000221027BUTHELEZI L                   000002000000145408828104                                  21SCORPION  SL-313144300000CPR1L                                                                           
0200000014540882810000002517202210270039580021357098470010000000124207666000000001120020221101SCORPION  20471304000000221027MAVHANDU N                    000002000000145408828104                                  21SCORPION  204713040000000CPR8Q                                                                           
0200000014540882810000002517202210270039580021356985470010000000130077639900000000560020221101SCORPION  20460348000000221027JACK N                        000002000000145408828104                                  21SCORPION  204603480000000CPR5L                                                                           
0200000014540882810000002517202210270039580021357203470010000000126786825000000001120020221101SCORPION  SL-34233380000221027YAMANI A                      000002000000145408828104                                  21SCORPION  SL-342333800000CPRBN                                                                           
0200000014540882810000002517202210270039580021357089470010000000115416646300000001730020221101SCORPION  SL-18418900000221027NDLOVU P                      000002000000145408828104                                  21SCORPION  SL-184189000000CPR8H                                                                           
0200000014540882810000002517202210270039580021357302470010000000142410071000000001730020221101SCORPION  SL-31378110000221027MHLAMBISO M                   000002000000145408828104                                  21SCORPION  SL-313781100000CPREE                                                                           
0200000014540882810000002517202210270039580021357196470010000000158996884900000001030020221101SCORPION  SL-20406342000221027QHEKOANE D                    000002000000145408828104                                  21SCORPION  SL-204063420000CPRBG                                                                           
0200000014540882810000002517202210270039580021356891470010000000137388814600000001120020221101SCORPION  20505252000000221027SMITH CC                      000002000000145408828104                                  21SCORPION  205052520000000CPR2Z                                                                           
0200000014540882810000002517202210270039580021357431470010000000160759750900000001120020221101SCORPION  SL-39801950000221027GIANI M                       000002000000145408828104                                  21SCORPION  SL-398019500000CPRHZ                                                                           
0200000014540882810000002517202210270039580021357295470010000000165927146900000001120020221101SCORPION  20509560000000221027MADUE J                       000002000000145408828104                                  21SCORPION  205095600000000CPRE7                                                                           
0200000014540882810000002517202210270039580021357584470010000000124498490400000001120020221101SCORPION  SL-24207000000221027KHUMALO MP                    000002000000145408828104                                  21SCORPION  SL-242070000000CPRM8                                                                           
0200000014540882810000002517202210270039580021357423470010000000169362522700000000560020221101SCORPION  20479543000000221027NDLOVU P                      000002000000145408828104                                  21SCORPION  204795430000000CPRHR                                                                           
0200000014540882810000002517202210270039580021357838470010000000135715794900000001120020221101SCORPION  SL-81101000000221027YISA JS                       000002000000145408828104                                  21SCORPION  SL-811010000000CPRTA                                                                           
0200000014540882810000002517202210270039580021357038470010000000153565948100000001120020221101SCORPION  SL-12059310000221027MPHIKE S                      000002000000145408828104                                  21SCORPION  SL-120593100000CPR72                                                                           
0200000014540882810000002517202210270039580021357575470010000000115915355600000000890020221101SCORPION  SL-23345000000221027JOSEPH K                      000002000000145408828104                                  21SCORPION  SL-233450000000CPRLZ                                                                           
0200000014540882810000002517202210270039580021358075470010000000117773999000000001120020221101SCORPION  SL-13330700000221027MOFOKENG CP                   000002000000145408828104                                  21SCORPION  SL-133307000000CPRZV                                                                           
0200000014540882810000002517202210270039580021357130470010000000151240740000000001120020221101SCORPION  SL-24036690000221027MTILENI P                     000002000000145408828104                                  21SCORPION  SL-240366900000CPR9M                                                                           
0200000014540882810000002517202210270039580021357823470010000000164327481100000001120020221101SCORPION  SL-77070000000221027MATLALA EL                    000002000000145408828104                                  21SCORPION  SL-770700000000CPRSV                                                                           
0200000014540882810000002517202210270039580021358304470010000000152463933600000001120020221101SCORPION  SL-18756700000221027NDEBELE G                     000002000000145408828104                                  21SCORPION  SL-187567000000CPS68                                                                           
0200000014540882810000002517202210270039580021357236470010000000136120709200000001120020221101SCORPION  SL-38472750000221027NDLOVU C                      000002000000145408828104                                  21SCORPION  SL-384727500000CPRCK                                                                           
0200000014540882810000002517202210270039580021358065470010000000123210593500000001120020221101SCORPION  SL-13106600000221027MOYO PM                       000002000000145408828104                                  21SCORPION  SL-131066000000CPRZL                                                                           
0200000014540882810000002517202210270039580021358299470010000000115187544700000001120020221101SCORPION  SL-18708000000221027SOKUPHA SB                    000002000000145408828104                                  21SCORPION  SL-187080000000CPS63                                                                           
0200000014540882810000002517202210270039580021356875470010000000129590573400000001120020221101SCORPION  SL-39979760000221027TAUTSWANE L                   000002000000145408828104                                  21SCORPION  SL-399797600000CPR2J                                                                           
0200000014540882810000002517202210270039580021357033470010000000135638918800000001120020221101SCORPION  20517733000000221027SIBIYA T                      000002000000145408828104                                  21SCORPION  205177330000000CPR6X                                                                           
0200000014540882810000002517202210270039580021357127470010000000130428853400000001730020221101SCORPION  SL-36680980000221027RAJKUMAR N                    000002000000145408828104                                  21SCORPION  SL-366809800000CPR9J                                                                           
0200000014540882810000002517202210270039580021357227470010000000128952134200000001120020221101SCORPION  20482127000000221027NJAPHA S                      000002000000145408828104                                  21SCORPION  204821270000000CPRCB                                                                           
0200000014540882810000002517202210270039580021357337470010000000167179661400000001120020221101SCORPION  SL-39828840000221027KWESABA M                     000002000000145408828104                                  21SCORPION  SL-398288400000CPRFD                                                                           
0200000014540882810000002517202210270039580021357455470010000000141932663300000001120020221101SCORPION  20525275000000221027RICHARDS R                    000002000000145408828104                                  21SCORPION  205252750000000CPRIN                                                                           
0200000014540882810000002517202210270039580021357322470010000000112713830600000001120020221101SCORPION  SL-14314910000221027LEKGETHO G                    000002000000145408828104                                  21SCORPION  SL-143149100000CPREY                                                                           
0200000014540882810000002517202210270039580021357636470010000000155999365900000001120020221101SCORPION  SL-36916000000221027MHLANGA R                     000002000000145408828104                                  21SCORPION  SL-369160000000CPRNO                                                                           
0200000014540882810000002517202210270039580021357445470010000000131831815500000001120020221101SCORPION  20486342000000221027DLOVA A                       000002000000145408828104                                  21SCORPION  204863420000000CPRID                                                                           
0200000014540882810000002517202210270039580021357882470010000000164615709300000001120020221101SCORPION  SL-92476000000221027NDLOVU M                      000002000000145408828104                                  21SCORPION  SL-924760000000CPRUI                                                                           
0200000014540882810000002517202210270039580021356841470010000000113854251000000001120020221101SCORPION  SL-31314430000221027BUTHELEZI L                   000002000000145408828104                                  21SCORPION  SL-313144300000CPR1L                                                                           
0200000014540882810000002517202210270039580021357615470010000000165945904200000001120020221101SCORPION  SL-31631000000221027NKELENJANE MV                 000002000000145408828104                                  21SCORPION  SL-316310000000CPRN3                                                                           
0200000014540882810000002517202210270039580021358154470010000000122230703900000001120020221101SCORPION  SL-15135900000221027NKHWASHU DE                   000002000000145408828104                                  21SCORPION  SL-151359000000CPS22                                                                           
0200000014540882810000002517202210270039580021357869470010000000120042746500000001120020221101SCORPION  SL-89271000000221027MAKGOBA MR                    000002000000145408828104                                  21SCORPION  SL-892710000000CPRU5                                                                           
0200000014540882810000002517202210270039580021356813470010000000115716461500000001120020221101SCORPION  SL-37246540000221027SETWABA E                     000002000000145408828104                                  21SCORPION  SL-372465400000CPR0T                                                                           
0200000014540882810000002517202210270039580021357233470010000000166311969200000001120020221101SCORPION  SL-39617110000221027MOSIA T                       000002000000145408828104                                  21SCORPION  SL-396171100000CPRCH                                                                           
0200000014540882810000002517202210270039580021357341470010000000171772593500000001120020221101SCORPION  SL-39252950000221027DE WEE E                      000002000000145408828104                                  21SCORPION  SL-392529500000CPRFH                                                                           
0200000014540882810000002517202210270039580021357462470010000000175430733500000001120020221101SCORPION  SL-33983610000221027MASELA E                      000002000000145408828104                                  21SCORPION  SL-339836100000CPRIU                                                                           
0200000014540882810000002517202210270039580021357336470010000000167179661400000001120020221101SCORPION  SL-39828840000221027KWESABA M                     000002000000145408828104                                  21SCORPION  SL-398288400000CPRFC                                                                           
0200000014540882810000002517202210270039580021357661470010000000118769756500000001120020221101SCORPION  SL-41823000000221027SIGASA MJ                     000002000000145408828104                                  21SCORPION  SL-418230000000CPROD                                                                           
0200000014540882810000002517202210270039580021357448470010000000141477976100000001120020221101SCORPION  SL-39927000000221027JACOBS V                      000002000000145408828104                                  21SCORPION  SL-399270000000CPRIG                                                                           
0200000014540882810000002517202210270039580021357892470010000000121740312200000001120020221101SCORPION  SL-94796000000221027SEFULI KC                     000002000000145408828104                                  21SCORPION  SL-947960000000CPRUS                                                                           
0200000014540882810000002517202210270039580021356843470010000000112171782700000001120020221101SCORPION  SL-40200550000221027MASHIANOKE N                  000002000000145408828104                                  21SCORPION  SL-402005500000CPR1N                                                                           
0200000014540882810000002517202210270039580021357619470010000000121301224200000001190020221101SCORPION  SL-38300130000221027MANYEKE TM                    000002000000145408828104                                  21SCORPION  SL-383001300000CPRN7                                                                           
0200000014540882810000002517202210270039580021358162470010000000112147698600000001970020221101SCORPION  SL-15318300000221027RAMMUTLA MD                   000002000000145408828104                                  21SCORPION  SL-153183000000CPS2A                                                                           
0200000014540882810000002517202210270039580021357878470010000000135581884000000001120020221101SCORPION  SL-91716000000221027MOTHABENG JM                  000002000000145408828104                                  21SCORPION  SL-917160000000CPRUE                                                                           
0200000014540882810000002517202210270039580021357376470010000000132455002100000001120020221101SCORPION  SL-36097040000221027ADAMS NE                      000002000000145408828104                                  21SCORPION  SL-360970400000CPRGG                                                                           
0200000014540882810000002517202210270039580021356819470010000000132903313000000001120020221101SCORPION  SL-15765540000221027RAGANYA M                     000002000000145408828104                                  21SCORPION  SL-157655400000CPR0Z                                                                           
0200000014540882810000002517202210270039580021356995470010000000129797662000000000530020221101SCORPION  20435060000000221027JACOBS S                      000002000000145408828104                                  21SCORPION  204350600000000CPR5V                                                                           
0200000014540882810000002517202210270039580021358139470010000000118544209800000000560020221101SCORPION  SL-14911300000221027SEGOPOLO MK                   000002000000145408828104                                  21SCORPION  SL-149113000000CPS1N                                                                           
0200000014540882810000002517202210270039580021357490470010000000160875380600000001120020221101SCORPION  SL-40142710000221027THWALA A                      000002000000145408828104                                  21SCORPION  SL-401427100000CPRJM                                                                           
0200000014540882810000002517202210270039580021356952470010000000111194312300000001120020221101SCORPION  SL-34242000000221027KHUMALO NC                    000002000000145408828104                                  21SCORPION  SL-342420000000CPR4O                                                                           
0200000014540882810000002517202210270039580021357093470010000000114925335300000001030020221101SCORPION  SL-20409564000221027MAHLABA M                     000002000000145408828104                                  21SCORPION  SL-204095640000CPR8L                                                                           
0200000014540882810000002517202210270039580021356811470010000000147210032600000001030020221101SCORPION  SL-20411884000221027MKHOSANA D                    000002000000145408828104                                  21SCORPION  SL-204118840000CPR0R                                                                           
0200000014540882810000002517202210270039580021357738470010000000132049472000000001120020221101SCORPION  SL-59974000000221027MADUMO AK                     000002000000145408828104                                  21SCORPION  SL-599740000000CPRQI                                                                           
0200000014540882810000002517202210270039580021357071470010000000140043379500000001120020221101SCORPION  SL-23602410000221027KHOSA S                       000002000000145408828104                                  21SCORPION  SL-236024100000CPR7Z                                                                           
0200000014540882810000002517202210270039580021358224470010000000116953268100000001120020221101SCORPION  SL-16957400000221027MBATHA KC                     000002000000145408828104                                  21SCORPION  SL-169574000000CPS40                                                                           
0200000014540882810000002517202210270039580021357197470010000000158996884900000001030020221101SCORPION  SL-20406342000221027QHEKOANE D                    000002000000145408828104                                  21SCORPION  SL-204063420000CPRBH                                                                           
0200000014540882810000002517202210270039580021356922470010000000111811514500000001120020221101SCORPION  SL-14554430000221027SAWA-JAMA M                   000002000000145408828104                                  21SCORPION  SL-145544300000CPR3U                                                                           
0200000014540882810000002517202210270039580021357953470010000000166375084800000001120020221101SCORPION  SL-10725700000221027MMATA FP                      000002000000145408828104                                  21SCORPION  SL-107257000000CPRWH                                                                           
0200000014540882810000002517202210270039580021357163470010000000156425635700000000560020221101SCORPION  SL-34069110000221027NKOMONYE T                    000002000000145408828104                                  21SCORPION  SL-340691100000CPRAJ                                                                           
0200000014540882810000002517202210270039580021357061470010000000156222391500000001730020221101SCORPION  SL-19543330000221027RAMABOLU NJ                   000002000000145408828104                                  21SCORPION  SL-195433300000CPR7P                                                                           
0200000014540882810000002517202210270039580021358205470010000000147120606600000001120020221101SCORPION  SL-16315200000221027THOBEJANE EM                  000002000000145408828104                                  21SCORPION  SL-163152000000CPS3H                                                                           
0200000014540882810000002517202210270039580021357261470010000000113587239000000001120020221101SCORPION  SL-40199000000221027SITATELA L                    000002000000145408828104                                  21SCORPION  SL-401990000000CPRD9                                                                           
0200000014540882810000002517202210270039580021356840470010000000112024718500000000560020221101SCORPION  SL-29594680000221027MMUTLANE F                    000002000000145408828104                                  21SCORPION  SL-295946800000CPR1K                                                                           
0200000014540882810000002517202210270039580021357394470010000000167143192600000001730020221101SCORPION  SL-39893060000221027KHUMALO NP                    000002000000145408828104                                  21SCORPION  SL-398930600000CPRGY                                                                           
0200000014540882810000002517202210270039580021356982470010000000114111279300000001120020221101SCORPION  SL-34815700000221027SCHALK B                      000002000000145408828104                                  21SCORPION  SL-348157000000CPR5I                                                                           
0200000014540882810000002517202210270039580021357503470010000000168273135700000000530020221101SCORPION  SL-20407711000221027SIKHOVE L                     000002000000145408828104                                  21SCORPION  SL-204077110000CPRJZ                                                                           
0200000014540882810000002517202210270039580021357086470010000000117816874100000001120020221101SCORPION  SL-24913000000221027VILEM M                       000002000000145408828104                                  21SCORPION  SL-249130000000CPR8E                                                                           
0200000014540882810000002517202210270039580021357190470010000000136259005100000001120020221101SCORPION  20485509000000221027MOGATLA M                     000002000000145408828104                                  21SCORPION  204855090000000CPRBA                                                                           
0200000014540882810000002517202210270039580021357290470010000000119917123700000001030020221101SCORPION  SL-20408477000221027CIDANI E                      000002000000145408828104                                  21SCORPION  SL-204084770000CPRE2                                                                           
0200000014540882810000002517202210270039580021357419470010000000141425715300000001120020221101SCORPION  20449483000000221027MOKHELE T                     000002000000145408828104                                  21SCORPION  204494830000000CPRHN                                                                           
0200000014540882810000002517202210270039580021357279470010000000141635018500000001120020221101SCORPION  SL-19503440000221027MATLHAELA N                   000002000000145408828104                                  21SCORPION  SL-195034400000CPRDR                                                                           
0200000014540882810000002517202210270039580021357572470010000000112285670700000001120020221101SCORPION  SL-23006000000221027MOELETSI MF                   000002000000145408828104                                  21SCORPION  SL-230060000000CPRLW                                                                           
0200000014540882810000002517202210270039580021357412470010000000114659643800000001120020221101SCORPION  SL-13378300000221027BETHA O                       000002000000145408828104                                  21SCORPION  SL-133783000000CPRHG                                                                           
0200000014540882810000002517202210270039580021357814470010000000163423220600000001120020221101SCORPION  SL-75120000000221027TSHABALALA MD                 000002000000145408828104                                  21SCORPION  SL-751200000000CPRSM                                                                           
0200000014540882810000002517202210270039580021357557470010000000139876526900000001120020221101SCORPION  SL-17515000000221027MASHISHI M                    000002000000145408828104                                  21SCORPION  SL-175150000000CPRLH                                                                           
0200000014540882810000002517202210270039580021358059470010000000122783752400000001120020221101SCORPION  SL-13005800000221027MPHATHI I                     000002000000145408828104                                  21SCORPION  SL-130058000000CPRZF                                                                           
0200000014540882810000002517202210270039580021357800470010000000121376470800000001120020221101SCORPION  SL-73475000000221027ZITHA NC                      000002000000145408828104                                  21SCORPION  SL-734750000000CPRS8                                                                           
0200000014540882810000002517202210270039580021358289470010000000164621608100000001120020221101SCORPION  SL-18564600000221027MARIMA J                      000002000000145408828104                                  21SCORPION  SL-185646000000CPS5T                                                                           
0200000014540882810000002517202210270039580021356912470010000000131314385300000001120020221101SCORPION  SL-35062340000221027MORATA M                      000002000000145408828104                                  21SCORPION  SL-350623400000CPR3K                                                                           
0200000014540882810000002517202210270039580021358037470010000000132033020500000001120020221101SCORPION  SL-12316000000221027MOKOENA TM                    000002000000145408828104                                  21SCORPION  SL-123160000000CPRYT                                                                           
0200000014540882810000002517202210270039580021356874470010000000129590573400000001120020221101SCORPION  SL-39979760000221027TAUTSWANE L                   000002000000145408828104                                  21SCORPION  SL-399797600000CPR2I                                                                           
0200000014540882810000002517202210270039580021357057470010000000135903658800000001120020221101SCORPION  SL-38828250000221027DLUDLA M                      000002000000145408828104                                  21SCORPION  SL-388282500000CPR7L                                                                           
0200000014540882810000002517202210270039580021358261470010000000152204089500000000560020221101SCORPION  SL-17687700000221027MAKHUVHA F                    000002000000145408828104                                  21SCORPION  SL-176877000000CPS51                                                                           
0200000014540882810000002517202210270039580021357029470010000000154597382000000001120020221101SCORPION  20541615000000221027JAFETA L                      000002000000145408828104                                  21SCORPION  205416150000000CPR6T                                                                           
0200000014540882810000002517202210270039580021357148470010000000137645296900000001120020221101SCORPION  SL-38764540000221027MDAKA T                       000002000000145408828104                                  21SCORPION  SL-387645400000CPRA4                                                                           
0200000014540882810000002517202210270039580021356864470010000000147105069400000001030020221101SCORPION  SL-20407170000221027GAODIGWE ME                   000002000000145408828104                                  21SCORPION  SL-204071700000CPR28                                                                           
0200000014540882810000002517202210270039580021357125470010000000138559713300000001120020221101SCORPION  20532662000000221027LETCHER C                     000002000000145408828104                                  21SCORPION  205326620000000CPR9H                                                                           
0200000014540882810000002517202210270039580021357021470010000000131335751900000001120020221101SCORPION  20529089000000221027MGEDE M                       000002000000145408828104                                  21SCORPION  205290890000000CPR6L                                                                           
0200000014540882810000002517202210270039580021357226470010000000128952134200000001120020221101SCORPION  20482127000000221027NJAPHA S                      000002000000145408828104                                  21SCORPION  204821270000000CPRCA                                                                           
0200000014540882810000002517202210270039580021357115470010000000131245853200000000560020221101SCORPION  SL-40243460000221027DLULISA T                     000002000000145408828104                                  21SCORPION  SL-402434600000CPR97                                                                           
0200000014540882810000002517202210270039580021357336470010000000167179661400000001120020221101SCORPION  SL-39828840000221027KWESABA M                     000002000000145408828104                                  21SCORPION  SL-398288400000CPRFC                                                                           
0200000014540882810000002517202210270039580021357220470010000000125601918400000001120020221101SCORPION  SL-23903840000221027TOTO K                        000002000000145408828104                                  21SCORPION  SL-239038400000CPRC4                                                                           
0200000014540882810000002517202210270039580021357452470010000000177339075700000001120020221101SCORPION  SL-16626360000221027MSOMI M                       000002000000145408828104                                  21SCORPION  SL-166263600000CPRIK                                                                           
0200000014540882810000002517202210270039580021357321470010000000126255129100000001120020221101SCORPION  SL-43242000000221027NCONGWANE M                   000002000000145408828104                                  21SCORPION  SL-432420000000CPREX                                                                           
0200000014540882810000002517202210270039580021357620470010000000121301224200000001120020221101SCORPION  SL-32969000000221027MANYEKE TM                    000002000000145408828104                                  21SCORPION  SL-329690000000CPRN8                                                                           
0200000014540882810000002517202210270039580021357444470010000000131831815500000001120020221101SCORPION  20486342000000221027DLOVA A                       000002000000145408828104                                  21SCORPION  204863420000000CPRIC                                                                           
0200000014540882810000002517202210270039580021357879470010000000135581884000000001120020221101SCORPION  SL-91716000000221027MOTHABENG JM                  000002000000145408828104                                  21SCORPION  SL-917160000000CPRUF                                                                           
0200000014540882810000002517202210270039580021357614470010000000151709419200000001120020221101SCORPION  SL-31391000000221027MEKWA A                       000002000000145408828104                                  21SCORPION  SL-313910000000CPRN2                                                                           
0200000014540882810000002517202210270039580021358147470010000000131524663300000001120020221101SCORPION  SL-15043400000221027MABOTJA MP                    000002000000145408828104                                  21SCORPION  SL-150434000000CPS1V                                                                           
0200000014540882810000002517202210270039580021357868470010000000164079507100000001120020221101SCORPION  SL-89281000000221027MADUNA F                      000002000000145408828104                                  21SCORPION  SL-892810000000CPRU4                                                                           
0200000014540882810000002517202210270039580021358132470010000000132432956200000001120020221101SCORPION  SL-14764000000221027MBATHA S                      000002000000145408828104                                  21SCORPION  SL-147640000000CPS1G                                                                           
0200000014540882810000002517202210270039580021358371470010000000111270965500000001120020221101SCORPION  SL-20571700000221027KGATI I                       000002000000145408828104                                  21SCORPION  SL-205717000000CPS83                                                                           
0200000014540882810000002517202210270039580021356907470010000000137716001500000001120020221101SCORPION  SL-39260200000221027MGWATYU A                     000002000000145408828104                                  21SCORPION  SL-392602000000CPR3F                                                                           
0200000014540882810000002517202210270039580021357697470010000000111763829200000001120020221101SCORPION  SL-51303000000221027MOAHLUDI K                    000002000000145408828104                                  21SCORPION  SL-513030000000CPRPD                                                                           
0200000014540882810000002517202210270039580021357055470010000000117543253700000001120020221101SCORPION  SL-39538860000221027HILL R                        000002000000145408828104                                  21SCORPION  SL-395388600000CPR7J                                                                           
0200000014540882810000002517202210270039580021357899470010000000162894331700000001120020221101SCORPION  SL-97203000000221027BUKHALI P                     000002000000145408828104                                  21SCORPION  SL-972030000000CPRUZ                                                                           
0200000014540882810000002517202210270039580021357143470010000000135735415900000001120020221101SCORPION  SL-40095250000221027HENDRICK A                    000002000000145408828104                                  21SCORPION  SL-400952500000CPR9Z                                                                           
0200000014540882810000002517202210270039580021358184470010000000170231146300000001120020221101SCORPION  SL-15919600000221027KAMBULE S                     000002000000145408828104                                  21SCORPION  SL-159196000000CPS2W                                                                           
0200000014540882810000002517202210270039580021357247470010000000141083266800000001120020221101SCORPION  SL-33917840000221027MANGWATO F                    000002000000145408828104                                  21SCORPION  SL-339178400000CPRCV                                                                           
0200000014540882810000002517202210270039580021356978470010000000150793655700000001030020221101SCORPION  20446649000000221027SHESHEKU I                    000002000000145408828104                                  21SCORPION  204466490000000CPR5E                                                                           
0200000014540882810000002517202210270039580021356825470010000000130950729300000001120020221101SCORPION  20508108000000221027YISAKA Z                      000002000000145408828104                                  21SCORPION  205081080000000CPR15                                                                           
0200000014540882810000002517202210270039580021357374470010000000129676789000000001120020221101SCORPION  SL-39614550000221027MOETI MC                      000002000000145408828104                                  21SCORPION  SL-396145500000CPRGE                                                                           
0200000014540882810000002517202210270039580021357082470010000000113930904600000001120020221101SCORPION  SL-38936500000221027TSHABALALA R                  000002000000145408828104                                  21SCORPION  SL-389365000000CPR8A                                                                           
0200000014540882810000002517202210270039580021356963470010000000120706257800000001120020221101SCORPION  SL-40060770000221027MDITSHWA M                    000002000000145408828104                                  21SCORPION  SL-400607700000CPR4Z                                                                           
0200000014540882810000002517202210270039580021357487470010000000133907272400000000560020221101SCORPION  SL-18590980000221027SCHALK T                      000002000000145408828104                                  21SCORPION  SL-185909800000CPRJJ                                                                           
0200000014540882810000002517202210270039580021357180470010000000134679891300000000560020221101SCORPION  20488283000000221027MGXWATI P                     000002000000145408828104                                  21SCORPION  204882830000000CPRB0                                                                           
0200000014540882810000002517202210270039580021357079470010000000126084596400000001120020221101SCORPION  SL-23048550000221027LETELE M                      000002000000145408828104                                  21SCORPION  SL-230485500000CPR87                                                                           
0200000014540882810000002517202210270039580021357727470010000000148315223300000001120020221101SCORPION  SL-58327000000221027MAHLANGU TA                   000002000000145408828104                                  21SCORPION  SL-583270000000CPRQ7                                                                           
0200000014540882810000002517202210270039580021357280470010000000156681958800000001120020221101SCORPION  20530765000000221027COETZEE B                     000002000000145408828104                                  21SCORPION  205307650000000CPRDS                                                                           
0200000014540882810000002517202210270039580021357173470010000000144310041000000001030020221101SCORPION  SL-78974200000221027NTSHOLE N                     000002000000145408828104                                  21SCORPION  SL-789742000000CPRAT                                                                           
0200000014540882810000002517202210270039580021357935470010000000122156351100000001120020221101SCORPION  SL-10443500000221027MAKITLA PM                    000002000000145408828104                                  21SCORPION  SL-104435000000CPRVZ                                                                           
0200000014540882810000002517202210270039580021356864470010000000147105069400000001030020221101SCORPION  SL-20407170000221027GAODIGWE ME                   000002000000145408828104                                  21SCORPION  SL-204071700000CPR28                                                                           
0200000014540882810000002517202210270039580021357413470010000000165693818700000001120020221101SCORPION  SL-22203590000221027LUVALO M                      000002000000145408828104                                  21SCORPION  SL-222035900000CPRHH                                                                           
0200000014540882810000002517202210270039580021357268470010000000116769706300000000560020221101SCORPION  20501139000000221027RAKUMAKU P                    000002000000145408828104                                  21SCORPION  205011390000000CPRDG                                                                           
0200000014540882810000002517202210270039580021357561470010000000177533588500000001120020221101SCORPION  SL-18514000000221027MBOKAZI ZJ                    000002000000145408828104                                  21SCORPION  SL-185140000000CPRLL                                                                           
0200000014540882810000002517202210270039580021357400470010000000170761722600000001120020221101SCORPION  20513768000000221027OGANNE T                      000002000000145408828104                                  21SCORPION  205137680000000CPRH4                                                                           
0200000014540882810000002517202210270039580021357800470010000000121376470800000001120020221101SCORPION  SL-73475000000221027ZITHA NC                      000002000000145408828104                                  21SCORPION  SL-734750000000CPRS8                                                                           
0200000014540882810000002517202210270039580021357021470010000000131335751900000001120020221101SCORPION  20529089000000221027MGEDE M                       000002000000145408828104                                  21SCORPION  205290890000000CPR6L                                                                           
0200000014540882810000002517202210270039580021357537470010000000143471761300000001120020221101SCORPION  SL-13756000000221027LIPALI MD                     000002000000145408828104                                  21SCORPION  SL-137560000000CPRKX                                                                           
0200000014540882810000002517202210270039580021358039470010000000117281130800000001120020221101SCORPION  SL-12401600000221027BALOYI RB                     000002000000145408828104                                  21SCORPION  SL-124016000000CPRYV                                                                           
0200000014540882810000002517202210270039580021357115470010000000131245853200000000560020221101SCORPION  SL-40243460000221027DLULISA T                     000002000000145408828104                                  21SCORPION  SL-402434600000CPR97                                                                           
0200000014540882810000002517202210270039580021357793470010000000136767698100000001120020221101SCORPION  SL-72056000000221027DUMA MA                       000002000000145408828104                                  21SCORPION  SL-720560000000CPRS1                                                                           
0200000014540882810000002517202210270039580021358263470010000000187835127100000001120020221101SCORPION  SL-17757400000221027GABORONE T                    000002000000145408828104                                  21SCORPION  SL-177574000000CPS53                                                                           
0200000014540882810000002517202210270039580021357220470010000000125601918400000001120020221101SCORPION  SL-23903840000221027TOTO K                        000002000000145408828104                                  21SCORPION  SL-239038400000CPRC4                                                                           
0200000014540882810000002517202210270039580021357996470010000000113616355500000000560020221101SCORPION  SL-11404400000221027MONDI Z                       000002000000145408828104                                  21SCORPION  SL-114044000000CPRXO                                                                           
0200000014540882810000002517202210270039580021358254470010000000125160059800000001120020221101SCORPION  SL-17621200000221027MOKOENA L                     000002000000145408828104                                  21SCORPION  SL-176212000000CPS4U                                                                           
0200000014540882810000002517202210270039580021356861470010000000118932140600000000560020221101SCORPION  20506773000000221027SHONGWE P                     000002000000145408828104                                  21SCORPION  205067730000000CPR25                                                                           
0200000014540882810000002517202210270039580021357015470010000000133010659600000001120020221101SCORPION  SL-39819670000221027PHOKANOKA P                   000002000000145408828104                                  21SCORPION  SL-398196700000CPR6F                                                                           
0200000014540882810000002517202210270039580021357108470010000000135903009100000001120020221101SCORPION  SL-38203430000221027MSIZA B                       000002000000145408828104                                  21SCORPION  SL-382034300000CPR90                                                                           
0200000014540882810000002517202210270039580021357217470010000000115876742900000001120020221101SCORPION  SL-37073240000221027MABASO I                      000002000000145408828104                                  21SCORPION  SL-370732400000CPRC1                                                                           
0200000014540882810000002517202210270039580021357314470010000000156554648000000001120020221101SCORPION  SL-40203750000221027NQETHO R                      000002000000145408828104                                  21SCORPION  SL-402037500000CPREQ                                                                           
0200000014540882810000002517202210270039580021357438470010000000167306089500000001120020221101SCORPION  SL-39874220000221027SIYAYA T                      000002000000145408828104                                  21SCORPION  SL-398742200000CPRI6                                                                           
0200000014540882810000002517202210270039580021357303470010000000142410071000000001730020221101SCORPION  SL-31378110000221027MHLAMBISO M                   000002000000145408828104                                  21SCORPION  SL-313781100000CPREF                                                                           
0200000014540882810000002517202210270039580021357605470010000000114950209400000001120020221101SCORPION  SL-36448680000221027MOLATEDI C                    000002000000145408828104                                  21SCORPION  SL-364486800000CPRMT                                                                           
0200000014540882810000002517202210270039580021357434470010000000173598575700000001120020221101SCORPION  SL-26479120000221027APLENI W                      000002000000145408828104                                  21SCORPION  SL-264791200000CPRI2                                                                           
0200000014540882810000002517202210270039580021357863470010000000121025464400000001120020221101SCORPION  SL-87804000000221027LETUPU P                      000002000000145408828104                                  21SCORPION  SL-878040000000CPRTZ                                                                           
0200000014540882810000002517202210270039580021356825470010000000130950729300000001120020221101SCORPION  20508108000000221027YISAKA Z                      000002000000145408828104                                  21SCORPION  205081080000000CPR15                                                                           
0200000014540882810000002517202210270039580021357592470010000000128396687300000001120020221101SCORPION  SL-25743000000221027MAPETLA KP                    000002000000145408828104                                  21SCORPION  SL-257430000000CPRMG                                                                           
0200000014540882810000002517202210270039580021358103470010000000112268400000000001120020221101SCORPION  SL-14029000000221027TAUMANG M                     000002000000145408828104                                  21SCORPION  SL-140290000000CPS0N                                                                           
0200000014540882810000002517202210270039580021357839470010000000135715794900000001120020221101SCORPION  SL-81101000000221027YISA JS                       000002000000145408828104                                  21SCORPION  SL-811010000000CPRTB                                                                           
0200000014540882810000002517202210270039580021358339470010000000155578165700000001730020221101SCORPION  SL-19750000000221027RAMASHIA R                    000002000000145408828104                                  21SCORPION  SL-197500000000CPS77                                                                           
0200000014540882810000002517202210270039580021356963470010000000120706257800000001120020221101SCORPION  SL-40060770000221027MDITSHWA M                    000002000000145408828104                                  21SCORPION  SL-400607700000CPR4Z                                                                           
0200000014540882810000002517202210270039580021358076470010000000117773999000000001120020221101SCORPION  SL-13330700000221027MOFOKENG CP                   000002000000145408828104                                  21SCORPION  SL-133307000000CPRZW                                                                           
0200000014540882810000002517202210270039580021356901470010000000146506897800000000560020221101SCORPION  20475273000000221027MTSHALI P                     000002000000145408828104                                  21SCORPION  204752730000000CPR39                                                                           
0200000014540882810000002517202210270039580021357079470010000000126084596400000001120020221101SCORPION  SL-23048550000221027LETELE M                      000002000000145408828104                                  21SCORPION  SL-230485500000CPR87                                                                           
0200000014540882810000002517202210270039580021358319470010000000148277213000000001120020221101SCORPION  SL-19166900000221027ZWANE DM                      000002000000145408828104                                  21SCORPION  SL-191669000000CPS6N                                                                           
0200000014540882810000002517202210270039580021357049470010000000155547865200000001030020221101SCORPION  SL-20408597000221027ZUMA SP                       000002000000145408828104                                  21SCORPION  SL-204085970000CPR7D                                                                           
